:020000040800F2
:100000000000022081360008A9350008B13500083B
:10001000B9350008C1350008C935000800000000E6
:10002000000000000000000000000000D1350008C2
:10003000DF35000800000000ED350008FB35000842
:10004000D1360008D1360008D1360008D136000874
:10005000D1360008D1360008D1360008D136000864
:10006000D1360008D1360008D1360008D136000854
:10007000D1360008D1360008D1360008093600080C
:10008000D1360008D1360008D1360008D136000834
:10009000D1360008D1360008D1360008D136000824
:1000A000D1360008D1360008D1360008D136000814
:1000B000D1360008D1360008D1360008D136000804
:1000C000D1360008D1360008D1360008D1360008F4
:1000D0001D360008D1360008D1360008D136000898
:1000E000D1360008D1360008D1360008D1360008D4
:1000F000D1360008D1360008D1360008D1360008C4
:10010000D1360008D1360008D1360008D1360008B3
:10011000D1360008D1360008D1360008D1360008A3
:10012000D1360008D1360008D1360008D136000893
:10013000D1360008D1360008D1360008D136000883
:10014000D1360008D1360008D1360008D136000873
:10015000D1360008D1360008D1360008D136000863
:10016000D1360008D1360008D1360008D136000853
:10017000D1360008D1360008D13600080000000052
:08018000D1360008D136000859
:1001880081F0004102E000BF83F0004330B54FEA40
:1001980041044FEA430594EA050F08BF90EA020FAD
:1001A8001FBF54EA000C55EA020C7FEA645C7FEA40
:1001B800655C00F0E2804FEA5454D4EB5555B8BF63
:1001C8006D420CDD2C4480EA020281EA030382EAD4
:1001D800000083EA010180EA020281EA0303362D66
:1001E80088BF30BD11F0004F4FEA01314FF4801C39
:1001F8004CEA113102D0404261EB410113F0004F4B
:100208004FEA03334CEA133302D0524263EB430301
:1002180094EA050F00F0A780A4F10104D5F1200E9F
:100228000DDB02FA0EFC22FA05F2801841F10001FA
:1002380003FA0EF2801843FA05F359410EE0A5F1CE
:1002480020050EF1200E012A03FA0EFC28BF4CF0FF
:10025800020C43FA05F3C01851EBE37101F00045B5
:1002680007D54FF0000EDCF1000C7EEB00006EEBC2
:100278000101B1F5801F1BD3B1F5001F0CD349084C
:100288005FEA30004FEA3C0C04F101044FEA4452A3
:1002980012F5800F80F09A80BCF1004F08BF5FEA2A
:1002A800500C50F1000041EB045141EA050130BD0A
:1002B8005FEA4C0C404141EB0101013C28BFB1F51C
:1002C800801FE9D291F0000F04BF01460020B1FA67
:1002D80081F308BF2033A3F10B03B3F120020CDA3A
:1002E8000C3208DD02F1140CC2F10C0201FA0CF018
:1002F80021FA02F10CE002F11402D8BFC2F1200C7D
:1003080001FA02F120FA0CFCDCBF41EA0C01904032
:10031800E41AA2BF01EB0451294330BD6FEA04047B
:100328001F3C1CDA0C340EDC04F11404C4F1200266
:1003380020FA04F001FA02F340EA030021FA04F378
:1003480045EA030130BDC4F10C04C4F1200220FACF
:1003580002F001FA04F340EA0300294630BD21FA0D
:1003680004F0294630BD94F0000F83F4801306BFD3
:1003780081F480110134013D4EE77FEA645C18BFC7
:100388007FEA655C29D094EA050F08BF90EA020F5E
:1003980005D054EA000C04BF1946104630BD91EA56
:1003A800030F1EBF0021002030BD5FEA545C05D159
:1003B8004000494128BF41F0004130BD14F5800498
:1003C8003CBF01F5801130BD01F0004545F0FE410C
:1003D80041F470014FF0000030BD7FEA645C1ABF41
:1003E800194610467FEA655C1CBF0B46024650EA78
:1003F800013406BF52EA033591EA030F41F40021A4
:1004080030BD00BF90F0000F04BF0021704730B529
:100418004FF4806404F132044FF000054FF00001FE
:1004280050E700BF90F0000F04BF0021704730B5BF
:100438004FF4806404F1320410F0004548BF404294
:100448004FF000013EE700BF42004FEAE2014FEAE9
:1004580031014FEA02701FBF12F07F4393F07F4FC4
:1004680081F06051704732F07F4208BF704793F0C7
:100478007F4F04BF41F40021704730B54FF46074DA
:1004880001F0004521F000411CE700BF50EA0102DD
:1004980008BF704730B54FF000050AE050EA010286
:1004A80008BF704730B511F0004502D5404261EBF6
:1004B80041014FF4806404F132045FEA915C3FF437
:1004C800D8AE4FF003025FEADC0C18BF03325FEAD4
:1004D800DC0C18BF033202EBDC02C2F1200300FA85
:1004E80003FC20FA02F001FA03FE40EA0E0021FAAA
:1004F80002F11444BDE600BF70B54FF0FF0C4CF498
:10050800E06C1CEA11541DBF1CEA135594EA0C0F49
:1005180095EA0C0F00F0DEF82C4481EA030621EA84
:100528004C5123EA4C5350EA013518BF52EA0335BF
:1005380041F4801143F4801338D0A0FB02CE4FF071
:100548000005E1FB02E506F00042E0FB03E54FF0A1
:100558000006E1FB03569CF0000F18BF4EF0010E99
:10056800A4F1FF04B6F5007F64F5407404D25FEA95
:100578004E0E6D4146EB060642EAC62141EA555148
:100588004FEAC52040EA5E504FEACE2EB4F1FD0C8A
:1005980088BFBCF5E06F1ED8BEF1004F08BF5FEA08
:1005A800500E50F1000041EB045170BD06F00046BA
:1005B80046EA010140EA020081EA0301B4EB5C0467
:1005C800C2BFD4EB0C0541EA045170BD41F480115F
:1005D8004FF0000E013C00F3AB8014F1360FDEBF84
:1005E800002001F0004170BDC4F10004203C35DA60
:1005F8000C341BDC04F11404C4F1200500FA05F3E3
:1006080020FA04F001FA05F240EA020001F0004283
:1006180021F0004110EBD37021FA04F642EB0601F9
:100628005EEA430E08BF20EAD37070BDC4F10C0423
:10063800C4F1200500FA04F320FA05F001FA04F2E7
:1006480040EA020001F0004110EBD37041F10001D3
:100658005EEA430E08BF20EAD37070BDC4F12005DE
:1006680000FA05F24EEA020E20FA04F301FA05F246
:1006780043EA020321FA04F001F0004121FA04F2EE
:1006880020EA020000EBD3705EEA430E08BF20EABE
:10069800D37070BD94F0000F0FD101F000464000F8
:1006A80041EB010111F4801F08BF013CF7D041EA7A
:1006B800060195F0000F18BF704703F0004652007E
:1006C80043EB030313F4801F08BF013DF7D043EA4F
:1006D8000603704794EA0C0F0CEA135518BF95EA05
:1006E8000C0F0CD050EA410618BF52EA4306D1D18C
:1006F80081EA030101F000414FF0000070BD50EAAB
:10070800410606BF1046194652EA430619D094EA34
:100718000C0F02D150EA013613D195EA0C0F05D11E
:1007280052EA03361CBF104619460AD181EA030172
:1007380001F0004141F0FE4141F470014FF000002A
:1007480070BD41F0FE4141F4780170BD70B54FF0C5
:10075800FF0C4CF4E06C1CEA11541DBF1CEA135545
:1007680094EA0C0F95EA0C0F00F0A7F8A4EB050427
:1007780081EA030E52EA03354FEA013100F088801E
:100788004FEA03334FF0805545EA131343EA1263E7
:100798004FEA022245EA111545EA10654FEA00269C
:1007A8000EF000419D4208BF964244F1FD0404F555
:1007B800407402D25B084FEA3202B61A65EB0305B1
:1007C8005B084FEA32024FF480104FF4002CB6EB6E
:1007D800020E75EB030E22BFB61A754640EA0C00EE
:1007E8005B084FEA3202B6EB020E75EB030E22BF2E
:1007F800B61A754640EA5C005B084FEA3202B6EB6F
:10080800020E75EB030E22BFB61A754640EA9C002D
:100818005B084FEA3202B6EB020E75EB030E22BFFD
:10082800B61A754640EADC0055EA060E18D04FEABB
:10083800051545EA16754FEA06164FEAC30343EA5B
:1008480052734FEAC2025FEA1C1CC0D111F4801F28
:100858000BD141EA00014FF000004FF0004CB6E721
:1008680011F4801F04BF01430020B4F1FD0C88BFC0
:10087800BCF5E06F3FF6AFAEB5EB030C04BFB6EBCB
:10088800020C5FEA500C50F1000041EB045170BDBE
:100898000EF0004E4EEA113114EB5C04C2BFD4EBEB
:1008A8000C0541EA045170BD41F480114FF0000E6F
:1008B800013C90E645EA060E8DE60CEA135594EAEB
:1008C8000C0F08BF95EA0C0F3FF43BAF94EA0C0FEE
:1008D8000AD150EA01347FF434AF95EA0C0F7FF463
:1008E80025AF104619462CE795EA0C0F06D152EAB7
:1008F80003353FF4FDAE1046194622E750EA41069B
:1009080018BF52EA43067FF4C5AE50EA41047FF4AB
:100918000DAF52EA43057FF4EBAE12E74FF0FF3C10
:1009280006E000BF4FF0010C02E000BF4FF0010CE1
:100938004DF804CD4FEA410C7FEA6C5C4FEA430C5A
:1009480018BF7FEA6C5C1BD001B050EA410C0CBFA9
:1009580052EA430C91EA030F02BF90EA020F00200B
:10096800704710F1000F91EA030F58BF994208BF72
:1009780090422CBFD8176FEAE37040F0010070472F
:100988004FEA410C7FEA6C5C02D150EA013C07D186
:100998004FEA430C7FEA6C5CD6D152EA033CD3D0D1
:1009A8005DF8040B704700BF8446104662468C46CB
:1009B8001946634600E000BF01B5FFF7B7FF0028FE
:1009C80048BF10F1000F01BD4DF808EDFFF7F4FF27
:1009D8000CBF012000205DF808FB00BF4DF808EDB2
:1009E800FFF7EAFF34BF012000205DF808FB00BFD5
:1009F8004DF808EDFFF7E0FF94BF012000205DF8F7
:100A080008FB00BF4DF808EDFFF7CEFF94BF0120AB
:100A180000205DF808FB00BF4DF808EDFFF7C4FFA4
:100A280034BF012000205DF808FB00BF4FEA4102F7
:100A380012F5001215D211D56FF47873B3EB625228
:100A480012D94FEAC12343F0004343EA505311F04F
:100A5800004F23FA02F018BF404270474FF00000E1
:100A6800704750EA013005D111F0004008BF6FF01F
:100A7800004070474FF00000704700BF4A0011D295
:100A880012F5001211D20DD56FF47873B3EB6252E0
:100A98000ED44FEAC12343F0004343EA505323FAEC
:100AA80002F070474FF00000704750EA013002D161
:100AB8004FF0FF3070474FF00000704753B94AB904
:100AC800002908BF00281CBF4FF0FF314FF0FF304E
:100AD80000F00CB8ADF1080C6DE904CE03F07CFF12
:100AE800DDF804E0DDE9022304B07047704700BF79
:100AF80010B5054C237833B9044B13B10448AFF350
:100B080000800123237010BD1400002000000000A5
:100B1800F44C000808B5034B1BB103490348AFF375
:100B2800008008BD0000000018000020F44C0008F8
:100B380080B400AF064BD3F88830054A43F47003FD
:100B4800C2F8883000BFBD465DF8047B704700BF1F
:100B580000ED00E080B588B000AF78607B68002BBE
:100B680001D1012328E17B6893F84130DBB2002BE7
:100B780009D17B68002283F840207B68904A5A6339
:100B8800786802F0BFFA7B68022283F841207B680C
:100B98001B68DB697A68126823F47B6323F00F0310
:100BA800D3617B681B6802221A627B685B69022B2F
:100BB80060D07B68DB68002B02D110237B6101E0E9
:100BC80020237B617B689B68202B02D87B695B00B4
:100BD8007B61012001F05EFAF8607B681B69B3F560
:100BE800007F25D17B68DB68002B10D07B699B00D8
:100BF800FA68B2FBF3F213469B0013445B001A46F3
:100C08007B685B69B2FBF3F305333B611FE07B69EB
:100C1800DB00FA68B2FBF3F213469B0013445B0057
:100C28001A467B685B69B2FBF3F305333B610EE060
:100C3800FA687B69B2FBF3F213469B0013445B002E
:100C48001A467B685B69B2FBF3F305333B613B698A
:100C58005C4AA2FB0323DB083B613B6903F0010309
:100C6800BB613A69BB69D31A5B08FB61BB691B02AC
:100C7800BB6103E00223FB610023BB61FB69012B1D
:100C880002D9FB69FF2B07D97B685B6C43F0100224
:100C98007B685A6401238FE07B681A69BB6942EA62
:100CA80003017B681B68FA690A431A627B681B6840
:100CB800DB6923F47B6323F00F037A6851687A6851
:100CC800926811437A68D26811437A6892690A4334
:100CD8001A437B681B6842F40062DA617B681B6A0E
:100CE800012B61D17B68384A5A637B681B68374A95
:100CF800934201D1364B01E04FF04023DB697A681B
:100D0800126832498A4201D1314A01E04FF040224B
:100D180023F47B6323F00F03D3617B681B682B4AA2
:100D2800934201D12A4B01E04FF0402302221A627C
:100D38007B681B68254A934201D1254B01E04FF09F
:100D48004023DB697B817B685B68B3F5007F03D058
:100D58007B685B68002B03D14FF480733B6101E033
:100D680000233B613B699AB27B689B689BB2134343
:100D78009AB27B68DB689BB213439AB27B689B6923
:100D88009BB213439AB27B8913439BB243F400632B
:100D98007B817B681B680D4A934201D10C4B01E0B3
:100DA8004FF040237A89DA617B6800225A647B68B5
:100DB800012283F84120002318462037BD4680BD14
:100DC800C9100008CDCCCCCCDD110008003800409B
:100DD8000034004080B586B000AFF860B9601346B3
:100DE800FB80BB68002B02D0FB88002B01D10123BC
:100DF8008AE0FB6893F84130DBB2012B01D0022373
:100E080082E0FB6893F84030DBB2012B01D102236A
:100E18007AE0FB68012283F84020FB68032283F80C
:100E28004120FB6800225A64FB68BA685A62FB6872
:100E38001B68DB6903F007037B617B69032B02D026
:100E48007B69052B0AD1FB885B009AB2FB681A857F
:100E5800FB885B009AB2FB685A8505E0FB68FA8854
:100E68001A85FB68FA885A85FB689B6B284A1A64BE
:100E7800FB689B6B274ADA63FB689B6B264ADA643C
:100E8800FB68986BFB685B6A1946FB681B680C3348
:100E98001A46FB681B8D9BB201F0C0FB0346002B72
:100EA8000FD0FB685B6C43F00802FB685A64FB6870
:100EB800012283F84120FB68002283F840200123A7
:100EC80022E0FB68002283F84020FB681B685B680F
:100ED80003F00203002B07D1FB681B685A68FB6804
:100EE8001B6842F002025A60FB681B68DB6903F466
:100EF8008063002B07D1FB681B68DA69FB681B68F5
:100F080042F48062DA61002318461837BD4680BD76
:100F1800A70F0008650F0008C30F000880B582B04E
:100F280000AF78607B685B6B7868984700BF0837CC
:100F3800BD4680BD80B483B000AF786000BF0C3779
:100F4800BD465DF8047B704780B483B000AF78601D
:100F580000BF0C37BD465DF8047B704780B584B090
:100F680000AF78607B689B6BFB607B68DB69002B5C
:100F78000ED1FB681B685A68FB681B6822F00202E6
:100F88005A60FB6800225A85FB68012283F84120D9
:100F9800F86802F099FA00BF1037BD4680BD80B5E9
:100FA80084B000AF78607B689B6BFB60F86802F0E8
:100FB80079FA00BF1037BD4680BD80B584B000AF58
:100FC80078607B689B6BFB60FB681B685A68FB68F2
:100FD8001B6822F003025A60FB6800225A85FB68EE
:100FE80000225A86FB68012283F84120FB685B6C6B
:100FF80043F00802FB685A64F868FFF7A5FF00BFD2
:101008001037BD4680BD80B582B000AF78607B6880
:101018005B6A1A887B681B68DA607B685B6A9A1C63
:101028007B685A627B685B8D9BB2013B9AB27B6896
:101038005A857B685B8D9BB2002B0ED17B681B6841
:101048005A687B681B6822F0A0025A607B680122FC
:1010580083F84120786802F037FA00BF0837BD46A8
:1010680080BD80B582B000AF78607B681B68DA68A5
:101078007B68DB6A92B21A807B68DB6A9A1C7B68A1
:10108800DA627B685B8E9BB2013B9AB27B685A86B8
:101098007B685B8E9BB2002B0ED17B681B685A68FD
:1010A8007B681B6822F060025A607B68012283F823
:1010B80041207868FFF73EFF00BF0837BD4680BD76
:1010C80080B586B000AF78607B681B689B687B61E1
:1010D8007B6893F84130DBB2042B3AD17B6903F08B
:1010E8000103012B09D17B681B685B6803F040038F
:1010F800402B02D17868FFF7B4FF7B6903F0400307
:10110800402B26D17B681B685B6803F02003202BEB
:101118001FD17B681B685A687B681B6822F06002D5
:101128005A6000233B617B681B68DB683B617B6816
:101138001B689B683B613B697B68012283F84120FF
:101148007B685B6C43F002027B685A647868FFF73F
:10115800FBFE7B6893F84130DBB2032B36D17B6909
:1011680003F00203022B09D17B681B685B6803F05C
:101178008003802B02D17868FFF745FF7B6903F075
:101188000803082B22D17B681B685B6803F02003E7
:10119800202B1BD17B681B685A687B681B6822F070
:1011A800A0025A600023FB607B681B689B68FB6099
:1011B800FB687B68012283F841207B685B6C43F005
:1011C80004027B685A647868FFF7BEFE00BF1837D0
:1011D800BD4680BD80B588B000AF78607B681B686D
:1011E8009B68FB617B681B68924A934201D1924BD2
:1011F80001E04FF040239B68BB617B681B685B681C
:101208007B617B681B688B4A934201D18A4B01E062
:101218004FF040235B683B617B685B68B3F5007FF8
:1012280004D07B685B68002B40F09980FB6903F071
:101238000203022B07D17B6903F08003002B02D045
:10124800786800F025F9BB6903F00103012B07D189
:101258003B6903F04003002B02D0786800F0C8F91E
:10126800BB6903F04003402B3AD13B6903F02003EC
:10127800002B35D07B681B686E4A934201D16E4BB8
:1012880001E04FF040235A687B681B6869498B422C
:1012980001D1694B01E04FF0402322F060025A600F
:1012A8007B681B685A687B681B6822F0A0025A603A
:1012B8000023FB607B681B68DB68FB607B681B683E
:1012C8009B68FB60FB687B68012283F841207B6890
:1012D8005B6C43F002027B685A647868FFF734FE5F
:1012E800FB6903F00803082B40F0C3807B6903F017
:1012F8002003002B00F0BD807B681B685A687B6860
:101308001B6822F0A0025A607B681B68494A934216
:1013180001D1494B01E04FF040235A687B681B68B4
:1013280044498B4201D1444B01E04FF0402322F065
:1013380060025A600023BB607B681B689B68BB60C7
:10134800BB687B68012283F841207B685B6C43F0B3
:1013580004027B685A647868FFF7F6FD89E0BB6988
:1013680003F00203022B07D13B6903F08003002B33
:1013780002D0786800F0BEF8FB6903F00103012B86
:1013880007D17B6903F04003002B02D0786800F096
:10139800FDF8FB6903F04003402B2FD17B6903F074
:1013A8002003002B2AD07B681B685A687B681B685F
:1013B80022F060025A607B681B681E4A934201D182
:1013C8001D4B01E04FF040235A687B681B681949A0
:1013D8008B4201D1184B01E04FF0402322F0A002CC
:1013E8005A607B68012283F841207B685B6C43F07C
:1013F80002027B685A647868FFF7A6FDBB6903F0B0
:101408000803082B36D13B6903F02003002B31D0A9
:101418007B681B68074A934201D1074B01E04FF0F4
:1014280040235A687B681B6802498B4206D1024BED
:1014380006E000BF00380040003400404FF0402371
:1014480022F0A0025A607B681B685A687B681B6898
:1014580022F060025A607B68012283F841207B6891
:101468005B6C43F004027B685A647868FFF76CFD94
:1014780000E000BF00BF2037BD4680BD80B483B008
:1014880000AF786000BF0C37BD465DF8047B70473D
:1014980080B582B000AF78607B685B6A991C7A6817
:1014A80051621A887B681B68DA607B685B8D9BB227
:1014B800013B9AB27B685A857B685B8D9BB2002B97
:1014C80013D17B681B685A687B681B6822F0A002EE
:1014D8005A607B685B8E9BB2002B06D17B68012229
:1014E80083F841207868FFF7C9FF00BF0837BD4679
:1014F80080BD000080B582B000AF78607B685B6A11
:10150800991C7A68516219887B681B681D4A934246
:1015180001D11D4B01E04FF040230A46DA607B6899
:101528005B8D9BB2013B9AB27B685A857B685B8D69
:101538009BB2002B21D17B681B68124A934201D1D0
:10154800114B01E04FF040235A687B681B680D4936
:101558008B4201D10C4B01E04FF0402322F0A00256
:101568005A607B685B8E9BB2002B06D17B68012298
:1015780083F841207868FFF781FF00BF0837BD4630
:1015880080BD00BF003800400034004080B582B004
:1015980000AF78607B681B68D8687B68DB6A991C39
:1015A8007A68D16282B21A807B685B8E9BB2013BFB
:1015B8009AB27B685A867B685B8E9BB2002B13D1EC
:1015C8007B681B685A687B681B6822F060025A6057
:1015D8007B685B8D9BB2002B06D17B68012283F868
:1015E80041207868FFF74AFF00BF0837BD4680BD35
:1015F80080B582B000AF78607B681B68204A934250
:1016080001D1204B01E04FF04023D8687B68DB6AAA
:10161800991C7A68D16282B21A807B685B8E9BB211
:10162800013B9AB27B685A867B685B8E9BB2002B23
:1016380021D17B681B68124A934201D1114B01E00A
:101648004FF040235A687B681B680D498B4201D1D3
:101658000C4B01E04FF0402322F060025A607B6897
:101668005B8D9BB2002B06D17B68012283F8412059
:101678007868FFF703FF00BF0837BD4680BD00BF8D
:10168800003800400034004080B586B000AF786074
:101698007B68002B01D1012367E27B681B6803F09C
:1016A8000103002B75D0884B9B6803F00C03042BB7
:1016B8000CD0854B9B6803F00C03082B12D1824B8E
:1016C8005B6803F48003B3F5800F0BD17E4B1B6876
:1016D80003F40033002B5BD07B685B68002B57D189
:1016E800012342E27B685B68B3F5803F06D1764B05
:1016F8001B68754A43F4803313601DE07B685B68A0
:10170800B3F5A02F0CD1704B1B686F4A43F48023AC
:1017180013606D4B1B686C4A43F4803313600BE015
:10172800694B1B68684A23F480331360664B1B6857
:10173800654A23F4802313607B685B68002B13D011
:1017480001F0A6FB386108E001F0A2FB02463B6904
:10175800D31A642B01D9032307E25B4B1B6803F4FC
:101768000033002BF0D014E001F092FB386108E060
:1017780001F08EFB02463B69D31A642B01D903237F
:10178800F3E1514B1B6803F40033002BF0D100E068
:1017980000BF7B681B6803F00203002B63D04A4B31
:1017A8009B6803F00C03002B0BD0474B9B6803F09E
:1017B8000C03082B1CD1444B5B6803F48003002BFB
:1017C80016D1414B1B6803F00203002B05D07B6840
:1017D800DB68012B01D00123C7E13B4B1B6823F0D9
:1017E800F8027B681B69DB00374913430B603AE05A
:1017F8007B68DB68002B20D0344B01221A6001F093
:1018080047FB386108E001F043FB02463B69D31A05
:10181800022B01D90323A8E12B4B1B6803F0020319
:10182800002BF0D0284B1B6823F0F8027B681B695B
:10183800DB00254913430B6015E0244B00221A6096
:1018480001F026FB386108E001F022FB02463B6903
:10185800D31A022B01D9032387E11B4B1B6803F022
:101868000203002BF0D17B681B6803F00803002BF0
:1018780036D07B685B69002B16D0154B01221A60A5
:1018880001F006FB386108E001F002FB02463B6903
:10189800D31A022B01D9032367E10B4B5B6F03F0CB
:1018A8000203002BF0D01BE0094B00221A6001F064
:1018B800EFFA38610EE001F0EBFA02463B69D31A01
:1018C800022B07D9032350E10038024000004742A9
:1018D800800E4742884B5B6F03F00203002BEAD16E
:1018E8007B681B6803F00403002B00F0978000233B
:1018F800FB75814B1B6C03F08053002B0FD1002329
:10190800BB607D4B1B6C7C4A43F0805313647A4B5D
:101918001B6C03F08053BB60BB680123FB75774BDE
:101928001B6803F48073002B18D1744B1B68734A2F
:1019380043F48073136001F0ABFA386108E001F0FA
:10194800A7FA02463B69D31A022B01D903230CE1FB
:101958006A4B1B6803F48073002BF0D07B689B688C
:10196800012B06D1644B1B6F634A43F001031367D5
:101978001CE07B689B68052B0CD15F4B1B6F5E4A94
:1019880043F0040313675C4B1B6F5B4A43F001038E
:1019980013670BE0584B1B6F574A23F0010313677B
:1019A800554B1B6F544A23F0040313677B689B68ED
:1019B800002B15D001F06CFA38610AE001F068FAE2
:1019C80002463B69D31A41F28832934201D9032374
:1019D800CBE0494B1B6F03F00203002BEED014E061
:1019E80001F056FA38610AE001F052FA02463B6902
:1019F800D31A41F28832934201D90323B5E03E4B12
:101A08001B6F03F00203002BEED1FB7D012B05D1E8
:101A1800394B1B6C384A23F0805313647B689B69ED
:101A2800002B00F0A180344B9B6803F00C03082BBB
:101A38005CD07B689B69022B41D1314B00221A6034
:101A480001F026FA386108E001F022FA02463B6903
:101A5800D31A022B01D9032387E0274B1B6803F015
:101A68000073002BF0D17B68DA697B681B6A1A4324
:101A78007B685B6A9B011A437B689B6A5B08013B36
:101A88001B041A437B68DB6A1B061B4913434B6024
:101A98001B4B01221A6001F0FBF9386108E001F0E4
:101AA800F7F902463B69D31A022B01D903235CE0FC
:101AB800114B1B6803F00073002BF0D054E0104B5F
:101AC80000221A6001F0E4F9386108E001F0E0F959
:101AD80002463B69D31A022B01D9032345E0064B82
:101AE8001B6803F00073002BF0D13DE07B689B6915
:101AF800012B07D1012338E0003802400070004074
:101B0800600047421B4B5B68FB607B689B69012B4D
:101B180028D0FB6803F480027B68DB699A4221D1F4
:101B2800FB6803F03F027B681B6A9A421AD1FA6885
:101B380047F6C07313407A68526A9201934211D1F2
:101B4800FB6803F440327B689B6A5B08013B1B041B
:101B58009A4207D1FB6803F070627B68DB6A1B0658
:101B68009A4201D0012300E0002318461837BD46E9
:101B780080BD00BF0038024080B584B000AF7860F7
:101B880039607B68002B01D10123CCE0684B1B68CE
:101B980003F007033A689A420CD9654B3A68D2B207
:101BA8001A70634B1B6803F007033A689A4201D026
:101BB8000123B8E07B681B6803F00203002B20D0E8
:101BC8007B681B6803F00403002B05D0594B9B6806
:101BD800584A43F4E05393607B681B6803F008039A
:101BE800002B05D0534B9B68524A43F460439360E3
:101BF800504B9B6823F0F0027B689B684D49134368
:101C08008B607B681B6803F00103002B44D07B6862
:101C18005B68012B07D1474B1B6803F40033002B8B
:101C280019D101237FE07B685B68022B03D07B68B6
:101C38005B68032B07D13F4B1B6803F00073002B35
:101C480009D101236FE03B4B1B6803F00203002B13
:101C580001D1012367E0374B9B6823F003027B68BF
:101C68005B68344913438B6001F012F9F8600AE0AD
:101C780001F00EF90246FB68D31A41F2883293420A
:101C880001D903234FE02B4B9B6803F00C027B68C0
:101C98005B689B009A42EBD1254B1B6803F0070356
:101CA8003A689A420CD2224B3A68D2B21A70204B48
:101CB8001B6803F007033A689A4201D0012332E017
:101CC8007B681B6803F00403002B08D0194B9B6842
:101CD80023F4E0527B68DB68164913438B607B680A
:101CE8001B6803F00803002B09D0124B9B6823F4F0
:101CF80060427B681B69DB000E4913438B6000F070
:101D080021F802460B4B9B681B0903F00F030A4995
:101D1800CB5C22FA03F3094A1360094B1B68184687
:101D280001F072F8002318461037BD4680BD00BF89
:101D3800003C024000380240104D0008000000201E
:101D4800040000202DE9B04F90B000AF00237B6362
:101D58000023FB6300233B630023BB63594B9B6851
:101D680003F00C03082B0DD0082B00F2A180002BE8
:101D780002D0042B03D09BE0534BBB639BE0534B37
:101D8800BB6398E04F4B5B6803F03F037B634D4BAD
:101D98005B6803F48003002B28D04A4B5B689B09DF
:101DA80000223B627A623B6AC3F308000021474B7A
:101DB80003FB01F2002300FB03F31344434AA0FB97
:101DC8000212FA620A46BA62FA6A1344FB627B6B31
:101DD8000022BB61FA61D7E90623D7E90A01FEF7B9
:101DE8006DFE02460B461346FB6353E0354B5B68BA
:101DF8009B0900223B617A613B69C3F3080A4FF0F3
:101E0800000B52465B464FF000004FF000015901AD
:101E180041EAD261500102460B46B2EB0A0863EB75
:101E28000B094FF000024FF000034FEA891343EA11
:101E380098634FEA8812B2EB080463EB09054FF088
:101E480000024FF00003EB0043EA5473E20014462B
:101E58001D4614EB0A033B6045EB0B037B604FF018
:101E680000024FF00003D7E9004529468B022146BE
:101E780043EA915321468A02104619467B6B002299
:101E8800BB60FA60D7E90223FEF718FE02460B464C
:101E98001346FB630B4B5B681B0C03F00303013316
:101EA8005B003B63FA6B3B6BB2FBF3F3BB6302E093
:101EB800054BBB6300BFBB6B18464037BD46BDE84A
:101EC800B08F00BF003802400024F40040787D0144
:101ED80080B586B000AF786000237B6100233B614A
:101EE8007B681B6803F00103002B05D17B681B6826
:101EF80003F00403002B35D0624B00221A6000F077
:101F0800C7FF786108E000F0C3FF02467B69D31A77
:101F1800022B01D90323B0E05B4B1B6803F000637D
:101F2800002BF0D17B685B689A017B689B681B0774
:101F380055491343C1F88430524B01221A6000F00E
:101F4800A7FF786108E000F0A3FF02467B69D31A77
:101F5800022B01D9032390E04B4B1B6803F000636D
:101F6800002BF0D07B681B6803F00203002B00F005
:101F780083800023FB60444B1B6C434A43F080532F
:101F88001364414B1B6C03F08053FB60FB683F4BB1
:101F98001B683E4A43F48073136000F079FF786150
:101FA80008E000F075FF02467B69D31A022B01D9BD
:101FB800032362E0354B1B6803F48073002BF0D0D9
:101FC800314B1B6F03F440733B613B69002B2FD0EF
:101FD8007B68DB6803F440733A699A4228D02A4B3D
:101FE8001B6F23F440733B61294B01221A60284B75
:101FF80000221A60244A3B691367234B1B6F03F0C6
:102008000103012B14D100F043FF78610AE000F0CE
:102018003FFF02467B69D31A41F28832934201D9C5
:1020280003232AE0184B1B6F03F00203002BEED0AA
:102038007B68DB6803F44073B3F5407F0DD1124B26
:102048009B6823F4F8127B68DB6823F0704323F461
:1020580040730D4913438B6005E00B4B9B680A4A9C
:1020680023F4F8139360084B1A6F7B68DB68C3F39B
:102078000B03054913430B67002318461837BD4661
:1020880080BD00BF68004742003802400070004031
:10209800400E474280B487B000AF786000237B6170
:1020A80000233B610023FB600023BB607B68012B9E
:1020B8003FD1244B9B6803F40003FB60FB68002BB3
:1020C80006D0FB68B3F5000F2FD11F4B7B612FE0C3
:1020D8001C4B5B6803F48003B3F5800F08D1194BE0
:1020E8005B6803F03F03194AB2FBF3F33B6107E077
:1020F800144B5B6803F03F03154AB2FBF3F33B61F3
:10210800104BD3F884309B09C3F308023B6902FBE8
:1021180003F3BB600B4BD3F884301B0F03F00703AA
:10212800BA68B2FBF3F37B6102E000237B6100BF76
:1021380000E000BF7B6918461C37BD465DF8047B8C
:10214800704700BF003802400080BB0040787D0126
:102158000024F40080B489B000AF786039600023AF
:102168007B6100233B610023BB610023FB616BE1C2
:102178000122FB6902FA03F37B613B681B687A69F9
:1021880013403B613A697B699A4240F05A813B6847
:102198005B6803F00303012B05D03B685B6803F021
:1021A8000303022B30D17B689B68BB61FB695B0032
:1021B800032202FA03F3DB43BA691340BB613B68AD
:1021C800DA68FB695B0002FA03F3BA691343BB617F
:1021D8007B68BA699A607B685B68BB610122FB69AE
:1021E80002FA03F3DB43BA691340BB613B685B68DF
:1021F8001B0903F00102FB6902FA03F3BA691343EE
:10220800BB617B68BA695A603B685B6803F003038B
:10221800032B17D07B68DB68BB61FB695B0003227B
:1022280002FA03F3DB43BA691340BB613B689A685F
:10223800FB695B0002FA03F3BA691343BB617B686D
:10224800BA69DA603B685B6803F00303022B23D1A9
:10225800FB69DA087B68083253F82230BB61FB69F6
:1022680003F007039B000F2202FA03F3DB43BA696A
:102278001340BB613B681A69FB6903F007039B00C5
:1022880002FA03F3BA691343BB61FB69DA087B6896
:102298000832B96943F822107B681B68BB61FB6987
:1022A8005B00032202FA03F3DB43BA691340BB6104
:1022B8003B685B6803F00302FB695B0002FA03F307
:1022C800BA691343BB617B68BA691A603B685B688B
:1022D80003F44033002B00F0B4800023FB60604B14
:1022E8005B6C5F4A43F4804353645D4B5B6C03F45F
:1022F8008043FB60FB685B4AFB699B08023352F82A
:102308002330BB61FB6903F003039B000F2202FA31
:1023180003F3DB43BA691340BB617B68524A9342BB
:102328002BD07B68514A934225D07B68504A934210
:102338001FD07B684F4A934219D07B684E4A93421C
:1023480013D07B684D4A93420DD07B684C4A934228
:1023580007D07B684B4A934201D107230EE008233C
:102368000CE006230AE0052308E0042306E0032323
:1023780004E0022302E0012300E00023FA6902F0EE
:10238800030292009340BA691343BB613549FB6964
:102398009B080233BA6941F823203B4B9B68BB6119
:1023A8003B69DB43BA691340BB613B685B6803F474
:1023B8008013002B03D0BA693B691343BB61324ACF
:1023C800BB699360304BDB68BB613B69DB43BA692F
:1023D8001340BB613B685B6803F40013002B03D018
:1023E800BA693B691343BB61274ABB69D360264B73
:1023F8005B68BB613B69DB43BA691340BB613B68FF
:102408005B6803F40033002B03D0BA693B691343BC
:10241800BB611D4ABB6953601B4B1B68BB613B69B1
:10242800DB43BA691340BB613B685B6803F48033E4
:10243800002B03D0BA693B691343BB61124ABB69DD
:102448001360FB690133FB61FB690F2B7FF690AECC
:1024580000BF00BF2437BD465DF8047B704700BF4E
:1024680000380240003801400000024000040240E9
:1024780000080240000C0240001002400014024014
:1024880000180240001C0240003C014080B483B0A8
:1024980000AF78600B467B8013467B707B78002BFF
:1024A80003D07A887B689A6103E07B881A047B688A
:1024B8009A6100BF0C37BD465DF8047B7047000089
:1024C80080B586B000AF786000237B6100F0E0FC47
:1024D80038617B68002B01D1012399E07B680222D7
:1024E80083F835207B68002283F834207B681B68DA
:1024F8001A687B681B6822F001021A600FE000F07E
:10250800C7FC02463B69D31A052B08D97B682022F1
:102518005A657B68032283F83520032378E07B68BB
:102528001B681B6803F00103002BE8D17B681B685C
:102538001B687B617A69384B13407B617B685A68FA
:102548007B689B681A437B68DB681A437B681B6956
:102558001A437B685B691A437B689B691A437B68EB
:10256800DB691A437B681B6A13437A6913437B61EF
:102578007B685B6A042B07D17B68DA6A7B681B6B14
:1025880013437A6913437B617B681B687A691A6015
:102598007B681B685B697B617B6923F007037B6150
:1025A8007B685B6A7A6913437B617B685B6A042B8F
:1025B80017D17B689B6A7A6913437B617B68DB6A06
:1025C800002B0ED0786800F06FFA0346002B08D075
:1025D8007B6840225A657B68012283F835200123F5
:1025E80016E07B681B687A695A61786800F026FAF9
:1025F8000346FB607B68DB6D3F229A40FB689A606C
:102608007B6800225A657B68012283F83520002305
:1026180018461837BD4680BD3F8010F080B586B09B
:1026280000AFF860B9607A603B600023FB75FB6817
:102638009B6D3B61FB6893F83430012B01D1022379
:1026480040E0FB68012283F83420FB6893F83530BA
:10265800DBB2012B2FD1FB68022283F83520FB68FF
:1026680000225A653B687A68B968F86800F0B8F9DA
:10267800FB68DB6D3F229A403B699A60FB681B68E8
:102688001A68FB681B6842F016021A60FB681B6C2C
:10269800002B07D0FB681B681A68FB681B6842F0B0
:1026A80008021A60FB681B681A68FB681B6842F01E
:1026B80001021A6005E0FB68002283F83420022337
:1026C800FB75FB7D18461837BD4680BD80B586B0C2
:1026D80000AF78600023BB608E4B1B688E4AA2FB5C
:1026E80003239B0A7B617B689B6D3B613B691B688D
:1026F800FB607B68DB6D08229A40FB681340002B67
:102708001AD07B681B681B6803F00403002B13D0E6
:102718007B681B681A687B681B6822F004021A60D1
:102728007B68DB6D08229A403B699A607B685B6D29
:1027380043F001027B685A657B68DB6D01229A4091
:10274800FB681340002B12D07B681B685B6903F0A1
:102758008003002B0BD07B68DB6D01229A403B691C
:102768009A607B685B6D43F002027B685A657B6800
:10277800DB6D04229A40FB681340002B12D07B6863
:102788001B681B6803F00203002B0BD07B68DB6D12
:1027980004229A403B699A607B685B6D43F00402AF
:1027A8007B685A657B68DB6D10229A40FB68134092
:1027B800002B43D07B681B681B6803F00803002BC1
:1027C8003CD07B68DB6D10229A403B699A607B683D
:1027D8001B681B6803F48023002B18D07B681B68D8
:1027E8001B6803F40023002B08D17B681B6C002BAB
:1027F80024D07B681B6C786898471FE07B689B6CCB
:10280800002B1BD07B689B6C7868984716E07B6828
:102818001B681B6803F48073002B07D17B681B6857
:102828001A687B681B6822F008021A607B681B6CB8
:10283800002B03D07B681B6C786898477B68DB6D3E
:1028480020229A40FB681340002B00F08F807B68A1
:102858001B681B6803F01003002B00F087807B685F
:10286800DB6D20229A403B699A607B6893F835308B
:10287800DBB2052B36D17B681B681A687B681B683E
:1028880022F016021A607B681B685A697B681B680D
:1028980022F080025A617B681B6C002B03D17B6895
:1028A8009B6C002B07D07B681B681A687B681B68C9
:1028B80022F008021A607B68DB6D3F229A403B6970
:1028C8009A607B68012283F835207B68002283F8B0
:1028D80034207B681B6D002B7ED07B681B6D78686D
:1028E800984779E07B681B681B6803F48023002BFA
:1028F8001DD07B681B681B6803F40023002B0DD1D7
:102908007B685B6C002B31D07B685B6C7868984780
:102918002CE000BF00000020B5814E1B7B68DB6BFC
:10292800002B23D07B68DB6B786898471EE07B68B8
:102938001B681B6803F48073002B0FD17B681B682E
:102948001A687B681B6822F010021A607B680122F3
:1029580083F835207B68002283F834207B68DB6BA2
:10296800002B03D07B68DB6B786898477B685B6DCE
:10297800002B32D07B685B6D03F00103002B22D063
:102988007B68052283F835207B681B681A687B689A
:102998001B6822F001021A60BB680133BB607A69C8
:1029A8009A4207D37B681B681B6803F00103002B5E
:1029B800F2D100E000BF7B68012283F835207B68F4
:1029C800002283F834207B68DB6C002B05D07B6801
:1029D800DB6C7868984700E000BF1837BD4680BDBB
:1029E80080B485B000AFF860B9607A603B60FB687E
:1029F8001B681A68FB681B6822F480221A60FB684F
:102A08001B683A685A60FB689B68402B08D1FB68D2
:102A18001B687A689A60FB681B68BA68DA6007E026
:102A2800FB681B68BA689A60FB681B687A68DA609A
:102A380000BF1437BD465DF8047B704780B485B08D
:102A480000AF78607B681B68DBB2103B144AA2FBBE
:102A580003231B09FB60134AFB6813441B781A46BF
:102A68007B68DA65FB68032B09D97B681B6823F44C
:102A78007F7323F003031A1D7B689A6507E07B6860
:102A88001B6823F47F7323F003037A6893657B68DC
:102A98009B6D18461437BD465DF8047B704700BF30
:102AA800ABAAAAAA204D000880B485B000AF786010
:102AB8000023FB737B689B6ABB607B689B69002B68
:102AC8001FD1BB68032B56D801A252F823F000BFD0
:102AD800E92A0008FB2A0008E92A00087F2B0008D9
:102AE8007B68DB6A03F08073002B46D00123FB73FD
:102AF80043E07B68DB6AB3F1C07F40D10123FB73FD
:102B08003DE07B689B69B3F5005F21D1BB68032B6F
:102B180037D801A252F823F0312B0008372B0008D0
:102B2800312B0008492B00080123FB7330E07B6838
:102B3800DB6A03F08073002B25D00123FB7322E0AE
:102B48007B68DB6AB3F1C07F1FD10123FB731CE0F4
:102B5800BB68022B03D9BB68032B03D018E0012301
:102B6800FB7315E07B68DB6A03F08073002B0ED0E3
:102B78000123FB730BE000BF0AE000BF08E000BFC1
:102B880006E000BF04E000BF02E000BF00E000BFB5
:102B9800FB7B18461437BD465DF8047B704700BFC1
:102BA80080B485B000AF78607B6803F00703FB60F2
:102BB8000C4BDB68BB60BA684FF6FF031340BB6081
:102BC800FB681A02BB68134343F0BF6343F4003346
:102BD800BB60044ABB68D36000BF1437BD465DF8CC
:102BE800047B704700ED00E080B400AF044BDB6865
:102BF8001B0A03F007031846BD465DF8047B7047BF
:102C080000ED00E080B483B000AF0346FB7197F994
:102C18000730002B0BDBFB7903F01F02074997F9FC
:102C280007305B09012000FA02F241F8232000BFB7
:102C38000C37BD465DF8047B704700BF00E100E03B
:102C480080B483B000AF03463960FB7197F9073051
:102C5800002B0ADB3B68DAB20C4997F907301201FE
:102C6800D2B20B4483F800230AE03B68DAB2084981
:102C7800FB7903F00F03043B1201D2B20B441A761E
:102C880000BF0C37BD465DF8047B704700E100E0EB
:102C980000ED00E080B489B000AFF860B9607A60F8
:102CA800FB6803F00703FB61FB69C3F10703042B0F
:102CB80028BF0423BB61FB690433062B02D9FB69D7
:102CC800033B00E000237B614FF0FF32BB6902FA4F
:102CD80003F3DA43BB681A407B699A404FF0FF312F
:102CE8007B6901FA03F3D9437B680B401343184609
:102CF8002437BD465DF8047B7047000080B582B07C
:102D080000AF78607B68013BB3F1807F01D301237A
:102D18000FE00A4A7B68013B53600F214FF0FF30F8
:102D2800FFF78EFF054B00229A60044B07221A60BA
:102D3800002318460837BD4680BD00BF10E000E0FC
:102D480080B582B000AF78607868FFF729FF00BFD0
:102D58000837BD4680BD80B586B000AF0346B96070
:102D68007A60FB7300237B61FFF73EFF78617A6826
:102D7800B9687869FFF78EFF024697F90F30114658
:102D88001846FFF75DFF00BF1837BD4680BD80B508
:102D980082B000AF0346FB7197F907301846FFF77A
:102DA80031FF00BF0837BD4680BD80B582B000AF97
:102DB80078607868FFF7A2FF034618460837BD46D3
:102DC80080BD000080B500AF0E4B1B680D4A43F470
:102DD800007313600B4B1B680A4A43F4806313604B
:102DE800084B1B68074A43F4807313600320FFF7FE
:102DF800A7FF0F2000F008F800F016FC0023184683
:102E080080BD00BF003C024080B582B000AF786052
:102E1800124B1A68124B1B7819464FF47A73B3FB9E
:102E2800F1F3B2FBF3F31846FFF7BFFF0346002B9D
:102E380001D001230EE07B680F2B0AD800227968A5
:102E48004FF0FF30FFF787FF064A7B6813600023C7
:102E580000E0012318460837BD4680BD0000002069
:102E6800080000200400002080B400AF064B1B7847
:102E78001A46064B1B681344044A136000BFBD463C
:102E88005DF8047B704700BF080000203000002078
:102E980080B400AF034B1B681846BD465DF8047B41
:102EA800704700BF3000002080B500AFFFF78AFFF1
:102EB80000F00CF800F07AF800F0D6F800F0F4F81A
:102EC80000F016FB00F058FB00BFFDE780B594B09A
:102ED80000AF07F1200330220021184601F0DAFE86
:102EE80007F10C0300221A605A609A60DA601A61CE
:102EF8000023BB60284B1B6C274A43F080531364A4
:102F0800254B1B6C03F08053BB60BB6800237B60C0
:102F1800224B1B68214A43F4804313601F4B1B68F4
:102F280003F480437B607B6801233B624FF480336A
:102F38007B620223BB634FF48003FB6319233B646A
:102F48004FF4A8737B640223BB640423FB6407F17A
:102F580020031846FEF798FB0346002B01D000F02B
:102F68001FF80F23FB6002233B6100237B614FF4B2
:102F7800A053BB614FF48053FB6107F10C0305219B
:102F88001846FEF7F9FD0346002B01D000F008F8BB
:102F980000BF5037BD4680BD003802400070004079
:102FA80080B400AF72B600BF00BFFDE780B58AB03D
:102FB80000AF07F1140300221A605A609A60DA60C1
:102FC8001A6100233B61264B1B6B254A43F004031F
:102FD8001363234B1B6B03F004033B613B69002322
:102FE800FB601F4B1B6B1E4A43F0800313631C4B93
:102FF8001B6B03F08003FB60FB680023BB60184B6E
:103008001B6B174A43F001031363154B1B6B03F04B
:103018000103BB60BB6800237B60114B1B6B104A2C
:1030280043F0020313630E4B1B6B03F002037B6038
:103038007B68012201210B48FFF728FA01237B61F5
:103048000123BB610023FB6100233B6207F11403EA
:1030580019460448FFF77EF800BF2837BD4680BDF3
:10306800003802400000024080B582B000AF002363
:103078007B600C4B1B6B0B4A43F400131363094B27
:103088001B6B03F400137B607B68002200210F2078
:10309800FFF761FE0F20FFF77AFE00BF0837BD4635
:1030A80080BD00BF0038024080B500AF134B144A02
:1030B8001A60124B4FF400725A60104B00229A604B
:1030C8000E4B0022DA600D4B00221A610B4B4BF6B7
:1030D80080325A61094B00229A61084B0022DA615A
:1030E800064B00221A620548FDF734FD0346002B03
:1030F80001D0FFF755FF00BF80BD00BF340000209E
:103108000038004080B58EB000AF786007F1240326
:1031180000221A605A609A60DA601A6107F1140393
:1031280000221A605A609A60DA607B681B684D4A10
:10313800934240F0938001237B61C023BB6102234B
:10314800FB6107F114031846FEF7C2FE0346002B85
:1031580001D0FFF725FF00233B61434B1B6C424A1C
:1031680043F480431364404B1B6C03F480433B617E
:103178003B690023FB603C4B1B6B3B4A43F0040359
:103188001363394B1B6B03F00403FB60FB680023DC
:10319800BB60354B1B6B344A43F002031363324B5D
:1031A8001B6B03F00203BB60BB6808237B6202232E
:1031B800BB620023FB6200233B6305237B6307F1AB
:1031C800240319462948FEF7C5FF4FF4A0537B6234
:1031D8000223BB620023FB6200233B6305237B635E
:1031E80007F1240319462248FEF7B4FF214B224A6F
:1031F8001A60204B00225A601E4B40229A601D4BD9
:103208000022DA601B4B4FF480621A61194B4FF4AD
:1032180000625A61174B4FF400529A61154B4FF4F4
:103228008072DA61134B00221A62124B00225A6232
:103238001048FFF745F90346002B01D0FFF7B0FE11
:103248007B680C4A9A630B4A7B68936300220021CF
:103258002420FFF780FD2420FFF799FD00BF3837B1
:10326800BD4680BD003800400038024000080240DA
:10327800000402407C000020706002400000000052
:1032880080B584B000AF0023FB6036E0F868FDF736
:10329800B9F84FF00002224BFDF758FA02460B46E8
:1032A8001046194602460B46FCF770FF02460B46CD
:1032B8001046194616A3D3E90023FDF71DF9024667
:1032C8000B46C7E9002397ED000B00F001FA51EC1B
:1032D800100B11A3D3E90023FDF70EF902460B46A4
:1032E80010461946FDF7A2FB034619B20D4AFB68C2
:1032F80022F81310FB680133FB60FB68FF2BC5D96C
:1033080000BF00BF1037BD4680BD00BFAFF30080CF
:10331800182D4454FB21094000000000C0FFDF4085
:1033280000007040DC00002080B588B000AF7860F5
:103338007B685B02BB61BB6903F500737B61BB699A
:10334800FB6180E0484B1B681B0E484A32F813307B
:103358007B824749FB697A8A21F81320FB6901338C
:1033680043497A8A21F813203F4B1A68414B1B685E
:1033780013443D4A1360404B1B6801333E4A1360B7
:103388003D4B1A683D4B1B689A4259D33A4B002271
:103398001A603B4BFB60DFED3B6A97ED037AC6EEA4
:1033A800877AC7ED027A384B93ED007AD7ED027A27
:1033B80027EE277A354BD3ED007A77EE277A334B11
:1033C800C3ED007A314BD3ED007A9FED317AF4EEFC
:1033D800C77AF1EE10FA06DB2C4B2E4A1A602A4BFC
:1033E8002D4A1A6010E0294BD3ED007AB3EE047A27
:1033F800F4EEC77AF1EE10FA06D8244B274A1A6081
:10340800214B4FF07E521A60204B1B681846FDF77F
:103418001BF813A3D3E90023FDF798F902460B46DE
:10342800104619464FF000021D4BFDF765F802469D
:103438000B4610461946FDF721FB03460D4A13605B
:10344800FB690233FB61FA697B699A42FFF47AAF40
:1034580000BF00BF2037BD4680BD00BFAFF300806E
:10346800000000000070E740DC0A0020DC000020BB
:10347800DC020020E00A0020E40A0020E80A00201C
:1034880000606A440060F945100000200C0000202C
:103498000000FA450000FA45000080BF0000A04186
:1034A8000000F04180B582B000AF78607B681B688F
:1034B800044A934202D10020FFF736FF00BF0837C5
:1034C800BD4680BD0038004080B582B000AF78604E
:1034D8007B681B68044A934202D10120FFF724FF4E
:1034E80000BF0837BD4680BD00380040000000001E
:1034F80080B500AFFFF7C4FE174B184A1A60184B87
:103508004FF07E521A60174B00221A60164B40F299
:10351800A9321A60154B00221A604FF000001449B6
:103528000BA3D3E90023FCF7E7FF02460B4610463E
:103538001946FDF7A3FA03460E4A13600020FFF769
:10354800F3FE0120FFF7F0FE00BF80BDAFF300805F
:103558004F1BE8B4814E3B3F0C0000200000A04107
:1035680010000020E40A0020E80A0020DC0A0020FD
:103578000000F041E00A002080B500AF4FF48062FF
:1035880005490648FDF726FC0346002B01D0FFF746
:1035980007FD00BF80BD00BFDC0200203400002012
:1035A80080B400AF00BFFDE780B400AF00BFFDE707
:1035B80080B400AF00BFFDE780B400AF00BFFDE7F7
:1035C80080B400AF00BFFDE780B400AF00BFBD46C8
:1035D8005DF8047B704780B400AF00BFBD465DF85E
:1035E800047B704780B400AF00BFBD465DF8047B24
:1035F800704780B500AFFFF737FC00BF80BD000003
:1036080080B500AF0248FFF761F800BF80BD00BF7A
:103618007C00002080B500AF0248FDF77FFC00BFAA
:1036280080BD00BF3400002080B483B000AF002309
:103638007B60104B5B6C0F4A43F4804353640D4B23
:103648005B6C03F480437B607B6800233B60094B21
:103658001B6C084A43F080531364064B1B6C03F041
:1036680080533B603B6800BF0C37BD465DF8047B68
:10367800704700BF00380240DFF834D0FDF758FA31
:103688000C480D490D4A002302E0D458C4500433B5
:10369800C4188C42F9D30A4A0A4C002301E013608B
:1036A8000432A242FBD301F0FDFAFFF7FDFB70479D
:1036B800000002200000002014000020104F000825
:1036C80014000020EC0A0020FEE7000000000000C3
:1036D80051EC100B204A21F0004393421FD900B54A
:1036E8001E4A934285B008D902460B46FCF74CFDAA
:1036F80041EC100B05B05DF804FB684600F028FAB1
:1037080000F0030001289DED021B9DED000B17D072
:10371800022809D0B8B9012000F05AF9EAE79FED6C
:103728000C1B002000F054B9012000F051F953ECB3
:10373800102B03F1004300EE903A05B05DF804FB4E
:1037480000F00EF8D6E700F00BF8F0E7AFF30080D2
:103758000000000000000000FB21E93FFFFFEF7FB1
:103768002DE9F04F57EC106B27F00048B8F1795F5E
:103778005BEC11AB85B071D230463946FDF756F98E
:10378800002800F0F48032463B4630463946FCF7C4
:10379800B3FE79A3D3E9002304460D46FCF7ACFE3B
:1037A80077A3D3E90023FCF7F1FC22462B46FCF76C
:1037B800A3FE75A3D3E90023FCF7E6FC22462B46BB
:1037C800FCF79AFE72A3D3E90023FCF7DFFC22463C
:1037D8002B46FCF791FE70A3D3E90023FCF7D4FC39
:1037E80022462B46FCF788FE6DA3D3E90023FCF79D
:1037F800CDFC22462B46FCF77FFECDE900016E4B3F
:10380800002220462946FCF777FEDDE900238046A2
:10381800894620462946FCF76FFE44464D468046B9
:10382800894652465B4630463946FCF765FE0246F5
:103838000B4640464946FCF7A7FC02460B46204685
:103848002946FCF7A1FC02460B4600205B49FCF721
:103858009BFC41EC100B05B0BDE8F08F32463B46AF
:1038680030463946FCF748FE43A3D3E90023044613
:103878000D46FCF741FE42A3D3E90023FCF786FC82
:1038880022462B46FCF738FE3FA3D3E90023FCF77A
:103898007BFC22462B46FCF72FFE3DA3D3E90023F1
:1038A800FCF774FC22462B46FCF726FE3AA3D3E924
:1038B8000023FCF769FC22462B46FCF71DFE38A3C3
:1038C800D3E90023FCF762FC2B462246FCF714FEE2
:1038D8003B4B9845CDE9000191D93A4B98453DD8E5
:1038E800A8F5001300223549002090469946FCF7B8
:1038F8004BFCCDE90201304B002220462946FCF75B
:10390800FBFD42464B46FCF73FFCDDE900238046C1
:10391800894620462946FCF7EFFD44464D46804639
:10392800894652465B4630463946FCF7E5FD024675
:103938000B4640464946FCF727FC02460B46204604
:103948002946FCF721FC02460B46DDE90201FCF79B
:103958001BFC41EC100B05B0BDE8F08F9FED127B0E
:10396800DFF864908DED027B4FF00008C3E79FED10
:10397800100B05B0BDE8F08FD43888BEE9FAA8BDB1
:10398800C4B1B4BD9EEE213EAD529C804F7E923EA6
:103998009015CB19A001FA3E7751C1166CC1563F5C
:1039A8004C5555555555A53F000000000000E73F10
:1039B800000000000000F03F0000E03F0000F03F82
:1039C8003233D33F0000E93F0000D23F000000003F
:1039D8002DE9F04F55EC104B25F0004385B0B3F1BD
:1039E800795F8DED001B804606D220462946FDF7FB
:1039F8001DF8002800F08A8022462B4620462946DA
:103A0800FCF77AFD06460F4632463B4620462946D5
:103A1800FCF772FD43A3D3E9002382468B46304668
:103A28003946FCF769FD41A3D3E90023FCF7ACFB59
:103A380032463B46FCF760FD3EA3D3E90023FCF782
:103A4800A5FB32463B46FCF757FD3CA3D3E90023D0
:103A5800FCF79AFB32463B46FCF74EFD39A3D3E907
:103A68000023FCF793FBCDE90201B8F1000F35D034
:103A7800DDE900012A4B0022FCF73EFDDDE90223C7
:103A88008046894650465946FCF736FD02460B46A5
:103A980040464946FCF778FB32463B46FCF72CFD8E
:103AA800DDE90023FCF770FB1BA3D3E900230646DE
:103AB8000F4650465946FCF71FFD02460B46304656
:103AC8003946FCF763FB02460B4620462946FCF7BD
:103AD8005BFB41EC100B05B0BDE8F08F02460B46CE
:103AE80030463946FCF708FD0BA3D3E90023FCF761
:103AF8004BFB52465B46FCF7FFFC22462B46FCF785
:103B080045FB41EC100B05B0BDE8F08F45EC104BC0
:103B180005B0BDE8F08F00BF495555555555C53F0F
:103B28000000E03F7CD5CF5A3AD9E53DEB9C2B8A83
:103B3800E6E55A3E7DFEB157E31DC73ED561C11982
:103B4800A0012A3FA6F810111111813F00000000C2
:103B58002DE9F04F53EC102B874923F000458D4297
:103B680091B0044640F28E8084498D421E462AD880
:103B7800002E1046194676A3D3E9002340F3A88106
:103B8800FCF702FB7E4B9D4206460F4600F08B80F9
:103B980071A3D3E90023FCF7F7FA80468946424629
:103BA8004B4630463946FCF7EFFA6BA3D3E90023BE
:103BB800FCF7EAFAC4E90089C4E90201012738469A
:103BC80011B0BDE8F08F6F498D4240F286806E4992
:103BD8008D425FD84FEA255AAAF2164AA5EB0A5138
:103BE800104690468946FCF721FFFCF71BFC02466D
:103BF8000B4640464946CDE90A23FCF7C5FA634B14
:103C08000022FCF779FC89468046FCF70FFFFCF799
:103C180009FC02460B4640464946CDE90C23FCF711
:103C2800B3FA5A4B0022FCF767FCCDE90E0110AF3E
:103C380003254FF000084FF0000977E902014246DA
:103C48004B46AB46013DFCF7BFFE0028F5D1504B73
:103C580001930223009352465B4621460AA800F0CE
:103C680093F9002E0746AADA6168226801F1004339
:103C7800E168C4E90023A26801F10043C4E9022312
:103C880047429CE70020002184ED000BC4E90201B3
:103C9800002794E710461946FCF776FAC4E90201B2
:103CA800C4E90001F4E72EA3D3E90023FCF76CFA7A
:103CB8002DA3D3E9002306460F46FCF765FA804694
:103CC800894642464B4630463946FCF75DFA26A3FC
:103CD800D3E90023FCF758FA6CE700F04BF959ECEC
:103CE800108B23A3D3E9002340464946FCF704FC84
:103CF800284B0022FCF74AFAFCF798FE0746FCF727
:103D080091FB02460B46CDE9042311A3D3E9002316
:103D1800FCF7F2FB02460B4640464946FCF734FAEC
:103D28000DA3D3E9002382468B46DDE90401FCF7A5
:103D3800E3FB1F2FCDE9020130DC174B7A1E53F845
:103D48002230AB422AD002460B469DE0AFF30080FA
:103D580000004054FB21F93F3163621A61B4D03D41
:103D68000000601A61B4D03D7370032E8A19A33B1A
:103D780083C8C96D305FE43FFB21E93F7BD902402E
:103D8800FB21F93FFB213941FFFFEF7F0000704124
:103D9800A84D00080000E03F284D0008DDE9022397
:103DA80050465946FCF7F0F92B150793C1F30A530F
:103DB800C3EB1553102B804689466BDD64A3D3E90A
:103DC8000023DDE90401FCF797FB8046894642465B
:103DD8004B4650465946FCF7D7F902460B46504623
:103DE8005946CDE9082392469B46FCF7CDF9424651
:103DF8004B46FCF7C9F958A3D3E900238046894606
:103E0800DDE90401FCF778FB42464B46FCF7BCF9B8
:103E180002460B4650465946CDE90223FCF7B4F951
:103E2800079AC1F30A53D31A312B804689464CDDD1
:103E38004CA3D3E90023DDE90401FCF75DFB8046D0
:103E4800894642464B4650465946FCF79DF98246FC
:103E58008B4652465B46DDE90801FCF795F9424678
:103E68004B46FCF791F941A3D3E9002380468946E4
:103E7800DDE90401FCF740FB42464B46FCF784F9B8
:103E880002460B46CDE9022350465946FCF77CF919
:103E98008046894642464B46C4E900895046594601
:103EA800FCF772F9DDE90223FCF76EF9002EC4E98C
:103EB8000201BFF684AE09F10043C4E9008301F1B1
:103EC8000043C4E902037F4279E6DDE908ABE1E794
:103ED800FCF75CF9224B9D4206460F4618D01AA300
:103EE800D3E90023FCF752F98046894642464B46FF
:103EF80030463946FCF748F913A3D3E90023FCF709
:103F080045F9C4E90089C4E902014FF0FF3756E6D4
:103F18000FA3D3E90023FCF739F90FA3D3E9002352
:103F280006460F46FCF732F98046894642464B461C
:103F380030463946FCF728F907A3D3E90023FCF7F4
:103F480025F9DEE7AFF300803163621A61B4D03D32
:103F58000000601A61B4D03D7370032E8A19A33B28
:103F6800FB21F93F0000002E8A19A33BC1492025F7
:103F78009A837B3951EC100B024621F0004343EC45
:103F8800102B7047000000002DE9F04FADF5197DAA
:103F98009C460B91BD4BA299049053F82130059390
:103FA80012F1140F0CF1FF330393C0F2AD82B8493C
:103FB800D31E81FB0301DB17C3EBA1030893013375
:103FC800A3EB8303DB00D618089A039BD41A059A3F
:103FD800D7181DD40137DDF88CA2274420AD4FF047
:103FE80000084FF00009E34608E05AF82400FCF7FF
:103FF80019FA0134BC42E5E8020108D0002CF4DAD1
:10400800013440464946BC42E5E80201F6D1DC46A7
:10401800059B002BB8BF4FEACC0738DB20AB03EB7E
:10402800CC0A059BDDF80C90029663444FEACC0756
:104038000093049BCDE906C70DF5E07B03EBCC08A4
:104048004B46D9469B46039B002BC0F2A281049E97
:1040580057460024002577E90223F6E80201FCF719
:104068004BFA02460B4620462946FCF78FF8464590
:1040780004460D46EFD1009B0BF1010B9B45E9E887
:1040880002450AF1080ADED1DDE906C7029E049B53
:10409800059A009203EB070B0CAB03EB8203043B7E
:1040A80009930CAB03EB8207CDF828C0009A98ABB4
:1040B80003EBC203002A53E928454FEAC2082CDD66
:1040C8000DF5E07AD0440DF1300902960697714B50
:1040D800002220462946FCF70FFAFCF7A7FCFCF75C
:1040E800A1F96D4B002206460F46FCF705FA024679
:1040F8000B4620462946FCF747F8FCF797FC78E979
:10410800022349F8040B39463046FCF73FF8D045FE
:1041180004460D46DBD1029E069F45EC104B304607
:1041280000F04AFB55EC104B00224FF07F5320461D
:104138002946FCF7E1F941EC100B00F0C9FB574B9D
:1041480051EC100B0022FCF7D7F902460B4620462B
:104158002946FCF719F80D460446FCF767FC824629
:10416800FCF760F902460B4620462946FCF70CF896
:10417800002E8046894640F39380009B0CAA581E67
:10418800C6F1180352F8202042FA03F404FA03F3A4
:10419800D21AC6F117010CAB42FA01F5002D43F80B
:1041A8002020A24400F3DC80002200234046494638
:1041B800FCF70AFC002800F05782009B059A9342FE
:1041C8000CDD0CAA02EB8303002253F8041DBB424A
:1041D80042EA0102F9D1002A40F0DE80059B0CAAD0
:1041E800013B52F82330002B40F0CE80099A01237E
:1041F80052F8041D01330029FAD0009A1344013201
:10420800914600990A9802930144089802EB000A23
:104218000AF1804AA3980AF1FF3A00EB8A0A20A81B
:1042280000EBC108CDE9066770A901EBC202009254
:104238005AF8040FFCF7F6F8039B002BE8E8020194
:1042480020DB049E47460024002577E90223F6E890
:104258000201FCF751F902460B4620462946FBF7B6
:1042680095FF5E4504460D46EFD1009BE3E8024505
:104278000093029B09F101099945D9DDDDE906673B
:10428800009313E700240025EFE700BFF04E000875
:10429800ABAAAA2A0000703E00007041000020402E
:1042A80055D1009B0CAA013B52F82350ED15002D67
:1042B8007FF77AAF009B002B0AF1010A40F3438293
:1042C8000CAB002253F8044B002C3BD0C4F1807493
:1042D80043F8044C6FF07F40009C03E01968411AD2
:1042E80043F8041B01329442F8DC0124002E0DDD52
:1042F800012E3ED0022E09D1009B5A1E0CAB0CA9F0
:1043080053F82230C3F3150341F82230022D7FF40D
:104318004BAF42464B4694490020FBF735FF804699
:104328008946002C3FF440AF30469FED8D0B00F0DE
:1043380043FA4046494653EC102BFBF725FF8046CD
:10434800894631E7009901329142BBDCCEE7874BC1
:104358000022FCF757FB002840F0C480054623E7FD
:10436800009B002B0AF1010AD8BF0024A8DC012E0B
:10437800C0D1009B5A1E0CAB0CA953F82230C3F3D2
:10438800160341F82230C1E7009B5A1C9146134698
:1043980037E7002400256EE6009A0CAB541ECDE9E1
:1043A800035A53F82430183E5BB902F18043013BAD
:1043B8000CAA02EB830353F8042D013C183E002A93
:1043C800F9D030469FED660B00F0F6F9002C57EC5B
:1043D800106BC0F2C48104F1010A0CAB03EB8A052F
:1043E8004FEACA0270ABDFF8889103EBCA0A4FF0B4
:1043F8000008934655F8040DFCF714F832463B467E
:10440800FCF77AF84B466AE90201424630463946DB
:10441800FCF772F80CAB9D4206460F46EAD1ABF1A9
:10442800080370A95A4601EB030A0DF590784FF07E
:104438000009CDE9064243465246A346CA46DDF87E
:104448001490CDF81480B9F1000FC0F28380DFF822
:10445800248100931746002600240025029201E0DB
:10446800564510DCF7E80223F8E80201FCF744F8A7
:1044780002460B4620462946FBF788FE0136B14521
:1044880004460D46ECDA009B029A0BF1FF3BBBF1A8
:10449800FF3FE3E802450AF1010AA2F10802D2D17E
:1044A800A29BDDF81480022BDDE9064264DC002BB8
:1044B8002FDC10D108EB02040020002174E902234C
:1044C800FBF764FE4445F9D1039B002B40F037818C
:1044D8000B9BC3E90001049B03F007000DF5197D50
:1044E800BDE8F08F009B002B0AF1010AC8BF022526
:1044F8003FF7E6AE42464B461B490020FBF744FE19
:104508000225804689464FE600216FF0170308917F
:1045180059E508EB02050026002775E90223304615
:104528003946FBF733FE454506460F46F5D13B466F
:10453800D5E900013246FBF727FE039B002B00F06C
:10454800E2800B9D07F10043C5E90063002C40F0B1
:10455800DE80E7E00024002597E700BFAFF3008086
:10456800000000000000F03F0000F03F0000E03FC6
:104578000000703EB04E0008A29B032BABD1002C6C
:1045880000F0FD8008EBC4054FEAC40AD5E90067CE
:10459800CDE905A50095A946029479E9024530467A
:1045A800394622462B46FBF7F1FDB246BB46064686
:1045B8000F4632463B4620462946FBF7E5FD524664
:1045C8005B46FBF7E3FDC145C9E90201C9E900679C
:1045D800E3D1029C012CDDE905A500F0D080D5E9E6
:1045E8000045009E08F1080B474676E902892046F7
:1045F800294642464B46CDE90045FBF7C7FD044630
:104608000D4622462B4640464946FBF7BDFDDDE9EF
:104618000023FBF7BBFDB345C6E90201C6E9004527
:10462800E3D10AF10804B8463C4407F1100500201C
:10463800002174E90223FBF7A9FDA542F9D1039BE8
:10464800D8E90067D8E90245002B47D10B9BC3E99D
:104658000401C3E90067C3E90245049B03F00700AE
:104668000DF5197DBDE8F08F704249EC108BCDE94E
:10467800035A00F0A1F855EC104B4B4B0022204692
:104688002946FCF7BFF9F8B1484B002220462946D5
:10469800FBF732FFFCF7CAF90746FBF7C3FE424BAC
:1046A8000022FBF729FF02460B4620462946FBF766
:1046B8006BFDFCF7BBF9009B0CAA5C1C42F82300BD
:1046C800183642F824707CE620462946FCF7AEF9F5
:1046D800009B0CAA1C4642F8230072E632460B9E49
:1046E80007F10043C6E9002305F10043C6E9024388
:1046F80001F10043C6E90403049B03F007000DF52C
:10470800197DBDE8F08F0B9BC3E900676CB14AAE19
:104718000125F6E802230135FBF738FDAC42F8DA4B
:10472800039B13B101F1004319460B9BC3E9020136
:10473800049B03F007000DF5197DBDE8F08F01F12A
:1047480000431946C4E6022D7FF42EAD02460B46FF
:1047580000201749FBF718FD8046894624E5A29BEF
:10476800022B06DC002B0DDC7FF4B5AE0020002107
:10477800AAE6A29B032B7FF4AEAE0DF5907800203D
:1047880000215CE7039BDDE9480133B10B9C002263
:104798004FF00043C4E90023C4E70B9C0022002328
:1047A800C4E90023C1E700BF000070410000703E6B
:1047B8000000F03F0000000070B555EC104BC5F349
:1047C8000A5206462B4672BB25F00043234329D0E4
:1047D8003B4B204629460022FBF78EFE394B9E4272
:1047E80004460D4652DBC1F30A520B46363A4CF2E8
:1047F80050318E4223DC164440F2FE7296421EDC93
:10480800002E34DC16F1350F38DB6FF31E533636C5
:1048180043EA065520462C4B29460022FBF76CFE3E
:1048280041EC100B70BD40F2FF718A42DFD1224685
:1048380020462946FBF7AAFC41EC100B70BD002D61
:1048480017A1D1E9000107DB15A3D3E90023FBF782
:1048580053FE41EC100B70BD13A1D1E9000110A368
:10486800D3E90023FBF748FE41EC100BF3E76FF3A5
:104878001E5343EA065545EC104B70BD002D0CA1A4
:10488800D1E9000102DA0CA1D1E9000108A3D3E9BA
:104898000023FBF731FE41EC100B70BDAFF3008035
:1048A8009C7500883CE4377E9C7500883CE437FEA4
:1048B80059F3F8C21F6EA50159F3F8C21F6EA581FE
:1048C80000005043B03CFFFF0000903C0000000097
:1048D80051EC100BC1F30A532DE9F041A3F2FF3557
:1048E800132D0C46064632DC002D20DB384B43FAEC
:1048F80005F801EA080303430F462DD032A3D3E994
:104908000023FBF743FC00220023FCF785F840B1A5
:10491800002C03DA4FF480132B411F4427EA0804C4
:1049280000262346324643EC102BBDE8F08126A32F
:10493800D3E90023FBF72AFC00220023FCF76CF8DC
:104948000028EED0002C2ADB00263446E9E7332D78
:1049580006DDB5F5806F1BD041EC100BBDE8F0818A
:10496800A3F213434FF0FF37DF400742F4D016A3FA
:10497800D3E90023FBF70AFC00220023FCF74CF8DC
:104988000028CED0002C334610DB23EA0706C8E700
:1049980002460B46FBF7FAFB41EC100BDEE724F06E
:1049A800004426430DD14FF00044BAE7142D06D039
:1049B800C5F134050122AA401344B342E5D20134BB
:1049C800E3E7044C0026ACE79C7500883CE4377E9E
:1049D800FFFF0F000000F0BF2DE9F047089D0E46CD
:1049E80004460F46002B4AD194468C45B2FA82F20F
:1049F80060D942B1C2F12003974020FA03F30CFAC0
:104A080002FC1F4394404FEA1C4E1FFA8CF6B7FB7A
:104A1800FEF1230C0EFB117743EA074301FB06F076
:104A280098420AD91CEB030301F1FF3780F0158186
:104A3800984240F21281023963441B1AA4B2B3FBB4
:104A4800FEF00EFB103344EA034400FB06F6A642D0
:104A58000AD91CEB040400F1FF3380F00081A64260
:104A680040F2FD806444023840EA0140A41B002162
:104A78001DB1D4400023C5E90043BDE8F0878B424F
:104A880005D90DB1C5E9000100210846F5E7B3FADB
:104A980083F1002946D1B34202D3824200F2F58065
:104AA800841A66EB030201201746002DE5D0C5E9FC
:104AB8000047E2E7002A40F09380A1EB0C034FEA9D
:104AC8001C471FFA8CFE0121B3FBF7F607FB1630D3
:104AD800230C43EA00430EFB06F0984208D91CEB6E
:104AE800030306F1FF3802D2984200F2D08046460E
:104AF8001B1AA4B2B3FBF7F007FB103344EA0344D4
:104B08000EFB00FEA64508D91CEB040400F1FF3398
:104B180002D2A64500F2B6801846A4EB0E0440EA7D
:104B28000640A5E7C1F120078B4022FA07FC4CEAB2
:104B3800030C06FA01FE20FA07F426FA07F344EA02
:104B48000E0400FA01F84FEA1C404FEA1449B3FB7F
:104B5800F0FE1FFA8CF600FB1E3349EA03430EFBF6
:104B680006F9994502FA01F20BD91CEB03030EF181
:104B7800FF3A80F08580994540F28280AEF1020EBE
:104B88006344A3EB0909A4B2B9FBF0F300FB139942
:104B980044EA094403FB06F6A64208D91CEB0404C0
:104BA80003F1FF3068D2A64266D9023B644443EA67
:104BB8000E40A41BA0FB02E6B4427346B14652D392
:104BC8004FD05DB1B8EB030264EB090404FA07F7B0
:104BD80022FA01F31F43CC40C5E9007400214CE7D9
:104BE800C2F1200120FA01F30CFA02FC26FA01F1C5
:104BF800964033434FEA1C471FFA8CFEB1FBF7F08F
:104C080007FB1016190C41EA064100FB0EF68E420E
:104C180004FA02F408D91CEB010100F1FF382DD287
:104C28008E422BD902386144891B9BB2B1FBF7F63F
:104C380007FB161143EA014306FB0EF1994208D916
:104C48001CEB030306F1FF3814D2994212D9023E35
:104C580063445B1A46EA004136E73946EDE61846F2
:104C680002E7F045ADD2BEEB020366EB0C06013855
:104C7800B146A6E74646ECE7034698E74046D3E741
:104C8800D6467EE76444023847E708460DE7023E09
:104C980063442DE702440346934200D1704703F86A
:104CA800011BF9E770B50D4D0D4C641BA4100026CF
:104CB800A64209D10B4D0C4C00F018F8641BA41047
:104CC8000026A64205D170BD55F8043B9847013629
:104CD800EEE755F8043B98470136F2E7084F00081D
:104CE800084F0008084F00080C4F0008F8B500BF2F
:104CF800F8BC08BC9E467047F8B500BFF8BC08BCB5
:044D08009E4670470C
:104D1000000000000000000001020304060708096B
:104D20000006101600061016FB21F93FFB21094072
:104D30007CD91240FB2119407A6A1F407CD922405D
:104D4000BBFD2540FB2129403A462C407A6A2F4082
:104D50005C4731407CD932409C6B3440BBFD3540D0
:104D6000DB8F3740FB2139401BB43A403A463C4088
:104D70005AD83D407A6A3F404C7E40405C474140B3
:104D80006C1042407CD942408CA243409C6B444012
:104D9000AC344540BBFD4540CBC64640DB8F474069
:104DA000EB584840FB21494083F9A200444E6E0075
:104DB000FC291500D1572700DD34F50062DBC00067
:104DC0003C999500419043006351FE00BBDEAB006F
:104DD000B761C5003A6E2400D24D42004906E0009A
:104DE00009EA2E001C92D100EB1DFE0029B11C0027
:104DF000E83EA700F535820044BB2E009CE9840004
:104E0000B4267000417E5F00D6913900538339008B
:104E10009CF439008B5F840028F9BD00F81F3B002B
:104E2000DEFF97000F980500112FEF000A5A8B0044
:104E30006D1F6D00CF7E360009CB2700464FB700AF
:104E40009E663F002DEA5F00BA277500E5EBC700BC
:104E50003D7BF100F739070092528A00FB6BEA00B4
:104E60001FB15F00085D8D00300356007BFC4600DB
:104E7000F0AB6B0020BCCF0036F49A00E3A91D0014
:104E80005E619100081BE60085996500A0145F0033
:104E90008D40680080D8FF0027734D000606310062
:104EA000CA561500C9A873007BE260006B8CC00075
:104EB00000000040FB21F93F000000002D44743E3B
:104EC000000000809846F83C0000006051CC783B20
:104ED00000000080831BF0390000004020257A3854
:104EE000000000802282E336000000001DF36935D7
:104EF00002000000030000000400000006000000A3
:084F0000E0FAFF7F0100000050
:044F08001D0B000875
:044F0C00F90A000896
:104F10000024F40010000000010000000000A04187
:044F20000000803FCE
:040000050800368138
:00000001FF
