:020000040800F2
:10000000C80600243903000823160008FD13000861
:1000100021160008670400080B1D000800000000FE
:10002000000000000000000000000000B7170008FA
:100030006904000800000000B5170008B91700089F
:100040005703000857030008570300085703000828
:100050005703000857030008570300085703000818
:100060005703000857030008570300085703000808
:1000700057030008570300085703000857030008F8
:1000800057030008570300085703000857030008E8
:1000900057030008570300085703000857030008D8
:1000A00057030008570300085703000857030008C8
:1000B00057030008570300085703000857030008B8
:1000C00057030008570300085703000857030008A8
:1000D0005703000857030008570300085703000898
:1000E00057030008570300080000000057030008EA
:1000F0005703000857030008570300085703000878
:100100005703000857030008570300085703000867
:100110005703000857030008570300085703000857
:100120005703000857030008570300085703000847
:100130005703000857030008570300085703000837
:1001400000000000000000000000000000000000AF
:100150005703000857030008570300085703000817
:100160005703000857030008570300085703000807
:100170005703000857030008570300080000000059
:1001800057030008570300085703000857030008E7
:1001900057030008570300085703000857030008D7
:1001A00057030008570300085703000857030008C7
:1001B00057030008570300085703000857030008B7
:1001C00057030008570300085703000857030008A7
:1001D0005703000857030008570300085703000897
:1001E0005703000857030008570300085703000887
:1001F0005703000857030008570300085703000877
:100200005703000857030008570300085703000866
:100210005703000857030008570300085703000856
:1002200057030008570300085703000800000000A8
:100230005703000857030008000000005703000898
:100240005703000857030008570300085703000826
:100250005703000857030008570300085703000816
:100260005703000857030008570300085703000806
:100270005703000857030008570300080000000058
:100280005703000857030008570300080000000048
:10029000000000005703000800F002F800F03CF8EE
:1002A0000AA090E8000C82448344AAF10107DA45D1
:1002B00001D100F031F8AFF2090EBAE80F0013F0E7
:1002C000010F18BFFB1A43F001031847EC1C000094
:1002D0000C1D0000103A24BF78C878C1FAD8520724
:1002E00024BF30C830C144BF04680C6070470000B0
:1002F0000023002400250026103A28BF78C1FBD82F
:10030000520728BF30C148BF0B6070471FB501F0CE
:100310003EFE1FBD10B510BD00F070F81146FFF78E
:10032000F5FF01F0BDFD00F08EF803B4FFF7F2FF1A
:1003300003BC00F091F800000A4880470A48804753
:100340000A480047FEE7FEE7FEE7FEE7FEE7FEE7B6
:10035000FEE7FEE7FEE7FEE705480649064A074BCB
:100360007047000075040008791800089902000819
:10037000C8000024C8060024C8020024C8020024C3
:100380004FF0000200B5134694469646203922BF2E
:10039000A0E80C50A0E80C50B1F12001BFF4F7AF79
:1003A000090728BFA0E80C5048BF0CC05DF804EB5B
:1003B000890028BF40F8042B08BF704748BF20F8C9
:1003C000022B11F0804F18BF00F8012B70477047C7
:1003D0007047704710B500F009F8006810BD10B5FF
:1003E000044600F003F8046010BD000000487047A8
:1003F0001000002400487047100000247546FFF7E5
:10040000F9FFAE4605006946534620F007008546D1
:1004100018B020B5FFF7A0FFBDE820404FF0000660
:100420004FF000074FF000084FF0000BAC46ACE86F
:10043000C009ACE8C009ACE8C009ACE8C00921F0CB
:1004400007018D46704710B50446AFF30080204683
:10045000BDE81040FFF769BF01491820ABBEFEE7B9
:10046000260002007047FEE77047EFF3108072B677
:10047000FEE700000448816841F0020181600168E4
:100480008904FCD5704700BF044802582DE9FC4F91
:100490005C4A0A244FF0000A4FF0000990425A4A81
:1004A00008BF092402444FEAB223092B38BF4FEAA0
:1004B000B224009400220E6836FA02F700F0A08001
:1004C000012303FA02F716EA070B00F09380D1F834
:1004D00004E003230EF0030CACF10105012D13D849
:1004E00003FA09F58468CB68AC4303FA09F36FEAB1
:1004F000050823438360CEF300134468BC43934054
:100500005700234343600BE003FA09F3BCF1030FE8
:100510004F466FEA030803D14F464FF0030C20E02B
:10052000C3688C6803EA0803BC402343C360BCF182
:10053000020F16D10AF01C030F2404FA03FC6FF01B
:10054000030404EA520505442C6A24EA0C0C0C69E5
:1005500004FA03F343EA0C032B62D1F804E00EF033
:10056000030C04680CFA07F304EA0804234303604D
:100570001EF4403F3ED0804C254E236843F00203DA
:10058000236023680F2403F002030193019D0AF006
:100590000C0322F003059C40AF5927EA0404009F96
:1005A00007FA03F32343AB514FF0B04633684D686D
:1005B00043EA0B04EF0258BF23EA0B043460134EE6
:1005C000AF02336843EA0B0458BF23EA0B043460DC
:1005D000AF03D6F8803043EA0B0458BF23EA0B047C
:1005E000C6F88040ED03F36F43EA0B0458BF23EADB
:1005F0000B04F4670AF1040A09F1020901325AE70F
:10060000BDE8FC8F002402580000FEA7040000583B
:1006100008040058002A08BF0904816170470000DF
:1006200001480068000C70470010005C0548006835
:10063000704700BF2748034900780A6810440860E3
:10064000704700BFC000002480B5032000F0B2F85E
:1006500000F0F0F90E49F34B0A68096801F00F0148
:10066000C2F30322595C9A5C01F01F0102F01F02E1
:10067000D040ED4A1060C840EC4908600F2000F0FF
:1006800009F808B1012080BD00F068F8002080BDA5
:100690001844025870B50F4E04463078B0B14FF48C
:1006A0007A71B1FBF0F0E0490968B1FBF0F000F0BD
:1006B000A1FC01250F2C0AD848B94FF0FF30214684
:1006C0000022002500F05AF8746000E00125284659
:1006D00070BD00BF0000002410B5124943780278B5
:1006E0000B608B6823F001038B6043684B60C47A16
:1006F000037B240644EA0373847A43EAC443447BBD
:1007000043EA8443847B43EA4443C47B43EA04438F
:10071000447A007A43EA042343EA400010438860A5
:1007200010BD00BF98ED00E00B48BFF35F8F01687C
:1007300021F480310160002101677047064940F0D3
:1007400001000867086840F480300860BFF34F8FED
:10075000BFF36F8F704700BF24ED00E081B0064803
:10076000016841F002010160006800F002000090A1
:10077000009801B0704700BFF444025870B5134BA5
:100780004FF0FF351B68C3F30223DC1E83F0070321
:1007900038BF002405FA04F6B243042B28BF042313
:1007A00005FA03F39943A1401143BDE8704001F0FD
:1007B000ADBA00BF05494FF6FF030A681A4060F35F
:1007C0000A22034810430860704700BF0CED00E0A8
:1007D0000000FA05B0B50F4D2A682968520705D404
:1007E00001F00701081A18BF0120B0BD21F0070170
:1007F000084300F02EFF044655F8080C800406D488
:10080000FFF714FF00F018FFF6D90120B0BD00205B
:10081000B0BD00BF0C4802582DE9F843002800F095
:10082000FB807F4D04468846286800F00F00884210
:100830000BD2286820F00F0040EA080028602868E2
:1008400000F00F00404540F0E7802068AE4F4107C0
:1008500009D52169BA6900F05AFF04D9BA6922F0B2
:1008600070021143B961010709D56169FA6900F0A5
:100870004EFF04D9FA6922F070021143F961C106F2
:100880000AD5A169FA6902F4E062914204D9FA69D1
:1008900022F4E0621143F961810609D5E1693A6AFF
:1008A00000F035FF04D93A6A22F070021143396230
:1008B00010F002010AD0E268BB6903F00F039A420C
:1008C00004D9BB6923F00F031A43BA61C2073AD0B7
:1008D000D4E90101BA6922F470621143B9610128B7
:1008E00007D0032809D002280BD1396889030CD41A
:1008F00092E03968C90508D48EE03968890104D4CA
:100900008AE03968490740F187803969A94621F0B2
:10091000070108433861FFF789FE064641F2883532
:100920006068396901F03801B1EBC00F07D0FFF7FB
:100930007DFE801BA842F3D90320BDE8F883206820
:100940004D4600F0020151B1E168BA6902F00F02B0
:10095000914204D2BA6922F00F021143B9612968A9
:1009600001F00F0141450AD9296821F00F0141EA40
:1009700008012960296801F00F0141454CD1410768
:1009800009D52169BA6900F0C2FE04D2BA6922F021
:1009900070021143B961010709D56169FA6900F074
:1009A000B6FE04D2FA6922F070021143F961C10661
:1009B0000AD5A169FA6902F4E062914204D2FA69A7
:1009C00022F4E0621143F96180060AD5E069396AD0
:1009D00001F07001884204D2396A21F070010843A5
:1009E000386200F027F8B9690E4A0F4BC1F30321B2
:1009F000515C01F01F01C840B969186001F00F0196
:100A0000515C01F01F01C8400849086008480068AF
:100A1000BDE8F843FFF73EBE0120BDE8F88300BF04
:100A200000200052A81F0008080000240C00002429
:100A30000400002410B534490869C0F3C20003283B
:100A40000FD0022804BF324810BD40B908688006A4
:100A5000334858D50968C1F3C101C84010BD2B48BF
:100A600010BD8A6A886ACB6A4C6BC0F30510F0B17E
:100A700003F00103C4F3CC0402F003026343022A2F
:100A800000EE103AB8EE400A13D0AAB90A689206EE
:100A900051BF9FED221A0A68C2F3C102204B42BF28
:100AA00023FA02F201EE102AB8EE411A06E0002005
:100AB00010BD9FED191A01E09FED161A0A6B9FED0C
:100AC000193A6FF35F2202EE102AB8EE422A00EEC6
:100AD000032AB7EE000A32EE000A02EE100A086B93
:100AE000C0F34620B8EE422A013081EE021A21EE10
:100AF000000A01EE100AB8EE411A80EE010ABCEEBF
:100B0000C00A10EE100A10BD0044025800093D0052
:100B100040787D010024744A20BCBE4B0024744CF4
:100B20000090D00300000039F8B5002800F03F81A4
:100B300004460078D74EC0071FD12078800740F1C7
:100B40009C80306910F03801B06A35D0182901D185
:100B5000800731D03068E168002955D020F01900B5
:100B6000084300F066FD0546306840073BD4FFF7B8
:100B70005DFD401B0228F7D951E1306900F03801D2
:100B8000B06A102905D018290AD100F00300022804
:100B900006D130688003D0D560680028CDD106E149
:100BA000606800283ED0B0F5A02F4BD0B0F5803F54
:100BB0004CD000F07DFD4CE0E0683168490702D57B
:100BC000002800F0F480316821F01901084300F09A
:100BD00030FD05463068400705D4FFF727FD00F0DB
:100BE00034FDF7D9F8BDFFF71BFD41F20301884240
:100BF0003CD82069716821F47C31402814BF41EA57
:100C0000003041F4003037E020F0010000F011FD29
:100C100005463068400730D5FFF708FD00F015FDA8
:100C2000F7D9DFE700F044FD00F003FD054630682A
:100C300080037FF582AFFFF7F9FC411B0320642995
:100C4000F5D9CFE7306840F480203060306840F458
:100C5000803000F0EEFC0546306880033FF56DAF54
:100C6000FFF7E4FC401B6428F6D9D8E020697168DE
:100C700021F0FE4141EA006070602078C0063ED558
:100C8000306900F03801B06A082905D018291CD154
:100C900000F00300012818D13068C00503D5E069D1
:100CA000802840F08480FFF7BBFC41F203018842BA
:100CB0001ED8206A716821F0F841202814BF41EA4B
:100CC000806041F08040706019E03068E16900297F
:100CD00000F0D08040F0800000F0ABFC05463068AA
:100CE000C005E0D4FFF7A2FC00F0AFFCF7D979E72C
:100CF000206AF16821F07C5141EA0060F0602078C0
:100D0000000756D42078800665D42078400774D434
:100D1000676A002F49D0306900F03800182840F089
:100D2000BB80B16A306B012F41D0A26A01F003038E
:100D300093423CD1E26AC1F30511914237D1014699
:100D4000226B6FF35F21013A914230D1626BC0F3A5
:100D50004621013A91422AD1A26BC0F30641013AE1
:100D6000914224D1E16BC0F30660013988421ED163
:100D7000A06C716BC1F3CC01884216D0F06A20F0F0
:100D80000100F062FFF752FC0546FFF74FFCA84256
:100D9000FBD0706B4FF6F8718843A16C40EAC1003C
:100DA0007063F06A40F00100F0620020F8BD01209D
:100DB000F8BD706F6169A1B340F001007067FFF783
:100DC00035FC0546706F80079CD4FFF72FFC401B55
:100DD0000228F7D923E03068A169E1B340F48050DC
:100DE00000F027FC0546306880043FF58EAFFFF722
:100DF0001DFC401B0228F6D911E0D6F8000440F48F
:100E00008070C6F80004FFF711FC0546D6F8000410
:100E1000C00516D4FFF70AFC401B6428F6D903204E
:100E2000F8BD20F001007067FFF700FC0546706F09
:100E300080077FF567AFFFF7F9FB00F006FCF6D9F6
:100E4000D0E6A068002842D0052853D0012855D00C
:100E500000F048FC55E020F4805000F0EAFB054625
:100E6000306880047FF551AFFFF7E0FB00F0EDFB49
:100E7000F6D9B7E620F0800000F0DBFB05463068CD
:100E8000C0057FF53CAFFFF7D1FB00F0DEFBF6D9E4
:100E9000A8E600BF00440258306820F0807000F0DF
:100EA000C8FB0546022F08D1306880013AD5FFF70C
:100EB000BDFB00F0CAFBF7D994E6306880017FF5EE
:100EC00074AFFFF7B3FB00F0C0FBF6D98AE600F081
:100ED00009FC3067FFF7AAFB054641F28837306FFF
:100EE00080077FF515AFFFF7A1FB411B0320B94237
:100EF000F5D977E6306F40F004003067306F40F08E
:100F000001003067FFF792FB054641F28837306FEA
:100F100080073FF5FDAEFFF789FB411B0320B94277
:100F2000F5D95FE604F12805B06A40F2F331884351
:100F30002ECD0843591E40EA0210B0626FF35F21C4
:100F40004FF4FE024FF47E4000EB452080B208448F
:100F5000A16B02EB01414FF0FE4201F4FE01084497
:100F6000E16B02EB016101F0FE41084430634FF692
:100F7000F871F06A20F00100F062706B8843A16C98
:100F800040EAC1007063206CF16A21F00C01084353
:100F9000F062F06A616C20F002000843F062F06ACF
:100FA00040F48030F062F06A40F40030F062F06AA1
:100FB00040F48020F062F06A40F00100F062306896
:100FC00040F0807000F035FB0446306880013FF54A
:100FD000ECAEFFF72BFB011B03200229F5D901E63C
:100FE000034A136823EA000008431060704700BFFB
:100FF00004040058411E0020B0EB116F01D0012005
:101000007047044AF023516003490B709060072138
:101010001160704710E000E023ED00E070B590F83B
:101020003C300222012B2CD080F83D20EE4C02688F
:1010300042F4806655689368A64202BF25F47005A5
:101040004E6835430E6825F0700535435560B2F1A2
:10105000804F0BD0DF4DAA421CBFDF4DAA4205D006
:10106000DE4DAA421CBFDE4DAA420CD123F0800304
:10107000896819439160002280F83C20012180F8A2
:101080003D10104670BDD74DAA42EFD0D74DAA42B1
:1010900018BFA242EAD0EEE758B110B500F055FBF8
:1010A00003D100F01AFB00F007F800F07CFB00F021
:1010B000D3BA01207047000081B00068B0F1804FC2
:1010C00009D10648016841F001010160006800F0A3
:1010D00001000090009801B0704700BFE84402583A
:1010E00010B500F028FB1BD084F83D00012084F8E7
:1010F0003C002E4B206882681A4082600A682AB140
:10110000102A03D0202A18BF302A0AD181682B4B1D
:101110001940114341F007018160002000F023FBDA
:1011200010BD402A1FD0502A25D0602A2BD0204B3A
:101130009A42EBD0B2F5805FEFD0B2F5005F2DD0D0
:10114000B2F5801F18BFB2F1101FDFD0194B9A42C1
:10115000DCD0194B9A42D9D0702A24D100F0B0FAD1
:1011600041F07701D8E700F0F9FA2068134A816866
:1011700011404731D0E700F0F1FA20680F4A81684A
:1011800011405731C8E74B68CA68194600F0ABFDFB
:1011900020680A4A816811406731BDE700F090FA83
:1011A00041F48041B8E70120B8E700BF8800CEFFD6
:1011B00040001000200010003000100088FFCFFF1A
:1011C00090F83C300222012B09D080F83D200268C3
:1011D0005161002280F83C20012180F83D1010462A
:1011E00070470000FEB50068B0F1804F15D1E248AD
:1011F000016841F0010101600068002100F0010078
:101200000090CDE90311022101200590CDE90101F3
:10121000009801A90248FFF739F906B080BD00BF68
:1012200000000258B0B500F0B9FA04BF0220B0BD0A
:1012300000F0A6FA052948D8DFE801F0030B131BDC
:1012400023332068294600F0EDFB206850F8181F72
:101250001EE02068294600F025FC206850F8181F81
:1012600026E02068294600F05BFC206850F81C1F2F
:101270000EE02068294600F095FC206850F81C1FFD
:1012800016E02068294600F0BDFC206850F8541F85
:1012900041F008010160016821F004010160296941
:1012A0000FE02068294600F0D7FC206850F8541F52
:1012B00041F400610160016821F4806101602969E5
:1012C00009020268114301600020002184F83C10EB
:1012D000B0BD58B110B500F038FA03D100F0FDF9F7
:1012E00000F006F800F05FFA00F0B6B90120704790
:1012F0007047000010B5044651B1081F00F0C7F94F
:101300000DD8DFE800F0020F121504F13F0211E0E2
:1013100094F83E00012819D100F01CFA23E004F1F2
:10132000430207E004F1400204E004F1410201E05D
:1013300004F142021278012A08D1032808D8DFE814
:1013400000F0020A0D1000F0EAF90CE0012010BDD7
:1013500000F0D4F907E000F0EAF904E000F0DBF96E
:1013600001E000F0E0F9206800F09BF900F0C2F91C
:101370000BD0184881421CBF1748814205D017483E
:1013800081421CBF1648814208D188681A4A00F081
:10139000D8F918BFB2F5803F19D110BD114881426C
:1013A0001CBF114A914209D100F075F9EDD00F48E8
:1013B0008142EAD00C488142E7D008E00B4A9142D2
:1013C000F2D00B4A9142EFD00A4A9142ECD000F0A1
:1013D000D1B900BF0004004000080040000C0040EC
:1013E000001800400000014000040140004001409E
:1013F000004801400044014007000100FEE70021D1
:10140000A1EB400010B100BF0130FBE770470000C6
:1014100001484021016070471808025810B52DEDB1
:10142000028B0446002000F03FF9F0EE480A00204D
:10143000214600F07DFC00F003F9BDEC028BBDE815
:10144000104000F001B80000F8B110B50446B0F546
:101450007A6F02D2EF210D4806E000210D48844248
:1014600001D9012202E00A48B0FBF4F26B4803689C
:101470009962511ED962C160510859630121FFF779
:101480009FFE05480460BDE81040704740420F00D1
:10149000001C4E0E000E2707700000240146042099
:1014A00000F040BD0146012000F02ABD01460C209D
:1014B00000F038BD0146092000F022BDB0B50D4C4A
:1014C00000F00F000C4D61F30510216821F03F0181
:1014D000084420606420A8474FF4800060604FF407
:1014E0009670A8474020606029463220BDE8B04091
:1014F000084700BF14080258FF13000870B586B0F3
:101500001D48002505951D4C0022FF26016841F06D
:1015100004010160016801F0040100910099016873
:1015200041F080010160016801F0800100910099A3
:10153000016841F0010101600068FF2100F0010035
:10154000009000982046FFF765F80220CDE903508F
:101550000120CDE9016001A92046FEF797FF4FF079
:1015600080600021FFF73CFD4FF000600021FFF795
:1015700037FD06B070BD00BFE044025800080258B5
:1015800010B58EB068461C2100240D94CDE90B44A3
:101590000994CDE90744FEF7F3FE20488021EF22AD
:1015A0004FF08043816140F2E731C0E90032C0E989
:1015B00002410461FFF770FD08B1FEF756FF4FF4DA
:1015C00080500A900AA91548FFF78AFD08B1FEF776
:1015D0004CFF1248FFF77DFE08B1FEF746FF2020C2
:1015E00000240790099407A90C48FFF717FD08B1DC
:1015F000FEF73BFF4FF4FA70019069460022049415
:101600000294602000900548FFF70CFE08B1FEF739
:101610002CFF0248FFF7E6FD0EB010BD7400002459
:10162000FEE7FEE7B1EEC10AB4EE400AF1EE10FAB1
:1016300070473060FEF7FABF001BB0F57A7F704745
:10164000BCEEC00A10EE100A7047411B03200229AD
:1016500070472860FEF7EABF012084F8480084F84C
:101660003E0084F83F0084F8400084F8410084F88C
:10167000420084F8430084F8440084F8450084F86C
:10168000460084F8470084F83D00002010BD4FEA72
:10169000B000032870474A6C814242F400424A6419
:1016A0007047012200F0AEB9B0EE608A00F0C6BB10
:1016B000306820F480303060306820F4802070473B
:1016C000D1E90123C9681A4342EA0121826822F460
:1016D0007F421143816081687047002084F83C009C
:1016E00020467047306F20F001003067306F20F0E7
:1016F000040070472168B1F1804F7047022084F8E0
:1017000043007047681CC4F38101C0B2304702F047
:10171000700291427047022084F841007047022015
:1017200084F83F007047022084F84200704702208E
:1017300084F84000704790F83C2004460220012ABB
:10174000704702400020062A7047044690F83D008A
:1017500000287047022084F83E0070474B68CA6832
:10176000194600F0AFBA002184F83C10012184F83A
:101770003D107047086840F001000860002010BD6F
:101780000D4601204FEAB20184F83C007047036225
:10179000B84246680C688B68456D7047044690F8FF
:1017A0003C0001287047022084F83D00211D20687C
:1017B00000F0CAB870477047FEF73CBFB0B59CB0A8
:1017C00009A84C21FEF7DCFD01A82021FEF7D8FD79
:1017D0000220FEF7FFFF002000902548016841F439
:1017E00040410160016801F44041009121490A68CB
:1017F00042F001020A60096801F0010100910099BC
:1018000001688904FCD502201890CDE91600CDE9C5
:101810001200C021002408251591CDE91A4419951C
:101820004FF480300A90052114910120099009A8F5
:10183000FFF77AF918B1EFF3108072B6FEE7402097
:101840000890CDE905004FF480610791CDE903458B
:101850000320029004213F20019001A8FEF7DCFF45
:1018600018B1EFF3108072B6FEE71CB0B0BD00BF38
:10187000184802582C04005810B52948294A016814
:1018800041F470010160106800F00F00062804D8D0
:101890001068072161F3030010602348234C01689E
:1018A00041F00101016000210161036823400360F0
:1018B00013681B0704D51368072464F3030313603C
:1018C0001B4A8161C161016282621A4AC2621A4A7C
:1018D000026341638263C16302644164026822F46B
:1018E000802202600166154A1268B1EB527F02D174
:1018F000134901220A60D0F8D410C9040FD4D0F8DB
:10190000D41043F2D20241F48051C0F8D4100D49F2
:101910000A60D0F8D41021F48051C0F8D41010BD62
:1019200088ED00E000200052004402587FEDF6EA06
:10193000000202020000FF01800201010010005CB1
:10194000088100510040005270B5D84B026898429F
:1019500005D0B0F1804F1CBF274CA04238D122F0F7
:1019600070024C68224398420ED0B0F1804F0BD0E9
:10197000214CA0421CBF214CA04205D0204CA042CB
:101980001CBFCB4CA0422DD1CC6822F44072224324
:101990004C6998420D688E68C66285620BD0C44B54
:1019A000984208D0C34B984205D0C34B984202D00E
:1019B000C24B984201D109690163016841F00401F9
:1019C00001600121416122F080012143016070BD6D
:1019D0000A4CA042C3D0B64CA042C0D0084CA04292
:1019E000BDD0C2E7B34CA042CED0B34CA042CBD0C6
:1019F000B24CA042C8D0CBE7000400400008004031
:101A0000000C004010B501F01F010123046A8B4057
:101A100002FA01F124EA03030362026A114301623C
:101A200010BD0000F0B5036A026AA04E22F0010268
:101A3000026223F002038C680A68456823438469C4
:101A4000B0420BD09A4FB84208D09A4FB84205D056
:101A5000994FB84202D0994FB84207D1CF6823F0CE
:101A60000C0327F004073B43B0420BD0904EB0422A
:101A700008D0904EB04205D08F4EB04202D08F4E6B
:101A8000B04205D125F44075D1E9056735433D43A2
:101A90004560434D2C4022438261496841630362A3
:101AA000F0BD00BFF0B5036A026A804E22F010025A
:101AB000026223F02003B0428C68D1F800C0456870
:101AC00043EA0413846903D006F58067B84209D15C
:101AD000CF686FF0400223F0C00302EA07121343FD
:101AE000B0420BD0724A904208D0724A904205D060
:101AF000714A904202D0714A904207D1D1E905263D
:101B000025F4406545EA820242EA86053C4A456082
:101B1000224042EA0C228261496881630362F0BD7F
:101B2000F0B5036A026A614E22F48072026223F405
:101B30000073B0428C68D1F800C0456843EA0423C2
:101B4000C46903D006F58067B8420AD1CF6840F275
:101B5000FF4223F440633F0227EA02021343B042EC
:101B60000BD0534A904208D0524A904205D0524A74
:101B7000904202D0514A904207D1D1E9052625F47E
:101B8000405545EA021242EA0615054A45602240E0
:101B900042EA0C02C2614968C1630362F0BD00BF42
:101BA0008CFFFEFFF0B5026A036A404F23F48053B6
:101BB0000362B84246680C688B68C5691CBF3C4F1D
:101BC000B84212D14F6926F4804646EA871646602D
:101BD0000B4E354045EA0424C4614968016422F48F
:101BE000005141EA03310162F0BD324FB842E9D001
:101BF000314FB842E6D0314FB842E3D0E7E700BFFB
:101C0000FF8CFFFEF0B5026A036A284F23F480338D
:101C1000FFF7BDFD1CBF264FB84211D14F6926F416
:101C2000803646EA072646600A4E35402C43446516
:101C30004968816522F4003141EA03410162F0BD47
:101C40001C4FB842EAD01C4FB842E7D01B4FB842F5
:101C5000E4D0E8E78FFFFEFFF0B5026A036A134F96
:101C600023F48013FFF793FD1CBF114FB84212D12C
:101C70004F6926F4802646EA87264660104E354096
:101C800045EA042444654968C16522F4001141EA2B
:101C900003510162F0BD074FB842E9D0064FB84288
:101CA000E6D0064FB842E3D0E7E700BF00000140AE
:101CB0000004014000400140004801400044014050
:101CC000FF8FFFFE10B5036A046A24F0010404626A
:101CD000846924F0F00444EA0212826123F00A02CB
:101CE0001143016210BD10B5036A046A24F01004A8
:101CF0000462846924F4704444EA0232826123F06D
:101D0000A00242EA0111016210BDFEE710B500F029
:101D10000F03064CB0F1FF3F034A2344C8BF8318AA
:101D20000801187010BD00BF00E400E014ED00E0F1
:101D300070B52DED088BB0EE408AB3EE0A9A0446DA
:101D400000229FED35AA9FED35BA9FED350A0020A0
:101D50001646C2B23F2A16D801EE102A012C0246BE
:101D6000B8EE411A31EE091A21EE0A1A81EE0B2A59
:101D700002FE011A431C184621EE081AB4EE401A5E
:101D8000F1EE10FAE4DD9FED291A26A0012C80FE69
:101D9000811A08BF043090ED000A80EE010A9FED21
:101DA000241A31EE400A9FED231A80FE010A9FEDAE
:101DB000221A80FE410AB6EE001A30EE010ABCEE8D
:101DC000C00A10EE105A51B108202146FFF776FBE9
:101DD000F0B2FFF76FFB2846FFF768FB09E0002031
:101DE0002146FFF76BFBF0B2FFF75CFB2846FFF7DD
:101DF00055FBF0B2012C00EE100AB8EE400A30EEAE
:101E0000090A20EE0A0A80EE0B1A01FE000A20EEF3
:101E1000080ABDEC088B70BDDB0FC93FF304B53F6A
:101E20000024744A000080421F05B5429A99193F68
:101E300000000043000000000000FE4210B52DED40
:101E4000048BB0EE408A20EEA00ABEEE001A0446D3
:101E500081EE001AB7EE000A31EE009A09EE090A87
:101E6000B1EEC01AB4EE411AF1EE10FA0ED639EE08
:101E7000011AFFF7D7FB0ED620EE081A88EE000AEB
:101E8000002C00FE010ABDEC048B10BD00F062F8CE
:101E9000B0EE401AEBE7B0EE410A00F05BF8EBE77A
:101EA00084B001200090FEF73FFC40F20110039047
:101EB00048F21F700290002001906846FEF70CFC6B
:101EC0000420FEF73BFCFEF7BFFBFFF777FCFFF7B4
:101ED00015FBFFF755FBFFF79BFA06480021FFF7BC
:101EE00009FA9FED050ADFED050A0020FFF796FAD3
:101EF000FEE700BF7400002400B80848F4FD343F3A
:101F000070B50C4601F00301114E0546B047FFF7CE
:101F1000F9FBA81CC4F301113246C0B2BDE8704001
:101F2000104700BF70B50C4601F00301084E05468E
:101F3000B047FFF7E7FBA81CC4F30111C0B2B047DC
:101F4000E81CC4F380113246C0B2BDE870401047AF
:101F5000BD14000810B52DED028BB1EEC08A18EE4D
:101F6000100A20F00040C0F1FF40C00F0AD010EE70
:101F7000100A20F00040C0F1FF40C00F04BF012054
:101F8000FEF72DFAB0EE480ABDEC028B10BDF1EE63
:101F9000100A4FF6FF71C0F2C03120EA010040F094
:101FA0004070E1EE100A70470000000001020304D7
:101FB0000102030406070809D81F000800000024D6
:101FC00010000000D4020008E81F000810000024E0
:101FD000B8060000F0020008010000001000000038
:081FE0000090D0030090D00333
:040000050800029954
:00000001FF
