:020000040800F2
:1000000068040024B1020008991F0008911C000830
:10001000951F0008250300081727000800000000AE
:10002000000000000000000000000000392000086F
:1000300029030008000000009D1F00083B20000865
:10004000CF020008CF020008CF020008CF0200084C
:10005000CF020008CF020008CF020008CF0200083C
:10006000CF020008CF020008CF020008CF0200082C
:10007000CF020008CF020008CF020008CF0200081C
:10008000CF020008CF020008CF020008CF0200080C
:10009000CF020008CF020008CF020008CF020008FC
:1000A000CF020008CF020008CF020008CF020008EC
:1000B000CF020008CF020008CF020008CF020008DC
:1000C000CF020008CF020008CF020008CF020008CC
:1000D000CF020008CF020008CF020008CF020008BC
:1000E000CF020008CF02000800000000CF02000885
:1000F000CF020008CF020008CF020008CF0200089C
:10010000CF020008CF020008CF020008CF0200088B
:10011000CF020008CF020008CF020008CF0200087B
:10012000CF020008CF020008CF020008CF0200086B
:10013000CF020008CF020008CF020008CF0200085B
:1001400000000000000000000000000000000000AF
:10015000CF020008CF020008CF020008CF0200083B
:10016000CF020008CF020008CF020008CF0200082B
:10017000CF020008CF020008CF02000800000000F4
:10018000CF020008CF020008CF020008CF0200080B
:10019000CF020008CF020008CF020008CF020008FB
:1001A000CF020008CF020008CF020008CF020008EB
:1001B000CF020008CF020008CF020008CF020008DB
:1001C000CF020008CF020008CF020008CF020008CB
:1001D000CF020008CF020008CF020008CF020008BB
:1001E000CF020008CF020008CF020008CF020008AB
:1001F000CF020008CF020008CF020008CF0200089B
:10020000CF020008CF020008CF020008CF0200088A
:10021000CF020008CF020008CF020008CF0200087A
:10022000CF020008CF020008CF0200080000000043
:10023000CF020008CF02000800000000CF02000833
:10024000CF020008CF020008CF020008CF0200084A
:10025000CF020008CF020008CF020008CF0200083A
:10026000CF020008CF020008CF020008CF0200082A
:10027000CF020008CF020008CF02000800000000F3
:10028000CF020008CF020008CF02000800000000E3
:1002900000000000CF020008DFF810D000F030F8B6
:1002A0000048004715290008AFF3008068040024C7
:1002B000074880470748804707480047FEE7FEE7B2
:1002C000FEE7FEE7FEE7FEE7FEE7FEE7FEE7FEE706
:1002D000310300081521000899020008D2B201E09C
:1002E00000F8012B491EFBD270470022F6E710B53B
:1002F00013460A4604461946FFF7F0FF204610BD94
:10030000064C074D06E0E06840F0010394E8070062
:1003100098471034AC42F6D3FFF7C2FFC829000853
:10032000E829000800BFFEE7704772B600BFFEE78D
:100330000748006840F002000549086000BF044813
:100340000838006800F400500028F8D0704700001A
:100350000C480258F8B502460B4600216F4DD7E015
:1003600001278F401E6806EA0704002C72D01E7910
:1003700006F00306012E04D01E7906F00306022EB5
:1003800013D190684F000326BE40B0434F00DE6893
:10039000BE4030439060506801268E40B0431E79C5
:1003A000C6F300168E40304350601E7906F00306F7
:1003B000032E09D0D0684F000326BE40B0434F0043
:1003C0009E68BE403043D0601E7906F00306022EC0
:1003D00013D1CF0802F1200656F827004E07F70E7A
:1003E0000F26BE40B0434F07FF0E1E69BE4030438C
:1003F000CF0802F1200646F8270010684F000326B8
:10040000BE40B0431E7906F003064F00BE403043A5
:1004100010605E6806F44036002E78D000BF404E73
:10042000366846F002063E4F3E603E46366806F0AD
:100430000206009600BF00BF3A4E8F0856F827000C
:100440008E07370F0F26BE40B043374EB24202D15F
:1004500000262EE05BE0354EB24201D1012628E0B5
:10046000334EB24201D1022623E0324EB24201D1D4
:1004700003261EE0304EB24201D1042619E02F4E71
:10048000B24201D1052614E02D4EB24201D106261A
:100490000FE02C4EB24201D107260AE02A4EB242AA
:1004A00001D1082605E0294EB24201D1092600E01B
:1004B0000A268F073F0FBE4030431A4E8F0846F87A
:1004C00027004FF0B0463068A0435E6806F48016FF
:1004D00006B120434FF0B04630607068A0435E68BC
:1004E00006F4001606B120434FF0B046706068680D
:1004F000A0435E6806F4003606B1204368602868B1
:10050000A0435E6806F4803606B120432860491C8B
:100510001E68CE40002E7FF423AFF8BD8000005847
:10052000F44402580804005800000258000402581D
:1005300000080258000C025800100258001402581B
:1005400000180258001C02580020025800240258CB
:100550000AB1816101E00B048361704701480068C2
:10056000000C70470010005C0148006870470000F4
:10057000040000240348006803490978084401493D
:1005800008607047040000240C00002410B503200C
:1005900000F00CF900F0DEFA10490968C1F30321FC
:1005A0000F4A515C01F01F0120FA01F40B4800686A
:1005B00000F00F001146085C00F01F0024FA00F064
:1005C00008490860084804600F2000F00FF808B1DF
:1005D000012010BD00F09AF80020FAE718440258F4
:1005E000B8290008140000241000002470B5044647
:1005F0001148007808B9012070BD0F4800784FF409
:100600007A71B1FBF0F00D490968B1FBF0F52846AD
:1006100000F0ECFF08B10120EEE7102C07D2002219
:100620002146501E00F084F80548046001E00120D6
:10063000E2E70020E0E700000C00002410000024A6
:10064000080000244178154A1160144908310968EE
:1006500021F00101114A08321160121F4168116036
:10066000017B0907C27A41EA0261827A41EAC2410A
:10067000427B41EA8241827B41EA4241C27B41EABC
:100680000241427A41EA0221027A41EA42010278B9
:100690001143024A083211607047000098ED00E0F3
:1006A00000BF00BF00BFBFF35F8F00BF00BF00BF30
:1006B0000548006820F480300349086000200249A2
:1006C000703108607047000024ED00E040F0010147
:1006D0000D4A11600C497039096841F480310A4AA9
:1006E000703A116000BF00BF00BFBFF34F8F00BF63
:1006F00000BF00BF00BF00BF00BFBFF36F8F00BFD0
:1007000000BF00BF7047000094ED00E008B500BFD7
:100710000648006840F00200044908600846006886
:1007200000F00200009000BF00BF08BDF444025872
:100730002DE9F05F80460D46164601F0EFFF0746B3
:1007400039462A46334601F00700C0F1070ABAF1DC
:10075000040F02D94FF0040A01E0C0F1070AD146A4
:1007600000F1040ABAF1070F02D24FF0000A01E0CB
:10077000A0F1030AD4464FF0010A0AFA09FAAAF1D5
:10078000010A0AEA020A0AFA0CFA4FF0010B0BFA04
:100790000CFBABF1010B0BEA030B4AEA0B042146FD
:1007A000404601F0C3FFBDE8F09F000000BF00F02D
:1007B0000702064B19684FF6FF031940044B0B4321
:1007C00043EA0221014B196000BF70470CED00E0C5
:1007D0000000FA0570B5044615480068C0F38000B3
:1007E00048B91348006800F00700A04201D001207A
:1007F00070BD0020FCE70E48006820F00700204391
:100800000B490860FFF7B0FE054607E0FFF7ACFEB6
:10081000401BB0F57A7F01D90120E9E70448083888
:100820000068C0F340300028F0D00020E0E700006E
:100830000C4802582DE9F04104460D4614B9012038
:10084000BDE8F081BD48006800F00F00A8420ED25C
:10085000BA48006820F00F002843B84908600846ED
:10086000006800F00F00A84201D00120E8E72078DE
:1008700000F0040004280ED1B1492069096801F094
:100880007001884207D9AE48006820F070002169E5
:100890000843AB490860207800F00800082811D10F
:1008A000A749091D6069096801F07001884209D9EA
:1008B000A348001D006820F0700061690843A0494A
:1008C000091D0860207800F01000102811D19C4903
:1008D000091DA069096801F4E061884209D99848B6
:1008E000001D006820F4E060A16908439449091DD7
:1008F0000860207800F02000202811D190490831AC
:10090000E069096801F07001884209D98C48083013
:10091000006820F07000E1690843894908310860E7
:10092000207800F0020002280ED18549E0680968AD
:1009300001F00F01884207D98148006820F00F00BC
:10094000E16808437E490860207800F00100002833
:1009500050D07B48006820F47060A1680843784953
:1009600008606068022807D1754818380068C0F32D
:100970004040F8B9012063E76068032807D1704858
:1009800018380068C0F34060A0B9012058E76068DB
:10099000012807D16A4818380068C0F3002048B918
:1009A00001204DE7664818380068C0F3800008B998
:1009B000012045E762480838006820F007006168B8
:1009C00008435F4908390860FFF7CEFD064608E096
:1009D000FFF7CAFD801B41F28831884201D903200C
:1009E0002EE757480838006800F038006168B0EB1F
:1009F000C10FEDD1207800F0020002280ED150493D
:100A0000E068096801F00F01884207D24C4800688D
:100A100020F00F00E1680843494908604748006832
:100A200000F00F00A8420ED94448006820F00F00E3
:100A30002843424908600846006800F00F00A842B9
:100A400001D00120FCE6207800F0040004280ED13B
:100A50003B492069096801F07001884207D2384893
:100A6000006820F07000216908433549086020784B
:100A700000F00800082811D13149091D6069096892
:100A800001F07001884209D22D48001D006820F055
:100A90007000616908432A49091D0860207800F048
:100AA0001000102811D12649091DA069096801F418
:100AB000E061884209D22248001D006820F4E0600D
:100AC000A16908431E49091D0860207800F0200034
:100AD000202811D11A490831E069096801F0700134
:100AE000884209D216480830006820F07000E16999
:100AF000084313490831086000F02CF810490968D0
:100B0000C1F303210F4A515C01F01F0120FA01F7E4
:100B10000B48006800F00F001146085C00F01F0051
:100B200027FA00F00849086008480760084800688C
:100B3000FFF75CFD8046404682E600000020005240
:100B400018440258B829000814000024100000249A
:100B500008000024F0B5824E366806F0380636B13B
:100B6000082E15D0102E15D0182E7DD114E07C4EF5
:100B7000103E3668C6F3401646B1794E103E3668D0
:100B8000C6F3C107774E26FA07F000E07548E5E0A6
:100B90007548E3E07548E1E0714E1836366806F0B6
:100BA00003046F4E18363668C6F305116C4E1C36BA
:100BB000366806F001056A4E24363668C6F3CC0660
:100BC00016FB05F601EE106AB8EE410A002971D055
:100BD00024B1012C50D0022C6DD16DE0604E103E3E
:100BE0003668C6F340163EB35D4E103E3668C6F317
:100BF000C1075C4E26FA07F301EE103AF8EE411AEF
:100C000001EE101AB8EE411A81EE812A9FED581AB2
:100C1000C0EE011A524E20363668C6F3080601EEC1
:100C2000106AB8EE411A31EE811AF7EE001A31EE71
:100C3000211A62EE010A1EE001EE101AB8EE411A06
:100C4000DFED4C1A81EE812A9FED491AC0EE011AA0
:100C5000434E20363668C6F3080601EE106AB8EE39
:100C6000411A31EE811A00E076E0F7EE001A31EE1B
:100C7000211A62EE010A5BE001EE101AB8EE411A89
:100C80009FED3D2AC2EE011A9FED391A80EE012A2E
:100C9000334E20363668C6F3080601EE106AB8EE09
:100CA000411A32EE011AB7EE002A31EE021A61EE55
:100CB000810A3DE04EE01DE001EE101AB8EE411A47
:100CC000DFED2E1A81EE812A9FED291AC0EE011A5E
:100CD000234E20363668C6F3080601EE106AB8EED9
:100CE000411A31EE811AF7EE001A31EE211A62EE46
:100CF000010A1DE001EE101AB8EE411A9FED1E2AFE
:100D0000C2EE011A9FED1A1A80EE012A144E203607
:100D10003668C6F3080601EE106AB8EE411A32EEE4
:100D2000011AB7EE002A31EE021A61EE810A00BF05
:100D300000BF0B4E20363668C6F34626721C01EE05
:100D4000102AB8EE411AC0EE811ABCEEE11A11EE7B
:100D5000100A00E0002001E0034800BF00BFF0BD22
:100D6000104402580090D00300093D0040787D01F6
:100D7000000000460024744C0024744A20BCBE4B82
:100D80002DE9F047044614B90120BDE8F08720782A
:100D900000F00100002870D0FA48006800F0380820
:100DA000F8481830D0F80090B8F1100F06D0B8F11C
:100DB000180F0FD109F0030002280BD1F1481038A9
:100DC0000068C0F3404000286AD06068002867D1FE
:100DD0000120DAE700BF6068B0F5803F08D1E9483C
:100DE0001038006840F48030E649103908602EE081
:100DF000606868B9E3481038006820F48030E14941
:100E0000103908600846006820F4802008601EE061
:100E10006068B0F5A02F0DD1DA481038006840F4B2
:100E20008020D849103908600846006840F48030B6
:100E300008600CE0D3481038006820F48030D149B5
:100E4000103908600846006820F48020086000BF60
:100E5000606898B1FFF788FB054606E0FFF784FB62
:100E6000401B642801D903208FE7C648103800686A
:100E7000C0F340400028F1D012E012E0FFF774FB0D
:100E8000054606E0FFF770FB401B642801D90320EC
:100E90007BE7BC4810380068C0F340400028F1D11F
:100EA00000BF207800F00200022874D1B548006825
:100EB00000F03808B3481830D0F80090B8F1000FAF
:100EC00005D0B8F1180F56D109F00300D0BBAD48DA
:100ED00010380068C0F3800018B1E06808B901203C
:100EE00053E7A8481038006820F01900E16808436B
:100EF000A44910390860FFF737FB054606E0FFF705
:100F000033FB401B022801D903203EE79D481038DF
:100F10000068C0F380000028F1D000BFFFF71EFB7F
:100F200041F2030188421AD8206940280BD1954824
:100F30000C38006820F47C3040F4003091490C39C2
:100F4000086017E017E08F480C38006820F47C3008
:100F5000216940EA01308B490C3908600AE0894870
:100F60000C38006820F0FE40217C40EA0160854991
:100F70000C39086066E0E06888B382481038006881
:100F800020F01900E16808437E4910390860FFF736
:100F9000EBFA054607E056E0FFF7E6FA401B0228A9
:100FA00001D90320F1E6774810380068C0F38000CB
:100FB0000028F1D000BFFFF7D1FA41F203018842C7
:100FC0001AD8206940280BD16E480C38006820F4EC
:100FD0007C3040F400306B490C39086017E017E0B2
:100FE00068480C38006820F47C30216940EA013000
:100FF00064490C3908600AE062480C38006820F047
:10100000FE40217C40EA01605E490C39086019E02D
:101010005C481038006820F001005A491039086017
:10102000FFF7A2FA054606E0FFF79EFA401B0228EA
:1010300001D90320A9E6534810380068C0F38000A6
:101040000028F1D100BF207800F0100010287CD1DA
:101050004C48006800F038084A481830D0F8009032
:10106000B8F1080F06D0B8F1180F3DD109F0030010
:10107000012839D1434810380068C0F3002020B15E
:10108000E069802801D001207FE600BFFFF766FA03
:1010900041F2030188421AD8206A20280AD139482F
:1010A0000C38006820F0F84040F0804035490C3999
:1010B000086018E033480C38006820F0F84094F8D5
:1010C000201040EA81602F490C3908600BE02D4860
:1010D000001F006820F07C5094F8201040EA016066
:1010E0002849091F086066E0E06978B32548103890
:1010F000006840F08000234910390860FFF734FA97
:10110000054606E0FFF730FA401B022801D903200C
:101110003BE61C4810380068C0F300200028F1D0DE
:1011200000BFFFF71BFA41F2030188421CD8206A76
:1011300020280CD113480C38006820F0F84040F00B
:10114000804010490C3908601AE035E01CE00D4879
:101150000C38006820F0F84094F8201040EA8160D4
:1011600008490C3908600BE00648001F006820F0B1
:101170007C5094F8201040EA01600249091F086081
:1011800019E0000010440258FA48006820F080007E
:10119000F8490860FFF7E8F9054606E0FFF7E4F9CB
:1011A000401B022801D90320EFE5F2480068C0F394
:1011B00000200028F2D100BF207800F008000828A5
:1011C00036D16069D0B1EB487430006840F001005E
:1011D000E84974310860FFF7C7F9054606E0FFF7F4
:1011E000C3F9401B022801D90320CEE5E148743041
:1011F0000068C0F340000028F1D019E0DD487430E9
:10120000006820F00100DB4974310860FFF7ACF999
:10121000054606E0FFF7A8F9401B022801D9032084
:10122000B3E5D44874300068C0F340000028F1D121
:10123000207800F02000202830D1A069B8B1CD4836
:10124000006840F48050CB490860FFF78DF90546EF
:1012500006E0FFF789F9401B022801D9032094E535
:10126000C4480068C0F340300028F2D016E0C148FE
:10127000006820F48050BF490860FFF775F9054603
:1012800006E0FFF771F9401B022801D903207CE535
:10129000B8480068C0F340300028F2D1207800F050
:1012A000040004287DD1B448006840F48070B2493D
:1012B0000860FFF759F9054606E0FFF755F9401BAE
:1012C000642801D9032060E5AB48006800F4807011
:1012D0000028F2D000BFA068012808D1A5487030CE
:1012E000006840F00100A349703108602DE0A0685B
:1012F00068B9A0487030006820F001009D49703145
:1013000008600846006820F0040008601DE0A0683E
:1013100005280DD197487030006840F004009549C9
:10132000703108600846006840F0010008600CE079
:1013300090487030006820F001008E4970310860DC
:101340000846006820F00400086000BFA068A0B153
:10135000FFF70AF9054608E0FFF706F9401B41F2DE
:101360008831884201D903200FE582487030006837
:10137000C0F340000028EFD013E0FFF7F5F8054672
:1013800008E0FFF7F1F8401B41F28831884201D9AB
:101390000320FAE4774870300068C0F3400000286A
:1013A000EFD1606A00287DD072481030006800F0EC
:1013B0003800182877D0606A022875D16D48006817
:1013C00020F080706B490860FFF7CEF8054606E014
:1013D000FFF7CAF8401B022801D90320D5E465486D
:1013E0000068C0F340600028F2D100BFD4E90A10C1
:1013F00041EA00105F492831096840F2F332914315
:1014000008435C4928310860208E401EC0F3080064
:10141000616B491E4FF47E4202EA41210843218F4D
:10142000491ED20102EA014108433C21095D491EDF
:10143000120202EA016108434E493031086000BFE0
:10144000081F006820F00100091F08604948343077
:1014500000684FF6F8718843A16C40EAC100454925
:101460003431086043482C30006820F00C00216CB7
:10147000084340492C3108600846006820F002000B
:10148000616C08433B492C3108600846006840F411
:10149000803008600846006840F400300860084664
:1014A000006802E093E038E01FE040F4802008602C
:1014B0000846006840F0010008602E48006840F0CF
:1014C00080702C490860FFF74FF8054606E0FFF7EB
:1014D0004BF8401B022801D9032056E42548006838
:1014E000C0F340600028F2D071E02248006820F08C
:1014F000807020490860FFF737F8054606E0FFF7DF
:1015000033F8401B022801D903203EE41948006843
:10151000C0F340600028F2D159E01648283007682F
:10152000144830300668606A012821D007F00301B2
:10153000A06A81421CD1C7F30511E06A884217D125
:10154000C6F30801206B401E814211D1606B401E22
:10155000C6F3462188420BD1A06B401EC6F306415C
:10156000884205D1E06B401EC6F30661884205D073
:1015700001200AE400440258004802581548006857
:10158000C0F3CC07A06CB84221D0124808380068DC
:1015900020F001000F4908390860FEF7E5FF054615
:1015A00000BFFEF7E1FF401BFBD00A4800684FF682
:1015B000F8718843A16C40EAC100064908600548FB
:1015C0000838006840F0010002490839086000202E
:1015D0004AE4000034440258034A126882430A4332
:1015E000014B1A60704700000404005870B50446AF
:1015F0002546681EB0F1807F01D301200FE0681EF0
:101600004FF0E02148610F214FF0FF3001F08EF8DC
:1016100000204FF0E021886107200861002070BDA4
:1016200030B502460B4600BF92F83C00012801D1BC
:10163000022030BD012082F83C0000BF022082F869
:101640003D001068416810688468214D1068A84208
:1016500003D0204D1068A84203D121F470015868CE
:10166000014321F070011868014310684160184D72
:101670001068A8421BD01068B0F1804F17D0164DEB
:101680001068A84213D0154D1068A8420FD0144D11
:101690001068A8420BD00F4D1068A84207D0114D1A
:1016A0001068A84203D0104D1068A84205D124F05C
:1016B00080049868044310688460012082F83D002B
:1016C00000BF002082F83C0000BF00BFB1E700006F
:1016D00000000140000401400004004000080040F8
:1016E000000C0040001800400040014010B50446C6
:1016F0000CB9012010BD94F83D0028B9002084F8F1
:101700003C00204600F02AF8022084F83D00211D0C
:10171000206800F093FD012084F8480000BF84F8A1
:101720003E0001213F200155402001554120015537
:10173000422001554320015500BF00BF012084F81D
:10174000440045200155462001554720015500BF62
:10175000012084F83D000020CCE7000008B50168B6
:10176000B1F1804F0DD100BF0649096841F0010178
:10177000044A11601146096801F00101009100BF9F
:1017800000BF08BDE84402582DE9F04104460D466B
:10179000002700BF94F83C00012802D10220BDE8D8
:1017A000F081012084F83C0000BF022084F83D0055
:1017B000206886684048064026F47F462068866098
:1017C0002868702826D00CDC00F00F01002966D1B3
:1017D0000011072863D2DFE800F0555657584B3701
:1017E0004100B0F1101F52D009DCB0F5805F10D07D
:1017F000B0F5005F1BD0B0F5801F50D146E0A0F5DA
:1018000080102038002843D0102842D0202846D10C
:1018100040E046E0D5E902136A68206800F089FDDF
:101820002068866846F077062068866039E0D5E94A
:1018300002136A68206800F07CFD2068806840F42C
:101840008040216888602CE0EA686968206800F0C0
:101850003BFF5021206800F077FD22E0EA686968CC
:10186000206800F044FF6021206800F06DFD18E062
:10187000EA686968206800F027FF4021206800F0CE
:1018800063FD0EE000BF00BF00BF00BF00BF00BF90
:1018900000BF00BF2968206800F056FD01E0012765
:1018A00000BF00BF012084F83D0000BF002084F885
:1018B0003C0000BF384672E788FFCEFF024600BFFB
:1018C00092F83C00012801D102207047012082F8E3
:1018D0003C0000BF022082F83D00106841610120F9
:1018E00082F83D0000BF002082F83C0000BF00BF2E
:1018F000EBE7000010B586B00446142101A8FEF7FE
:10190000F4FC2068B0F1804F1AD100BF0D48006888
:1019100040F001000B4908600846006800F0010033
:10192000009000BF00BF0120019002200290002023
:10193000039004900120059001A90348FEF70AFDD9
:1019400006B010BDE0440258000002582DE9F041F5
:1019500004460D461646002700BF94F83C000128B7
:1019600002D10220BDE8F081012084F83C0000BFD4
:101970000C2E51D005DC4EB1042E1ED0082E7AD18B
:1019800033E0102E60D0142EF9D175E0294620687E
:1019900000F0E6FC2068806940F00800216888615A
:1019A0002068806920F004002168886120688069CF
:1019B000296908432168886178E02946206800F099
:1019C00025FD2068806940F40060216888612068F6
:1019D000806920F4806021688861206880692969B5
:1019E00040EA01202168886160E02946206800F013
:1019F00067FD2068C06940F008002168C861206860
:101A0000C06920F004002168C8612068C0692969A4
:101A100008432168C86149E02946206800F0AAFD12
:101A20002068C06940F400602168C8612068C0690E
:101A300020F480602168C8612068C069296940EA93
:101A400001202168C86131E02946206800F0CCFD02
:101A50002068406D40F00800216848652068406DAE
:101A600020F00400216848652068406D296908431A
:101A7000216848651AE017E02946206800F0ECFD6F
:101A80002068406D40F40060216848652068406D22
:101A900020F48060216848652068406D296940EA2B
:101AA00001202168486501E0012700BF00BF00BF99
:101AB000002084F83C0000BF384653E710B50446C8
:101AC0000CB9012010BD94F83D0028B9002084F81D
:101AD0003C00204600F029F8022084F83D00211D3A
:101AE000206800F0ABFB012084F8480000BF84F8B8
:101AF0003E0001213F200155402001554120015564
:101B0000422001554320015500BF00BF012084F849
:101B1000440045200155462001554720015500BF8E
:101B2000012084F83D000020CCE7704770B50446E2
:101B30000D4615B994F83E0015E0042D02D13F2062
:101B4000005D10E0082D02D14020005D0BE00C2D5F
:101B500002D14120005D06E0102D02D14220005D3F
:101B600001E04320005D012801D0012070BD1DB9B6
:101B7000022084F83E001AE0042D03D102213F2008
:101B8000015514E0082D03D10221402001550EE03B
:101B90000C2D03D102214120015508E0102D03D165
:101BA00002214220015502E0022143200155012279
:101BB0002946206800F0ACFB2B49206888420FD0F2
:101BC0002A49206888420BD029492068884207D0DA
:101BD00028492068884203D027492068884201D1DB
:101BE000012000E0002028B12068406C40F4004053
:101BF000216848641C49206888421BD02068B0F1E5
:101C0000804F17D01D492068884213D01C49206896
:101C100088420FD01B49206888420BD013492068A6
:101C2000884207D018492068884203D010492068AC
:101C3000884210D120688068144900EA0106062E07
:101C40000FD0B6F5803F0CD02068006840F001004E
:101C50002168086005E02068006840F00100216804
:101C60000860002082E700000000014000040140FD
:101C70000040014000440140004801400004004091
:101C800000080040000C0040001800400700010060
:101C900000BFFEE7410000E000BF0A1EA1F1010104
:101CA000FAD170474020014908607047180802586F
:101CB00070B52DED048BB0EE408AF0EE608A0446DC
:101CC0000020F0EE680AB0EE480A00F0F5FDB0EE34
:101CD000409A21460020F0EE680AB0EE490A00F072
:101CE000B1FDBCEEC00A10EE105A284600F004F810
:101CF000BDEC048B70BD00002DE9F04105460DB927
:101D0000BDE8F081154FB5F57A6F04D2EF2614487F
:101D1000B0FBF5F408E0B5EB570F02D9002601241B
:101D200002E00026B7FBF5F404B1641E0D4800681C
:101D3000866200BF0B480068C4620A48C46000BFE6
:101D4000601C400807490968486301210548FFF7FE
:101D5000B5FD0548056000BFD2E70000001C4E0E2F
:101D600040420F001C0000240000002410B504466F
:101D70002146042000F004FE10BD10B504462146A3
:101D8000012000F0E7FD10BD10B5044621460C20EF
:101D900000F0F6FD10BD10B504462146092000F004
:101DA000D9FD10BD70B505460E461048046824F0F4
:101DB0003F0405F00F000443302000EA06100443FE
:101DC0000A4804606420FFF765FF4FF4800007496C
:101DD000091D08604FF49670FFF75CFF402003492F
:101DE000091D08603220FFF755FF70BD1408025826
:101DF0001FB500200090019002900390FEF750FC68
:101E000001208DF8000000208DF8010001901F20B6
:101E10008DF8080087208DF8090000208DF80A0051
:101E20008DF80B0001208DF80C008DF80D000020BE
:101E30008DF80E008DF80F006846FEF703FC0420B5
:101E4000FEF744FC1FBD000000B587B0142102A8B6
:101E5000FEF74BFA00BF2248006840F0040020491A
:101E600008600846006800F00400019000BF00BF51
:101E700000BF0846006840F080000860084600681F
:101E800000F08000019000BF00BF00BF084600685E
:101E900040F0010008600846006800F00100019071
:101EA00000BF00BF0022FF210E48FEF751FBFF20BC
:101EB000029001200390002004900220059002A9C6
:101EC0000848FEF747FA00214FF08060FFF784FBD7
:101ED00000214FF00060FFF77FFB07B000BD00005E
:101EE000E04402580008025800B58FB000200B9063
:101EF0000C900D900E90089009900A901C2101A85A
:101F0000FEF7F3F94FF0804021490860EF20486068
:101F100000211F48816040F2E731C160002101616A
:101F200080218161FFF7E2FB08B1FEF7FEF94FF473
:101F300080500B900BA91648FFF726FC08B1FEF75E
:101F4000F4F91348FFF7BAFD08B1FEF7EEF92020C7
:101F5000089000200A9008A90D48FFF761FB08B11E
:101F6000FEF7E3F9602001904FF4FA700290002030
:101F700003900590002201A90548FFF7E7FC08B18E
:101F8000FEF7D3F90248FFF7B5FC0FB000BD000023
:101F90001C00002400BFFEE700BFFEE77047000002
:101FA00001469FED1F1AB4EEC10AF1EE10FA03D2FA
:101FB0009FED1B1AB0EE410A012908D1DFED191A75
:101FC00081EE801ADFED181A31EEC11A07E0DFED5D
:101FD000171A81EE801ADFED141A31EEC11AF0EEF5
:101FE000410AF5EEC00AF1EE10FA03D29FED101A85
:101FF000F0EE410A9FED0F1AF4EEC10AF1EE10FA6D
:1020000003DD9FED0C1AF0EE410AB6EE001A30EE39
:10201000811ABCEEC11A11EE100AC0B2704700005E
:102020009A99193F1F05B542000000430000804205
:10203000000000000000FE42704710B5FEF79AFA5B
:1020400010BD000000B59DB04C210AA8FEF74DF967
:10205000202102A8FEF749F90220FEF7BBFB00BFD2
:10206000002001902948006840F44040274908605A
:102070000846006800F4404001902548006840F0A0
:102080000100234908600846006800F00100019043
:1020900000BF00BF00BF1D48006800F40050B0F54D
:1020A000005FF8D101200A9000040B9002201390E9
:1020B0000221149105211591C02116910221179139
:1020C0001891199108211A9100211B911C910AA8BD
:1020D000FEF756FE08B1FEF728F93F2002900320D4
:1020E000039000200490082005904020069007905F
:1020F0000001089040200990042102A8FEF79AFBF5
:1021000008B1FEF712F91DB000BD000018480258D2
:102110002C0400583F48006840F470003D490860B6
:102120003D48006800F00F00072806D23A480068D2
:1021300020F00F00C01D384908603848006840F0A2
:1021400001003649086000203449103108603348E6
:10215000006833490840314908602F48006800F0A2
:102160000F00072806D92C48006820F00F00C01D7A
:10217000294908600020294918310860091D0860B4
:10218000091D086027482549283108602648091D8F
:1021900008602648091D08600020091D08602348C2
:1021A000091D08600020091D08602048091D0860FD
:1021B0000020091D08601948006820F48020174994
:1021C00008600020154960310860194800686FF305
:1021D0000F00B0F1005F02D20120164908600F48DD
:1021E000D430006800F4805098B90C48D4300068AE
:1021F00040F480500949D431086043F2D2000E49BE
:1022000008600648D430006820F480500349D43177
:102210000860704788ED00E000200052004402583A
:102220007FEDF6EA000202020000FF0180020101D8
:102230000010005C088100510040005210B5026897
:102240002B4B98420ED0B0F1804F0BD0294B9842C7
:1022500008D0294B984205D0284B984202D0284BF1
:10226000984203D122F070024B681A43204B9842E7
:1022700017D0B0F1804F14D01E4B984211D01E4B96
:1022800098420ED01D4B98420BD01D4B984208D05F
:102290001C4B984205D01C4B984202D01B4B9842D5
:1022A00003D122F44072CB681A4322F080034C69B8
:1022B00043EA04028B68C3620B6883620C4B98424A
:1022C0000BD00F4B984208D00E4B984205D00E4BC6
:1022D000984202D00D4B984201D10B690363036809
:1022E00043F00403036001234361026010BD00005A
:1022F000000001400004004000080040000C0040C5
:1023000000040140004001400044014000480140F9
:1023100030B501F01F05012404FA05F3046A9C435B
:102320000462046A01F01F0502FA05F52C430462F9
:1023300030BD30B50C46816821F47F4142EA032567
:1023400025432943816030BD0A468168034B19400B
:1023500042F0070319438160704700008FFFCFFFF1
:1023600030B5026A056A25F0010505624368846993
:10237000204D2C4024F003040D682C4322F002026F
:102380008D682A431C4DA84200D10FE01B4DA84286
:1023900000D10BE01A4DA84200D107E0194DA84228
:1023A00000D103E0184DA84206D100BF22F0080278
:1023B000CD682A4322F004020F4DA8420BD00F4DE6
:1023C000A84208D00E4DA84205D00E4DA84202D01A
:1023D0000D4DA84207D123F4807323F400734D6997
:1023E0002B438D692B43436084614D6845630262D2
:1023F00030BD00008FFFFEFF0000014000040140DF
:1024000000400140004401400048014030B5026AEC
:10241000056A25F01005056243688469224D2C4049
:1024200024F440740D6844EA052422F020028D68EB
:1024300042EA05121D4DA84200D10FE01C4DA842F2
:1024400000D10BE01B4DA84200D100BF1A4DA8429D
:1024500000D100BF194DA84207D106E022F080024A
:10246000CD6842EA051222F04002104DA8420BD07E
:102470000F4DA84208D00F4DA84205D00E4DA842DE
:1024800002D00E4DA84209D123F4806323F40063E7
:102490004D6943EA85038D6943EA8503436084619E
:1024A0004D688563026230BDFF8FFFFE0000014072
:1024B0000004014000400140004401400048014048
:1024C00030B5026A056A25F4807505624368C469FF
:1024D000224D2C4024F003040D682C4322F400729A
:1024E0008D6842EA05221E4DA84200D10FE01D4D25
:1024F000A84200D10BE01C4DA84200D100BF1B4DEB
:10250000A84200D100BF1A4DA84207D106E022F42C
:102510000062CD6842EA052222F48062104DA84292
:102520000BD0104DA84208D00F4DA84205D00F4D3A
:10253000A84202D00E4DA84209D123F4805323F4BF
:1025400000534D6943EA05138D6943EA051343605F
:10255000C4614D68C563026230BD00008FFFFEFF9D
:1025600000000140000401400040014000440140DF
:102570000048014030B5036A056A25F480550562BC
:102580004468C269124D2A4022F440720D6842EA42
:10259000052223F400538D6843EA05330D4DA8420C
:1025A0000BD00D4DA84208D00C4DA84205D00C4DC3
:1025B000A84202D00B4DA84204D124F480444D69B6
:1025C00044EA85144460C2614D680564036230BD0D
:1025D000FF8FFFFE00000140000401400040014069
:1025E000004401400048014030B5026A056A25F404
:1025F000803505624368446D114D2C400D682C43B5
:1026000022F400320D8942EA05420E4DA8420BD059
:102610000D4DA84208D00D4DA84205D00C4DA84242
:1026200002D00C4DA84204D123F480334D6943EA13
:102630000523436044654D688565026230BD000036
:102640008FFFFEFF000001400004014000400140F8
:10265000004401400048014030B5026A056A25F493
:10266000801505624368446D114D2C400D6844EAA5
:10267000052422F400120D8942EA05520D4DA842AC
:102680000BD00D4DA84208D00C4DA84205D00C4DE2
:10269000A84202D00B4DA84204D123F480234D69F7
:1026A00043EA8523436044654D68C565026230BDD9
:1026B000FF8FFFFE00000140000401400040014088
:1026C000004401400048014030B50B461446026A00
:1026D000056A25F001050562816921F0F00141EAF2
:1026E000041122F00A021A438161026230BD30B542
:1026F0000B461446026A056A25F0100505628169D9
:1027000021F4704141EA043122F0A00242EA0312AE
:102710008161026230BD00BFFEE700000248006830
:10272000C0F30220704700000CED00E010B5002857
:1027300004DB0A07130E054A135406E00A07140EB9
:10274000034A00F00F031B1FD45410BD00E400E047
:1027500018ED00E010B52DED028BB1EEC08A18EE39
:10276000100A20F00040C0F1FF40C00F0AD010EE68
:10277000100A20F00040C0F1FF40C00F04BF01204C
:1027800000F014F8B0EE480ABDEC028B10BD02E078
:1027900008C8121F08C1002AFAD1704770470020EC
:1027A00001E001C1121F002AFBD1704701490860F6
:1027B00070470000180000242DE9F0412DED028B38
:1027C000B0EE408A06460D460027002413E021465D
:1027D000304600F019F860EE080A00EE105AB8EE24
:1027E000400AF4EEC00AF1EE10FA01D8274600E0E4
:1027F00003E0601CC4B23F2CE9DD00BF3846BDECED
:10280000028BBDE8F081000001F03F0200EE902A4B
:10281000F8EEE00AB3EE0A1A70EE810A9FED071A8D
:1028200060EE810AB0EE600A012805D1DFED040AEE
:1028300080EE201AB0EE410A70470000DB0FC93F5E
:10284000F304B53F2DE9F0412DED028BB0EE408A47
:10285000F0EE608A04460D4616492046B0EE480A5E
:10286000FFF7AAFF07462046B0EE680AFFF798FB7D
:10287000064655B921460020FFF794FA3846FFF77F
:102880007CFA3046FFF772FA09E021460820FFF78C
:1028900089FA3846FFF77FFA3046FFF775FA39466E
:1028A0002046FFF7B1FF20EE080ABDEC028BBDE821
:1028B000F081000000093D0010B52DED068BB0EE53
:1028C000408AB0EE609A044669EE090AB6EE001A34
:1028D00081EE200AF7EE000A30EEC00AF0EE408AE0
:1028E000F7EE000A48EEA80AB0EE600AFFF732FFE2
:1028F00030EE280AB0EE40AAFFF72CFFF0EE409A27
:1029000024B988EE290ABDEC068B10BD28EE290AF1
:10291000F9E70000FFF76CFAFDF738FEFFF792FBCE
:10292000FFF792FAFFF7E0FAFFF7BCF9002106483B
:10293000FFF7FCF80120DFED050A9FED050AFFF720
:10294000B7F900BFFEE700001C000024F4FD343F8F
:102950000050434770B504460D4605F03F0505F0AD
:102960000301E0B2FFF71EFA611CC8B2C5F3810192
:10297000FFF718FAA11CC8B22909FFF713FA70BDB6
:1029800070B504460D4605F07F0505F00301E0B281
:10299000FFF708FA611CC8B2C5F38101FFF702FA1C
:1029A000A11CC8B2C5F30111FFF7FCF9E11CC8B2C4
:1029B000A909FFF7F7F970BD000000000102030448
:1029C0000102030406070809E829000800000024A2
:1029D0001C0000008E270008042A00081C000024A8
:1029E0004C0400009E2700080000000000000000CA
:1029F00010000000010000000090D0030090D00300
:042A000000000000D2
:040000050800029954
:00000001FF
