:020000040800F2
:1000000038080020A9030008C959000879540008DD
:10001000C1590008C9070008895F000800000000F6
:10002000000000000000000000000000695C000803
:10003000610E000800000000015A0008A15C0008E1
:10004000C7030008C7030008C7030008C703000868
:10005000C7030008C7030008C7030008C703000858
:10006000C7030008C7030008C703000841080008C9
:1000700051080008C7030008C7030008C7030008A9
:10008000C7030008C7030008C7030008C703000828
:10009000C7030008C7030008C7030008C703000818
:1000A000C7030008C7030008C7030008C703000808
:1000B000C7030008C7030008C7030008C7030008F8
:1000C000C7030008C7030008C7030008C7030008E8
:1000D000C7030008C7030008C7030008C7030008D8
:1000E000C7030008C703000800000000C70300089A
:1000F000C7030008C7030008C7030008C7030008B8
:10010000C7030008C7030008C7030008C7030008A7
:10011000C7030008C7030008C7030008C703000897
:10012000C7030008C7030008C7030008C703000887
:10013000C7030008C7030008C7030008C703000877
:1001400000000000000000000000000000000000AF
:10015000C7030008C7030008C7030008C703000857
:10016000C7030008C7030008C7030008C703000847
:10017000C7030008C7030008C70300080000000009
:10018000C7030008C7030008C7030008C703000827
:10019000C7030008C7030008C7030008C703000817
:1001A000C7030008C7030008C703000800000000D9
:1001B000C7030008C7030008C7030008C7030008F7
:1001C000C7030008C703000800000000000000008B
:1001D0000000000000000000C7030008000000004D
:1001E000000000000000000000000000000000000F
:1001F0000000000000000000C7030008C70300085B
:10020000C7030008C703000800000000C703000878
:10021000C7030008C7030008C7030008C703000896
:10022000C703000800000000C7030008000000002A
:10023000C7030008C703000800000000C703000848
:10024000C7030008C7030008C7030008C703000866
:10025000C7030008C7030008C7030008C703000856
:10026000C7030008C7030008C7030008C703000846
:10027000C7030008C7030008C70300080000000008
:10028000C7030008C7030008C7030008C703000826
:1002900000000000C7030008C703000800000000BA
:1002A00000000000C7030008C7030008C7030008D8
:1002B000C7030008C7030008C7030008C7030008F6
:1002C000C7030008C7030008C703000800F002F8CE
:1002D00000F05AF80AA090E8000C82448344AAF186
:1002E0000107DA4501D100F04FF8AFF2090EBAE884
:1002F0000F0013F0010F18BFFB1A43F0010318475A
:10030000785E0000A85E00000A4410F8014B14F06B
:100310000F0508BF10F8015B240908BF10F8014B56
:100320006D1E05D010F8013B6D1E01F8013BF9D19F
:10033000641E03D0641E01F8015BFBD19142E4D33B
:1003400070470000103A24BF78C878C1FAD8520725
:1003500024BF30C830C144BF04680C60704700003F
:100360000023002400250026103A28BF78C1FBD8BE
:10037000520728BF30C148BF0B6070471FB505F05A
:10038000E6FE1FBD10B510BD00F07EF81146FFF768
:10039000F5FF05F039FE00F09CF803B4FFF7F2FF1B
:1003A00003BC00F0A3F800000A4880470A488047D1
:1003B0000A480047FEE7FEE7FEE7FEE7FEE7FEE746
:1003C000FEE7FEE7FEE7FEE705480649064A074B5B
:1003D00070470000710E0008515D0008CD02000852
:1003E000380200203808002038040020380400209B
:1003F0004FF000020429C0F0128010F0030C00F04E
:100400001B80CCF1040CBCF1020F18BF00F8012BCB
:10041000A8BF20F8022BA1EB0C0100F00DB85FEA99
:10042000C17C24BF00F8012B00F8012B48BF00F865
:10043000012B70474FF0000200B5134694469646D4
:10044000203922BFA0E80C50A0E80C50B1F12001E7
:10045000BFF4F7AF090728BFA0E80C5048BF0CC095
:100460005DF804EB890028BF40F8042B08BF7047F3
:1004700048BF20F8022B11F0804F18BF00F8012B65
:100480007047704770477047754600F02BF8AE46CE
:1004900005006946534620F00700854618B020B590
:1004A000FFF792FFBDE820404FF000064FF0000735
:1004B0004FF000084FF0000BAC46ACE8C009ACE8C8
:1004C000C009ACE8C009ACE8C00921F007018D46BD
:1004D000704710B50446AFF300802046BDE81040D9
:1004E000FFF75BBF0048704710000020014918204B
:1004F000ABBEFEE7260002007047000000000000CF
:1005000010B50446006842F2001140F48070C4F255
:100510000201884204D142F20830C4F2020003E032
:1005200046F20830C5F60200006810F4403F0FD0D4
:1005300004F0B2FA6168B1F5803F05D0B1F5403FF3
:1005400021D0B1F5003F1FD1090CB0FBF1F01BE049
:100550004FF40020002103F01BFB6168A1F580220D
:100560004FEAB2420A2A0FD8DFE802F00606060672
:100570000606383A3C3E40006FF0010202EA514163
:10058000B0FBF1F000E080084BF62141C0F2BE0163
:10059000884205D82068816821F44071816010BDCF
:1005A00047F64101C0F27D11884206D82068012239
:1005B000816862F30921816010BD21684FF28102D8
:1005C000C0F2FA229042886804D8022262F309201D
:1005D000886010BD40F44070886010BD0009D3E70A
:1005E0004009D1E78009CFE7C009CDE7000ACBE792
:1005F00010B5846B216E11F0500F216E05D0C90625
:100600000ED4A16DC96C884710BD41F400702066FE
:1006100020680168090707D4C068800716D10AE07E
:10062000204601F015F810BD04F092FF70B120686B
:10063000C06880040AD4206E20F480702066206E8A
:10064000C00403D4206E40F001002066204600F074
:10065000D3FF10BD0000000080B5806B016E41F03B
:1006600040010166416E41F00401416600F0F0FF77
:1006700080BD00000000000080B5806B00F0D4FF5A
:1006800080BD000000000000B0B50446006804F022
:1006900047FF0546206804F047FF01464FF0000081
:1006A00085BB002908BFB0BD2068816801F00D013D
:1006B00001291CD104F0E4FE20680321016002F04E
:1006C00083FF21688968C90701D10020B0BD0546B4
:1006D00004E000BF20688068C00712D002F074FFF9
:1006E000401B0328F6D320688068C007F2D0206E34
:1006F00040F010002066606E40F00100606601204E
:10070000B0BD0020B0BD000070B50446006804F024
:100710000BFF00281CBF002070BD20683F22C8F2DC
:1007200000028168114209D0206E40F0100020665E
:10073000606E40F001006066012070BD04F0B4FE00
:1007400002F042FF42F2000546F20031C4F2020517
:10075000226805F5807605F54073C5F60201B242C0
:1007600008BF1946AA42054608BF1946084604F0C4
:10077000BFFE21680A46B14204BF42F20002C4F241
:100780000202002818BF8A4203D121680868C00706
:1007900008D0002070BD00BF21680868C0074FF076
:1007A000000010D1084604F0BFFE10B9206804F024
:1007B0007BFE02F009FF401B0328EDD32068006890
:1007C000C007E9D1B0E770BDFEE7000000000000FF
:1007D00010B5846B204601F05BFA0120207110BD3A
:1007E00010B5846B204601F08FF90120207110BDF7
:1007F00010B5846B206940F004002061204601F0B0
:100800004FFA0120207110BD10B5846B206940F0B3
:1008100004002061204601F07FF90120207110BD05
:1008200080B5806B01F038FA80BD00000000000048
:1008300080B5806B01F06CF980BD00000000000005
:1008400080B540F2F400C2F2000001F019FB80BD57
:1008500080B540F26C10C2F2000001F011FB80BDC7
:1008600040F20F420168C4F20202914210DC6F2292
:10087000C4F20202914220DC3F22C4F20202914201
:1008800036DC1022C4F20202914254D028224EE0FB
:1008900040F26F42C4F2020291421ADC40F23F423F
:1008A000C4F2020291422ADC40F21042C4F2020277
:1008B000914240D040F2284239E09F22C4F2020225
:1008C000914225DC7022C4F20202914233D0882288
:1008D0002DE040F29F42C4F2020291421FDC40F23E
:1008E0007042C4F20202914225D040F288421EE0DA
:1008F0004022C4F2020291421DD0582217E040F279
:100900004042C4F20202914215D040F258420EE039
:10091000A022C4F2020291420DD0B82207E040F2B8
:10092000B842C4F20202914205D040F2A042C4F2A1
:10093000020291421AD1D0F800C06FF00F024AF6BD
:10094000AB2352FA8CF2CAF6AA23A2FB033109A305
:100950005F2AC1F302115B5C40F2FF312CEA010116
:10096000C36588BF0431816508467047016821F07E
:10097000FF01F8E700061016000610160000000040
:1009800010B545F257420168C5F6020291420EDCED
:1009900045F22F42C5F60202914217DC45F20842A9
:1009A000C5F60202914226D045F21C421FE045F2F4
:1009B0007F42C5F60202914211DC45F25842C5F66B
:1009C0000202914217D045F26C4210E045F23042EB
:1009D000C5F6020291420ED045F2444207E045F2CC
:1009E0009442C5F60202914205D045F28042C5F616
:1009F0000202914219D101784CF6CD42CCF6CC429C
:100A000045F600030839C5F60203A1FB021203F103
:100A10008001120903EB820302F01F020366012327
:100A2000416603FA02F1816610BD02784AF6AB23F3
:100A3000CAF6AA234FF0080E103AA2FB032340F295
:100A40000F42C4F202024FEA131C914202F1AA04BF
:100A5000624688BF0EEB131240F60003A142C4F2B7
:100A6000020303F1800128BF6246D3E700000000C3
:100A700010B50279511E072988BF10BD45F2574CA9
:100A800045F6FC0E0368C5F6020CC5F6020E63457A
:100A90000EF1440C0EDC45F22F44C5F60204A342CD
:100AA00017DC45F20844C5F60204A34226D045F2FD
:100AB0001C441FE045F27F44C5F60204A34211DC4A
:100AC00045F25844C5F60204A34217D045F26C44DF
:100AD00010E045F23044C5F60204A3420ED045F2C0
:100AE000444407E045F28044C5F60204A34205D021
:100AF00045F29444C5F60204A34209D10EEB8202EA
:100B0000C2660122C0F870C002FA01F1416710BD4F
:100B100040F6FC0EC4F2020E0EF1440CEEE70000AB
:100B20008169B1F5005F07D079B9816A022912D0D5
:100B3000012916D079B112E0816A03290FD8DFE8C4
:100B400001F0020A021001207047816A03293CBFAC
:100B50000120704703D1C06AC0F3006070470020D5
:100B60007047C06AA0F1C070B0FA80F040097047C9
:100B700070B540F26F44D0F800E0C4F20204D0F83F
:100B800058C0A64519DC9F25C4F20205AE4531DCEC
:100B90005725C4F20205AE4556DC1025C4F2020505
:100BA000AE4500F092802825C4F20205AE4500F063
:100BB0008C804025C4F2020584E045F22F45C5F63D
:100BC0000205AE452BDC40F2B745C4F20205AE4546
:100BD00048DC40F27045C4F20205AE4575D040F2E3
:100BE0008845C4F20205AE456FD040F2A045C4F27C
:100BF000020567E040F22745C4F20205AE4540DC3D
:100C0000A025C4F20205AE455FD0B825C4F20205A6
:100C1000AE455AD040F21045C4F2020552E045F20A
:100C20006B45C5F60205AE453CDC45F23045C5F6E0
:100C30000205AE4549D045F24445C5F60205AE452C
:100C400043D045F258453BE05825C4F20205AE4575
:100C50003BD07025C4F20205AE4536D08825C4F2DB
:100C600002052FE040F2B845C4F20205AE452CD093
:100C700045F20845C5F60205AE4526D045F21C45AD
:100C80001EE040F22845C4F20205AE451DD040F2F8
:100C90004045C4F20205AE4517D040F25845C4F2B3
:100CA00002050FE045F26C45C5F60205AE450CD0D5
:100CB00045F29445C5F60205AE4506D045F280459D
:100CC000C5F60205AE4540F0C980456EC66E002EE1
:100CD000866E6E601CBFD0E91C566E60A64515DCA2
:100CE0009F24C4F20204A6452BDC5724C4F202045C
:100CF000A6454EDC1024C4F20204A64576D0282472
:100D0000C4F20204A64571D040246BE045F22F44A2
:100D1000C5F60204A64527DC40F2B744C4F202043B
:100D2000A64542DC40F27044C4F20204A6455DD000
:100D300040F28844C4F20204A64557D040F2A044D1
:100D400050E040F22744C4F20204A6453CDCA02453
:100D5000C4F20204A64549D0B824C4F20204A64550
:100D600044D040F210443DE045F26B44C5F6020425
:100D7000A6454FDC45F23044C5F60204A6455BD0DB
:100D800045F24444C5F60204A64555D045F2584400
:100D90004EE05824C4F20204A64527D07024C4F2C1
:100DA0000204A64522D088241CE040F2B844C4F2D4
:100DB0000204A6451AD045F20844C5F60204A64529
:100DC0003AD045F21C4433E040F22844C4F2020415
:100DD000A6450BD040F24044C4F20204A64505D01B
:100DE00040F25844C4F20204A64537D104683F25B6
:100DF0008668C06D00F01F00402E05FA00F0CCF8A8
:100E00000800206820F480202060636021D0A16069
:100E1000E26070BD45F26C44C5F60204A6450BD0F5
:100E200045F28044C5F60204A64505D045F2944437
:100E3000C5F60204A64511D10468C66D806806F0A7
:100E40001F060125402805FA06F6CCF80460636009
:100E500002D1A260E16070BDA160E26070BD0000DF
:100E6000704700000000000072B600BFFEE70000FF
:100E700044F60C00C5F60200016841F00201016071
:100E800050F8081C8904FBD57047000000000000E2
:100E9000F0B581B000230093044690F85C0001286F
:100EA00001D1022535E0012084F85C002046164679
:100EB0000F46FFF7E9FB05460028206E02D040F000
:100EC000100022E041F202113246884339460230D6
:100ED0002066206804F048FC4FF60006C2F2C356B4
:100EE000206804F015FB60B1009801300090009874
:100EF000B042F5D3206E012540F0100020F0020032
:100F000003E0206E012161F301002066002084F8D7
:100F10005C00284601B0F0BD2DE9F04182B00446E6
:100F200090F85C00012803D1022002B0BDE8F081F6
:100F3000012084F85C0000200190009042F200073C
:100F4000C4F202072068B8420BD107F580780D463D
:100F5000404604F0F9FA0646206804F0F5FA3043FA
:100F60000AD0206E40F0200020660120002184F885
:100F70005C1002B0BDE8F08146F200002168C5F6C1
:100F800002004145064608BF3E46B94208BF0E462C
:100F90002A6841F48071D6F80833002A23F44042CD
:100FA00015D042F2001C6B68C4F2020C614542EAA3
:100FB0000301C6F808131BD1384604F0B9FA0746F6
:100FC000404604F0B5FA3843B0B10020CEE742F213
:100FD0000013C6F80823C4F20203994216D138461A
:100FE00004F0A6FA0546404604F0A2FA28430FE0B2
:100FF00004F09EFA0028E8D1D6F8080340F61F71E5
:1010000088432968AA680843104309E004F090FA6D
:1010100008B10020AAE7D6F8080340F61F718843FC
:10102000C6F808030020A1E72DE9F04782B00022AE
:101030000192044690F85C00012803D1022002B01E
:10104000BDE8F087012084F85C0020680E4604F0BB
:1010500077FA28B1206E40F02000206601203FE2A0
:10106000326846F20008002AC5F6020811D420684A
:1010700040450ED092FAA2F1B1FA81F1130308BFF4
:10108000910E012301F01F0103FA01F1C369194315
:10109000C1612068716804F077FA206804F050FAA2
:1010A0000546206804F030FA284305D0206804F093
:1010B0003BFAC8B1002013E220683168B26804F03E
:1010C0009FFA2068404552D041F20001C5F6004128
:1010D000096801F07041B1F1805F4FD17269C16858
:1010E0000E2303EA510355E0002720683168F268B7
:1010F000C4F2527704F098FAF06807F52D0188429F
:1011000040F0E9812068404500F0288142F200115A
:10111000C4F20201884200F0378142F20001C4F2B9
:101120000201884240F049811F223168C1F2F04239
:10113000914240F32F8140F2FF72C2F63062914239
:1011400040F3558140F60002C2F63062914200F051
:10115000A58141F20002C3F26022914200F0998120
:101160000022C4F22132914200F0B2819BE1726907
:10117000D8F80C10062303EA91030BE0C1687269EA
:10118000C368C9064FEA530102D401F00E0301E01F
:1011900001F00803316904292BD1404547D0016E85
:1011A000326801F0F841B1EB826F4FEA826103D1FE
:1011B000026E22F000420266426E02F0F8428A425B
:1011C00003D1426E22F000424266826E02F0F84283
:1011D0008A4203D1826E22F000428266C26E02F021
:1011E000F8428A427FF462AFC16E21F00041C166CD
:1011F0005CE702FA03F3326804F05EFA20683169B2
:10120000404500F09A8096F82120013AB2FA82F225
:101210005209D20704F090FA307E0138B0FA80F11A
:1012200020684A093169D20204F03AFA3EE74FF6E3
:10123000FF7700214046C0F20F0704F05DF9054634
:101240002068002104F058F92A03326890FAA0F1CE
:10125000B1FA81F108BFC0F3846192FAA2F0B0FA4A
:1012600080F0130308BFC2F38460814203D1206879
:10127000002104F071FA2068012104F03DF90546CF
:101280002068012104F038F990FAA0F13268B1FA2F
:1012900081F13D4208BFC0F3846192FAA2F03A4264
:1012A000B0FA80F008BFC2F38460814203D12068A5
:1012B000012104F051FA2068022104F01DF90546CD
:1012C0002068022104F018F990FAA0F13268B1FA0E
:1012D00081F13D4208BFC0F3846192FAA2F03A4224
:1012E000B0FA80F008BFC2F38460814203D1206865
:1012F000022104F031FA2068032104F0FDF80546CC
:101300002068032104F0F8F890FAA0F13268B1FAED
:1013100081F13D4208BFC0F3846192FAA2F03A42E3
:10132000B0FA80F008BFC2F3846081427FF4BEAEA1
:101330002068032104F010FAB8E6F2690846114665
:1013400004F0EEF996F820000138B0FA80F1206838
:101350004A093169520604F0D3F9A7E61F22316821
:10136000C1F2F04291422ADC0722C0F6904291423B
:101370005FDC0222C0F23042914258D00422C0F613
:101380006002914215D098E01F223168C1F2F0420C
:10139000914226DC0722C0F69042914237DC0222BD
:1013A000C0F23042914242D00422C0F66002914223
:1013B00079D14027C1F620178AE0002788E040F263
:1013C000FF72C2F63062914246DC2022C1F2F04246
:1013D000914227D040F20042C2F60022914211D041
:1013E0006BE040F2FF72C2F63062914245DC20228F
:1013F000C1F2F042914215D040F20042C2F6002202
:10140000914250D140F60007C2F6306760E00822F2
:10141000C0F6904291421BD01022C1F2C00291420C
:1014200011D040E040F20027C2F2B05750E001274F
:101430004EE00822C0F69042914209D01022C1F23B
:10144000C002914239D140F20017C2F280173FE04A
:101450008027C1F650573BE040F60002C2F63062EA
:1014600091421BD042F20002C3F29062914224D119
:1014700044F20007C3F6C0272AE040F60002C2F695
:10148000306291420AD041F20002C3F260229142DE
:1014900009D142F20007C3F2906719E041F2000758
:1014A000C3F2602714E000220027C4F68432914280
:1014B00004BF0027C4F6B8770AE044F20002002710
:1014C000C3F6C022914204BF48F20007C3F6F0679A
:1014D000394604F07DF83068B0F1FF3F06DD0020AA
:1014E000002184F85C1002B0BDE8F08742F20005EC
:1014F00008F54079C4F20205216805F5807705F505
:1015000040724846B94208BF1046A94208BF10467B
:1015100003F0EAFF216842F2001241F48071C4F244
:1015200002029142824608D1284603F0FDFF05469B
:10153000384603F0F9FF284302E0404603F0F4FF89
:1015400000287FF487AD5FEA0A20316809D40020C3
:10155000CCF25270814204D1206840451DD0002059
:10156000BEE75FEACA1009D40020CCF221308142E4
:1015700004D12068404531D00020B1E75FEA4A201D
:101580004FF00000ACD40022CCF684329142A7D1B7
:101590002068404527D00020A2E74AF400014846D1
:1015A00004F076F840F2000042F66351C2F2000007
:1015B000C0F23E5100688009A0FB010188090221A8
:1015C00001EB40000190019858B101980138019059
:1015D000019800284FF00000F7D181E74AF08071B0
:1015E00003E000207CE74AF48001484604F050F80C
:1015F000002075E70000000080B542F2000100689D
:10160000C4F20201884218BF80BD40F2000040F2DF
:101610000041C2F20040C2F2004100F5007001F545
:10162000007104F0F1F980BD80B542F2000100685C
:10163000C4F20201884218BF80BD40F2000040F2AF
:101640000041C2F20040C2F2004104F0DDF980BD69
:1016500070470000000000002DE9F04182B0044610
:1016600000284FF00000019019D0206E30B92046BC
:1016700000F03AF90020606684F85C00206803F00E
:101680004BFF10B1206803F007FF206803F054FF00
:1016900038B1206803F050FFE8B1002524E00125AF
:1016A0001CE1206803F014FF40F2000042F6635191
:1016B000C2F20000C0F23E5100688009A0FB0101A7
:1016C000012000EB911000BF019001980028E0D0AC
:1016D00001980138F8E7206E012540F010002066DF
:1016E000606E40F001006066206803F029FF216E03
:1016F00001F010010843206E03D040F010000125D6
:10170000EBE020F4817046F2000802302066206889
:10171000C5F6020803F008FF40B3617EE26B206863
:10172000404542EA41323AD0A168114394F8202062
:10173000012A41EA024106D1626A0023CFF6FE7314
:1017400003EB42421143A26A22B102F47872E36AC7
:101750001143194340452ED002464CF20307CFF601
:10176000F07752F80C3F3B40194334E0206842F2D6
:10177000001140F48070C4F2020142F20007884276
:10178000C4F2020761D1384603F0CEFE064607F5E3
:10179000807003F0C9FE30430028BED15BE0D4E97D
:1017A0000213082942EA030266D00C2966D01C29DC
:1017B00066D11021B9E744F20703D8F80C20CFF620
:1017C000F0731A4011430246C16052F8101F636B58
:1017D00021F040611943116003F0B2FE0646206813
:1017E00003F092FE304369D1217E206840454FEAE4
:1017F000813102D0226B114303E094F8382041EA92
:101800004201C26844F203039A431143C16094F851
:101810004410012915D14FF61E014045CFF6004175
:1018200032D0026900271140CFF6FF77D4E91223A6
:101830001943236D07EB02421143626D19431143B3
:101840002DE0016921F001012BE0404603F06CFE20
:1018500000287FF462AF07F5807007F540722168B9
:101860008142104618BF08F54070B942616808BF50
:10187000104603F005FF50E7002156E7082154E722
:10188000182918BF002150E7D8F810201140D4E9DA
:1018900012231143226D1943636D1143194341F023
:1018A0000101016140450169226C21F0704141EA6A
:1018B0000201016102D02046FEF722FE2068216964
:1018C000026B012922F00F0102D1E269013A1143B2
:1018D00001630121206E61F301002066284602B0F9
:1018E000BDE8F0810000000070B5B6B0044602A863
:1018F000B8210025CDE93455CDE932553195FEF7B3
:1019000099FD42F200012068C4F20201884201D030
:1019100036B070BD4FF400200290042004900C20DB
:10192000059002200890CDE90600C0200395CDE97E
:10193000090502A80B952A9502F0BEFA08B1FFF737
:1019400093FA44F2D8400026C5F60200016841F03F
:1019500020010160016801F0200101910199816875
:1019600041F004018160806831A900F00400019019
:101970000198012031900320329040F60000C5F616
:101980000200339601F04CFD40F2F4051020C2F243
:101990000005C4F2020028600920C5E901064FF4E1
:1019A000806028614FF4006068614FF40050A861C6
:1019B0004FF48070EE60C5E9070628466E6201F0BC
:1019C00033F808B1FFF750FAA565AC6336B070BDC7
:1019D0002DE9F04F81B042F2000646F2000AC4F24F
:1019E0000206044606F54075036806F58077C5F6DD
:1019F000020A2846BB4218BF0AF54070B34290461F
:101A0000894608BF284603F073FD8346206803F02B
:101A100097FD08B1022570E094F85C00012801D11F
:101A200002256AE0BBF1090F4FF0010084F85C0069
:101A30004BD800FA0BF040F22121084245D0204655
:101A4000FEF762FE20B10546002084F85C0054E0F9
:101A5000206840F60172216EB84221EA020118BFE7
:101A60000646BBF1000F01F58071216618BF864262
:101A700003D1216E21F480112166216E0022C90458
:101A800040F2F15344BF626E22F0060240F27967E1
:101A9000C0F600036266C0F60007A26D0021504543
:101AA000C2E90F3740F25963C0F60003D3644FF028
:101AB0001C02026084F85C10416841F01001416032
:101AC00008D0216B03F058FD0CE00125002084F8BC
:101AD0005C0012E094F83800400003F041FD2068FB
:101AE00003F0EEFC21684A46A06D4031434601F008
:101AF00067FA0546206803F05FFD284601B0BDE89F
:101B0000F08F00000000000070470000000000009F
:101B10007047000000000000704700000000000057
:101B20002DE9F041044600284FF0010000F0AD809F
:101B30000D46002900F0A980607901284FF00200CD
:101B400008BFBDE8F0812968164604294FF001025C
:101B50006271207150D101F037FD21680746486B52
:101B6000AEB1B0F1FF3F07DDA86948642DE000BFCA
:101B70002168486B0028F7D501F026FDC01B02281C
:101B8000F6D32068406BB0F1FF3FF1DC13E048F280
:101B90000008C2F2000801E02168486B10EA080F53
:101BA00011D001F011FDC01B0228F5D32068406B55
:101BB00010EA080FF0D0206940F0080020610320EF
:101BC0002071BDE8F081A8690864206806F0100261
:101BD00040F2FF33816C9340EF69994307FA02F3B7
:101BE0002F6A19438164FF21C36C914023EA0101EC
:101BF00007FA02F21143C164286901280BD1206859
:101C000006F010021F23816B93406F69994307FA16
:101C100002F211438163216806F010020723C86BAA
:101C2000EF689340012F20EA030C4FF0000003D02F
:101C3000022F03D1012705E0002703E0AF68B7FAC0
:101C400087F77F092E68AB6837433B436F68934043
:101C500043EA0C03CB634FF480430E68934026EABB
:101C600003030B6040F6FE730E68934026EA0303FD
:101C700097403B430B60C02303FA02F20B6823EA50
:101C800002020A60012121716071BDE8F08100004B
:101C900070470000000000007047000000000000D6
:101CA000704700000000000078B110B504460079CC
:101CB00020B900206071204600F00AF8022020714F
:101CC000002020610121217110BD0120704700001A
:101CD00070B586B047F2004104460068C4F20001C6
:101CE00000268842CDE9046603960296019601D04B
:101CF00006B070BD44F2E040C5F60200816841F0D4
:101D000000518160816801F00051009100990168E3
:101D100041F001010160006801A900F0010000909C
:101D20000098102001900320CDE902060020C5F69E
:101D3000020001F075FB40F26C152820C2F200058C
:101D4000C4F202002860432068604020C5E9020612
:101D50004FF4806028614FF4006068614FF40050D8
:101D6000A8614FF480706E62C5E90706284600F04E
:101D70005BFE08B1FFF778F8A560AC6306B070BDF4
:101D800070B560B30446407901284FF0020008BFE7
:101D900070BD0D46DDF810C04FF00101617120717A
:101DA000FDB1E16840F2E17640F6310E2068C0F600
:101DB0000006C0F6000EC1E90F6E40F60906BCF140
:101DC000040FC0F60006CE64016841F08051016046
:101DD00025D0BCF1000F25D100F1140C2AE0012020
:101DE00070BDA16840F2D17E40F621062068C0F6A1
:101DF000000EC0F60006C1E90FE640F2F176BCF134
:101E0000040FC0F60006CE64016841F48051016001
:101E10000BD0BCF1000F0BD100F1080C0AE000F16F
:101E2000180C07E000F11C0C04E000F10C0C01E0C0
:101E300000F1100C206801682DB141F000510160E3
:101E400004F10C0004E041F40051016004F10800C9
:101E500000681146624601F0B3F84FF0000161716D
:101E600020B1216941F00401216170BD216805F0B4
:101E70001002012303FA02F20B681A430A6070BDD4
:101E80002DE9F04381B00021009140F200010446A9
:101E9000C2F2000140F26F49A56DC4F20209086860
:101EA00048F2B511C1F64E312668A0FB01084E4537
:101EB0002F682A6815DC9F20C4F2020086422BDCC2
:101EC0005720C4F2020086424FDC1020C4F2020008
:101ED000864278D02820C4F20200864273D0402087
:101EE0006CE045F22F40C5F60200864227DC40F246
:101EF000B740C4F20200864243DC40F27040C4F2B4
:101F0000020086425FD040F28840C4F2020086425E
:101F100059D040F2A04051E040F22740C4F2020004
:101F200086423DDCA020C4F2020086424BD0B8209D
:101F3000C4F20200864246D040F210403EE045F234
:101F40006B40C5F60200864274DC45F23040C5F6AF
:101F50000200864200F0818045F24440C5F602004E
:101F600086427AD045F2584072E05820C4F202000E
:101F7000864228D07020C4F20200864223D08820F6
:101F80001CE040F2B840C4F2020086421BD045F289
:101F90000840C5F6020086425FD045F21C4057E07B
:101FA00040F22840C4F2020086420CD040F2404089
:101FB000C4F20200864206D040F25840C4F2020049
:101FC000864240F0EF84E06D00F01F01082000FA27
:101FD00001F23A4200F0148140F20F40C4F20200D4
:101FE000864213DC6F20C4F20200864200F38E802A
:101FF0003F20C4F20200864200F3CF801020C4F2DA
:102000000200864200F0ED802820E5E04E4500F316
:10201000898040F23F40C4F20200864200F3C4804F
:1020200040F21040C4F20200864200F0DA8040F232
:102030002840D1E045F26C40C5F6020086420CD043
:1020400045F28040C5F60200864206D045F2944033
:10205000C5F60200864240F0A5842068E16D01F0DB
:102060001F010368580727D50420884010EA02079B
:1020700022D01904686000F18780980600F18E84F0
:1020800040F20F40C4F20200864200F3AD836F209D
:10209000C4F20200864200F3E8833F20C4F202004B
:1020A000864200F352841020C4F20200864200F0FF
:1020B0006F84282000F068BC980742D50220884031
:1020C00010EA02073DD01904686000F10C839806FD
:1020D00000F19A8440F20F40C4F20200864200F3FD
:1020E000B1836F20C4F20200864200F313843F20C4
:1020F000C4F20200864200F358841020C4F20200A9
:10210000864200F07584282000F06EBC9F20C4F247
:102110000200864251DC7020C4F20200864260D088
:10212000882059E040F29F40C4F2020086424BDC16
:1021300040F27040C4F20200864252D040F2884021
:102140004AE0180740F12E8408208840104000F033
:10215000298440F20F40C4F20200864200F32E832D
:102160006F20C4F20200864200F351833F20C4F284
:102170000200864200F395831020C4F202008642DA
:1021800000F0B3832820ABE3D80300F1B282216CC6
:10219000002940F00E8300F005BC4020C4F202008C
:1021A00086421ED0582017E040F24040C4F20200A0
:1021B000864216D040F258400EE0A020C4F2020041
:1021C00086420ED0B82007E040F2B840C4F20200C8
:1021D000864206D040F2A040C4F20200864240F09F
:1021E0009082206804230068184209D020680368A0
:1021F00023F004030360AA60606D40F00100606595
:10220000012000FA01F23A4270D040F20F40C4F2CD
:102210000200864210DC6F20C4F2020086421CDC01
:102220003F20C4F20200864232DC1020C4F20200D9
:10223000864251D028204AE04E451ADC40F23F4009
:10224000C4F2020086422ADC40F21040C4F20200CE
:10225000864241D040F2284039E09F20C4F202007B
:10226000864225DC7020C4F20200864234D08820E9
:102270002DE040F29F40C4F2020086421FDC40F293
:102280007040C4F20200864226D040F288401EE030
:102290004020C4F2020086421ED0582017E040F2CF
:1022A0004040C4F20200864216D040F258400EE090
:1022B000A020C4F2020086420ED0B82007E040F20F
:1022C000B840C4F20200864206D040F2A040C4F2F8
:1022D0000200864240F018822068406900F08000C9
:1022E00020B1AA60606D40F002006065042000FA31
:1022F00001F23A4270D040F20F40C4F2020086422E
:1023000010DC6F20C4F2020086421CDC3F20C4F2C5
:102310000200864232DC1020C4F20200864251D014
:1023200028204AE04E451ADC40F23F40C4F2020049
:1023300086422ADC40F21040C4F20200864241D0BC
:1023400040F2284039E09F20C4F20200864225DC9A
:102350007020C4F20200864234D088202DE040F282
:102360009F40C4F2020086421FDC40F27040C4F27B
:102370000200864226D040F288401EE04020C4F28F
:10238000020086421ED0582017E040F24040C4F2BE
:102390000200864216D040F258400EE0A020C4F25F
:1023A000020086420ED0B82007E040F2B840C4F2E6
:1023B0000200864206D040F2A040C4F202008642EB
:1023C00040F0A8812068006800F0020020B1AA60F7
:1023D000606D40F004006065102000FA01F13942A0
:1023E0007ED040F20F40C4F20200864210DC6F2023
:1023F000C4F2020086421CDC3F20C4F20200864286
:1024000032DC1020C4F20200864251D028204AE07B
:102410004E451ADC40F23F40C4F2020086422ADCFC
:1024200040F21040C4F20200864241D040F22840FF
:1024300039E09F20C4F20200864225DC7020C4F2FD
:102440000200864234D088202DE040F29F40C4F242
:10245000020086421FDC40F27040C4F20200864255
:1024600026D040F288401EE04020C4F2020086429E
:102470001ED0582017E040F24040C4F202008642CD
:1024800016D040F258400EE0A020C4F2020086426E
:102490000ED0B82007E040F2B840C4F202008642F5
:1024A00006D040F2A040C4F20200864240F03881DB
:1024B000266808223068104212D0A960206801689E
:1024C0004903016806D4C90506D4016821F0080152
:1024D000016001E008034FD4216C09B12046884710
:1024E000E06D202100F01F008140394200F0AC80F7
:1024F00040F20F432268C4F202039A4210DC6F23B9
:10250000C4F202039A421CDC3F23C4F202039A4243
:1025100036DC1023C4F202039A4255D028234EE041
:102520004A451ADC40F23F43C4F202039A422EDCD1
:1025300040F21043C4F202039A4245D040F22843CD
:102540003DE09F23C4F202039A4229DC7023C4F2C7
:1025500002039A4238D0882331E040F29F43C4F20C
:1025600002039A4223DC40F27043C4F202039A420F
:102570002AD040F2884322E0A16C0029AED1AFE717
:102580004023C4F202039A421ED0582317E040F2BF
:102590004043C4F202039A4216D040F258430EE080
:1025A000A023C4F202039A420ED0B82307E040F2FF
:1025B000B843C4F202039A4206D040F2A043C4F2E8
:1025C00002039A4240F0AE802268102312681A4239
:1025D0003AD0A96094F835202168042A0A681DD1F0
:1025E00022F016020A604A6922F080024A61226CD7
:1025F0000AB9A26C1AB10A6822F008020A603F21E7
:1026000001FA00F0A860012084F83500216D002057
:10261000002984F8340040F0CC80C3E150030868FE
:102620000CD4C0050CD4086820F01000086001200C
:1026300084F83500002084F8340001E000035CD405
:10264000E16B09B120468847606D002800F0AA813F
:10265000606DC00700F0A980042084F8350040F2C6
:102660000F412068C4F20201884210DC6F21C4F2DD
:10267000020188421CDC3F21C4F20201884253DC83
:102680001021C4F20201884273D028216BE0484532
:102690001ADC40F23F41C4F2020188424BDC40F2B6
:1026A0001041C4F20201884263D040F228415AE04E
:1026B0009F21C4F20201884246DC7021C4F202016B
:1026C000884256D088214EE040F29F41C4F2020178
:1026D000884240DC40F27041C4F20201884248D096
:1026E00040F288413FE0D8037AD4616C002960D180
:1026F00058E1A16C00295CD154E1616C0029A1D1A1
:10270000A2E7082330466EE53068002000287FF4F9
:10271000E8ADEBE53068002000287FF458AE5BE6BA
:102720000422C7E6022351E74021C4F20201884295
:102730001FD0582117E040F24041C4F20201884204
:1027400017D040F258410EE0A021C4F202018842A5
:102750000FD0B82107E040F2B841C4F2020188422C
:1027600007D040F2A041C4F20201884208BF2068AD
:1027700000E020684FEA9821026822F0010202601E
:10278000009801300090884203D820680068C00794
:10279000F6D120680068C0074FF0030008BF012091
:1027A00084F83500002084F83400E16C002900F042
:1027B000F9802046884701B0BDE8F0834E4532DC01
:1027C00040F23F40C4F20200864271DC40F2104009
:1027D000C4F20200864200F0888040F228407FE088
:1027E000E16B0029E5D1DDE04E454BDC40F23F4096
:1027F000C4F20200864200F3AF8040F21040C4F2FF
:102800000200864200F0C48040F22840BCE09F20D5
:10281000C4F20200864254DC7020C4F202008642F8
:1028200063D088205CE040F29F40C4F20200864200
:102830004EDC40F27040C4F20200864255D040F2B5
:1028400088404DE04E4571DC40F23F40C4F202004A
:10285000864200F3B18040F21040C4F2020086428A
:1028600000F0C68040F22840BEE09F20C4F2020083
:1028700086427ADC7020C4F20200864200F0888032
:10288000882081E040F29F40C4F20200864273DC5F
:1028900040F27040C4F20200864279D040F2884093
:1028A00072E04020C4F2020086421ED0582017E099
:1028B00040F24040C4F20200864216D040F2584036
:1028C0000EE0A020C4F2020086420ED0B82007E03D
:1028D00040F2B840C4F20200864206D040F2A04066
:1028E000C4F20200864240F0948026686FF01C0219
:1028F000306810403060012000FA01F169606065C5
:1029000084F835000020E16C84F8340000297FF45D
:1029100050AF47E09F20C4F20200864255DC702091
:10292000C4F20200864263D088205DE040F29F40FE
:10293000C4F2020086424FDC40F27040C4F2020052
:10294000864255D040F288404EE04020C4F202005A
:1029500086421DD0582017E040F24040C4F20200E9
:10296000864215D040F258400EE0A020C4F202008A
:1029700086420DD0B82007E040F2B840C4F2020011
:10298000864205D040F2A040C4F20200864243D104
:1029900026686FF00801306808403060216C00291B
:1029A0007FF407AF01B0BDE8F0834020C4F202001D
:1029B00086421DD0582017E040F24040C4F2020089
:1029C000864215D040F258400EE0A020C4F202002A
:1029D00086420DD0B82007E040F2B840C4F20200B1
:1029E000864205D040F2A040C4F20200864216D1D1
:1029F00026686FF01401306808403060012084F8C8
:102A00003500002084F83400E16B00297FF4D1AE5A
:102A1000C8E76FF00E026BE76FF00401BBE76FF0E1
:102A20000A01E8E7000000002DE9F04381B0044608
:102A300000F0CAFD002C00F0738140F26F4805469B
:102A40002068C4F20208404515DC9F21C4F202014F
:102A500088422BDC5721C4F20201884251DC10214C
:102A6000C4F2020188427AD02821C4F202018842CD
:102A700075D040216EE045F22F41C5F60201884233
:102A800027DC40F2B741C4F20201884245DC40F243
:102A90007041C4F20201884261D040F28841C4F220
:102AA000020188425BD040F2A04153E040F227414E
:102AB000C4F2020188423FDCA021C4F20201884234
:102AC0004DD0B821C4F20201884248D040F21041F2
:102AD00040E045F26B41C5F60201884200F3908068
:102AE00045F23041C5F60201884200F09C8045F273
:102AF0004441C5F60201884200F0958045F25841F4
:102B00008CE05821C4F20201884228D07021C4F21E
:102B10000201884223D088211CE040F2B841C4F26F
:102B2000020188421BD045F20841C5F602018842E5
:102B300079D045F21C4171E040F22841C4F2020113
:102B400088420CD040F24041C4F20201884206D0D3
:102B500040F25841C4F20201884240F0288240F21B
:102B60000F420221C4F2020284F8351090424FF065
:102B7000000184F8341012DC6F21C4F20201884293
:102B800020DC3F21C4F20201884200F39180102131
:102B9000C4F20201884200F0B0802821A7E040453D
:102BA0001EDC40F23F41C4F20201884200F38780FC
:102BB00040F21041C4F20201884200F09E8040F2CF
:102BC000284194E09F21C4F20201884200F38080F2
:102BD0007021C4F20201884200F08F80882186E0D3
:102BE00040F29F41C4F20201884278DC40F2704119
:102BF000C4F20201884200F0808040F2884176E011
:102C000045F26C41C5F6020188420CD045F2804184
:102C1000C5F60201884206D045F29441C5F602018C
:102C2000884240F0C48104F1080E022084F8350087
:102C300000209EE80640A1F1800384F83400B3FA36
:102C400083F320685B094029D4E90576D4E9079C21
:102C500005684FEA83336FF3101508BF102345EA68
:102C6000D2014AF6F8321943CAF2FD7241EADE0196
:102C70004CF6CD4341EAD701024441EAD601CCF6F5
:102C8000CC4341EAD901A2FB032341EA1C110160B4
:102C90006FF0030000EA9300E0652046FDF7E0FDD9
:102CA000E16D012201F01F0102FA01F14160B2E081
:102CB0004021C4F2020188421FD0582117E040F29F
:102CC0004041C4F20201884217D040F258410EE060
:102CD000A021C4F2020188420FD0B82107E040F2DF
:102CE000B841C4F20201884207D040F2A041C4F2C8
:102CF0000201884208BF206800E02068016821F0D6
:102D00000101016027683868C0070DD000F05CFC45
:102D1000401B0628F6D320206065032084F8350088
:102D2000012001B0BDE8F08348F23F0104F108053D
:102D30003868CFF6106108402ECD0843A1691043D2
:102D4000E2691843236A0543606A2943042841EA7B
:102D5000020141EA030103D1D4E90B2311431943D2
:102D60006268A2F12903292B00F223810125DFE803
:102D700013F02A002A002A002A002A002A00200133
:102D8000200120012001200120012001200120013B
:102D900020012001200120012001200120012A0022
:102DA0002A002A002A0020012001200120012A00F7
:102DB0002A002001200120012001200120012A00F9
:102DC0002A002A002A00002D18BF41F4801104288F
:102DD0003960796921F0070141EA000510D1D4E991
:102DE0000A1045EA010558B12046FDF799FE38B1B1
:102DF00040206065012084F8350001B0BDE8F08313
:102E000020467D61FDF72CFDE16D3F2201F01F01A1
:102E100002FA01F181602068404519DC9F21C4F26B
:102E20000201884231DC5721C4F20201884256DC9B
:102E30001021C4F20201884200F091802821C4F2DE
:102E40000201884200F08B804021C4F2020184E03C
:102E500045F22F41C5F6020188422BDC40F2B74112
:102E6000C4F20201884248DC40F27041C4F202011F
:102E7000884274D040F28841C4F2020188426ED088
:102E800040F2A041C4F2020167E040F22741C4F2DF
:102E90000201884240DCA021C4F2020188425ED0D7
:102EA000B821C4F20201884259D040F21041C4F264
:102EB000020152E045F26B41C5F6020188423CDC5A
:102EC00045F23041C5F60201884248D045F24441FE
:102ED000C5F60201884242D045F258413BE05821F4
:102EE000C4F2020188423AD07021C4F20201884241
:102EF00035D08821C4F202012FE040F2B841C4F27B
:102F0000020188422BD045F20841C5F602018842F1
:102F100025D045F21C411EE040F22841C4F20201D6
:102F200088421CD040F24041C4F20201884216D0CF
:102F300040F25841C4F202010FE045F26C41C5F67F
:102F4000020188420BD045F29441C5F60201884245
:102F500005D045F28041C5F6020188421FD12046C6
:102F6000FDF70EFDA068802801D10020606004F10B
:102F700060036068C7B201380ECB07280F6053604A
:102F800009D82046FDF774FD04F16C02002307CA3E
:102F900003604A6003E000206067C4E91B00002072
:102FA0006065012184F8351001B0BDE8F083402050
:102FB000B2E622F00302743AB2FA82F2550902E74D
:102FC000F0B581B0A8B3044690F83400012802D1CE
:102FD000022001B0F0BD012084F8340094F83500DF
:102FE000012820D1022084F835000020606540F2DD
:102FF0000F462068C4F2020640F26F47B042C4F2A6
:10300000020719DC6F25C4F20205A84225DC3F2522
:10301000C4F20205A8423BDC1025C4F20205A84216
:103020005BD0282553E04FF400606065002084F8F1
:103030003400012001B0F0BDB8421ADC40F23F4537
:10304000C4F20205A8422ADC40F21045C4F202058F
:10305000A84242D040F2284539E09F25C4F202053B
:10306000A84225DC7025C4F20205A84235D0882587
:103070002DE040F29F45C4F20205A8421FDC40F259
:103080007045C4F20205A84227D040F288451EE0F0
:103090004025C4F20205A8421FD0582517E040F28F
:1030A0004045C4F20205A84217D040F258450EE050
:1030B000A025C4F20205A8420FD0B82507E040F2CF
:1030C000B845C4F20205A84207D040F2A045C4F2B8
:1030D0000205A84208BF206800E02068056825F0C6
:1030E000010505602046FDF743FD2068B04210DC75
:1030F0006F21C4F2020188421CDC3F21C4F20201AC
:10310000884232DC1021C4F20201884251D02821C9
:103110004AE0B8421ADC40F23F41C4F20201884260
:103120002ADC40F21041C4F20201884241D040F250
:10313000284139E09F21C4F20201884225DC702138
:10314000C4F20201884234D088212DE040F29F4130
:10315000C4F2020188421FDC40F27041C4F2020155
:10316000884226D040F288411EE04021C4F202018C
:1031700088421ED0582117E040F24041C4F20201BB
:10318000884216D040F258410EE0A021C4F202015C
:1031900088420ED0B82107E040F2B841C4F20201E3
:1031A000884206D040F2A041C4F20201884240F0B9
:1031B000298121680B25226C0B6865F344030B60A1
:1031C0001AB10A6842F008020A60B84219DC9F216D
:1031D000C4F20201884231DC5721C4F20201884264
:1031E00056DC1021C4F20201884200F091802821AF
:1031F000C4F20201884200F08B804021C4F2020137
:1032000084E045F22F41C5F6020188422BDC40F2F2
:10321000B741C4F20201884248DC40F27041C4F276
:103220000201884274D040F28841C4F2020188420F
:103230006ED040F2A041C4F2020167E040F22741A3
:10324000C4F20201884240DCA021C4F2020188429B
:103250005ED0B821C4F20201884259D040F2104138
:10326000C4F2020152E045F26B41C5F60201884208
:103270003CDC45F23041C5F60201884248D045F2B7
:103280004441C5F60201884242D045F258413BE034
:103290005821C4F2020188423AD07021C4F20201DE
:1032A000884235D08821C4F202012FE040F2B841B3
:1032B000C4F2020188422BD045F20841C5F6020152
:1032C000884225D045F21C411EE040F22841C4F25C
:1032D000020188421CD040F24041C4F202018842FF
:1032E00016D040F25841C4F202010FE045F26C41A1
:1032F000C5F6020188420BD045F29441C5F60201A1
:10330000884205D045F28041C5F60201884272D15B
:10331000216E0A68D20303D50A6842F480720A60FB
:10332000E16E19B10A6842F480720A60B04210DCA2
:103330006F21C4F2020188421CDC3F21C4F2020169
:10334000884232DC1021C4F20201884252D0282186
:103350004AE0B8421ADC40F23F41C4F2020188421E
:103360002ADC40F21041C4F20201884242D040F20D
:10337000284139E09F21C4F20201884225DC7021F6
:10338000C4F20201884235D088212DE040F29F41ED
:10339000C4F2020188421FDC40F27041C4F2020113
:1033A000884227D040F288411EE04021C4F2020149
:1033B00088421FD0582117E040F24041C4F2020178
:1033C000884217D040F258410EE0A021C4F2020119
:1033D00088420FD0B82107E040F2B841C4F20201A0
:1033E000884207D040F2A041C4F20201884208BFDF
:1033F000206800E02068016841F0010101600020C0
:1034000001B0F0BD21680525226C0B68002A65F328
:1034100043030B603FF4D9AE0A6842F00402D3E6DE
:103420002DE9F04F83B00C68002C00F0C78000F14C
:10343000264242F2004702F1FF72C5F602074FEA48
:10344000B22201920A22B84208BF092200250027B1
:103450004FF00108009209E00C68043734FA08F2D2
:1034600008F1010805F1020500F0A880A8F1010AA1
:10347000012202FA0AFE14EA0E09EDD0D1F804B0D6
:103480000BF00304A4F1010CBCF1010F11D80322CD
:103490008668AA40CB6826EA0202AB401A438260E3
:1034A000CBF30013426822EA0E0203FA0AF31A432E
:1034B0004260032C02D18A68012A08D00323C26823
:1034C000AB408E689A4306FA05F31A43C260022C99
:1034D00011D16FF0030207F01C0602EA5A020F2313
:1034E000024403FA06F4D2F820C00B692CEA040463
:1034F000B3402343136203230268AB404E689A43F0
:1035000006F00303AB4016F4403F42EA03020260B8
:10351000A2D044F2F44340F2084EC5F60203C5F6C9
:10352000000E1A6842F002021A601A6807F00C03D3
:1035300002F002020292029A2AF00302019C009E0B
:10354000082C38BF26460F2452F80EC09C402CEAA7
:10355000040406FA03F34FF0B04C234342F80E3054
:10356000DCF800204B6842EA0906DC0258BF22EA78
:1035700009069C02CCF8006040F2040CC5F6000C71
:10358000DCF8002042EA090658BF22EA09069C033B
:10359000CCF80060DCF8802042EA090658BF22EA35
:1035A0000906DB03CCF88060DCF87C2042EA0906DF
:1035B00058BF22EA0906CCF87C604DE703B0BDE8AD
:1035C000F08F00000000000040F23020C2F2000046
:1035D000006870470000000040F2080040F230210F
:1035E000C2F20000C2F2000100780A6810440860CC
:1035F000704700000000000080B5032000F0D0F804
:1036000001F086FA44F2184146F26813C5F6020149
:10361000C0F600030A68096801F00F01C2F3032233
:10362000595C9A5C01F01F0102F01F02D04040F289
:103630000402C2F2000220FA01F1116040F200011E
:10364000C2F2000108600F2000F00AF800281CBF39
:10365000012080BD00F080F8002080BD0000000047
:10366000B0B540F20801C2F20001097801B3044686
:1036700040F20000C2F200004FF47A72B2FBF1F1A6
:103680000068B0FBF1F001F0D7FD0F2C4FF0010501
:103690000CD858B94FF0FF3000222146002500F029
:1036A0006FF840F20C00C2F2000004602846B0BD82
:1036B0000120B0BD0000000010B54EF6A05E4178BC
:1036C000CEF2000E90F800C04EF8081CDEF8001094
:1036D00021F00101CEF8001041684EF8041C017B76
:1036E000C37A827A447B1B0643EA0171837B41EAF9
:1036F000C241C27B41EA8441447A41EA4341007AB3
:1037000041EA024141EA042141EA400040EA0C005A
:10371000CEF8000010BD00004EF62450CEF200009E
:10372000BFF35F8F016821F48031016000210167E0
:1037300070470000000000004EF6245140F00100E8
:10374000CEF200010867086840F480300860BFF3DB
:103750004F8FBFF36F8F704781B044F2F440C5F6CE
:103760000200016841F002010160006800F00200FF
:103770000090009801B0704780B502F009FC80BD50
:1037800070B514460D46064602F012FC2946224644
:1037900002F01EF90146304602F012FC70BD000036
:1037A00080B502F021FC80BDB0B544F60C05C5F62D
:1037B000020529684907296805D401F00701081A9C
:1037C00018BF0120B0BD21F0070108432860FFF7B2
:1037D000FBFE044655F8080C800407D4FFF7F4FEFE
:1037E000001BB0F57A7FF5D90120B0BD0020B0BD37
:1037F00080B501F051F944F2204146F26812C5F655
:103800000201C0F600020968C1F30211515C01F027
:103810001F01C84080BD000080B544F2304EC5F69F
:10382000020E5EF8083C5EF8081CC1F3051C5EF849
:10383000041CBCF1000FDEF8042016D0C2F3CC0249
:1038400001F00101514303F00303022B00EE101AB3
:10385000B8EE400A0ED0012B0FD01BB95EF8301C19
:1038600089060DD49FED341A18E000218160C0E96B
:10387000001180BD9FED2F1A10E09FED2D1A0DE075
:103880005EF8301C49F20002C0F2D032C1F3C1012F
:1038900022FA01F101EE101AB8EE411ADEF800101A
:1038A0009FED263A6FF35F2102EE101ADEF800104A
:1038B000C1F34621B8EE422A00EE032A00EE10CAF8
:1038C000B7EE003AB8EE400A81EE000A32EE031A73
:1038D00002EE101AB8EE422A20EE010A32EE031A66
:1038E00080EE011ABCEEC11A80ED001ADEF800105D
:1038F000C1F3064101EE101AB8EE411A31EE031A77
:1039000080EE011ABCEEC11A80ED011ADEF800103B
:10391000C1F3066101EE101AB8EE411A31EE031A36
:1039200080EE010ABCEEC00A10EE101A816080BD64
:103930000024744A20BCBE4B0024744C00000039A3
:1039400080B544F2384EC5F6020E5EF8103C5EF8C3
:10395000101CC1F3053C5EF80C1CBCF1000FDEF836
:10396000042014D0C1F30011C2F3CC02514300EE85
:10397000101A03F003010229B8EE400A0CD071B905
:103980005EF8381C89060DD49FED341A18E000212A
:103990008160C0E9001180BD9FED2F1A10E09FEDFE
:1039A0002D1A0DE05EF8381C49F20002C0F2D03248
:1039B000C1F3C10122FA01F101EE101AB8EE411A69
:1039C000DEF800109FED263A6FF35F2102EE101A29
:1039D000DEF80010C1F34621B8EE422A00EE032AB9
:1039E00000EE10CAB7EE003AB8EE400A81EE000AC7
:1039F00032EE031A02EE101AB8EE422A20EE010A45
:103A000032EE031A80EE011ABCEEC11A80ED001AE4
:103A1000DEF80010C1F3064101EE101AB8EE411AAB
:103A200031EE031A80EE011ABCEEC11A80ED011AC4
:103A3000DEF80010C1F3066101EE101AB8EE411A6B
:103A400031EE031A80EE010ABCEEC00A10EE101A25
:103A5000816080BD0024744A20BCBE4B0024744C9D
:103A6000000000390000000080B544F2404EC5F669
:103A7000020E5EF8183C5EF8181CC1F3055C5EF897
:103A8000141CBCF1000FDEF8042014D0C1F3002197
:103A9000C2F3CC02514300EE101A03F003010229D5
:103AA000B8EE400A0CD071B95EF8401C89060DD4FE
:103AB0009FED341A18E000218160C0E9001180BD3B
:103AC0009FED2F1A10E09FED2D1A0DE05EF8401CBF
:103AD00049F20002C0F2D032C1F3C10122FA01F171
:103AE00001EE101AB8EE411ADEF800109FED263AEA
:103AF0006FF35F2102EE101ADEF80010C1F34621C9
:103B0000B8EE422A00EE032A00EE10CAB7EE003AE1
:103B1000B8EE400A81EE000A32EE031A02EE101AE5
:103B2000B8EE422A20EE010A32EE031A80EE011AA4
:103B3000BCEEC11A80ED001ADEF80010C1F3064198
:103B400001EE101AB8EE411A31EE031A80EE011A96
:103B5000BCEEC11A80ED011ADEF80010C1F3066157
:103B600001EE101AB8EE411A31EE031A80EE010A86
:103B7000BCEEC00A10EE101A816080BD0024744AA9
:103B800020BCBE4B0024744C000000390000000033
:103B900080B584B0024641F6FF7300209B1A70EB9B
:103BA00001032BDA47F6FF739B1A70EB010368DA07
:103BB00082F400430B4300F0818082F480330B4396
:103BC00000F0BA8082F40022114340F0418144F2B7
:103BD0000040C5F60200816D01F44031B1F5003FAF
:103BE00000F04481B1F5803F00F02281002940F0CF
:103BF00034810068000140F13081BFE040F2FF7382
:103C00009B1A70EB01031EDB82F480730B4300F000
:103C1000688082F48062114340F01A8144F20041CE
:103C2000C5F60201886DC0F34252042A00F21581E4
:103C300048F20000C0F2BB00DFE812F079009D00FE
:103C4000A4000A01AD0082F400630B435CD082F44F
:103C50008052114340F0FC8044F20041C5F602015D
:103C6000086DC0F30232042A00F2F78048F2000027
:103C7000C0F2BB00DFE812F05B007F008600EC00C2
:103C80008F0082F400530B4300F0628082F4804284
:103C9000114340F0DD8044F20040C5F60200816D22
:103CA000C1F30271052900F2D880DFE801F0039B1F
:103CB000A2A9B78EFFF79CFD04B080BD44F200407E
:103CC000C5F60200016D01F04051B1F1005F00F056
:103CD000B880B1F1805F00F0BD80002940F0BD8068
:103CE00073E044F20041C5F60201086D00F00702DE
:103CF000042A00F2B28048F20000C0F2BB00DFE804
:103D000002F0163A41A74A0044F20041C5F602010A
:103D1000886DC0F30262042A00F29F8048F200001E
:103D2000C0F2BB00DFE802F003272E9437000868DA
:103D3000800100F1958090E044F20040C5F6020059
:103D4000C16C0068C90347D4800140F1868087E0D8
:103D500044F20040C5F60200016DC1F3024105299D
:103D600000F27B80DFE801F0033E454C5A3100F061
:103D7000BBFE04B080BD086800016ED501A8FFF746
:103D8000DFFD05E00868800067D501A8FFF76CFE3D
:103D9000019804B080BDC86C0B6810F040520868F0
:103DA00002D113F004032FD1B2F1805F02D110F4DD
:103DB00080706DD1086810F400301CBF47F64000D9
:103DC000C0F27D10B2F1005F72E0006847F640017A
:103DD0008003C0F27D1127E000013ED501A8FFF766
:103DE000AFFD2BE00068000137D501A8FFF7A8FD63
:103DF00039E00068800030D501A8FFF735FE32E0D9
:103E00000168490729D50068C0F3C10049F20001E3
:103E1000C0F2D03121FA00F004B080BD006840F655
:103E20000011C005C0F23D0101EAE07004B080BDA0
:103E30000068800011D501A8FFF716FE039804B0B2
:103E400080BD0068000108D501A8FFF779FD029840
:103E500004B080BD0068800102D4002004B080BDA1
:103E600001A8FFF7D9FC029804B080BDC16C0368BB
:103E700011F04051026805D113F0040302D0C2F3DF
:103E8000C100C3E7B1F1805F08D112F4807205D0A0
:103E900040F60010C0F23D0004B080BD006810F490
:103EA00000301CBF47F64000C0F27D10B1F1005F4A
:103EB00018BF002004B080BD2DE9F04381B0044656
:103EC000C07844F22C490007C5F6020901D4002548
:103ED0002EE0606E4FEA305003280DD80025DFE851
:103EE00000F0020E1714D9F80000002540F400304D
:103EF000C9F8000055B913E001253DB910E004F1FF
:103F00000800022101F090FD05464DB1A84611E0E0
:103F100004F12800022101F017FE0546002DF5D11D
:103F2000D9F82400616E20F440100843C9F8240039
:103F30004FF000086078C00730D0A06D042807D883
:103F4000DFE800F00A131C030300FDB1A84625E0DA
:103F50000125002DFAD119E0D9F8000040F4003015
:103F6000C9F80000002DF1D110E004F10800002193
:103F700001F05AFD0546002DE8D107E004F12800C4
:103F8000002101F0E1FD0546002DDFD1D9F8240024
:103F9000A16D20F007000843C9F8240060784007AD
:103FA00034D5D4F8A4004FEA7050052807D8DFE8CC
:103FB00000F00A131C030303FDB1A84626E0012507
:103FC000002DFAD119E0D9F8000040F40030C9F80A
:103FD0000000002DF1D110E004F10800002101F0F3
:103FE00023FD0546002DE8D107E004F1280000215B
:103FF00001F0AAFD0546002DDFD1D9F82C00D4F838
:10400000A41020F460000843C9F82C006078000771
:1040100034D5D4F8A8004FEA3060052807D8DFE887
:1040200000F00A131C030303FDB1A84626E0012596
:10403000002DFAD119E0D9F8000040F40030C9F899
:104040000000002DF1D110E004F10800002101F082
:10405000EBFC0546002DE8D107E004F12800002123
:1040600001F072FD0546002DDFD1D9F82C00D4F8FF
:10407000A81020F0E0600843C9F82C00E078800721
:1040800028D5E06C4FEA3010032806D8DFE800F0AE
:1040900002091202B5B1A8461CE00125002DFAD193
:1040A00010E0D9F8000040F40030C9F80000002DFD
:1040B000F1D107E004F10800022101F0B5FC05464A
:1040C000002DE8D1D9F82000E16C20F03000084341
:1040D000C9F820006078C00632D5E06D4FEA303074
:1040E000042807D8DFE800F00A131C030300FDB121
:1040F000A84625E00125002DFAD119E0D9F80000E5
:1041000040F40030C9F80000002DF1D110E004F1B6
:104110000800002101F088FC0546002DE8D107E0E9
:1041200004F12800002101F00FFD0546002DDFD12C
:10413000D9F82400E16D20F4E0400843C9F82400D8
:104140006078800626D5206E4FEA3040052807D8D3
:10415000DFE800F0030A100303039DB1A84619E04D
:104160000125002DFAD10DE004F10800012101F034
:104170005BFC04E004F12800012101F0E5FC0546A8
:10418000002DEBD1D9F82400216E20F4E020084363
:10419000C9F824006078400628D5D4F8AC004FEA6E
:1041A0003070052807D8DFE800F0030A1003030386
:1041B0009DB1A8461AE00125002DFAD10DE004F1C9
:1041C0000800012101F030FC04E004F12800012185
:1041D00001F0BAFC0546002DEBD1D9F82C00D4F83B
:1041E000AC1020F0E0400843C9F82C0060780006CD
:1041F00020D5E06ED8B1B0F1005F12D0B0F1805F91
:1042000025D1D9F8000040F40030C9F8000085B984
:10421000D9F82400E16E20F040500843C9F824008A
:1042200008E004F10800012101F0FEFB0546002D25
:10423000EED0A846E078C0072AD0A06C03280AD8A0
:10424000DFE800F0020D1602D5B1A84620E00125F6
:10425000002DEED1DCE70125002DF6D110E0D9F8D4
:10426000000040F40030C9F80000002DEDD107E057
:1042700004F10800022101F0D7FB0546002DE4D12E
:10428000D9F82000A16C20F003000843C9F82000F1
:10429000A078400642D5D9F8D40340F48070C9F81C
:1042A000D403FFF791F90646D9F8D403C00505D425
:1042B000FFF78AF9801B6528F6D303256DBBD9F873
:1042C0004410D4F8B000414011F4407F11D0D9F827
:1042D0004410D9F8442042F48032C9F84420D9F877
:1042E000442021F4407122F48032C9F84420C9F8F6
:1042F0004410B0F5807F0FD1FFF766F9064641F212
:10430000893700BFD9F84400800705D4FFF75CF96E
:10431000801BB842F6D3032585B1A8462078C00794
:1043200042D0A06F4FEAF000052823D8DFE800F064
:1043300003262C0303037DB3A84635E04FF6CF7365
:10434000D4F8B00059F81C2CC0F2FF0300F44071FF
:1043500022F47C5203EA1013B1F5407F08BF1A43E0
:104360006FF31F3049F81C2CD9F844100843C9F8E2
:104370004400D3E70125002DDED10DE004F1080053
:10438000012101F051FB04E004F12800012101F0BA
:10439000DBFB0546002DCFD1D9F82800A16F20F016
:1043A00038000843C9F828002078800724D5606FBA
:1043B000052807D8DFE800F0030A100303039DB1C6
:1043C000A84619E00125002DFAD10DE004F10800FE
:1043D000012101F029FB04E004F12800012101F092
:1043E000B3FB0546002DEBD1D9F82800616F20F012
:1043F00007000843C9F828002078400726D5D4F8DC
:104400009000052807D8DFE800F0030A1003030333
:104410009DB1A8461AE00125002DFAD10DE004F166
:104420000800012101F000FB04E004F12800012153
:1044300001F08AFB0546002DEBD1D9F82C00D4F809
:10444000901020F007000843C9F82C00207880065F
:1044500028D5D4F88C004FEA3070052807D8DFE85B
:1044600000F0030A100303039DB1A8461AE00125DA
:10447000002DFAD10DE004F10800002101F0D4FA7A
:1044800004E004F12800022101F05EFB0546002D46
:10449000EBD1D9F82800D4F88C1020F0E040084384
:1044A000C9F828002078400628D5D4F898004FEAAB
:1044B000B020052807D8DFE800F0030A1003030343
:1044C0009DB1A8461AE00125002DFAD10DE004F1B6
:1044D0000800002101F0A8FA04E004F128000221FC
:1044E00001F032FB0546002DEBD1D9F82C00D4F8B1
:1044F000981020F4E0500843C9F82C0020780006FA
:1045000028D5D4F89C004FEA7030052807D8DFE89A
:1045100000F0030A100303039DB1A8461AE0012529
:10452000002DFAD10DE004F10800002101F07CFA21
:1045300004E004F12800022101F006FB0546002DED
:10454000EBD1D9F82C00D4F89C1020F4604008433B
:10455000C9F82C002078000716D5D4F88000B0F5F3
:10456000805F08D104F12800022101F0EDFA002853
:1045700018BF4FF00108D9F82800D4F8801020F4B3
:1045800040500843C9F828002078C00616D5D4F852
:104590009400B0F5807F08D104F12800022101F0D9
:1045A000D3FA002818BF4FF00108D9F82C00D4F82E
:1045B000941020F440700843C9F82C00A07800073C
:1045C00022D5D4F8A000B0F5003F1AD0B0F5803F56
:1045D00011D0C8BB04F10800002101F025FA0546FE
:1045E0008DB9D9F82C00D4F8A01020F4403008433D
:1045F000C9F82C0008E004F12800022101F0A4FA17
:104600000546002DEDD0A846A078400729D5D4F85E
:104610008400B0F5401F21D0B0F5001F18D0B0F5D0
:10462000801F40F0BB80D9F8000040F40030C9F88A
:104630000000ADB9D9F82800D4F8841020F4401057
:104640000843C9F828000CE00125002DDBD1C8E79C
:1046500004F12800012101F077FA0546002DE9D088
:10466000A846A078C00720D0206DB0F5803F10D0BC
:10467000B8B9D9F8000040F40030C9F800009DB97D
:10468000D9F82000216D20F480300843C9F82000BB
:104690000BE004F10800022101F0C6F905461DB93E
:1046A000EEE70125002DEBD0A846E078800608D57E
:1046B00004F12800022101F047FA002818BF4FF04A
:1046C0000108D4E900108A0377D5E26F6FF0010387
:1046D00003EB3223022B0AD34FEA32233BB1012BE7
:1046E00061D1D9F8003043F40033C9F80030002D0F
:1046F0005CD0CA0264D48A026CD44A0075D4B1F189
:10470000FF3F40F38380090200F18B80C00707D090
:1047100004F10800002101F087F9002818BF0546C0
:104720002079800707D504F10800012101F07CF908
:10473000002818BF05462079400707D504F1080076
:10474000022101F071F9002818BF05462079000701
:1047500007D504F12800002101F0F6F9002818BF60
:1047600005462079C00607D504F12800012101F093
:10477000EBF9002818BF05462079800607D504F11B
:104780002800022101F0E0F9002818BF0125002DC2
:1047900018BF0125284601B0BDE8F0830125002D92
:1047A0007FF45EAF46E70125002DA2D1D9F828306D
:1047B00023F440731A43C9F828204546CA029AD503
:1047C000D9F82420236F22F000421A43C9F824208C
:1047D0008A0292D5D9F82420A36E22F080721A435F
:1047E000C9F824204A007FF58AAF59F81C2C22F41E
:1047F000004249F81C2CD4F8B42059F81C3C1A4348
:1048000049F81C2CB1F1FF3F3FF77DAFD9F82020CC
:10481000636D22F040521A43C9F8202009027FF547
:1048200075AFD9F82810D4F8882021F4400111433D
:10483000C9F82810C0077FF46BAF71E700000000D3
:104840002DE9F04381B0002800F0F48042F2000826
:104850000446C5F200288946D8F8000000F00F0091
:1048600088420ED2D8F8000020F00F0040EA09007C
:10487000C8F80000D8F8000000F00F00484540F0EC
:10488000D980206844F218474107C5F602070AD5C7
:1048900021693A6802F07002914204D93A6822F024
:1048A00070021143396001070AD561697A6802F024
:1048B0007002914204D97A6822F070021143796043
:1048C000C1060AD5A1697A6802F4E062914204D96E
:1048D0007A6822F4E0621143796081060AD5E169C1
:1048E000BA6802F07002914204D9BA6822F07002EC
:1048F0001143B96081070AD5E1683A6802F00F02F6
:10490000914204D93A6822F00F0211433960C0077E
:104910007ED1206881070AD5E1683A6802F00F026B
:10492000914204D23A6822F00F0211433960D8F85C
:10493000001001F00F0149450DD9D8F8001021F001
:104940000F0141EA0901C8F80010D8F8001001F081
:104950000F0149456ED141070AD521693A6802F035
:104960007002914204D23A6822F070021143396019
:1049700001070AD561697A6802F07002914204D297
:104980007A6822F0700211437960C1060AD5A169E4
:104990007A6802F4E062914204D27A6822F4E0621A
:1049A0001143796080060AD5E069B96801F07001A9
:1049B000884204D2B96821F070010843B86000F061
:1049C000A7F8396846F26812C0F600023B68C1F3E6
:1049D000032103F00F03515CD25C01F01F01C840BA
:1049E00002F01F0140F2040220FA01F1C2F20002BB
:1049F000116040F2000140F20C02C2F20001C2F26A
:104A0000000208601068FEF72BFE01B0BDE8F083DD
:104A1000386820F47061D4E90102012841EA0201FA
:104A200039600BD003282BD002282ED157F8181C40
:104A3000890307D4012001B0BDE8F08357F8181CA2
:104A4000C905F7D557F8081C21F00701084347F8B6
:104A5000080CFEF7B9FD064641F2883557F8080CF8
:104A6000616800F03800B0EBC10F3FF452AFFEF7C1
:104A7000ABFD801BA842F1D9032001B0BDE8F08353
:104A800057F8181C8901D5D5DCE757F8181C4907D9
:104A9000D0D5D7E70000000080B500F039F844F227
:104AA000184146F26813C5F60201C0F600030A6811
:104AB000096801F00F01C2F30322595C9A5C02F00D
:104AC0001F0220FA02F201F01F0040F2040122FA54
:104AD00000F0C2F20001086040F20001C2F20001E1
:104AE0000A6080BD0000000080B5FFF7D5FF44F2EA
:104AF0001C4146F26812C5F60201C0F600020968C0
:104B0000C1F30211515C01F01F01C84080BD0000DB
:104B100044F20041C5F602010869C0F3C20003284F
:104B20000FD002282AD070BB0868800649F2000026
:104B3000C0F2D03058BF70470968C1F3C101C84006
:104B400070478A6A886AC0F3051CC86ABCF1000F06
:104B50004B6B1DD0C3F3CC0300F00100584302F0AF
:104B60000302022A00EE100AB8EE400A12D0A2B9DF
:104B70000868800614D49FED261A1EE047F6400010
:104B8000C0F27D10704740F60010C0F23D00704743
:104B9000002070479FED1D1A0FE09FED1B1A0CE0DF
:104BA000086849F20002C0F2D032C0F3C10022FA14
:104BB00000F001EE100AB8EE411A086B9FED153AAD
:104BC0006FF35F2002EE100A086BC0F34620B8EEC8
:104BD000422A013000EE032A00EE10CAB7EE003A76
:104BE000B8EE400A81EE000A32EE031A20EE010A06
:104BF00001EE100AB8EE411A80EE010ABCEEC00ABE
:104C000010EE100A704700BF0024744A20BCBE4B4F
:104C10000024744C000000392DE9F04381B0F8B154
:104C20008046007844F20049C007C5F602095CD00E
:104C3000D9F8100000F03801D9F82800102905D063
:104C400018290FD100F0030002280BD1D9F8000079
:104C5000800346D5D8F80400002842D1012731E06E
:104C60000127E2E2D8F804502DB1B5F5A02F0DD000
:104C7000B5F5803F10D0D9F8000020F48030C9F895
:104C80000000D9F8000020F4802009E0D9F80000E5
:104C900040F48020C9F80000D9F8000040F48030CA
:104CA000C9F80000FEF790FC002D054615D000BFA6
:104CB000D9F80000800314D4FEF786FC401B64285A
:104CC000F6D903270020002800F0AF820DE000BFD6
:104CD000FEF77AFC401B6428F3D8D9F80000800363
:104CE000F6D40120002800F0A08298F80000800788
:104CF0006AD5D9F8100010F03801D9F828001DD075
:104D0000182908BF5FEA807018D0D8F80C00D9F8CD
:104D10000010002840D021F019010843C9F8000014
:104D2000FEF752FC054600BFD9F80000400727D423
:104D3000FEF74AFC401B0228F6D91EE0D9F8000015
:104D4000400704D5D8F80C00002800F05E81D9F89F
:104D50000000D8F80C1020F019000843C9F8000032
:104D6000FEF732FC054600BFD9F80000400707D423
:104D7000FEF72AFC401B0228F6D90327002420E076
:104D8000D9F80400D8F8101020F0FE40012440EAC1
:104D90000160C9F8040014E021F00100C9F8000026
:104DA000FEF712FC05460126D9F8000010F00400B9
:104DB00086EA900405D0FEF707FC401B0328F3D3D6
:104DC0000327002C00F0318298F80000C00656D569
:104DD000D9F8100000F03801D9F82800082905D0CA
:104DE000182917D100F00300012813D1D9F80000C9
:104DF000C00503D5D8F81C0080283BD1D9F80C0099
:104E0000D8F8201020F07C50012440EA0160C9F855
:104E10000C0031E0D8F81C000028D9F8000012D0AE
:104E200040F08000C9F80000FEF7CEFB054600BF49
:104E3000D9F80000C005E1D4FEF7C6FB401B0228EC
:104E4000F6D9032717E020F08000C9F80000FEF72C
:104E5000BBFB0546012600BFD9F8000010F48070A6
:104E600086EA102408D0FEF7AFFB401B0328F3D3DB
:104E7000032701E001270024002C00F0D68198F8D8
:104E8000000000071CD498F80000800631D498F880
:104E90000000400745D4D8F82440002C00F0918051
:104EA000D9F8100000F03800182840F08C80012C50
:104EB000D9F82810D9F8300040F0A9800127B4E1D2
:104EC000D8F814000028D9F874003ED040F0010052
:104ED000C9F87400FEF778FB054600BFD9F87400E6
:104EE0008007D0D4FEF770FB401B0228F6D90327B9
:104EF0009BE1D8F818000028D9F800004DD040F404
:104F00008050C9F80000FEF75FFB0546D9F80000A5
:104F10008004BCD4FEF758FB401B0228F6D90327B7
:104F200083E1D9F8000440F48070C9F80004FEF76A
:104F30004BFB0546D9F80004C0051AD4FEF744FB24
:104F4000401B6428F6D903276FE120F00100C9F85F
:104F50007400FEF739FB0546032700BFD9F874003B
:104F600080077FF590AFFEF72FFB401B0228F5D995
:104F70005BE1D8F808502DB1052D00F08280012D9D
:104F800000F08580D9F8700020F00100C9F87000A9
:104F9000D9F8700020F004007DE020F48050C9F8BA
:104FA0000000FEF711FB0546032700BFD9F80000FB
:104FB00080047FF56CAFFEF707FB401B0228F5D994
:104FC00033E1002731E1D9F8000020F08070C9F802
:104FD0000000FEF7F9FA022C05464FF0030709D14D
:104FE000D9F80000800178D5FEF7EEFA401B0228C0
:104FF000F6D91AE1D9F80000800140F1E780FEF708
:10500000E3FA401B0228F5D90FE10127B6E601F0CB
:105010000302D8F828309A4240F0DA80C1F3051133
:10502000D8F82C20914240F0D7800146D8F83020A3
:105030006FF35F21013A914240F0D080C0F34622E5
:10504000D8F8341001398A4240F0CA80C0F30642D1
:10505000D8F8381001398A4240F0C480C0F30660A5
:10506000D8F83C100139884240F0BE80D9F83400AD
:10507000D8F84810C0F3CC00814240F0B780002738
:10508000D3E0D9F8700040F00400C9F87000D9F8F6
:10509000700040F00100C9F87000FEF795FA002D8D
:1050A000054641F288344FF0030711D0D9F870005B
:1050B00080073FF5F0AEFEF787FA401BA042F5D916
:1050C000B3E000BFFEF780FA401BA04200F2AD80C3
:1050D000D9F870008007F5D4DDE608F12807D9F883
:1050E000280040F2F33188438ECF0843591E40EA2E
:1050F00002104FF47E426FF35F21C9F8280002EBE3
:1051000047204FF4FE0280B2D8F83C300844D8F86B
:10511000381002EB01414FF0FE4201F4FE0102EBB8
:105120000362084402F0FE410844C9F83000D9F88F
:105130002C004FF6F87120F00100C9F82C00D9F8C6
:105140003400D8F84820884340EAC200C9F8340047
:10515000D9F82C00D8F8401020F00C000843C9F80A
:105160002C00D9F82C00D8F8441020F00200084395
:10517000C9F82C00D9F82C0040F48030C9F82C0074
:10518000D9F82C0040F40030C9F82C00D9F82C00D4
:1051900040F48020C9F82C00D9F82C0040F0010020
:1051A000C9F82C00D9F8000040F08070C9F8000060
:1051B000FEF70AFA04460327D9F80000800109D453
:1051C000FEF702FA001B0228F6D92EE000272CE099
:1051D00001272AE0002728E0012726E0012724E014
:1051E000012722E0012720E001271EE0D9F82C004A
:1051F00020F00100C9F82C00FEF7E6F90546FEF79D
:10520000E3F9A842FBD0D9F834004FF6F871D8F88A
:1052100048208843002740EAC200C9F83400D9F882
:105220002C0040F00100C9F82C00F8B201B0BDE834
:10523000F08300000000000080B500F019FD80BD83
:10524000B0B590F83C20012A4FF0020266D001234D
:1052500080F83C3080F83D2040F2004C0268C4F2F7
:10526000010C42F4806363455368D2F808E002BF42
:1052700023F470034C6823434DF6FF740D68C4F2A9
:10528000000423F07003A24243EA0503536014DCD8
:1052900040F2FF73C4F200039A4222DD40F600039D
:1052A000C4F200039A422ED040F60043C4F2000339
:1052B0009A4228D041F6000321E04FF6FF73C4F272
:1052C00000039A4213DD0023C4F201039A421AD06C
:1052D00044F20003C4F201039A4214D0624512D092
:1052E00016E0B2F1804F0ED040F2004307E04EF2DC
:1052F0000003C4F200039A4205D04EF20043C4F208
:1053000000039A4204D12EF080038968194391600A
:105310000022012180F83D1080F83C201046B0BDED
:1053200060B310B5044690F83D0028B9002084F819
:105330003C00204600F024F8022084F83D0020685C
:10534000211D00F071FD012084F8480084F83E0022
:1053500084F83F0084F8400084F8410084F842005B
:1053600084F8430084F8440084F8450084F846003B
:1053700084F8470084F83D00002010BD01207047EC
:1053800081B041F200010068C4F20001884201D0FE
:1053900001B0704744F2E840C5F60200016841F0F0
:1053A00010010160006800F010000090009801B04A
:1053B000704700000000000090F83D1001291ED148
:1053C000022180F83D1001684DF6FF70C4F2000024
:1053D000814216DC40F2FF70C4F20000814226DDFB
:1053E00040F60000C4F20000814232D040F6004096
:1053F000C4F2000081422CD041F6000025E00120DB
:1054000070474FF6FF70C4F20000814215DD0020A6
:10541000C4F2010081421CD044F20000C4F2010039
:10542000814216D040F20040C4F201000FE0B1F119
:10543000804F0ED040F2004007E04EF20000C4F270
:105440000000814205D04EF20040C4F200008142CB
:105450000BD107228868C0F2010202400020062A10
:1054600018BFB2F5803F00D17047086840F00100D6
:105470000860002070470000FEE700000000000008
:105480004FF6C0728168C7F6FF7211400231816029
:1054900070470000000000004FF6C0728168C5F63A
:1054A000FF721140816070474FF6C0728168C7F685
:1054B000FF72114001318160704700000000000060
:1054C000C16841F00101C1607047000000000000A8
:1054D0004FF6C0728168C6F6FF72114001F180512B
:1054E0008160704700000000806800F0E070704745
:1054F000806800F01F00704700EB8100006E00F034
:10550000F8407047000000008068C0F3C00070479A
:105510008068C00F704700008068C0F3407070471B
:105520008068C0F340007047806800F00100704759
:10553000806800F0010070478068C0F30070704719
:105540008068C0F3800070478068C0F380007047B7
:10555000C06800F44060B0FA80F040097047000075
:1055600046F20C01C5F602010A6822F0030210435C
:105570000860704700000000C26822F00302114377
:10558000C16070470000000080B5C1F3012301F045
:105590001F01C2F384624FF01F0C00EB83000CFA72
:1055A00001F3D0F830E002FA01F12EEA03031943C7
:1055B000016380BD000000004FF6C0728168C7F62D
:1055C000FF7211400431816070470000000000004C
:1055D00046F20002C5F60202904208BF704791FAF7
:1055E000A1F2B2FA82F20B0308BF8A0E02F01F0189
:1055F000012202FA01F1C2691143C1617047000042
:1056000080B5C1F340634FF0070CC1F3045100EBC8
:1056100083000CFA01F3D0F814E002FA01F12EEA4B
:1056200003031943416180BDB0B546F2B00C4FF69B
:10563000FF75C5F6020CC0F20F05ACF1B00398423D
:105640000DD002F01802D0F8C03001EA050425FAA6
:1056500002F2A34311401943C0F8C010B0BD02F0DC
:105660001802DCF800E001EA050025FA02F22EEA51
:10567000000011400843CCF80000B0BD000000005D
:10568000826822F47C1211438160704700000000A0
:10569000826822F0E07211438160704700000000D0
:1056A000036901F01F0123F4F04302FA01F11943E9
:1056B000016170470000000080B500F1600C46F207
:1056C000000EC5F6020E70455CF8210006D002F00F
:1056D000F84E00F000424EEA03000BE04FF2000EDD
:1056E00002F0F842C0F2FF3E1A4300EA0E001043F7
:1056F0004FF0004210434CF8210080BD0000000034
:1057000046F20003C5F60203984218BF704703EB48
:105710008100016E21F000711143016670470000A5
:1057200046F26002C5F6020252F8203023F0807380
:10573000194342F82010704746F20003C5F60203F1
:10574000984208BF704700EB8100016E21F00041D4
:10575000114301667047000000EB8100016E21F0EB
:1057600000410166704700004FF6C07C8368C3F6B5
:10577000FE7C01F4803102F0804203EA0C03114404
:10578000194401F1004181607047000000000000F1
:1057900010B584B00024CDE90244CDE90044FDF702
:1057A000BBFF0120ADF800004FF010500190122017
:1057B000C0F20130CDE902046846FDF77DFF062006
:1057C000FDF7BAFF04B010BD10B58CB068462421B7
:1057D00000240B94CDE90944FAF72CFE40F2700046
:1057E00042F20001C2F20000C4F202014FF4B462BE
:1057F00001604FF4002141600821816004210461AF
:10580000416101210483C16180F8204082624FF42C
:105810008062C26203220263C0E90F4480F8444000
:105820008164FBF719FF08B1FBF71EFB40F2700023
:1058300009A9C2F200000994FBF76EFB08B1FBF75F
:1058400013FB40F200406946C2F60020009006209B
:1058500001900220029040F2FF7003900420049017
:10586000002005908DF8210040F27000C2F2000087
:10587000FBF7DAFB08B1FBF7F7FA0CB010BD00003C
:1058800080B58AB001A82421FAF7D4FD40F2E000E7
:1058900047F20041C2F20000C4F200010160FCF7CF
:1058A00003FA08B1FBF7E0FA00200190162100226C
:1058B000CDE902100121CDE9041040F2E00001A978
:1058C000C2F20000FCF72CF908B1FBF7CDFA0AB0E0
:1058D00080BD00000000000080B582B044F2D840D6
:1058E0000022C5F60200016841F001010160006874
:1058F000002100F00100019001980B20FDF740FF0E
:105900000B20FDF739FF0C2000210022FDF738FFA6
:105910000C20FDF731FF02B080BD00000000000048
:1059200083B044F2E040C5F60200016841F0040192
:105930000160016801F0040102910299016841F0DF
:1059400080010160016801F0800101910199016805
:1059500041F001010160006800F001000090009832
:1059600003B070470000000010B584B040F2E410AE
:1059700041F20001C2F2000000240394C4F20001CD
:10598000CDE9014401600121C0E901144FF489719E
:10599000C16080218161FFF7C3FC08B1FBF764FAA5
:1059A0002020019040F2E41001A9C2F2000003940B
:1059B000FFF746FC08B1FBF757FA04B010BD000032
:1059C000FEE7000000000000FEE70000000000000D
:1059D00000F007004FF0FF3C80F00703042B28BFC6
:1059E0000423033838BF00200CFA03F399430CFA60
:1059F00000F301FA00F022EA0301084370470000B7
:105A00007047000000000000023902384FF4807235
:105A100030F8023F013A4FEA031321F8023FF7D171
:105A20007047000000000000F0B581B044F22C4740
:105A3000C5F6020757F8042C02F00302032A02D12C
:105A4000012001B0F0BD054657F82C0C0C4620F0A3
:105A5000806047F82C0CFDF7B7FD064657F82C0C74
:105A6000000105D5FDF7B0FD801B0228F6D964E0E2
:105A700057F8040CEE6895E80E0020F47C30012CF9
:105A800040EA0130A2F101016FF35F214FF47E4241
:105A900002EB432247F8040C92B24FF0FE4302EBB4
:105AA00001004FF4FE012A6901EB064101F4FE01F9
:105AB00003EB0262084402F0FE410844F8603868D3
:105AC000696920F0C00040EA010038603868A969BF
:105AD00020F0200040EA0100386038684FF6F87185
