:020000040800F2
:10000000400700243903000883230008A71F0008C5
:100010008123000847040008B52D000800000000F7
:10002000000000000000000000000000412800085F
:100030004904000800000000BD260008432800080D
:100040005703000857030008570300085703000828
:100050005703000857030008570300085703000818
:100060005703000857030008570300085703000808
:1000700057030008570300085703000857030008F8
:1000800057030008570300085703000857030008E8
:1000900057030008570300085703000857030008D8
:1000A00057030008570300085703000857030008C8
:1000B00057030008570300085703000857030008B8
:1000C00057030008570300085703000857030008A8
:1000D0005703000857030008570300085703000898
:1000E00057030008570300080000000057030008EA
:1000F0005703000857030008570300085703000878
:100100005703000857030008570300085703000867
:100110005703000857030008570300085703000857
:100120005703000857030008570300085703000847
:100130005703000857030008570300085703000837
:1001400000000000000000000000000000000000AF
:100150005703000857030008570300085703000817
:100160005703000857030008570300085703000807
:100170005703000857030008570300080000000059
:1001800057030008570300085703000857030008E7
:1001900057030008570300085703000857030008D7
:1001A00057030008570300085703000857030008C7
:1001B00057030008570300085703000857030008B7
:1001C00057030008570300085703000857030008A7
:1001D0005703000857030008570300085703000897
:1001E0005703000857030008570300085703000887
:1001F0005703000857030008570300085703000877
:100200005703000857030008570300085703000866
:100210005703000857030008570300085703000856
:1002200057030008570300085703000800000000A8
:100230005703000857030008000000005703000898
:100240005703000857030008570300085703000826
:100250005703000857030008570300085703000816
:100260005703000857030008570300085703000806
:100270005703000857030008570300080000000058
:100280005703000857030008570300080000000048
:10029000000000005703000800F002F800F03CF8EE
:1002A0000AA090E8000C82448344AAF10107DA45D1
:1002B00001D100F031F8AFF2090EBAE80F0013F0E7
:1002C000010F18BFFB1A43F001031847C8300000A4
:1002D000E8300000103A24BF78C878C1FAD8520735
:1002E00024BF30C830C144BF04680C6070470000B0
:1002F0000023002400250026103A28BF78C1FBD82F
:10030000520728BF30C148BF0B6070471FB503F0CC
:100310002BF81FBD10B510BD00F060F81146FFF7B7
:10032000F5FF02F0EDFD00F07EF803B4FFF7F2FFF9
:1003300003BC00F081F800000A4880470A48804763
:100340000A480047FEE7FEE7FEE7FEE7FEE7FEE7B6
:10035000FEE7FEE7FEE7FEE705480649064A074BCB
:100360007047000051040008FD28000899020008A9
:1003700040010024400700244003002440030024DF
:100380004FF0000200B5134694469646203922BF2E
:10039000A0E80C50A0E80C50B1F12001BFF4F7AF79
:1003A000090728BFA0E80C5048BF0CC05DF804EB5B
:1003B000890028BF40F8042B08BF704748BF20F8C9
:1003C000022B11F0804F18BF00F8012B70477047C7
:1003D0007047704700487047180000247546FFF7C3
:1003E000F9FFAE4605006946534620F007008546F2
:1003F00018B020B5FFF7B0FFBDE820404FF0000671
:100400004FF000074FF000084FF0000BAC46ACE88F
:10041000C009ACE8C009ACE8C009ACE8C00921F0EB
:1004200007018D46704710B50446AFF300802046A3
:10043000BDE81040FFF779BF01491820ABBEFEE7C9
:10044000260002007047FEE7704772B6FEE7000024
:100450000448816841F00201816001688904FCD58B
:10046000704700BF04480258B0B5044600F0E6F8F3
:1004700005460548611C007818BF044400F0DEF80A
:10048000401BA042FAD3B0BD000000242DE9FC4F70
:100490005F4A0A244FF0000A4FF0000990425D4A7B
:1004A00008BF092402444FEAB223092B38BF4FEAA0
:1004B000B224009400220E6836FA02F500F0A580FE
:1004C000012303FA02F516EA050B00F09880D1F833
:1004D00004E00EF0030CACF10104012C11D803234D
:1004E00003FA09F48368A343CC6804FA09F42343AC
:1004F0008360CEF3001344689340AC4323434360CE
:100500000DE0BCF1030F0AD18B68012B07D14FF02E
:10051000030C4F460CFA09F36FEA030826E00323A5
:10052000C4688D68570003FA09F305FA09F59C437E
:100530006FEA03082C43C460BCF1020F16D10AF025
:100540001C030F2404FA03FC6FF0030404EA5205B1
:1005500005442C6A24EA0C0C0C6904FA03F343EA00
:100560000C032B62D1F804E00EF0030C04680CFAC3
:1005700007F304EA0804234303601EF4403F3ED01F
:10058000264C274E236843F00203236023680F2480
:1005900003F002030193019D0AF00C0322F003050E
:1005A0009C40AF5927EA0404009F07FA03F3234352
:1005B000AB514FF0B04633684D6843EA0B04EF028D
:1005C00058BF23EA0B043460134EAF02336843EA8A
:1005D0000B0458BF23EA0B043460AF03D6F8803015
:1005E00043EA0B0458BF23EA0B04C6F88040ED032E
:1005F000F36F43EA0B0458BF23EA0B04F4670AF1D4
:10060000040A09F10209013255E7BDE8FC8F00BF79
:10061000002402580000FEA704000058F4440258C9
:1006200008040058002A08BF0904816170470000CF
:1006300001480068000C70470010005C0148006829
:10064000704700BF3801002490F84120202A03D1D0
:1006500090F84020012A01D1022111E0242280F8E3
:1006600041200268136823F001031360136823F428
:100670008053136013681943734601F08EFE9E4643
:100680000846704790F84120202A03D190F8402076
:10069000012A01D1022110E0242280F841200268C1
:1006A000136823F001031360136823F4706343EAB3
:1006B0000121734601F071FE9E4608467047000016
:1006C00000B3B0B5044690F8410018B901F0ECFF52
:1006D00000F0DEF9242084F84100D4E90003D4E9D5
:1006E000021223F07063012A056825F001050560F8
:1006F0000361836823F40043836005D141F4004122
:1007000081600AE001207047022A41F404418160BF
:1007100003D1416841F4006102E0416821F40061C5
:1007200041600F4A04F11005416811434160C168FE
:1007300021F40041C1602ECD114341EA0321C16083
:10074000216A29430160016841F001010160002034
:100750006064202184F84110206384F84200B0BD19
:10076000008000022DE9FE4F04460020029094F81C
:100770004100202808D120688A468169090403D4F1
:1007800094F84010012902D10220BDE8FE8F904666
:1007900024211D464FF000096FF39F2A334A5F1C46
:1007A00084F84110012184F84010C4F84490E168B5
:1007B00093460129114618BF01F5006141EA0A017B
:1007C0004160FFF73BFF0646206881698269120994
:1007D00042EA5111C90709D1002FF5D0FFF72EFFCA
:1007E000801BA8422CD8002DEED129E08169C906D2
:1007F00010D42046202100222B46009601F06CFCEC
:1008000050B3606C042812D120682021C161C4F863
:1008100044900CE01021C161204600222B46009636
:10082000202101F059FC10B920682021C1610298F3
:10083000013002900298404502D25A462068B6E73D
:10084000202084F8410001F094FE606C40F020000C
:1008500060640120BDE8FE8F20682021C16101F0A5
:1008600088FE84F84110BDE8FE8F00BF0020000222
:100870002DE9F84F01F0ADFD0CD1DDF828B0BBF14A
:10088000000F09D0DDF82C80B8F1000F04D001F082
:1008900094FE07D1022502E001F0AAFE01252846B8
:1008A000BDE8F88F01F069FE01F01EFE0028F6D1C8
:1008B000222084F841000C990025F2B2002301F0B7
:1008C0002CFE2F488346A0F58060009001F0A6FD25
:1008D00001F063FE50B9012E02D001F056FE28B996
:1008E00001F0C7FE402101F0C6FD10B184F8405070
:1008F000D4E701F0DCFD06D3FF202085CDF800B061
:1009000001F050FE07E0608D51464FF000732085E6
:10091000CDF800B0C2B201F081FD0025FF262046CF
:1009200004210022434601F0A6FD0028B6D101F0C3
:100930008DFD15D1A0B1204680210022434601F053
:100940009AFD0028AAD101F0B2FD05D326850095B5
:10095000204601F027FE01E001F033FE01F0A6FB86
:10096000608D0028DBD12046414601F05EFE002864
:1009700094D1206820210025444B01F052FD8EE7E0
:10098000002400802DE9F84F01F023FD0CD1DDF8A3
:1009900028B0BBF1000F09D0DDF82C80B8F1000FB2
:1009A00004D001F00AFE07D1022502E001F020FE8A
:1009B00001252846BDE8F88F01F0DFFD01F094FD28
:1009C0000028F6D1212084F841000C990025F2B2CC
:1009D0004FF0807301F0A1FD2B48009001F01EFD47
:1009E00001F0DBFD50B9012E02D001F0CEFD28B997
:1009F00001F03FFE802101F03EFD10B184F840502F
:100A0000D6E701F054FD06D3FF20208501F0CAFD92
:100A10000020009007E0608D00214FF000732085DA
:100A200000915146C2B201F0F9FC0025FF2601F009
:100A3000B4FD0028BCD101F022FD15D1A0B12046A3
:100A400080210022434601F016FD0028B0D101F0BC
:100A50002EFD05D326850095204601F0A3FD01E07B
:100A600001F0AFFD01F022FB608D0028DFD12046B0
:100A7000414601F0DAFD00289AD1206820210025A6
:100A8000024B01F0CEFC94E70020008000E800FE5D
:100A900010B5B8B0044633A81421FFF771FC02A8C2
:100AA000B8210830FFF76CFC2068184988422BD128
:100AB0000020082103900291239002A800F024F95D
:100AC00008B1FFF7C2FC124C206840F00200206021
:100AD000206800F002000190042037900320369037
:100AE0000120359012203490C0203390019833A912
:100AF0000848FFF7CBFCA06840F40010A060A06895
:100B000000F400100190019838B010BD005400406E
:100B1000E0440258000402582948034900780A6852
:100B200010440860704700BF3801002480B50320DE
:100B300000F0B8F800F0DCFD0E490F4B0A680968B8
:100B400001F00F01C2F30322595C9A5C01F01F010E
:100B500002F01F02D0401B4A1060C84007490860DD
:100B60000F2000F00DF808B1012080BD00F06EF8F4
:100B7000002080BD18440258823300080C00002475
:100B800070B50F4E04463078B0B14FF47A71B1FBB6
:100B9000F0F00C490968B1FBF0F001F089F801258B
:100BA0000F2C0AD848B94FF0FF302146002200250B
:100BB00000F05CF8746000E00125284670BD00BFBD
:100BC000000000240800002410B512494378027880
:100BD0000B608B6823F001038B6043684B60C47A21
:100BE000037B240644EA0373847A43EAC443447BC8
:100BF00043EA8443847B43EA4443C47B43EA04439B
:100C0000447A007A43EA042343EA400010438860B0
:100C100010BD00BF98ED00E00B48BFF35F8F016887
:100C200021F480310160002101677047064940F0DE
:100C300001000867086840F480300860BFF34F8FF8
:100C4000BFF36F8F704700BF24ED00E081B006480E
:100C5000016841F002010160006800F002000090AC
:100C6000009801B0704700BFF444025870B5134BB0
:100C70004FF0FF351B68C3F30223DC1E83F007032C
:100C800038BF002405FA04F6B243042B28BF04231E
:100C900005FA03F39943A1401143BDE8704002F007
:100CA0008BB800BF05494FF6FF030A681A4060F38E
:100CB0000A22034810430860704700BF0CED00E0B3
:100CC0000000FA05B0B50F4D2A682968520705D40F
:100CD00001F00701081A18BF0120B0BD21F007017B
:100CE000084301F073FB044655F8080C800406D451
:100CF000FFF7A4FC01F04DFBF6D90120B0BD0020A8
:100D0000B0BD00BF0C4802582DE9F0470446C0783A
:100D1000A74F00071CD5A06E4FEA3051032908D811
:100D2000DFE801F002090C11F96941F40031F961C1
:100D300009E001260DE001F07FFB01E001F006FC77
:100D4000064630B9A06E396C21F44011084338646E
:100D500000266078BA46C00701D1354620E0A06D74
:100D600004280BD83546DFE800F0030C0F12120000
:100D7000F869354640F40030F86108E001250127A4
:100D80000FE001F01EFB01E001F043FB05462F469A
:100D90003DB9A06D01F06AFB21F0070101F090FB65
:100DA0003746607880071ED5E06D4FEAB010042802
:100DB00007D8DFE800F003090C0F0F0001F08CFBEF
:100DC00008E0012501260FE001F0FBFA01E001F047
:100DD00020FB05462E463DB9E06D01F047FB21F4AE
:100DE000E07101F06DFB3E466078400702D4B046EA
:100DF000574623E0D4F8A80057464FEA705004281D
:100E000007D8DFE800F0030A0D10100001F053FBD3
:100E100009E001254FF0010810E001F0D2FA01E0ED
:100E200001F0F7FA0546A84645B9D4F8A800B96C10
:100E30000025B04621F460010843B86460780007DB
:100E400020D5D4F8AC004FEA3060042807D8DFE89A
:100E500000F003090C0F0F0001F02DFB08E0012545
:100E6000012710E001F0ADFA01E001F0D2FA0546E9
:100E70002F4645B9D4F8AC0001F0E3FA21F0E06167
:100E800001F011FB4746E07880071DD5E06C4FEA82
:100E90003010032806D8DFE800F00B02080B01F041
:100EA0001BFB05E0012501260FE001F0C5FA054610
:100EB0002E4655B9E06CDAF83C100025524621F078
:100EC00030010843CAF83C003E466078C0061ED593
:100ED000206E4FEA3030042807D8DFE800F003091D
:100EE0000C0F0F0001F0F8FA08E0012501270FE0D0
:100EF00001F067FA01E001F08CFA05462F463DB992
:100F0000206E01F0B3FA21F4E04101F0D9FA37463E
:100F1000607880061BD5606E4FEA3040052807D800
:100F2000DFE800F00C03090C0C0C01F0C2FB04E03C
:100F3000012501260CE001F0ADFB05462E463DB92A
:100F4000606E01F093FA21F4E02101F0B9FA3E4617
:100F5000607840061DD5D4F8B0004FEA30700528FF
:100F600007D8DFE800F00C03090C0C0C01F0A1FB22
:100F700004E0012501270DE001F08CFB05462F461A
:100F800045B9D4F8B00001F05CFA21F0E04101F07D
:100F90008AFA37466078000618D5206F68B1B0F13C
:100FA000005F07D0B0F1805F22D101F095FA04E034
:100FB0001044025801F07DFB05462E463DB9206FD6
:100FC00001F054FA21F0405101F07AFA3E46E078FF
:100FD000C00702D1B04657461EE0A06C5746032812
:100FE00009D8DFE800F00F020C0F01F064FA09E005
:100FF00001250126EBE701254FF001080CE001F087
:101000001BFA0546A8463DB9A06CF96B0025B04611
:1010100021F003010843F863A078400601D4474655
:1010200016E0D7F8F00340F48070C7F8F003FFF73C
:1010300005FB0646D7F8F003C00507D4FFF7FEFA14
:10104000801B6428F6D90325032701E02F467DB1D4
:101050002078C00747D0E06F4FEAF000052832D86B
:10106000DFE800F037033437373701F022FB2FE099
:10107000DAF86010D4F8B4005546414011F4407FCE
:101080000BD0296E2A6E42F480322A6621F4407118
:101090002A6E22F480322A662966B0F5807F40F0FD
:1010A0000382FFF7CBFA064641F288390327DAF8C4
:1010B0006000800700F1F581FFF7C0FA801B03256F
:1010C0004845F4D9C4E7012501260DE001F0E2FA14
:1010D00005462E4645B9E06F01F0E0F921F03801F0
:1010E0000843CAF844003E46207880071AD5A06F0E
:1010F000052807D8DFE800F00C03090C0C0C01F000
:10110000D8FA04E0012501270DE001F0C3FA0546F5
:101110002F4645B9A06F01F0C1F921F0070108433E
:10112000CAF844003746207840071BD5D4F894000D
:10113000052807D8DFE800F00C03090C0C0C01F0BF
:10114000B8FA04E0012501260DE001F0A3FA0546F6
:101150002E4645B9D4F8940001F073F921F0070147
:1011600001F0A1F93E46207880061ED5D4F8900003
:101170004FEA3070052807D8DFE800F00C03090CAF
:101180000C0C01F01EF904E0012501270EE001F02E
:10119000DDF905462F464DB9D4F8900001F07EF9EF
:1011A00021F0E0410843CAF8440037462078400661
:1011B0001DD5D4F89C004FEAB020052807D8DFE8F9
:1011C00000F00C03090C0C0C01F0FBF804E0012505
:1011D00001260DE001F0BAF905462E4645B9D4F8CE
:1011E0009C0001F02EF921F4E05101F05CF93E463B
:1011F000207800061DD5D4F8A0004FEA70300528ED
:1012000007D8DFE800F00C03090C0C0C01F0D9F84A
:1012100004E0012501270DE001F098F905462F466D
:1012200045B9D4F8A00001F00CF921F4604101F0B7
:101230003AF937462068010714D5D4F88410B1F57F
:10124000805F07D101F082F9002818BF01272068CC
:10125000D4F88410DAF84420534622F44052114363
:10126000CAF84410C10614D5D4F89810B1F5807F9F
:1012700007D101F06BF9002818BF01272068D4F8C6
:101280009810DAF84820534622F440721143CAF805
:101290004810000318D5D4F8A400B0F5003F09D0D9
:1012A000B0F5803F03D010BB01F08BF801E001F0F6
:1012B0004DF905462E4645B9D4F8A40001F0C1F811
:1012C00021F4403101F0EFF83E46A07840071FD5E9
:1012D000D4F88800B0F5401F0FD0B0F5001F09D03A
:1012E000B0F5801F40F0D88001F0F6F805E0012548
:1012F0000126EAE701F0CEF905462F464DB9D4F8AC
:10130000880001F0CBF821F440110843CAF84400EA
:101310003746A078C00701D13E4619E0206DB0F5F0
:10132000803F03D090B901F0D7F802E001F084F8D3
:1013300005462E4665B9206DDAF83C100025524668
:1013400021F480310843CAF83C00E5E70125012675
:101350002168880001D4606806E001F0F7F80028F1
:1013600018BF0126D4E900108A031BD5D4F88020C9
:101370006FF0010303EB3223022B0BD34FEA32232E
:1013800043B1012B40F08B80DAF81C3043F400337A
:10139000CAF81C303DB9DAF8443023F440731A43DC
:1013A000CAF844203546CA0207D5626FDAF84030E1
:1013B00023F000431A43CAF84020CA0008D5D4F8E5
:1013C000B820DAF8003023F480431A43CAF800202A
:1013D0008A0207D5E26EDAF8403023F080731A43B0
:1013E000CAF840204A000CD5DAF8002022F4004266
:1013F000CAF80020D4F8BC20DAF800301A43CAF842
:101400000020B1F1FF3F07DC626DDAF83C3023F0D9
:1014100040531A43CAF83C20090208D5D4F88C106E
:10142000DAF8442022F440021143CAF84410C107FC
:1014300005D000F0C6FF002818BF05466068810788
:1014400005D501F036F9002818BF05466068410748
:1014500005D500F0F1FF002818BF054660680107B8
:1014600005D500F0D6FF002818BF05466068C10604
:1014700005D501F00FF9002818BF05466068800601
:1014800004D501F063F8002818BF0125002D18BF0E
:1014900001252846BDE8F0870125012739E7012508
:1014A00081E75546D4F8B4002A68094900F440732E
:1014B00022F47C5201EA1011B3F5407F6FF31F3024
:1014C00008BF0A432A60296E084328660025A6E55E
:1014D000CFFFFF002DE9F843002800F0FB807F4D8F
:1014E00004468846286800F00F0088420BD228681E
:1014F00020F00F0040EA08002860286800F00F0084
:10150000404540F0E7802068AE4F410709D521698A
:10151000BA6901F02AF804D9BA6922F070021143BD
:10152000B961010709D56169FA6901F01EF804D9AA
:10153000FA6922F070021143F961C1060AD5A16966
:10154000FA6902F4E062914204D9FA6922F4E06295
:101550001143F961810609D5E1693A6A01F005F89C
:1015600004D93A6A22F070021143396210F0020184
:101570000AD0E268BB6903F00F039A4204D9BB6941
:1015800023F00F031A43BA61C2073AD0D4E901012C
:10159000BA6922F470621143B961012807D00328A7
:1015A00009D002280BD1396889030CD492E039683C
:1015B000C90508D48EE03968890104D48AE0396805
:1015C000490740F187803969A94621F0070108439E
:1015D0003861FFF733F8064641F2883560683969AB
:1015E00001F03801B1EBC00F07D0FFF727F8801BDF
:1015F000A842F3D90320BDE8F88320684D4600F0E7
:10160000020151B1E168BA6902F00F02914204D2BD
:10161000BA6922F00F021143B961296801F00F0184
:1016200041450AD9296821F00F0141EA08012960E2
:10163000296801F00F0141454CD1410709D52169C5
:10164000BA6900F092FF04D2BA6922F07002114325
:10165000B961010709D56169FA6900F086FF04D212
:10166000FA6922F070021143F961C1060AD5A16935
:10167000FA6902F4E062914204D2FA6922F4E0626B
:101680001143F96180060AD5E069396A01F07001F9
:10169000884204D2396A21F070010843386200F0B0
:1016A00027F8B9690E4A0F4BC1F30321515C01F0D1
:1016B0001F01C840B969186001F00F01515C01F0C9
:1016C0001F01C8400849086008480068BDE8F843A1
:1016D000FFF756BA0120BDE8F88300BF0020005292
:1016E00082330008080000240C00002404000024B9
:1016F00010B534490869C0F3C20003280FD002288E
:1017000004BF324810BD40B908688006334858D538
:101710000968C1F3C101C84010BD2B4810BD8A6AD9
:10172000886ACB6A4C6BC0F30510F0B103F001037B
:10173000C4F3CC0402F003026343022A00EE103A21
:10174000B8EE400A13D0AAB90A68920651BF9FEDBD
:10175000221A0A68C2F3C102204B42BF23FA02F2E6
:1017600001EE102AB8EE411A06E0002010BD9FEDF0
:10177000191A01E09FED161A0A6B9FED193A6FF3E3
:101780005F2202EE102AB8EE422A00EE032AB7EEDC
:10179000000A32EE000A02EE100A086BC0F346207F
:1017A000B8EE422A013081EE021A21EE000A01EE63
:1017B000100AB8EE411A80EE010ABCEEC00A10EE23
:1017C000100A10BD0044025800093D0040787D0118
:1017D0000024744A20BCBE4B0024744C0090D003FB
:1017E00000000039F8B5002800F03F810446007879
:1017F000D74EC0071FD12078800740F19C80306908
:1018000010F03801B06A35D0182901D1800731D0E5
:101810003068E168002955D020F01900084300F035
:10182000B5FD0546306840073BD4FEF707FF401B77
:101830000228F7D951E1306900F03801B06A102967
:1018400005D018290AD100F00300022806D130681B
:101850008003D0D560680028CDD106E160680028FB
:101860003ED0B0F5A02F4BD0B0F5803F4CD000F06B
:101870002BFE4CE0E0683168490702D5002800F0F3
:10188000F480316821F01901084300F07FFD05461E
:101890003068400705D4FEF7D1FE00F08EFDF7D981
:1018A000F8BDFEF7C5FE41F2030188423CD820692D
:1018B000716821F47C31402814BF41EA003041F4C2
:1018C000003037E020F0010000F060FD0546306890
:1018D000400730D5FEF7B2FE00F06FFDF7D9DFE725
:1018E00000F0F2FD00F052FD0546306880037FF500
:1018F00082AFFEF7A3FE411B03206429F5D9CFE791
:10190000306840F480203060306840F4803000F06F
:101910003DFD0546306880033FF56DAFFEF78EFE56
:10192000401B6428F6D9D8E02069716821F0FE4197
:1019300041EA006070602078C0063ED5306900F052
:101940003801B06A082905D018291CD100F003001D
:10195000012818D13068C00503D5E069802840F01F
:101960008480FEF765FE41F2030188421ED8206A9A
:10197000716821F0F841202814BF41EA806041F0ED
:101980008040706019E03068E169002900F0D08083
:1019900040F0800000F0FAFC05463068C005E0D455
:1019A000FEF74CFE00F009FDF7D979E7206AF168EF
:1019B00021F07C5141EA0060F0602078000756D4A5
:1019C0002078800665D42078400774D4676A002F99
:1019D00049D0306900F03800182840F0BB80B16A67
:1019E000306B012F41D0A26A01F0030393423CD136
:1019F000E26AC1F30511914237D10146226B6FF3C0
:101A00005F21013A914230D1626BC0F34621013A25
:101A100091422AD1A26BC0F30641013A914224D1EE
:101A2000E16BC0F30660013988421ED1A06C716B76
:101A3000C1F3CC01884216D0F06A20F00100F062B8
:101A4000FEF7FCFD0546FEF7F9FDA842FBD0706BE2
:101A50004FF6F8718843A16C40EAC1007063F06AE8
:101A600040F00100F0620020F8BD0120F8BD706F69
:101A70006169A1B340F001007067FEF7DFFD054624
:101A8000706F80079CD4FEF7D9FD401B0228F7D960
:101A900023E03068A169E1B340F4805000F076FCA7
:101AA0000546306880043FF58EAFFEF7C7FD401B4A
:101AB0000228F6D911E0D6F8000440F48070C6F888
:101AC0000004FEF7BBFD0546D6F80004C00516D499
:101AD000FEF7B4FD401B6428F6D90320F8BD20F0C2
:101AE00001007067FEF7AAFD0546706F80077FF55D
:101AF00067AFFEF7A3FD00F060FCF6D9D0E6A06862
:101B0000002842D0052853D0012855D000F016FDFA
:101B100055E020F4805000F039FC05463068800420
:101B20007FF551AFFEF78AFD00F047FCF6D9B7E626
:101B300020F0800000F02AFC05463068C0057FF5E3
:101B40003CAFFEF77BFD00F038FCF6D9A8E600BFFD
:101B500000440258306820F0807000F017FC054601
:101B6000022F08D1306880013AD5FEF767FD00F0FA
:101B700024FCF7D994E6306880017FF574AFFEF756
:101B80005DFD00F01AFCF6D98AE600F0D7FC30675C
:101B9000FEF754FD054641F28837306F80077FF528
:101BA00015AFFEF74BFD411B0320B942F5D977E68F
:101BB000306F40F004003067306F40F00100306754
:101BC000FEF73CFD054641F28837306F80073FF550
:101BD000FDAEFEF733FD411B0320B942F5D95FE6A8
:101BE00004F12805B06A40F2F33188432ECD084352
:101BF000591E40EA0210B0626FF35F214FF4FE02FB
:101C00004FF47E4000EB452080B20844A16B02EB0C
:101C100001414FF0FE4201F4FE010844E16B02EB8A
:101C2000016101F0FE41084430634FF6F871F06A3B
:101C300020F00100F062706B8843A16C40EAC100A3
:101C40007063206CF16A21F00C010843F062F06AC5
:101C5000616C20F002000843F062F06A40F48030CA
:101C6000F062F06A40F40030F062F06A40F48020E4
:101C7000F062F06A40F00100F062306840F080707D
:101C800000F084FB0446306880013FF5ECAEFEF7BF
:101C9000D5FC011B03200229F5D901E6034A13688C
:101CA00023EA000008431060704700BF0404005896
:101CB000411E0020B0EB116F01D001207047044A93
:101CC000F023516003490B70906007211160704749
:101CD00010E000E023ED00E070B590F83C30022207
:101CE000012B2CD080F83D201A4C026842F480660B
:101CF00055689368A64202BF25F470054E683543C7
:101D00000E6825F0700535435560B2F1804F0BD059
:101D1000114DAA421CBF114DAA4205D0104DAA4236
:101D20001CBF104DAA420CD123F0800389681943CF
:101D30009160002280F83C20012180F83D1010467F
:101D400070BD094DAA42EFD0084DAA4218BFA24269
:101D5000EAD0EEE700040140000400400008004023
:101D6000000C00400018004000000140004001400D
:101D700058B110B500F037FC03D100F0DAFB00F0E9
:101D800007F800F061FC00F029BB0120704700005B
:101D900081B00068B0F1804F09D10648016841F078
:101DA00001010160006800F001000090009801B09E
:101DB000704700BFE844025810B500F0F8FB1BD094
:101DC00084F83D00012084F83C002E4B2068826896
:101DD0001A4082600A682AB1102A03D0202A18BF4C
:101DE000302A0AD181682B4B1940114341F0070179
:101DF0008160002000F021FC10BD402A1FD0502A35
:101E000025D0602A2BD0204B9A42EBD0B2F5805FD0
:101E1000EFD0B2F5005F2DD0B2F5801F18BFB2F140
:101E2000101FDFD0194B9A42DCD0194B9A42D9D0FF
:101E3000702A24D100F064FB41F07701D8E700F06C
:101E4000F7FB2068134A816811404731D0E700F062
:101E5000EFFB20680F4A816811405731C8E74B6893
:101E6000CA68194600F088FF20680A4A8168114054
:101E70006731BDE700F044FB41F48041B8E7012041
:101E8000B8E700BF8800CEFF40001000200010001F
:101E90003000100088FFCFFFFEB50068B0F1804F22
:101EA00015D1F748016841F0010101600068002187
:101EB00000F001000090CDE90311022101200590FE
:101EC000CDE90101009801A90248FEF7DFFA06B04A
:101ED00080BD00BF00000258B0B500F0D1FB04BFC8
:101EE0000220B0BD00F0B7FB052948D8DFE801F0BB
:101EF000030B131B23332068294600F0C5FD20681F
:101F000050F8181F1EE02068294600F0FFFD2068E9
:101F100050F8181F26E02068294600F035FE20689A
:101F200050F81C1F0EE02068294600F06DFE206866
:101F300050F81C1F16E02068294600F095FE206826
:101F400050F8541F41F008010160016821F00401BC
:101F5000016029690FE02068294600F0AFFE206883
:101F600050F8541F41F400610160016821F4806160
:101F70000160296909020268114301600020002103
:101F800084F83C10B0BD58B110B500F02CFB03D163
:101F900000F0CFFA00F006F800F056FB00F01EBA91
:101FA000012070477047FEE700688169890701D505
:101FB000002181628169C90703D1816941F0010172
:101FC000816170472DE9F041044600680D46816942
:101FD000C90602D4002500213AE01021C16116464D
:101FE0004FF000086F1C0021826902F020020A43B2
:101FF00028D12FB1FEF722FB801BA84203D815B1D0
:1020000000212068F0E72068436894F84210826954
:102010005B0404D412F4004218BF20290CD12068BC
:1020200080698006ECD4FEF709FB801B1A28F6D3E2
:1020300048F020080121E4E700F027FBFEF7FEFA54
:102040000646ECE709B92021C16148F004050121E9
:102050008269D30505D54FF48071C16145F0010552
:102060000121530505D492050AD471B90020BDE8B9
:10207000F0814FF48061C16145F00805910504D5F8
:1020800045F002054FF40071C1612046FFF78CFF57
:102090002068054A416811404160606C284300F0A7
:1020A0005AFA0120BDE8F08100E800FE70B5006832
:1020B0006FF39F21049D074E1943446841EA024192
:1020C000294324EA555421F0004134402143416022
:1020D00070BD00BF009C00FC2DE9F8431D4616466C
:1020E0000F460446DDF8208003F1010900F072FA82
:1020F0001BD1204629464246FFF764FF90B9B9F14B
:10210000000FF3D0FEF79AFAA0EB0800A84201D81E
:10211000002DEBD100F05EFAE8D1606C40F02000B9
:1021200000F019FA0120BDE8F8830020BDE8F8832B
:1021300070B515460E46044620688069800614D4A2
:1021400000F0ADFA78B9FEF779FA401BB04201D839
:10215000002EF1D1206880698006EDD4606C40F0DB
:10216000200000F0F8F9012070BD002070BDF8B526
:1021700015460E4604464F1C20688069800716D419
:1021800000F08DFA88B9002FF6D0FEF757FA401B01
:10219000B04201D8002EEFD1206880698007EBD4CF
:1021A000606C40F0200000F0D6F90120F8BD00205E
:1021B000F8BD00002DE9F04387B031484FF0000929
:1021C000CDF818902F4C0022FF26016841F0040141
:1021D0000160016801F0040101910199016841F079
:1021E00080010160016801F080010191019901689D
:1021F00041F001010160016801F0010101910199C3
:10220000016841F002010160016801F002010191E1
:102210000199016841F0100101600068FF2100F0A0
:102220001000019001982046FEF7FCF904F50065C6
:10223000032100224FF003082846FEF7F3F902209D
:10224000CDE904900127CDE9026702AE2046314670
:10225000FEF71CF928463146CDE90499CDE90287FD
:10226000FEF714F94FF080600021FFF717FD4FF0E3
:1022700000600021FFF712FD07B0BDE8F08300BF4A
:10228000E04402580008025810B5124C0120002109
:10229000114A124BC4E9021004F110001421C4E9E0
:1022A0000032FEF76DF82046FEF70AFA08B1FEF795
:1022B000CCF808480021FEF7C7F908B1FEF7C5F8C9
:1022C00004480021FEF7DEF918B1BDE81040FEF722
:1022D000BCB810BD98000024B175703000540040A7
:1022E00010B58EB068461C2100240D94CDE90B4436
:1022F0000994CDE90744FEF743F820488021EF22F6
:102300004FF08043816140F2E731C0E90032C0E91B
:1023100002410461FFF72CFD08B1FEF796F84FF477
:1023200080500A900AA91548FFF746FD08B1FEF74C
:102330008CF81248FFF727FE08B1FEF786F8202038
:1023400000240790099407A90C48FFF7C5FC08B1C1
:10235000FEF77BF84FF4FA7001906946002204946E
:102360000294602000900548FFF7B6FD08B1FEF723
:102370006CF80248FFF790FD0EB010BDEC00002491
:10238000FEE7FEE701230297584648473060FEF714
:1023900055B9001BB0F57A7F70471160116841F0A4
:1023A000010111602022002180F8401080F84120B6
:1023B0007047CDE9000A29467047411B03200229D6
:1023C000704704F10800002100F07AB92860FEF798
:1023D00035B9044690F8410020287047012084F860
:1023E000480084F83E0084F83F0084F8400084F8F8
:1023F000410084F8420084F8430084F8440084F8E3
:10240000450084F8460084F8470084F83D00002029
:1024100010BD04F12800002100F0B2B92046FFF7FA
:1024200045BEC16142681A40426084F8411084F898
:10243000405084F84250704704F10800022100F037
:102440003FB9DAF848100025524670472068616AA3
:10245000406A0870608D01386085606A0130606292
:10246000208D411E2185608D09047047DAF84010E7
:10247000002552467047CDF80090FFF72DBE616AE7
:10248000206811F8012B8262608D013860856162DD
:10249000208D411E2185608D09047047DAF84410B3
:1024A0000025524670470843CAF848007047608DBF
:1024B000B0F5807F7047F86940F40030F8617047EC
:1024C0000843CAF840007047306820F4803030601C
:1024D000306820F480207047DAF81C00514640F440
:1024E0000030CAF81C0070478146009020464FF427
:1024F000004101221923FFF7EFBD3860FEF79EB8B7
:10250000D1E90123C9681A4342EA0121826822F411
:102510007F421143816081687047402084F8420007
:102520006564C4F824B06563A4F82A8088465146DF
:102530007047002084F83C0020467047306F20F040
:1025400001003067306F20F00400704704F128006C
:10255000022100F015B96064202084F841000020B9
:1025600084F8400084F84200704702F07002914203
:102570007047002084F84000704701251E4617462A
:102580008A4684F84050FEF759B82068390A4A460E
:10259000816220464146FFF7EABD204641464A4651
:1025A000FFF7E5BD5146FF224FF08073704790F86A
:1025B0003C2004460220012A704794F8400001287C
:1025C0007047608D51464FF0007320850095C2B270
:1025D00020467047206880693840C01BB0FA80F000
:1025E0004009B0427047044690F83D00002870470B
:1025F0004FF4007060647047B8626FF35F214FF46E
:102600007E4000EB42204FF0FE4280B208444FF47F
:10261000FE0101EB034101F4FE010844296902EBCC
:10262000016101F0FE41084470474A46FFF780BD52
:102630004B68CA68194600F06FBB002184F83C1053
:10264000012184F83D107047022084F83D00211DCF
:10265000206800F0BBB90D4601204FEAB20184F8B2
:102660003C0070470362B84246680C688B68456D51
:1026700070472068F9B200224346816220467047C5
:10268000044690F83C0001287047416841F48041BD
:102690004160704704F12800012100F071B8204624
:1026A00031462A46FFF78EBC002084F840002046C1
:1026B000704704F10800012100F002B870470000E3
:1026C000F8B5BA4F0546B86A00F00300032804BF06
:1026D0000120F8BD38680C4620F08060FFF70DFF40
:1026E00006463868000105D5FDF7A8FF801B0228C3
:1026F000F7D941E095E80F00BE6A26F47C3601392F
:1027000046EA0030FFF778FFB8636869F96A21F09C
:10271000C0010843F862A869F96A21F02001084362
:10272000F8624FF6F871F86A20F01000F862F86B62
:102730008843E969012C40EAC100F863F86A40F077
:102740001000F8624FF4001008BF4FF48010002C06
:1027500008BF4FF40020F96A0843F862386840F077
:102760008060FFF7CAFE04463868000106D4FDF712
:1027700065FF001B0328F7D30320F8BD0020F8BD38
:10278000F8B58A4F0546B86A00F00300032804BF75
:102790000120F8BD38680C4620F08050FFF7ADFEF0
:1027A00006463868800005D5FDF748FF801B0228E3
:1027B000F7D941E095E80F00BE6A26F07C76013932
:1027C00046EA0050FFF718FF38646869F96A21F497
:1027D00040610843F862A869F96A21F4007108436E
:1027E000F8624FF6F871F86A20F48070F862786C3D
:1027F0008843E969012C40EAC1007864F86A40F432
:102800008070F8624FF0807008BF4FF40000002C19
:1028100008BF4FF48000F96A0843F862386840F056
:102820008050FFF76AFE04463868800006D4FDF742
:1028300005FF001B0328F7D30320F8BD0020F8BDD7
:102840007047FEF769B90000B0B59CB009A84C21EB
:10285000FDF796FD01A82021FDF792FD0220FEF76D
:1028600031FA002000902348016841F440410160A2
:10287000016801F4404100911F490A6842F00102D9
:102880000A60096801F0010100910099016889045A
:10289000FCD502201890CDE91600CDE91200C02128
:1028A000002408251591CDE91A4419954FF480307C
:1028B0000A90052114910120099009A8FEF792FFC2
:1028C00008B172B6FEE740200890CDE905004FF44C
:1028D00080610791CDE903450320029004213F2048
:1028E000019001A8FEF7F6FD08B172B6FEE71CB034
:1028F000B0BD00BF184802582C04005810B5294834
:10290000294A016841F470010160106800F00F006D
:10291000062804D81068072161F3030010602348DB
:10292000234C016841F0010101600021016103684D
:102930002340036013681B0704D51368072464F35E
:10294000030313601B4A8161C161016282621A4AFA
:10295000C2621A4A026341638263C16302644164D2
:10296000026822F4802202600166154A1268B1EB07
:10297000527F02D1134901220A60D0F8D410C90451
:102980000FD4D0F8D41043F2D20241F48051C0F8F1
:10299000D4100D490A60D0F8D41021F48051C0F849
:1029A000D41010BD88ED00E0002000520044025811
:1029B0007FEDF6EA000202020000FF018002010141
:1029C0000010005C088100510040005270B5D04BEF
:1029D0000268984205D0B0F1804F1CBF274CA0423E
:1029E00038D122F070024C68224398420ED0B0F1E8
:1029F000804F0BD0214CA0421CBF214CA04205D0DF
:102A0000204CA0421CBFD84CA0422DD1CC6822F44F
:102A1000407222434C6998420D688E68C662856296
:102A20000BD0D14B984208D0D04B984205D0D04B18
:102A3000984202D0CF4B984201D1096901630168E5
:102A400041F0040101600121416122F08001214334
:102A5000016070BD0A4CA042C3D0D54CA042C0D08A
:102A6000084CA042BDD0C2E7C04CA042CED0C04C62
:102A7000A042CBD0BF4CA042C8D0CBE7000400405E
:102A800000080040000C0040F0B5036A026AB54E31
:102A900022F00102026223F002038C680A68456892
:102AA00023438469B0420BD0C14FB84208D0AF4F26
:102AB000B84205D0AE4FB84202D0AE4FB84209D1AD
:102AC000076A23F0080327F004070762CF683B4337
:102AD000B0420BD0B64EB04208D0A44EB04205D0A2
:102AE000A34EB04202D0A34EB04205D125F44075AA
:102AF000D1E9056735433D434560424D2C402243B3
:102B00008261496841630362F0BD00BFF0B5036AAA
:102B1000026A944E22F01002026223F02003B042B7
:102B20008C680A68456843EA0413846903D006F593
:102B30008067B8420AD1076A23F08003B04227F0C9
:102B400040070762CF6843EA07130BD0984EB042A4
:102B500008D0864EB04205D0854EB04202D0854E98
:102B6000B04207D1D1E9056725F4406545EA8605FD
:102B700045EA870545603B4D2C4044EA02228261CC
:102B8000496881630362F0BDF0B5036A026A754E5D
:102B900022F48072026223F40073B0428C680A68E7
:102BA000456843EA0423C46903D006F58067B84248
:102BB0000AD1076A23F40063B04227F480670762F2
:102BC000CF6843EA07230BD0794EB04208D0674E56
:102BD000B04205D0664EB04202D0664EB04207D138
:102BE000D1E9056725F4405545EA061545EA07157C
:102BF0004560044D2C402243C2614968C1630362B1
:102C0000F0BD00BF8CFFFEFFF0B5026A036A554FAE
:102C100023F480530362B84246680C688B68C56928
:102C20001CBF634FB84212D14F6926F4804646EA72
:102C3000871646600B4E354045EA0424C461496856
:102C4000016422F4005141EA03310162F0BD474FB3
:102C5000B842E9D0464FB842E6D0464FB842E3D03A
:102C6000E7E700BFFF8CFFFEF0B5026A036A3D4F45
:102C700023F48033FFF7F6FC1CBF4D4FB84211D14F
:102C80004F6926F4803646EA072646600A4E3540EC
:102C90002C4344654968816522F4003141EA0341CF
:102CA0000162F0BD314FB842EAD0314FB842E7D0AF
:102CB000304FB842E4D0E8E78FFFFEFFF0B5026A7C
:102CC000036A284F23F48013FFF7CCFC1CBF384F56
:102CD000B84212D14F6926F4802646EA872646601C
:102CE0000C4E354045EA042444654968C16522F428
:102CF000001141EA03510162F0BD1C4FB842E9D016
:102D00001B4FB842E6D01B4FB842E3D0E7E700BF05
:102D100000000140FF8FFFFE10B5036A046A24F033
:102D2000010404620F4CA0421CBF214CA0420ED1F2
:102D3000046A24F004040462846924F0F00444EA80
:102D40000212826123F00A021143016210BD074C96
:102D5000A042EDD0064CA042EAD0064CA042E7D0FB
:102D6000EAE700BF000001400004014000400140CC
:102D70000048014000440140B0B5036A046A0C4DAC
:102D800024F01004046240F48064AC4202BF046A80
:102D900024F040040462846924F4704444EA02325A
:102DA000826123F0A00242EA01110162B0BD00BFBE
:102DB00000040140FEE7000010B500F00F03064CD0
:102DC000B0F1FF3F034A2344C8BF831808011870BD
:102DD00010BD00BF00E400E014ED00E0B0B501EE6E
:102DE000100A00EE101AB6EE003A9FED222A234890
:102DF000B8EE400AB8EE411A81EE000AB6EEC01AEB
:102E000030EE411ABCEEC00A01EE023A10EE105A42
:102E1000BCEEC32A12EE101A9FED172AB4EE421A26
:102E2000F1EE10FAB8BF002103EE101AB4EE421A08
:102E3000F1EE10FAB8BF012001EE100A9FED102A42
:102E4000B8EE433AB8EE411A83EE011A21EE021AA7
:102E5000BCEEC11A11EE104A04EBC515A5F50075BC
:102E6000156000FB04F2C2EBC111196004990860FF
:102E7000B0BD00BFF0FF7F49BD378635FFFF0F00B3
:102E800000000043BFB51849024600208DF80F002E
:102E90004FF0FF33029301240DF10F05CDE90054EB
:102EA00010480123097800684900FDF7E1FC9DF80E
:102EB0000F0004B0B0BD00BFBFB58DF80F100A49B8
:102EC000024608484FF0FF33029301240DF10F052D
:102ED000CDE900540123097800684900FDF752FD4F
:102EE000BFBD00BF94000024100000244F22002921
:102EF00008BF0F2211461030C0B2FFF7DDBF00003F
:102F00008AB001240594FDF787FE40F20110089075
:102F10000025069548F21F70079005A8FDF754FE9E
:102F20000420FDF783FEFDF701FEFFF78DFCFFF7A0
:102F300041F9FFF7D5F9FFF7A7F975480995016839
:102F400041F010010160006800F010000490CDE92C
:102F5000064508956F4C03200590049805A9204666
:102F6000FDF794FA204601210022FDF75BFB204685
:102F700002210022FDF756FB4FF49670FDF774FA1C
:102F8000DFF8948165A7664C88F80A50032D0FD0AE
:102F90007E5D204603220A237100FDF7E3FB013525
:102FA0000028F3D1012088F80A0088F80B6020E09F
:102FB00001255B4C68B2B0F1FF3F13DDE8B202229D
:102FC000052341002046FDF7CDFB48B998F80A00DB
:102FD0000F2805D808EB0001013088F80A00CD72EF
:102FE0000135E7E798F80A0098F80B60002808BF59
:102FF0000646300608BF6426F5B2284600F0AEF952
:10300000DFF81CB1584600F04FF9D04800F056F9EF
:103010003220FDF729FA6D00DFF8089158460022AA
:1030200001234FF0FF374FF0010ACDE9008A0297E4
:103030002946C8473C493D4C00200322A0473C4953
:1030400001200322A047C34902200322A047394E92
:10305000032003223146A047374904200322A0471A
:10306000364905200322A047062031460322A04707
:10307000072046F660510122A0473220FDF7F4F9FF
:1030800008F10100FFF795F90322FFF77BF9584695
:10309000294600220123CDE9008A0297C84708F19A
:1030A0000200FFF786F91022FFF76CF908F1030020
:1030B000FFF77FF92A22FFF765F908F10400FFF70F
:1030C00078F92B22FFF75EF908F10500FFF771F997
:1030D0002C22FFF757F908F10600FFF76AF92D22B5
:1030E000FFF750F908F10700FFF763F92E22FFF709
:1030F00049F908F10800FFF75CF91A22FFF742F9D5
:1031000008F10900FFF755F91D22FFF73BF9FEE72B
:10311000E044025800100258780000246062640005
:10312000980000247108000880841E0041310008C6
:1031300080F0FA0280969800404B4C0040420F000D
:103140002DE9FF47072800F28E8004465248062CDE
:1031500000680ED34FF0FF02B0FBF1F008BF7F22F2
:103160000025E9B2062920D890421ED90135400831
:10317000F7E700EE100A002601229FED481A0B46E1
:10318000B8EE400AF5B2062D23D802EE103AB8EE9A
:10319000422A80EE022AB4EE412AF1EE10FA18DD3E
:1031A0005200013602FB01F3ECE7904288BF104663
:1031B000002808BF0120C1B2062C56D15A20FFF7C3
:1031C0007BFE5C20FFF75EFE05F0070500F0F800CF
:1031D00056E001AB5143009303AA02ABFFF7FEFD9B
:1031E0002FA0DDE901A9DFF86081039F055DCAF327
:1031F00007212846C047681C5FFA8AF1C0B2C04761
:10320000C7F30141A81C41EA0611C0B2C9B2C047C8
:10321000E81CC7F30721C0B2C047281DF9B2C0B2ED
:10322000C047F020C9F3034100EA1A300144681D89
:10323000C0B2C047A81DC9F30721C0B2C047E81DEE
:103240005FFA89F1C0B2C0478AF0010040EA090084
:10325000B0FA80F041092046FFF748FEA4F15B0078
:103260000021C0B2C047BDE8FF875B20FFF724FE06
:10327000702000EA05155C20FFF704FE00F08F00C7
:1032800040EA05015C20FFF717FE2046012104B04B
:10329000BDE8F047FFF72ABE140000240000614497
:1032A0002A323A424A520000024900220A70024978
:1032B0000860704711000024940000242DE9FF41AC
:1032C0000546DFF88480B120A021C0470F200021EF
:1032D000C04701A81D4C00901E49A54288BF2C463E
:1032E0001B48844228BF044603AA02AB2046FFF7CE
:1032F00075FDDDE901751A20039EC7F30721C0475C
:10330000F9B21B20C047C6F301411C20C047C6F3D9
:1033100007211D20C047F1B21E20C047F020C5F391
:10332000034100EA173001441F20C047C5F30721BD
:103330002020C047E9B22120C0470748046020464A
:1033400004B0BDE8F08100BFB92E00080046C323D9
:1033500000E9A43540787D0114000024014908707B
:10336000704700BF10000024F1EE100A4FF6FF7105
:10337000C0F2C03120EA010040F04070E1EE100AD6
:103380007047000000000102030401020304060765
:1033900008090000B83300080000002418000000ED
:1033A000D4020008D03300081800002428070000C9
:1033B000F002000800000000010000001000000002
:1033C0000090D0030090D00360FF00000008AF2FF2
:040000050800029954
:00000001FF
