:020000040800F2
:100000008027002029020008271B00087B18000811
:10001000251B00083B040008D32100080000000055
:10002000000000000000000000000000EF1F0008BA
:100030005105000800000000ED1F0008F11F000836
:10004000430200084302000843020008430200087C
:10005000430200084302000843020008430200086C
:10006000430200084302000843020008430200085C
:10007000430200084302000843020008430200084C
:10008000A1040008430200084302000843020008DC
:10009000430200084302000843020008430200082C
:1000A000430200084302000843020008430200081C
:1000B000430200084302000843020008430200080C
:1000C00043020008430200084302000843020008FC
:1000D00043020008430200084302000843020008EC
:1000E00043020008430200084302000843020008DC
:1000F00043020008430200084302000843020008CC
:1001000043020008430200084302000843020008BB
:1001100043020008430200084302000843020008AB
:10012000430200084302000843020008430200089B
:10013000430200084302000843020008430200088B
:10014000430200084302000843020008430200087B
:10015000430200084302000843020008430200086B
:10016000430200084302000843020008430200085B
:100170004302000843020008430200080000000098
:10018000430200084302000800F002F800F03CF8C7
:100190000AA090E8000C82448344AAF10107DA45E2
:1001A00001D100F031F8AFF2090EBAE80F0013F0F8
:1001B000010F18BFFB1A43F001031847B8320000C3
:1001C000D8320000103A24BF78C878C1FAD8520754
:1001D00024BF30C830C144BF04680C6070470000C1
:1001E0000023002400250026103A28BF78C1FBD840
:1001F000520728BF30C148BF0B6070471FB502F0DF
:1002000003FE1FBD10B510BD00F0E2F81146FFF768
:10021000F5FF02F017FD00F000F903B4FFF7F2FF5D
:1002200003BC00F003F90000094880470948004773
:10023000FEE7FEE7FEE7FEE7FEE7FEE7FEE7FEE796
:10024000FEE7FEE704480549054A064B70470000F3
:1002500089200008890100088021002080270020D3
:10026000802300208023002053EA020C00F06980E4
:100270002DE9F04B4FF00006002B1FBFB3FA83F5BA
:1002800003FA05F424FA05F65E4012BF1643B2FAEB
:1002900082F502FA05F4C5F120051EBF22FA05FC1D
:1002A00044EA0C04203556EA044C4FEA144418BFC3
:1002B000641C4FF000084FF00009904271EB030CF2
:1002C00039D3002919BFB1FA81F701FA07F6B0FA5C
:1002D00080F700FA07F6C7F120071EBF20FA07FCD7
:1002E00046EA0C062037B6FBF4FCA7EB0507103FE7
:1002F00007F01F0BCBF120060CFA0BFB2CFA06F6CD
:1003000044BFB3460026202FA4BF5E464FF0000B2B
:100310005BEA060C08BF4FF0010B19EB0B09ABFBB6
:10032000027C48EB0608C01B06FB02CC0BFB03CC8F
:1003300071EB0C01C1E70B46024641464846BDE859
:10034000F08B13B54FF000004FF00001AFF30080C9
:10035000BDE81C4070474FF0000200B513469446BC
:100360009646203922BFA0E80C50A0E80C50B1F10D
:100370002001BFF4F7AF090728BFA0E80C5048BF21
:100380000CC05DF804EB890028BF40F8042B08BFBF
:10039000704748BF20F8022B11F0804F18BF00F8BB
:1003A000012B704770477047704710B500F008F890
:1003B000006810BD10B5044600F002F8046010BDDE
:1003C000004870472021002000487047202100206D
:1003D0007546FFF7F9FFAE4605006946534620F023
:1003E0000700854618B020B5FFF72CFFBDE8204078
:1003F0004FF000064FF000074FF000084FF0000BE1
:1004000021F00701AC46ACE8C009ACE8C009ACE893
:10041000C009ACE8C0098D46704710B50446AFF37B
:1004200000802046BDE81040FFF7F7BE01491820C4
:10043000ABBEFEE7260002007047FEE710B5846BF6
:10044000204600F0DFF80120207110BD10B5846B4C
:10045000204600F0ADF80120207110BD10B5846B6E
:10046000206940F004002061204600F0CDF8012012
:10047000207110BD10B5846B206940F0040020612C
:10048000204600F097F80120207110BD10B5806B58
:1004900000F0B9F810BD10B5806B00F08AF810BDFF
:1004A000014800F0F9B90000242000200168182359
:1004B000CAB2103AB2FBF3F2054B6FF30901032AFB
:1004C0009B5CC36500D9091D816508467047000023
:1004D0000234000810B5014600208B698A6A4FF08B
:1004E000C07453B1B3F5005F15D072B1012A0CD0BE
:1004F000022A0AD0032A09D104E01AB1012A06D03F
:10050000022A03D1C96AC90100D5012010BDC96AF8
:10051000A142FAD010BD002AF7D0012AF2D0022A57
:10052000F3D0032AF3D010BD30B50468256825F454
:1005300080252560046863608368402B036803D0CE
:1005400099600068C26030BD9A600068C16030BDCB
:10055000704700000948016841F080710160084857
:1005600000214160016841F0010101600548064930
:100570000068B0FBF1F0054908607047FCED00E051
:10058000001000E03C00002040420F00100000205E
:1005900004494A68044B1B6858434B689B1A8342C2
:1005A000FBD37047001000E01000002072B6FEE799
:1005B00070477047704770B500B3F9B14379012BAC
:1005C0001ED0012646710223037105682C6802F0D3
:1005D000100340F6FE729A409443D1E900210A4389
:1005E0009A4022432A6001680A68C0249C40A243C2
:1005F0000A60067100214171084670BD012070BD7E
:10060000022070BD70477047704770B5040003D07A
:100610002079002510B105E0012070BD65712046EC
:1006200000F008F8022020712561012020710020CF
:1006300070BD000070B586B0054614216846FFF70E
:100640008AFE1F492868884237D11E480026016863
:1006500041F000510160006800F000500590194819
:100660001038016841F0010101600068694600F03E
:1006700001000590102000900320CDE901061248EA
:1006800000F07CFA124C114820604FF0606060600E
:100690004020C4E902060001206140006061800042
:1006A000A0614011C4E907062046666200F0C4F963
:1006B00008B1FFF77BFFAC60A56306B070BD00001A
:1006C0000074004040380240000002408860024050
:1006D000242000202DE9F0410400069817460D461D
:1006E0001BD0617901291BD001266671022121717D
:1006F000C5B1E2682949D163E26829491164E26819
:100700002849D16421680A6842F080520A6040B3E7
:100710002268042828D01C3227E00120BDE8F0819F
:100720000220FBE7A2682049D163A2681F49116437
:10073000A2681F49D16421680A6842F480520A60A5
:1007400020B12268042804D0103203E02268083265
:1007500000E00C322068016841F400510160A0689B
:1007600009E02268143200E018322068016841F084
:1007700000510160E068394600F0C8F9002161715C
:1007800020B1216941F004012161C7E721680A68AD
:1007900005F010039E4032430A60BFE74D04000895
:1007A00097040008750400083D0400088D04000843
:1007B0005D04000870B504001BD02068036801F0D8
:1007C00010024FF480559540AB43036020680368E6
:1007D000012505FA02F29343036061B1E06800F07D
:1007E00012F82068016821F0005101602571002095
:1007F00070BD012070BDA06800F005F82068016898
:1008000021F40051F1E72DE9F0410446876D00F035
:10081000B3FA064694F835000025022806D0802059
:10082000606584F834500120BDE8F08120680168DB
:1008300021F0160101602068416921F080014161C9
:10084000206C08B9A06C20B12068016821F0080173
:1008500001602068016821F0010101600CE000F0F6
:100860008BFA801B052807D920206065032084F8B7
:10087000350084F83450D7E720680068C007EED10F
:1008800094F85C103F208840B860012084F835005F
:1008900084F834500020C7E72DE9F84304464FF0B0
:1008A0000009CDF8009063484FF41651A56D00681B
:1008B000B0FBF1F72E6894F85C10082000FA01F103
:1008C00031420FD021680A6852070BD50A6822F01E
:1008D00004020A6094F85C108840A860606D40F0E3
:1008E0000100606594F85C104FF0010808FA01F00F
:1008F000304208D021684969090604D5A860606DB6
:1009000040F00200606594F85C100420884030429A
:1009100008D021680968890704D5A860606D40F097
:100920000400606594F85C1010208840304218D0B4
:1009300021680968090714D5A8602068016849037F
:1009400004D50068000308D5A16C07E00168C9055B
:1009500003D4016821F008010160216C09B120462F
:10096000884794F85C1020208840304231D02168BC
:100970000968C9062DD5A86094F8350005282068B7
:10098000016806D0490347D5006800031DD4616C97
:100990001CE021F0160101602068416921F080010E
:1009A0004161206C08B9A06C20B12068016821F079
:1009B0000801016094F85C103F208840A86084F82A
:1009C000358084F83490216D1FE0E16B09B1204639
:1009D0008847606D00282BD0606DC00714D00520BB
:1009E00084F835002068016821F001010160009859
:1009F000401C0090B84203D820680068C007F6D1B8
:100A000084F8358084F83490E16C002910D001B06E
:100A10002046BDE8F04308470168C905D5D4016800
:100A200021F01001016084F8358084F83490CCE71F
:100A3000BDE8F8833C0000202DE9F041044600F0B9
:100A40009BF906465CB1022084F83500002584F845
:100A500034502068016821F0010101600DE001209F
:100A6000BDE8F08100F088F9801B052805D9202019
:100A70006065032084F83500F2E720680068C0074D
:100A8000F0D12268116820480140D4E901031843DD
:100A9000D4E903363343184363691843A369184301
:100AA000E3691843236A18430843616A042903D1A0
:100AB000D4E90B1319430843106020684069666A43
:100AC00020F0070130460E43012704280CD1A06A0C
:100AD0000643E06A40B12046FFF7FCFC20B140200D
:100AE000606584F83570BAE7206846612046FFF7F4
:100AF000DDFC94F85C203F2191408160656584F8BD
:100B000035700020ACE700003F8010F02DE9F04187
:100B10000446866D90F83400002501280DD0012090
:100B200084F8340094F835700020012F07D084F841
:100B3000340002252846BDE8F0810220FBE70227A9
:100B400084F8357060652046FFF7EEFC94F85C1081
:100B50003F208840B0602068016841F016010160C4
:100B6000206C20B12068016841F008010160206814
:100B7000016841F001010160DCE700002DE9F84F58
:100B8000DFF8BCA10022012503264FF00F090AF16E
:100B9000040BAAF1040E00BF0B6805FA02F423400F
:100BA000A34270D10F7907F00307012F01D0022F64
:100BB00016D187684FEA420806FA08FC27EA0C07B4
:100BC000D1F80CC00CFA08FC4CEA070CC0F808C0BD
:100BD0004768A7430C79C4F3001494403C43446035
:100BE0000C79E443A4070AD0C4684FEA420C06FA21
:100BF0000CF7BC438F6807FA0CF72743C7600C79E2
:100C000004F00304022C12D1D40800EB840CDCF8AD
:100C100020405707FF0E09FA07F824EA0804D1F824
:100C2000108008FA07F848EA0408CCF82080046825
:100C30004FEA420C06FA0CF7BC430F7907F00307A2
:100C400007FA0CF7274307604C6814F4403F70D054
:100C50003C4C276847F480472760246822F003074C
:100C600004F480440094384C07EB040CDCF808488A
:100C700097074FEA177809FA08F7BC43334FB84291
:100C800002D1002724E054E0314FB84201D10127BE
:100C90001EE0304FB84201D1022719E02E4FB84272
:100CA00001D1032714E02D4FB84201D104270FE0F2
:100CB0002B4FB84201D105270AE02A4FB84201D193
:100CC000062705E0284FB84201D1072700E0082792
:100CD00007FA08F72743CCF80878DAF800405746B7
:100CE000D1F804C09C435FEACC2C00D51C433C6087
:100CF000DBF800405F46D1F804C09C435FEA8C2CCF
:100D000000D51C433C60DEF800407746D1F804C0B3
:100D10009C435FEA8C3C00D51C433C60084F083F75
:100D20003C68D1F804C09C435FEACC3C00D51C432E
:100D30003C60521C102AFFF42FAFBDE8F88F000072
:100D4000083C0140443802400030014000000240AD
:100D50000004024000080240000C02400010024063
:100D60000014024000180240001C02400AB18161D8
:100D700070470904FBE700000148806870470000E5
:100D80003000002070B5040025D094F83D00002507
:100D900020B984F83C50204600F0B8F8242084F8AC
:100DA0003D002068016821F00101016020680168B0
:100DB00041F4004101602068016821F400410160B4
:100DC00000F00CFA4D4A6168914201D84C4900E0AC
:100DD0004C49884201D2012070BD4B492368B0FBC9
:100DE000F1F15E6826F03F060E435E606368934251
:100DF00006D94FF4967359434FF47A73B1FBF3F16C
:100E00002368491C1E6A26F03F0631431962616857
:100E1000914210D84900401EB0FBF1F2521CC2F3BF
:100E20000B02042A01D2042022E0B0FBF1F0401CA6
:100E3000C0F30B001CE0A268F2B301EBC10303EBAB
:100E40000116431EB3FBF6F35B1C43F480431B0502
:100E500049D092B301EBC10202EB0111401EB0FB7D
:100E6000F1F0401CC0F30B0040F4804040F400401F
:100E70002168CA694CF6FF739A431043C861D4E9EC
:100E8000071001432068026822F0C002114301608C
:100E9000D4E9030101432068826848F2FF339A4392
:100EA00011438160D4E9050108432168CA6822F032
:100EB000FF021043C86001E00EE016E02068016800
:100EC00041F0010101602564202084F83D00256384
:100ED00084F83E50002070BD01EB4106431EB3FB79
:100EE000F6F35B1CB3E70120C2E701EB4101401EB2
:100EF000B0FBF1F0401CC0F30B00B7E7A086010087
:100F000080841E0000093D0040420F0010B586B0ED
:100F1000044614216846FFF71EFA134920688842E8
:100F200020D112480021026842F0020202600068EB
:100F300000F002000590C02000901220CDE90101D0
:100F4000032003900420049069460948FFF716FE29
:100F500006481030016841F400110160006800F497
:100F60000010059006B010BD00540040303802401B
:100F70000004024002488168027811448160704791
:100F8000300000200B4810B5016841F40071016089
:100F9000016841F480610160016841F48071016081
:100FA000032000F06FF80F2000F006F800F024F89E
:100FB000002010BD003C024070B50D4D04464FF4BA
:100FC0007A712878B1FBF0F00A490968B1FBF0F0BA
:100FD00000F0FAFA48B9102C07D200222146501E20
:100FE00000F030F800206C6070BD012070BD000082
:100FF000300000203C0000200A4808B5016841F498
:1010000080410160006800F4804000900548001FA6
:10101000016841F080510160006800F0805000904C
:1010200008BD000044380240002809DB00F01F0220
:10103000012191404009800000F1E020C0F800113A
:1010400070470000F0B40E4B1B680C46C3F302233C
:10105000C3F10705042D00D90425191D072901D264
:10106000002300E0DB1E012606FA05F1491E21409F
:1010700099409E40761E16403143F0BC01F0C9B93C
:101080000CED00E0064900F0070208684FF6FF0388
:10109000184040EA0220034A1043086070470000ED
:1010A0000CED00E00000FA052DE9F0470E460500C2
:1010B00065D0DFF81481D8F80000F7B200F007001F
:1010C000B04207D288F80070D8F8000000F007009E
:1010D000B04254D128683D4C810712D5400703D552
:1010E000206840F4E05020602878000703D520688D
:1010F00040F4604020602068A96820F0F0000843B8
:1011000020602878C0072DD0304968680839012848
:1011100012D0022813D0032811D0096889070029AA
:101120002DDA216821F0030101432160FFF724FE3D
:10113000814641F2883A0EE009688903EFE70968C1
:101140008901ECE7FFF718FEA0EB0901514502D930
:101150000320BDE8F0872068696800F00C00B0EB60
:10116000810FEFD1D8F80010404601F00701B142DD
:1011700007D90770006800F00700B04201D00120D5
:10118000E7E72878400705D52068E96820F4E050B3
:10119000084320602878000706D52068296920F4D4
:1011A000604040EAC100206000F028F82168084A49
:1011B000C1F30311515CC840064908600648006845
:1011C000FFF7FAFE0020C4E7003C02400838024066
:1011D0000A3400083C00002034000020044805497F
:1011E00000680968044AC1F38221515CC840704715
:1011F0003C000020083802401A340008154810B599
:10120000006810F00C02144813D04110042A0FD0CB
:10121000082A0ED10F4C241F2268236802F03F02D7
:101220005B0207D52068C0F38810A0FB010106E02F
:10123000084610BD2168C1F38811A1FB00010023FD
:10124000FFF712F82168C1F30141491C4900B0FBC6
:10125000F1F010BD083802400024F4002DE9F84FE9
:1012600004006ED02078DFF84C93C007A9F1040584
:101270004AD009F104000168C1F38101012908D0B5
:101280000068C0F3810002280AD1D9F800004002AA
:1012900006D52868800337D560680028E1D033E0A0
:1012A0006068B0F5803F10D0B0F5A02F286810D04E
:1012B00020F480302860286820F48020286060684E
:1012C000A8B1FFF759FD06460DE0286840F48030CC
:1012D000F4E740F480202860F7E700BFFFF74CFDFB
:1012E000801B642873D828688003F7D50CE0FFF7CB
:1012F00043FD064605E000BFFFF73EFD801B642866
:10130000F0D828688003F7D42078DFF8AC82800713
:101310004FF0000A3ED5A748001D016811F00C0FE0
:1013200008D00068C0F3810002280BD1D9F8000072
:10133000400207D42868800716D5E068012800D14C
:1013400012E033E1E068B8B10120C8F80000FFF70F
:1013500013FD064605E000BFFFF70EFD801B0228C7
:10136000C0D828688007F7D52868216920F0F800E0
:1013700040EAC10028600DE0C8F800A0FFF7FCFCBF
:10138000064604E0FFF7F8FC801B02281FD82868F7
:101390008007F7D42078000722D5864F87486169F7
:1013A000703771B101210160FFF7E6FC064604E0E9
:1013B000FFF7E2FC801B022809D838688007F7D5C0
:1013C0000EE0C0F800A0FFF7D7FC064605E082E07B
:1013D000FFF7D2FC801B02287DD838688007F7D43D
:1013E0002078400768D5DFF8CCB100270BF13C0B23
:1013F000DBF80000C0000BD4DBF8001041F0805196
:10140000CBF80010DBF80000012700F080500090BE
:101410006B4E3068C00510D4306840F48070306086
:10142000FFF7AAFC009005E0FFF7A6FC0099401A20
:10143000022850D83068C005F6D55E4EA0686C36DC
:1014400001280FD00528306810D020F0010030604E
:10145000306820F004003060A068B8B1FFF78CFC61
:1014600000900FE0306840F00100F4E740F0040025
:101470003060F7E7FFF780FC0099411A41F28830AD
:10148000814266D830688007F4D50EE0FFF774FC1F
:10149000009007E0FFF770FC0099411A41F2883094
:1014A000814256D830688007F4D42FB1DBF80010A1
:1014B00021F08051CBF80010A069C8B33D49091D47
:1014C0000968C1F3810102294AD00228504607D099
:1014D000C8F8600000E03CE0FFF74EFC04463BE04B
:1014E0004746C8F86000FFF747FC064605E000BF26
:1014F000FFF742FC801B02282BD828688001F7D414
:10150000D4E907010843A16A2E4A490802EB0141C8
:10151000626A41EA8211084394F82C1040EA0161A2
:10152000C9F8001001203866FFF726FC044606E0E3
:101530003EE000BFFFF720FC001B022809D8286806
:101540008001F7D534E000BFFFF716FC001B02282E
:1015500002D90320BDE8F88F28688001F4D427E081
:101560000128F7D0D9F80000E26900F48001914227
:101570001CD1226A00F03F01914217D147F6C07199
:10158000626A0140B1EB821F10D1A26A4FF0FF33B3
:1015900000F4403103EB5202B1EB024F06D194F854
:1015A0002C1000F07060B0EB016F01D00120D1E78A
:1015B0000020CFE70438024000004742800E474237
:1015C000007000400000FFFF10B5401EB0F1807FAA
:1015D00001D3012010BD4FF0E02460610F2160179E
:1015E00000F017FF0020A06107202061002010BD3F
:1015F00070B590F83C20012A32D0012480F83C409C
:10160000022280F83D2003685A689D6822F0700627
:101610000A6832435A60134B02689A4214D0B2F1FE
:10162000804F11D0104B9A420ED0104B9A420BD0E3
:101630000F4B9A4208D00F4B9A4205D00E4B9A425C
:1016400002D00E4B9A4204D1496825F08003194319
:10165000916080F83D40002180F83C10084670BD44
:10166000022070BD0000014000040040000800405E
:10167000000C004000040140004001400018004000
:1016800010B5040003D094F83D0010B107E001202C
:1016900010BD002084F83C00204600F01FF8022016
:1016A00084F83D00211D206800F0F6FC012084F83C
:1016B000460084F83E0084F83F0084F8400084F837
:1016C000410084F8420084F8430084F8440084F820
:1016D000450084F83D00002010BD000008B50068FA
:1016E000B0F1804F08D10548016841F00101016067
:1016F000006800F00100009008BD00004038024082
:1017000090F83D10012901D001207047022180F896
:101710003D1000681149884214D0B0F1804F11D0BB
:101720000F4988420ED00F4988420BD00E4988429B
:1017300008D00E49884205D00D49884202D00D4993
:10174000884204D1816801F00701062903D00168AD
:1017500041F00101016000207047000000000140DD
:101760000004004000080040000C0040000401405C
:10177000004001400018004001680A6A41F211135C
:101780001A4207D10A6A9B101A4203D10A6822F052
:1017900001020A60012180F83D100020704770B5F9
:1017A000044690F83C000025012817D0012684F853
:1017B0003C60022084F83D002068826822F07702B5
:1017C00022F47F4282600868502838D00DDC20283F
:1017D0004FD005DC90B3102811D14AE0022070BD33
:1017E000302846D040280AD13BE060282FD070280E
:1017F0000DD0B0F5805F03D0B0F5005F12D00125A9
:1018000084F83D60002084F83C00284670BDCB6819
:10181000D1E90121206800F0A7FC2068816841F02F
:10182000770109E0CB68D1E90121206800F09CFC38
:101830002068816841F480418160E1E719E0CA686D
:101840004968206800F0A2FC5021206806E0CA68C0
:101850004968206800F0ABFC6021206800F08EFC35
:10186000CEE7CA684968206800F090FC40212068F3
:10187000F4E7226801461046F0E7FEE710B50023C2
:101880001A462749274801F064F80023264A032115
:10189000244800F065FF0023244A0621214800F077
:1018A0005FFF204801F076F81E48012300221C4902
:1018B000303001F04EF81B4800231D4A0321303020
:1018C00000F04EFF174800231A4A0621303000F07E
:1018D00047FF14480023184A0421303000F040FF2D
:1018E0001048303001F056F80E48022300220C490F
:1018F000603001F02EF80B480023104A03216030BD
:1019000000F02EFF074800230D4A0421603000F04C
:1019100027FF0448BDE81040603001F03BB80000EC
:10192000D52D0008801F0020152A0008DD29000899
:10193000792A0008452A0008392A0008A12A000847
:10194000952A000801F03CB81CB500240C4900940D
:101950000A48019408600846FEF757FE08B1FEF7F2
:1019600025FE2420CDE90004002269460448FEF744
:1019700022FE002801D0FEF719FE1CBD00740040B5
:1019800010200020094808B5016841F400110160E9
:101990000068002200F40010009011461020FFF7AC
:1019A00051FBBDE808401020FFF73EBB3038024035
:1019B000F0B587B014216846FEF7CDFC2A48002513
:1019C000016841F004010160016801F00401059122
:1019D000016841F080010160016801F0800105911A
:1019E000016841F001010160016801F00101059108
:1019F000016841F002010160016801F002010591F6
:101A0000016841F010010160016801F010010591C9
:101A1000016841F0080101600068144F00F00800FF
:101A20004FF4C0660590002231463846FFF79EF914
:101A30000124CDE9004569460D480294FFF79EF860
:101A40004FF42070CDE90005694602940948FFF77C
:101A500095F801AA1120009682E8310069463846BF
:101A6000FFF78CF807B0F0BD30380240000C0240A0
:101A700000040240001002400D4810B50B490160FF
:101A80000C49416000214FF480428160C0E903129B
:101A900041618161C1610162FFF774F9002803D0DF
:101AA000BDE81040FEF782BD10BD000000540040AC
:101AB00084200020A086010030B587B0002418489B
:101AC000009401940294039404944FF0804505948B
:101AD00006210560C0E901140521C0E903148461F1
:101AE000FFF7CEFD08B1FEF761FD4FF48050009086
:101AF00069460B48FFF753FE08B1FEF757FD049403
:101B000004A907480594FFF773FD08B1FEF74EFDE1
:101B1000686820F0700040F02000686007B030BDB9
:101B2000D8200020FEE7FEE770B500240021204603
:101B300000F029F90025002000F047FA6D1CEDB2F5
:101B4000802DF8D3641CE4B2082CEFD370BD0000E4
:101B500010B586B014216846FEF7FDFB1948002138
:101B6000026842F080020260026802F08002059280
:101B7000026842F001020260026802F0010205926E
:101B8000026842F00202026000680F4C00F002009E
:101B900005904FF4407000901120CDE90101012023
:101BA000039069462046FEF7E9FF01221102204614
:101BB000FFF7DCF8012251022046FFF7D7F806B004
:101BC00010BD000030380240000402402DE9F0470B
:101BD0001D4E002407464FF080084FF40079B515DC
:101BE00028FA04F0384201D0012200E000224946E0
:101BF0003046FFF7BBF80520FEF7CAFC0122294654
:101C00003046FFF7B3F80520FEF7C2FC0022294654
:101C10003046FFF7ABF80520FEF7BAFC641CE4B2CF
:101C2000082CDDD3012229463046FFF79FF8052016
:101C3000FEF7AEFC002229463046FFF797F8BDE8D4
:101C4000F0470520FEF7A4BC0004024070B5012255
:101C50000E4D540221462846FFF788F8012216024D
:101C600031462846FFF782F80520FEF791FC002256
:101C700021462846FFF77AF80520FEF789FC314611
:101C80002846BDE870400022FFF770B8000402400B
:101C900070B50D4D4FF40074002221462846FFF721
:101CA00065F8012211022846FFF760F80520FEF7CB
:101CB0006FFC012221462846FFF758F8BDE8704026
:101CC0000520FEF765BC00000004024010B50020AE
:101CD0004FF47A720021491C9142FCD3401C90427F
:101CE000F8D3FFF735FFAE2000F05EF9D52000F005
:101CF0005BF9802000F058F9A82000F055F93F204A
:101D000000F052F9D32000F04FF9002000F04CF918
:101D1000402000F049F9A12000F046F9C82000F069
:101D200043F9DA2000F040F9122000F03DF981205B
:101D300000F03AF9CF2000F037F9D92000F034F95B
:101D4000F12000F031F9DB2000F02EF9302000F016
:101D50002BF9A42000F028F9A62000F025F98D2009
:101D600000F022F9142000F01FF9AF2000F01CF958
:101D7000BDE81040FFF7D8BE0246012000E0504306
:101D8000491EFCD2704710B50C4640F0B00000F080
:101D90000BF9102040EA141000F006F904F00F00CF
:101DA000BDE8104000F000B92DE9F0410746CE0033
:101DB0004000083E801E15464FF0FF38F1B2C0B219
:101DC000FFF7E1FF1148002400EB05152819A0F5E5
:101DD000805090F8000E00F0F8F8641CE4B2082C73
:101DE000F4D308EB4700F1B2C0B2FFF7CCFF0024F8
:101DF0002819A0F5805090F8080E00F0E6F8641C51
:101E0000E4B2082CF4D3BDE8F0810000122E0008E3
:101E10002DE9F04F16462DED028BB0EE408A83B0CF
:101E2000B5EEC08A0D46F1EE10FA834606D2B1EE49
:101E3000488A2D22FFF7B8FF6D1CEDB2BCEEC80A30
:101E40000121002210EE100A00EE100AB8EE400A3E
:101E500078EE400A05E000BF01EB81014900521C09
:101E6000D2B2B242F8D300EE101AB8EE401AB6EE73
:101E7000000A00EE810ABCEEC00A10EE108A884506
:101E800002D34FF00008401C002469464FF00A09B5
:101E900078B14A46B0FBF2F302FB1303B0FBF2F059
:101EA00030330B55641CE4B208B10C2CF2D3002083
:101EB0000DE030208DF8000001240BE0221A0A44C6
:101EC0000B5C12F8017D0F54401C1370C0B2B0EBD4
:101ED000540FF3D300278A4609E000BFE819C1B2C6
:101EE0001AF807205846FFF75FFF7F1CFFB2A74292
:101EF000F4D32819C4B22E2221465846FFF754FFC6
:101F0000641CE5B200244F4613E0311B0A20491E31
:101F1000FFF732FFB8FBF0F0B0FBF7F107FB110061
:101F20003030C2B22819C1B25846FFF73DFF641CD9
:101F3000E4B2B442E9D303B0BDEC028BBDE8F08F4C
:101F40002DE9F04700241D461646884681460A279B
:101F500013E0291B0A20491EFFF70EFFB6FBF0F025
:101F6000B0FBF7F107FB110208EB0400C1B24846D1
:101F70003032FFF719FF641CE4B2AC42E9D3BDE88C
:101F8000F0872DE9F04115460E460746002406E08D
:101F90003019C1B23846FFF707FF641CE4B22A5D6E
:101FA000002AF5D1BDE8F08110B50446FFF74EFEDA
:101FB0007820FFF70BFE0020FFF708FE2046FFF712
:101FC00005FEBDE81040FFF763BE10B50446FFF7FD
:101FD0003DFE7820FFF7FAFD4020FFF7F7FD204691
:101FE000FFF7F4FDBDE81040FFF752BE70477047A1
:101FF000FEF7C0BF30B593B030216846FEF7ABF9AD
:1020000014210CA8FEF7A7F91D480025016841F02E
:1020100080510160006800F08050119019480168FB
:1020200041F4804101600068022400F48040119076
:102030000120039010200490009406940820CDE91C
:102040000750A820CDE9090404200B906846FFF74B
:1020500005F908B172B6FEE70CA90F2081E831003E
:102060004FF4A0500F904FF48050109005210CA811
:10207000FFF71AF8002801D072B6FEE713B030BDA2
:1020800040380240007000400248016841F470018D
:102090000160704788ED00E0F0B50268274B284DDD
:1020A000284E294F294C4FF0804C984209D060456A
:1020B00007D0A84205D0B04203D0B84201D0A04218
:1020C00004D122F0700E4A6842EA0E0298421BD0F8
:1020D000604519D0A84217D0B04215D0B84213D0ED
:1020E000A04211D01A4DA8420ED01A4DA8420BD0D2
:1020F000194DA84208D0194DA84205D0184DA84244
:1021000002D0184DA84203D122F44075CA682A4370
:102110004D6922F080022A438D68C5620D68856290
:10212000984201D0A04201D109690163016841F0E0
:1021300004010160012141610260F0BD0000014025
:102140000004004000080040000C00400004014072
:102150000040014000440140004801400018004098
:10216000001C00400020004010B5846842EA0322B1
:1021700024F47F440A432243826010BD826822F027
:1021800070020A4342F007018160704710B5036A8C
:10219000046A24F001040462846924F0F00444EA2F
:1021A000021423F00A020A438461026210BD10B5D2
:1021B000036A046A24F010040462846923F0A00313
:1021C00024F4704444EA023243EA0111826101625C
:1021D00010BDFEE710B5F0EE401A00F04BF830EEFF
:1021E000210ADFED140A1249B5EEC00AF1EE10FA29
:1021F00002D29FED110A05E010EE100A884201DDBF
:10220000B0EE600A9FED0D1A0D4820EE010A80EE37
:10221000201AB6EE000A31EE000ABCEEC00A10EE3B
:10222000101A417081880078BDE8104000F056B85F
:102230003333534033335340000000000000C842A2
:102240000000002001484078704700000000002096
:102250000148807870470000000000200148808815
:10226000704700000000002001480078704700001F
:10227000000000200748DFED080A9FED081A4078AB
:1022800000EE100AB8EE400A60EE200A80EE810AE5
:102290007047000000000020333353400000C84264
:1022A00002494FF4FA60C88000F008BC000000202A
:1022B000642800D96420044988700878032802D172
:1022C000898800F00BB870470000002001460248E2
:1022D000007800F003B8000000000020F0B50746C9
:1022E0002DED028B4FF4FA7081B00D46814202D37E
:1022F0008000854200D905463448354CB0FBF5F0E6
:1023000080B24FF47A61E080884200D9E1800021F8
:102310003048FEF74FFA3048FFF72EFA2E480026D5
:10232000006846622D48016841F002010160277093
:10233000A58037B1012F08D0022F0AD0032F37D143
:1023400033E0E08800F0BAFB32E0E08800F034FCD3
:102350002EE0E5889FED228ADFED228A00F0F0F979
:102360000020B6EE001A204A1CE000BF00EE900AE2
:10237000F8EE601A00EE905AB8EE602AC1EE820ABA
:10238000F0EE481A50EEA81AF0EE480A41EE800A24
:1023900070EE810AFCEEE00A10EE901A22F810109E
:1023A000401C80B2A842E1D302E0E08800F0C4FB08
:1023B0000948FFF7A5F90096E3880B4A0021054874
:1023C000FEF788F901B0BDEC028BF0BD80841E00E1
:1023D0000000002010200020D820002000740040C1
:1023E00000F0FF4400F07F4540000020410008025B
:1023F00018BF04200A0E18BF40F001004FF07F42C2
:1024000032EA010108BF40F00200012808BF0520A0
:1024100070470907090E002804DB00F1E02080F86E
:102420000014704700F00F0000F1E02080F8141D48
:102430007047000000B510EE101A2DED028B81B030
:10244000524A6846B2EB410F2ED94FF0E640B0EB4E
:10245000410F94BF00204FF0FF3000900098B0EE85
:10246000408A00286ADB10F0010F4BD068EE080AA2
:102470009FED471A9FED470A00EE810A9FED461A2D
:1024800010F0020F00EE801AB7EE000A00EE810A8B
:1024900002BF01B0BDEC028B00BD00BF01B0B1EEC8
:1024A000400ABDEC028B00BD3C4B21F00042934240
:1024B00041D911F0004FDFED3A0A20EE201ADFED8E
:1024C000390A19BF31EE601A71EE200A31EE201A76
:1024D00071EE600ABDEEE01A11EE100A9FED321A9D
:1024E00000F0030000EEC10A9FED301A009000EEEC
:1024F000C10A9FED2F1A00EEC10A9FED2E1A00EEC1
:10250000C10AABE728EE080A9FED2B1ADFED2B0A74
:1025100010F0020F40EE410A9FED291A00EE201A3A
:1025200061EE000AB0EE480A08EE200AB6D101B00A
:10253000BDEC028B00BD00F059F88FE718EE100AD1
:102540004000B0F17F4F0DD218EE100AFFF74EFF9A
:10255000042808BF00F042F8B0EE480A01B0BDEC14
:10256000028B00BD09D10120FDF724FF01B0BDECB5
:10257000028B5DF804EB00F029B801B0B0EE480A18
:10258000BDEC028B5DF804EB00F01CB8B61F927E28
:10259000B93AB2BACA9F2A3DDDFFFFBE490E49468D
:1025A00083F9223F0000004B0000C93F00A0FD3925
:1025B0000020A2331A61342C336D4C39DA82083C86
:1025C000A0AA2ABE30EE000A70470000DFED020A22
:1025D00080EEA00A70470000000000009FED020A94
:1025E00020EE000A70470000000000102DE9F00105
:1025F0004FF07F42B2EB410F9FBF4FF0FF310160C0
:10260000BDE8F00170474FF0004242EA0123C1F3F8
:10261000C752783A551112F01F0C434CCCF12006EA
:102620007C44C1F3C752A2F178024FEA621204EB74
:10263000820254F8254008BFD2E9015612D05568ED
:1026400004FA0CF425FA06F73C43976805FA0CF5F2
:1026500027FA06F8D26807FA0CFCF24045EA0805AA
:102660004CEA0206A4FB034CA5FB0352A6FB036342
:102670001D449D4234BF012600261319334416B170
:10268000934202D903E0934201D2012200E00022EA
:10269000624402F1200C9206DC0C42EA443200EE65
:1026A000102A5B03DFED210AF8EEC01A00EE103AA3
:1026B0004FEA9C1C11F0004FB8EE400AC0F800C071
:1026C00020EE201A00EE105ADFED190AB8EE400A8B
:1026D00020EE200A71EE810A70EE800A10EE902A38
:1026E00002F500626FF30B0200EE902A70EEE11A21
:1026F00031EEC11ADFED101A30EE411A9FED0D0ACE
:1027000020EE800A01EE210A9FED0C1A00EE810AEC
:1027100004BFBDE8F0017047CCF180510160BDE815
:10272000F001B1EE400A7047000E000000000036D4
:102730000000802C22AAFD29DB0FC92F0000C92F21
:1027400005489FED061A407800EE100AF8EE400AA0
:1027500080EE810A70470000000000200000C8429F
:10276000002805D0072903D200EB8101CA608362EB
:10277000704770B504460079A1688847E1784A0738
:1027800006D022884FF6FF739A4201D2521C228053
:10279000B0EBD11F0CD04FF0005202EBB1114FEA59
:1027A000B161C1F3C202E170032A04D360F3C7111F
:1027B00021F03800E070E078002500F007010529DD
:1027C00076D2DFE801F0031E4186AA00C0F3801133
:1027D000B1EBD01FA07820F0F0000FD1A070E2681C
:1027E00012B12046A16A90472580A07820F00F0002
:1027F000401CA070E0788CE0E07070BD8030A0706C
:1028000070BDC0F38011B1EBD01F0BD0A07820F0C9
:10281000F0001030A0702269002A6CD02046A16A16
:10282000904768E02088C828EAD9A07820F0F00016
:102830005030A070226A12B12046A16A9047E07819
:1028400020F00700001DD7E7C0F38011B1EBD01FC7
:1028500023D1A07820F0F000A070E26812B12046E9
:10286000A16A9047A07800F00F010F2906D24FF01F
:10287000805101EB30104FEA3070A07000F00F0073
:102880002030A070626912B12046A16A904725806D
:10289000E07820F00700C01CAEE720883C28AFD9C4
:1028A000A07800F00F01012903D0022907D04CE0E5
:1028B0004CE020F0F0003030A070A26904E020F07D
:1028C000F0004030A070E269D2B32046A16A904780
:1028D0003BE0C0F38011B1EBD01F12D0A07820F004
:1028E000F0001030A070226912B12046A16A904712
:1028F00020883C2829D22580E07820F00700801C21
:102900007AE721883C298FD92580A17821F00F0111
:10291000A17020F00700401C6EE7C0F38011B1EBFE
:10292000D01FA07820F0F0000BD16030A070626A58
:10293000002A3FF465AF2046A16ABDE87040104709
:1029400003E01030A0702269BEE7E07820F00700B5
:1029500052E72DE9F0411E4615460F46040014D0FB
:10296000002F12D03021FDF7F6FCA07820F0F00007
:102970008030A070A760E0784DB120F0800065F352
:102980008610267120F00700E070BDE8F08140F06D
:102990008000F4E718B1094B19680A4608E06FF0A7
:1029A00001007047814202D14FF0FF307047C96A81
:1029B0000029F7D1C262186000207047080000208B
:1029C000054810B5006803E0C46AFFF7D2FE204650
:1029D0000028F9D110BD00000800002010B5FFF755
:1029E00043FC032812D10A480178491CC9B201707E
:1029F00028290BD300210170FFF72AFC401F00D5C6
:102A00000020BDE81040C0B2FFF752BC10BD00006E
:102A10000C00002010B5FFF727FC03280AD1FFF7B0
:102A200017FC401D642800DD6420BDE81040C0B2E2
:102A3000FFF73EBC10BD00009FED010AFFF7CABBC7
:102A4000CDCCCCBD0B4810B54178491CC9B2417002
:102A500028290ED300214170FFF700FC4FF4FA71D2
:102A60000A38884200DA0846BDE8104080B2FFF715
:102A70002DBC10BD0C00002010B5FFF7EFFB4FF48C
:102A8000FA610A30884200DD0846BDE8104080B295
:102A9000FFF71CBC9FED010AFFF79CBBCDCCCC3DE2
:102AA00010B5FFF7E1FB401C00F00304FFF7D6FB75
:102AB00001462046BDE81040FFF710BC70B5054642
:102AC0002DED048BFFF73CFEDFED170A00249FED90
:102AD000179A20EE208ADFED168AF6EE009A154E40
:102AE0001CE000BF00EE104AB8EE400A60EE090A92
:102AF00000EE105AB8EE401A80EE810AFFF79AFCF9
:102B0000F0EE680A48EE000A30EEA90ABCEEC00AF0
:102B100010EE100A26F81400641CA4B2AC42E1D3F3
:102B2000BDEC048B70BD000000E0FF44DB0FC9402A
:102B3000000000454000002070B504462DED028BDA
:102B40009FED1A8AFFF7FCFD20EE080AF6EE000A58
:102B5000642138EE001A38EE400A31EE201A30EEC9
:102B6000200ABCEEC11ABCEEC00A11EE100A85B2F2
:102B700010EE100A83B20E4880786043B0FBF1F08B
:102B800081B200220B4803E020F81250521C92B28E
:102B90008A42F9D304E000BF20F81130491C89B201
:102BA000A142F9D3BDEC028B70BD000000F0FF44E0
:102BB000000000204000002010B504462DED028BDF
:102BC0009FED1D8ADFED1D8AFFF7BAFD0021B0EEF3
:102BD000002A2CE000EE901AF8EE601A00EE904AFF
:102BE000F8EE600A81EEA01A11EE100AB0F17C5FD7
:102BF00002DA61EE021A05E0F0EE420AF0EE601A27
:102C000041EE601AB0EE481AF0EE480A0C4A11EE96
:102C1000A81A41EE000AB6EE001A70EE810AFCEE28
:102C2000E00A10EE900A22F81100491C89B2A14274
:102C3000D0D3BDEC028B10BD00F0FF4400F07F4507
:102C400040000020FEF79EF9FFF7D4F9FEF7B0FE32
:102C5000FEF798FEFEF778FEFEF72EFFFEF70CFF5C
:102C6000FFF71EFB4FF47A710020FFF737FBFEF7EA
:102C700005FEFDF76FFCFFF729F8FEF77DF8384CED
:102C8000012138A2A060084656E000BFFEF774F8A4
:102C9000A168401A052804D3FEF76EF8A060FEF77D
:102CA00051FEFFF7DBFA0746FFF7CCFA8046FFF745
:102CB000DBFA0546FFF7CCFA0646A088874208D122
:102CC0002178884505D16078854202D1A078864276
:102CD000DCD0A78084F800806570A67004233A4693
:102CE00007210120FFF72CF923A20C210120FFF777
:102CF00048F923A201210220FFF743F9FFF7BAFAAE
:102D0000022207211046FFF783F822A20D2102209C
:102D1000FFF737F920A201210320FFF732F910480D
:102D200007210C3050F825200320FFF72AF9032D46
:102D300005D01EA201210420FFF723F9A6E720A257
:102D400001210420FFF71DF9032332460721042047
:102D5000FFF7F6F825220A210420FFF725F895E76A
:102D600014000020467265713A2020202020202087
:102D7000202020202000000020487A2000000000B1
:102D80005670703A20202020202020202020202053
:102D90002000000020562000576176653A20202050
:102DA0002020202020202020200000002020202083
:102DB0002020202020202020202020200000000093
:102DC000447574793A2020202020202020202020C3
:102DD000200000000A4928B1012807D0022809D0A4
:102DE000002070470869C0F3402070470869C0F3AD
:102DF000C01070470348006800F0010070470000F1
:102E000000100240100402404FF04070E1EE100A42
:102E100070470000000000000000000000000000FB
:102E20000000000000F80000000000000033300047
:102E3000000000100C06100C06000000000000004E
:102E4000000040C07840C0784000043F04043F04C4
:102E50000400007088FC08300000001820FF211ECC
:102E60000000F008F000E018000000211C031E2103
:102E70001E0000F00888700000001E21232419277E
:102E8000211010160E0000000000000000000000DD
:102E90000000000000E018040200000000071820F5
:102EA000400000020418E000000000402018070065
:102EB0000000404080F0804040000202010F01020B
:102EC0000200000000F0000000000101011F0101EC
:102ED0000100000000000000000080B07000000051
:102EE00000000000000000000000000101010101DD
:102EF0000101000000000000000000303000000070
:102F00000000000000008060180400601806010046
:102F1000000000E010080810E000000F1020201052
:102F20000F00001010F8000000000020203F2020BB
:102F30000000007008080888700000302824222152
:102F40003000003008888848300000182020201108
:102F50000E000000C02010F8000000070424243FE9
:102F6000240000F808888808080000192120201192
:102F70000E0000E0108888180000000F11202011BA
:102F80000E0000380808C83808000000003F0000A4
:102F900000000070880808887000001C222121228F
:102FA0001C0000E010080810E0000000312222118F
:102FB0000F00000000C0C000000000000030300022
:102FC00000000000008000000000000080600000A1
:102FD00000000000804020100800000102040810DA
:102FE00020004040404040404000040404040404E9
:102FF0000400000810204080000000201008040297
:103000000100007048080808F00000000030360198
:103010000000C030C828E810E00007182724231457
:103020000B000000C038E0000000203C2302022713
:10303000382008F8888888700000203F2020201160
:103040000E00C0300808080838000718202020109B
:10305000080008F808080810E000203F2020201091
:103060000F0008F88888E8081000203F202023205F
:10307000180008F88888E8081000203F20000300A6
:103080000000C03008080838000007182020221E61
:10309000020008F808000008F808203F210101217B
:1030A0003F20000808F8080800000020203F2020EA
:1030B000000000000808F8080800C08080807F0039
:1030C000000008F888C028180800203F2001263892
:1030D000200008F8080000000000203F20202020E9
:1030E000300008F8F800F8F80800203F003F003FE3
:1030F000200008F830C00008F808203F200007181A
:103100003F00E01008080810E0000F1020202010F9
:103110000F0008F808080808F000203F210101010D
:103120000000E01008080810E0000F1824243850B0
:103130004F0008F8888888887000203F2000030C22
:10314000302000708808080838000038202121222B
:103150001C00180808F8080818000000203F20008C
:10316000000008F808000008F808001F20202020B0
:103170001F000878880000C83808000007380E01D2
:103180000000F80800F80008F800033C0700073CBE
:103190000300081868808068180820302C03032C6E
:1031A00030200838C800C83808000000203F200040
:1031B000000010080808C838080020382621202000
:1031C0001800000000FE020202000000007F4040E4
:1031D0004000000C30C00000000000000001063874
:1031E000C00000020202FE000000004040407F00DC
:1031F00000000000040202020400000000000000C1
:1032000000000000000000000000808080808080BE
:1032100080800002020400000000000000000000A6
:1032200000000000808080800000001924222222FB
:103230003F2008F8008080000000003F112020118E
:103240000E000000008080800000000E1120202071
:103250001100000000808088F800000E112020106E
:103260003F200000808080800000001F2222222258
:103270001300008080F0888888180020203F2020DC
:1032800000000000808080808000006B9494949304
:10329000600008F8008080800000203F21000020AE
:1032A0003F2000809898000000000020203F202050
:1032B0000000000000809898000000C08080807F9F
:1032C000000008F8000080808000203F24022D309C
:1032D0002000000808F8000000000020203F202007
:1032E00000008080808080808000203F20003F2080
:1032F000003F8080008080800000203F210000206F
:103300003F200000808080800000001F20202020BF
:103310001F00808000808000000080FFA12020111D
:103320000E000000008080808000000E112020A090
:10333000FF80808080008080800020203F2120004E
:103340000100000080808080800000332424242439
:103350001900008080E0808000000000001F202015
:1033600000008080000000808000001F20202010CE
:103370003F20808080000080808000010E300806A1
:10338000010080800080008080800F300C030C30B2
:103390000F0000808000808080000020312E0E31E0
:1033A0002000808080000080808080818E701806E0
:1033B000010000808080808080000021302C22214C
:1033C000300000000000807C020200000000003F8E
:1033D000404000000000FF00000000000000FF006F
:1033E00000000002027C800000000040403F00001E
:1033F00000000006010102020404000000000000B9
:103400000000000610160006101600000000000064
:103410000000010203040607080900000000010281
:1034200003040000000000006E83F9A22915444E39
:10343000D15727FCC0DD34F5999562DB4190433CC0
:10344000AB6351FE53696E65202020200000000010
:10345000537175617265202000000000547269612B
:103460006E676C6500000000536177746F6F74685D
:10347000000000009434000800000020400000001C
:10348000C4010008D4340008400000204027000098
:10349000E001000800643200E803000000000000C2
:1034A000000000000000000000FFFF00000000001E
:1034B00000000000443400085C3400086834000850
:1034C000503400080100000010000000000000005F
:0434D0000024F400E0
:040000050800018965
:00000001FF
