:020000040800F2
:1000000010270020290200083B18000803160008EA
:10001000391800083B040008231A000800000000FB
:100020000000000000000000000000003F18000871
:1000300051050008000000003D18000841180008A4
:10004000430200084302000843020008430200087C
:10005000430200084302000843020008430200086C
:10006000430200084302000843020008430200085C
:10007000430200084302000843020008430200084C
:10008000A1040008430200084302000843020008DC
:10009000430200084302000843020008430200082C
:1000A000430200084302000843020008430200081C
:1000B000430200084302000843020008430200080C
:1000C00043020008430200084302000843020008FC
:1000D00043020008430200084302000843020008EC
:1000E00043020008430200084302000843020008DC
:1000F00043020008430200084302000843020008CC
:1001000043020008430200084302000843020008BB
:1001100043020008430200084302000843020008AB
:10012000430200084302000843020008430200089B
:10013000430200084302000843020008430200088B
:10014000430200084302000843020008430200087B
:10015000430200084302000843020008430200086B
:10016000430200084302000843020008430200085B
:100170004302000843020008430200080000000098
:10018000430200084302000800F002F800F03CF8C7
:100190000AA090E8000C82448344AAF10107DA45E2
:1001A00001D100F031F8AFF2090EBAE80F0013F0F8
:1001B000010F18BFFB1A43F00103184794230000F6
:1001C000B4230000103A24BF78C878C1FAD8520787
:1001D00024BF30C830C144BF04680C6070470000C1
:1001E0000023002400250026103A28BF78C1FBD840
:1001F000520728BF30C148BF0B6070471FB502F0DF
:1002000085F91FBD10B510BD00F0E2F81146FFF7EB
:10021000F5FF02F039F900F000F903B4FFF7F2FF3F
:1002200003BC00F003F90000094880470948004773
:10023000FEE7FEE7FEE7FEE7FEE7FEE7FEE7FEE796
:10024000FEE7FEE704480549054A064B70470000F3
:10025000D91800088901000810210020102700206B
:10026000102300201023002053EA020C00F06980C4
:100270002DE9F04B4FF00006002B1FBFB3FA83F5BA
:1002800003FA05F424FA05F65E4012BF1643B2FAEB
:1002900082F502FA05F4C5F120051EBF22FA05FC1D
:1002A00044EA0C04203556EA044C4FEA144418BFC3
:1002B000641C4FF000084FF00009904271EB030CF2
:1002C00039D3002919BFB1FA81F701FA07F6B0FA5C
:1002D00080F700FA07F6C7F120071EBF20FA07FCD7
:1002E00046EA0C062037B6FBF4FCA7EB0507103FE7
:1002F00007F01F0BCBF120060CFA0BFB2CFA06F6CD
:1003000044BFB3460026202FA4BF5E464FF0000B2B
:100310005BEA060C08BF4FF0010B19EB0B09ABFBB6
:10032000027C48EB0608C01B06FB02CC0BFB03CC8F
:1003300071EB0C01C1E70B46024641464846BDE859
:10034000F08B13B54FF000004FF00001AFF30080C9
:10035000BDE81C4070474FF0000200B513469446BC
:100360009646203922BFA0E80C50A0E80C50B1F10D
:100370002001BFF4F7AF090728BFA0E80C5048BF21
:100380000CC05DF804EB890028BF40F8042B08BFBF
:10039000704748BF20F8022B11F0804F18BF00F8BB
:1003A000012B704770477047704710B500F008F890
:1003B000006810BD10B5044600F002F8046010BDDE
:1003C00000487047B020002000487047B02000204F
:1003D0007546FFF7F9FFAE4605006946534620F023
:1003E0000700854618B020B5FFF72CFFBDE8204078
:1003F0004FF000064FF000074FF000084FF0000BE1
:1004000021F00701AC46ACE8C009ACE8C009ACE893
:10041000C009ACE8C0098D46704710B50446AFF37B
:1004200000802046BDE81040FFF7F7BE01491820C4
:10043000ABBEFEE7260002007047FEE710B5846BF6
:10044000204600F0B2F80120207110BD10B5846B79
:10045000204600F080F80120207110BD10B5846B9B
:10046000206940F004002061204600F0A0F801203F
:10047000207110BD10B5846B206940F0040020612C
:10048000204600F06AF80120207110BD10B5806B85
:1004900000F08CF810BD10B5806B00F05DF810BD59
:1004A000014800F0CBB900000820002001681823A3
:1004B000CAB2103AB2FBF3F2054B6FF30901032AFB
:1004C0009B5CC36500D9091D816508467047000023
:1004D0001625000810B5014600208B698A6A4FF086
:1004E000C07453B1B3F5005F15D072B1012A0CD0BE
:1004F000022A0AD0032A09D104E01AB1012A06D03F
:10050000022A03D1C96AC90100D5012010BDC96AF8
:10051000A142FAD010BD002AF7D0012AF2D0022A57
:10052000F3D0032AF3D010BD30B50468256825F454
:1005300080252560046863608368402B036803D0CE
:1005400099600068C26030BD9A600068C16030BDCB
:10055000704772B6FEE770477047704770B500B3DA
:10056000F9B14379012B1ED0012646710223037194
:1005700005682C6802F0100340F6FE729A4094431E
:10058000D1E900210A439A4022432A6001680A689F
:10059000C0249C40A2430A600671002141710846B4
:1005A00070BD012070BD022070BD7047704770475C
:1005B00070B5040003D02079002510B105E00120BA
:1005C00070BD6571204600F007F80220207125619A
:1005D00001202071002070BD70B586B00546142141
:1005E0006846FFF7B8FE1F492868884237D11E4881
:1005F0000026016841F000510160006800F00050E1
:10060000059019481038016841F001010160006847
:10061000694600F001000590102000900320CDE90C
:100620000106124800F07CFA124C114820604FF08D
:10063000606060604020C4E9020600012061400063
:1006400060618000A0614011C4E90706204666622F
:1006500000F0C4F908B1FFF77CFFAC60A56306B0F9
:1006600070BD0000007400404038024000000240AD
:1006700088600240082000202DE9F041040006981F
:1006800017460D461BD0617901291BD001266671E2
:1006900002212171C5B1E2682949D163E268294983
:1006A0001164E2682849D16421680A6842F08052E6
:1006B0000A6040B32268042828D01C3227E00120B9
:1006C000BDE8F0810220FBE7A2682049D163A2685F
:1006D0001F491164A2681F49D16421680A6842F465
:1006E00080520A6020B12268042804D0103203E04E
:1006F0002268083200E00C322068016841F40051A1
:100700000160A06809E02268143200E01832206815
:10071000016841F000510160E068394600F0C8F915
:100720000021617120B1216941F004012161C7E715
:1007300021680A6805F010039E4032430A60BFE753
:100740004D04000897040008750400083D040008E3
:100750008D0400085D04000870B504001BD02068FB
:10076000036801F010024FF480559540AB430360DD
:1007700020680368012505FA02F29343036061B122
:10078000E06800F012F82068016821F00051016073
:100790002571002070BD012070BDA06800F005F833
:1007A0002068016821F40051F1E72DE9F041044689
:1007B000876D00F0ADFA064694F835000025022852
:1007C00006D08020606584F834500120BDE8F081B7
:1007D0002068016821F0160101602068416921F05C
:1007E00080014161206C08B9A06C20B120680168CB
:1007F00021F0080101602068016821F00101016019
:100800000CE000F085FA801B052807D920206065E0
:10081000032084F8350084F83450D7E72068006856
:10082000C007EED194F85C103F208840B8600120EA
:1008300084F8350084F834500020C7E72DE9F843E8
:1008400004464FF00009CDF8009063484FF416516C
:10085000A56D0068B0FBF1F72E6894F85C100820D5
:1008600000FA01F131420FD021680A6852070BD516
:100870000A6822F004020A6094F85C108840A860BC
:10088000606D40F00100606594F85C104FF0010865
:1008900008FA01F0304208D021684969090604D5F8
:1008A000A860606D40F00200606594F85C10042060
:1008B0008840304208D021680968890704D5A860BB
:1008C000606D40F00400606594F85C101020884072
:1008D000304218D021680968090714D5A86020683B
:1008E0000168490304D50068000308D5A16C07E03E
:1008F0000168C90503D4016821F008010160216C79
:1009000009B12046884794F85C1020208840304286
:1009100031D021680968C9062DD5A86094F8350042
:1009200005282068016806D0490347D50068000300
:100930001DD4616C1CE021F0160101602068416942
:1009400021F080014161206C08B9A06C20B12068C1
:10095000016821F00801016094F85C103F20884094
:10096000A86084F8358084F83490216D1FE0E16B35
:1009700009B120468847606D00282BD0606DC00704
:1009800014D0052084F835002068016821F00101A9
:1009900001600098401C0090B84203D820680068AD
:1009A000C007F6D184F8358084F83490E16C0029D2
:1009B00010D001B02046BDE8F04308470168C905E2
:1009C000D5D4016821F01001016084F8358084F8E5
:1009D0003490CCE7BDE8F883200000202DE9F041F9
:1009E000044600F095F906465CB1022084F8350013
:1009F000002584F834502068016821F0010101606D
:100A00000DE00120BDE8F08100F082F9801B05288F
:100A100005D920206065032084F83500F2E72068BE
:100A20000068C007F0D12268116820480140D4E96D
:100A300001031843D4E90336334318436369184369
:100A4000A3691843E3691843236A18430843616A9A
:100A5000042903D1D4E90B1319430843106020681B
:100A60004069666A20F0070130460E4301270428DA
:100A70000CD1A06A0643E06A40B12046FFF72AFD88
:100A800020B14020606584F83570BAE7206846617F
:100A90002046FFF70BFD94F85C203F2191408160D8
:100AA000656584F835700020ACE700003F8010F0E9
:100AB0002DE9F0410446866D90F8340000250128A8
:100AC0000DD0012084F8340094F835700020012FF7
:100AD00007D084F8340002252846BDE8F0810220C2
:100AE000FBE7022784F8357060652046FFF71CFDA0
:100AF00094F85C103F208840B0602068016841F0A5
:100B000016010160206C20B12068016841F00801E5
:100B100001602068016841F001010160DCE700002C
:100B20002DE9F84FDFF8BCA10022012503264FF084
:100B30000F090AF1040BAAF1040E00BF0B6805FAB5
:100B400002F42340A34270D10F7907F00307012F6D
:100B500001D0022F16D187684FEA420806FA08FC36
:100B600027EA0C07D1F80CC00CFA08FC4CEA070C79
:100B7000C0F808C04768A7430C79C4F30014944038
:100B80003C4344600C79E443A4070AD0C4684FEAAC
:100B9000420C06FA0CF7BC438F6807FA0CF72743A0
:100BA000C7600C7904F00304022C12D1D40800EBC6
:100BB000840CDCF820405707FF0E09FA07F824EAF6
:100BC0000804D1F8108008FA07F848EA0408CCF8BD
:100BD000208004684FEA420C06FA0CF7BC430F79F8
:100BE00007F0030707FA0CF7274307604C6814F473
:100BF000403F70D03C4C276847F48047276024680A
:100C000022F0030704F480440094384C07EB040CF2
:100C1000DCF8084897074FEA177809FA08F7BC4349
:100C2000334FB84202D1002724E054E0314FB8429C
:100C300001D101271EE0304FB84201D1022719E04F
:100C40002E4FB84201D1032714E02D4FB84201D1F5
:100C500004270FE02B4FB84201D105270AE02A4FA5
:100C6000B84201D1062705E0284FB84201D1072735
:100C700000E0082707FA08F72743CCF80878DAF8E5
:100C800000405746D1F804C09C435FEACC2C00D505
:100C90001C433C60DBF800405F46D1F804C09C4335
:100CA0005FEA8C2C00D51C433C60DEF800407746A0
:100CB000D1F804C09C435FEA8C3C00D51C433C60E7
:100CC000084F083F3C68D1F804C09C435FEACC3C25
:100CD00000D51C433C60521C102AFFF42FAFBDE826
:100CE000F88F0000083C01404438024000300140C9
:100CF000000002400004024000080240000C0240D4
:100D0000001002400014024000180240001C024083
:100D10000148806870470000140000200248816884
:100D20000278114481607047140000200B4810B510
:100D3000016841F400710160016841F48061016063
:100D4000016841F480710160032000F06FF80F200A
:100D500000F006F800F024F8002010BD003C02402E
:100D600070B50D4D04464FF47A712878B1FBF0F060
:100D70000A490968B1FBF0F000F0EAFA48B9102C12
:100D800007D200222146501E00F030F800206C608F
:100D900070BD012070BD0000140000202000002064
:100DA0000A4808B5016841F480410160006800F418
:100DB000804000900548001F016841F080510160AB
:100DC000006800F08050009008BD000044380240E8
:100DD000002809DB00F01F0201219140400980003A
:100DE00000F1E020C0F8001170470000F0B40E4B95
:100DF0001B680C46C3F30223C3F10705042D00D979
:100E00000425191D072901D2002300E0DB1E01265D
:100E100006FA05F1491E214099409E40761E164073
:100E20003143F0BC00F017BF0CED00E0064900F0C4
:100E3000070208684FF6FF03184040EA0220034A01
:100E400010430860704700000CED00E00000FA0558
:100E50002DE9F0470E46050065D0DFF81481D8F87B
:100E60000000F7B200F00700B04207D288F8007027
:100E7000D8F8000000F00700B04254D128683D4C7B
:100E8000810712D5400703D5206840F4E050206068
:100E90002878000703D5206840F46040206020686F
:100EA000A96820F0F000084320602878C0072DD002
:100EB000304968680839012812D0022813D0032865
:100EC00011D00968890700292DDA216821F0030172
:100ED00001432160FFF71CFF814641F2883A0EE092
:100EE00009688903EFE709688901ECE7FFF710FF5C
:100EF000A0EB0901514502D90320BDE8F087206825
:100F0000696800F00C00B0EB810FEFD1D8F8001049
:100F1000404601F00701B14207D90770006800F0B0
:100F20000700B04201D00120E7E72878400705D547
:100F30002068E96820F4E050084320602878000722
:100F400006D52068296920F4604040EAC10020608D
:100F500000F018F82168084AC1F30311515CC84039
:100F60000649086006480068FFF7FAFE0020C4E75B
:100F7000003C0240083802401E25000820000020E6
:100F800018000020154810B5006810F00C02144835
:100F900013D04110042A0FD0082A0ED10F4C241F61
:100FA0002268236802F03F025B0207D52068C0F385
:100FB0008810A0FB010106E0084610BD2168C1F3BE
:100FC0008811A1FB00010023FFF74EF92168C1F34E
:100FD0000141491C4900B0FBF1F010BD0838024046
:100FE0000024F4002DE9F84F04006ED02078DFF8DB
:100FF0004C93C007A9F104054AD009F10400016827
:10100000C1F38101012908D00068C0F381000228E2
:101010000AD1D9F80000400206D52868800337D5E8
:1010200060680028E1D033E06068B0F5803F10D000
:10103000B0F5A02F286810D020F4803028602868F0
:1010400020F4802028606068A8B1FFF761FE0646A2
:101050000DE0286840F48030F4E740F480202860F8
:10106000F7E700BFFFF754FE801B642873D8286899
:101070008003F7D50CE0FFF74BFE064605E000BF06
:10108000FFF746FE801B6428F0D828688003F7D459
:101090002078DFF8AC8280074FF0000A3ED5A748E1
:1010A000001D016811F00C0F08D00068C0F381002A
:1010B00002280BD1D9F80000400207D42868800725
:1010C00016D5E068012800D112E033E1E068B8B13C
:1010D0000120C8F80000FFF71BFE064605E000BF30
:1010E000FFF716FE801B0228C0D828688007F7D5B6
:1010F0002868216920F0F80040EAC10028600DE06E
:10110000C8F800A0FFF704FE064604E0FFF700FE63
:10111000801B02281FD828688007F7D42078000792
:1011200022D5864F87486169703771B1012101600E
:10113000FFF7EEFD064604E0FFF7EAFD801B0228FC
:1011400009D838688007F7D50EE0C0F800A0FFF78F
:10115000DFFD064605E082E0FFF7DAFD801B02288E
:101160007DD838688007F7D42078400768D5DFF845
:10117000CCB100270BF13C0BDBF80000C0000BD416
:10118000DBF8001041F08051CBF80010DBF80000D4
:10119000012700F0805000906B4E3068C00510D4DD
:1011A000306840F480703060FFF7B2FD009005E0D9
:1011B000FFF7AEFD0099401A022850D83068C005EC
:1011C000F6D55E4EA0686C3601280FD00528306831
:1011D00010D020F001003060306820F00400306052
:1011E000A068B8B1FFF794FD00900FE0306840F0C0
:1011F0000100F4E740F004003060F7E7FFF788FDF6
:101200000099411A41F28830814266D830688007DF
:10121000F4D50EE0FFF77CFD009007E0FFF778FDC6
:101220000099411A41F28830814256D830688007CF
:10123000F4D42FB1DBF8001021F08051CBF800106E
:10124000A069C8B33D49091D0968C1F3810102299C
:101250004AD00228504607D0C8F8600000E03CE0C1
:10126000FFF756FD04463BE04746C8F86000FFF72D
:101270004FFD064605E000BFFFF74AFD801B022830
:101280002BD828688001F7D4D4E907010843A16A64
:101290002E4A490802EB0141626A41EA8211084381
:1012A00094F82C1040EA0161C9F80010012038665A
:1012B000FFF72EFD044606E03EE000BFFFF728FDE5
:1012C000001B022809D828688001F7D534E000BF48
:1012D000FFF71EFD001B022802D90320BDE8F88F8E
:1012E00028688001F4D427E00128F7D0D9F800005D
:1012F000E26900F4800191421CD1226A00F03F01B2
:10130000914217D147F6C071626A0140B1EB821F6A
:1013100010D1A26A4FF0FF3300F4403103EB5202C8
:10132000B1EB024F06D194F82C1000F07060B0EBD6
:10133000016F01D00120D1E70020CFE7043802403F
:1013400000004742800E4742007000400000FFFF4F
:1013500010B5401EB0F1807F01D3012010BD4FF0C9
:10136000E02460610F21601700F075FC0020A0618F
:1013700007202061002010BD70B590F83C20012AA4
:1013800032D0012480F83C40022280F83D200368DE
:101390005A689D6822F070060A6832435A60134BFF
:1013A00002689A4214D0B2F1804F11D0104B9A4289
:1013B0000ED0104B9A420BD00F4B9A4208D00F4BD5
:1013C0009A4205D00E4B9A4202D00E4B9A4204D15B
:1013D000496825F080031943916080F83D40002161
:1013E00080F83C10084670BD022070BD000001402E
:1013F0000004004000080040000C004000040140D0
:10140000004001400018004010B5040003D094F8DB
:101410003D0010B107E0012010BD002084F83C0021
:10142000204600F01FF8022084F83D00211D2068AE
:1014300000F05AFA012084F8460084F83E0084F84F
:101440003F0084F8400084F8410084F8420084F8AA
:10145000430084F8440084F8450084F83D000020EF
:1014600010BD000008B50068B0F1804F08D10548F4
:10147000016841F001010160006800F00100009086
:1014800008BD00004038024090F83D10012901D00D
:1014900001207047022180F83D1000681149884200
:1014A00014D0B0F1804F11D00F4988420ED00F49AF
:1014B00088420BD00E49884208D00E49884205D098
:1014C0000D49884202D00D49884204D1816801F05B
:1014D0000701062903D0016841F0010101600020E5
:1014E0007047000000000140000400400008004078
:1014F000000C004000040140004001400018004082
:1015000001680A6A41F211131A4207D10A6A9B1054
:101510001A4203D10A6822F001020A60012180F810
:101520003D100020704770B5044690F83C0000253F
:10153000012817D0012684F83C60022084F83D0081
:101540002068826822F0770222F47F428260086875
:10155000502838D00DDC20284FD005DC90B310285F
:1015600011D14AE0022070BD302846D040280AD16F
:101570003BE060282FD070280DD0B0F5805F03D0FD
:10158000B0F5005F12D0012584F83D60002084F89A
:101590003C00284670BDCB68D1E90121206800F0ED
:1015A0000BFA2068816841F0770109E0CB68D1E946
:1015B0000121206800F000FA2068816841F4804130
:1015C0008160E1E719E0CA684968206800F006FA1E
:1015D0005021206806E0CA684968206800F00FFAC8
:1015E0006021206800F0F2F9CEE7CA6849682068F7
:1015F00000F0F4F940212068F4E722680146104623
:10160000F0E7FEE710B500231A462749274800F007
:10161000C2FD0023264A0321244800F0C3FC002316
:10162000244A0621214800F0BDFC204800F0D4FDEA
:101630001E48012300221C49303000F0ACFD1B483D
:1016400000231D4A0321303000F0ACFC1748002372
:101650001A4A0621303000F0A5FC14480023184A2D
:101660000421303000F09EFC1048303000F0B4FD12
:101670000E48022300220C49603000F08CFD0B481C
:101680000023104A0321603000F08CFC074800233F
:101690000D4A0421603000F085FC0448BDE810408C
:1016A000603000F099BD0000D9240008641F0020BC
:1016B0005922000821220008BD22000889220008C2
:1016C0007D220008E5220008D922000800F09ABD1A
:1016D0001CB500240C4900940A480194086008468F
:1016E000FEF766FF08B1FEF734FF2420CDE90004C1
:1016F000002269460448FEF731FF002801D0FEF7BA
:1017000028FF1CBD00740040F41F0020094808B5E4
:10171000016841F4001101600068002200F400102B
:10172000009011461020FFF761FBBDE80840102033
:10173000FFF74EBB3038024030B587B01421684601
:10174000FEF709FE1E480025016841F00401016012
:10175000016801F004010591016841F08001016018
:10176000016801F080010591016841F0010101600B
:10177000016801F001010591016841F00201016079
:10178000016801F002010591016841F0100101605A
:101790000068012400F010000590CDE9004569467D
:1017A00008480294FFF7BCF94FF42070CDE900051A
:1017B000694602940448FFF7B3F907B030BD000052
:1017C00030380240000402400010024030B587B0BB
:1017D00000241848009401940294039404944FF058
:1017E0008045059406210560C0E901140521C0E982
:1017F00003148461FFF708FE08B1FEF7AAFE4FF458
:101800008050009069460B48FFF78DFE08B1FEF747
:10181000A0FE049404A907480594FFF7ADFD08B1A4
:10182000FEF797FE686820F0700040F020006860C6
:1018300007B030BD68200020FEE7FEE77047704724
:10184000FFF76CBA30B593B030216846FEF783FDE0
:1018500014210CA8FEF77FFD1D480025016841F00A
:1018600080510160006800F08050119019480168B3
:1018700041F4804101600068022400F4804011902E
:101880000120039010200490009406940820CDE9D4
:101890000750A820CDE9090404200B906846FFF703
:1018A000A1FB08B172B6FEE70CA90F2081E8310058
:1018B0004FF4A0500F904FF48050109005210CA8C9
:1018C000FFF7C6FA002801D072B6FEE713B030BDAC
:1018D00040380240007000400248016841F4700145
:1018E0000160704788ED00E0F0B50268274B284D95
:1018F000284E294F294C4FF0804C984209D0604522
:1019000007D0A84205D0B04203D0B84201D0A042CF
:1019100004D122F0700E4A6842EA0E0298421BD0AF
:10192000604519D0A84217D0B04215D0B84213D0A4
:10193000A04211D01A4DA8420ED01A4DA8420BD089
:10194000194DA84208D0194DA84205D0184DA842FB
:1019500002D0184DA84203D122F44075CA682A4328
:101960004D6922F080022A438D68C5620D68856248
:10197000984201D0A04201D109690163016841F098
:1019800004010160012141610260F0BD00000140DD
:101990000004004000080040000C0040000401402A
:1019A0000040014000440140004801400018004050
:1019B000001C00400020004010B5846842EA032269
:1019C00024F47F440A432243826010BD826822F0DF
:1019D00070020A4342F007018160704710B5036A44
:1019E000046A24F001040462846924F0F00444EAE7
:1019F000021423F00A020A438461026210BD10B58A
:101A0000036A046A24F010040462846923F0A003CA
:101A100024F4704444EA023243EA01118261016213
:101A200010BDFEE710B5F0EE401A00F045F830EEBC
:101A3000210ADFED140A1249B5EEC00AF1EE10FAE0
:101A400002D29FED110A05E010EE100A884201DD76
:101A5000B0EE600A9FED0D1A0D4820EE010A80EEEF
:101A6000201AB6EE000A31EE000ABCEEC00A10EEF3
:101A7000101A417081880078BDE8104000F050B81D
:101A80003333534033335340000000000000C8425A
:101A9000000000200148807870470000000000200E
:101AA000014880887047000000000020014800784D
:101AB00070470000000000200748DFED080A9FED96
:101AC000081A407800EE100AB8EE400A60EE200ACC
:101AD00080EE810A7047000000000020333353403D
:101AE0000000C84202494FF4FA60C88000F008BC08
:101AF00000000020642800D9642004498870087818
:101B0000032802D1898800F00BB87047000000203C
:101B100001460248007800F003B8000000000020F1
:101B2000F0B507462DED028B4FF4FA7081B00D46EB
:101B3000814202D38000854200D905463448354CA5
:101B4000B0FBF5F080B24FF47A61E080884200D9B2
:101B5000E18000213048FEF7FFFD3048FFF7D0FC60
:101B60002E480026006846622D48016841F00201B7
:101B700001602770A58037B1012F08D0022F0AD04D
:101B8000032F37D133E0E08800F0BAFB32E0E08881
:101B900000F034FC2EE0E5889FED228ADFED228AFA
:101BA00000F0F0F90020B6EE001A204A1CE000BF59
:101BB00000EE900AF8EE601A00EE905AB8EE602A35
:101BC000C1EE820AF0EE481A50EEA81AF0EE480A6A
:101BD00041EE800A70EE810AFCEEE00A10EE901AE7
:101BE00022F81010401C80B2A842E1D302E0E08845
:101BF00000F0C4FB0948FFF747FC0096E3880B4A56
:101C000000210548FEF738FD01B0BDEC028BF0BDA8
:101C100080841E0000000020F41F002068200020A7
:101C20000074004000F0FF4400F07F4524000020D5
:101C30004100080218BF04200A0E18BF40F001003E
:101C40004FF07F4232EA010108BF40F00200012854
:101C500008BF052070470907090E002804DB00F1C2
:101C6000E02080F80014704700F00F0000F1E02041
:101C700080F8141D7047000000B510EE101A2DED0D
:101C8000028B81B0524A6846B2EB410F2ED94FF019
:101C9000E640B0EB410F94BF00204FF0FF300090C2
:101CA0000098B0EE408A00286ADB10F0010F4BD09C
:101CB00068EE080A9FED471A9FED470A00EE810A79
:101CC0009FED461A10F0020F00EE801AB7EE000AE0
:101CD00000EE810A02BF01B0BDEC028B00BD00BF67
:101CE00001B0B1EE400ABDEC028B00BD3C4B21F0CF
:101CF0000042934241D911F0004FDFED3A0A20EE45
:101D0000201ADFED390A19BF31EE601A71EE200A90
:101D100031EE201A71EE600ABDEEE01A11EE100AE3
:101D20009FED321A00F0030000EEC10A9FED301A59
:101D3000009000EEC10A9FED2F1A00EEC10A9FED40
:101D40002E1A00EEC10AABE728EE080A9FED2B1A07
:101D5000DFED2B0A10F0020F40EE410A9FED291A29
:101D600000EE201A61EE000AB0EE480A08EE200AE2
:101D7000B6D101B0BDEC028B00BD00F059F88FE781
:101D800018EE100A4000B0F17F4F0DD218EE100A85
:101D9000FFF74EFF042808BF00F042F8B0EE480AF3
:101DA00001B0BDEC028B00BD09D10120FEF702FBA2
:101DB00001B0BDEC028B5DF804EB00F029B801B076
:101DC000B0EE480ABDEC028B5DF804EB00F01CB8E5
:101DD000B61F927EB93AB2BACA9F2A3DDDFFFFBE56
:101DE000490E494683F9223F0000004B0000C93FDD
:101DF00000A0FD390020A2331A61342C336D4C3918
:101E0000DA82083CA0AA2ABE30EE000A7047000021
:101E1000DFED020A80EEA00A70470000000000001B
:101E20009FED020A20EE000A70470000000000103B
:101E30002DE9F0014FF07F42B2EB410F9FBF4FF011
:101E4000FF310160BDE8F00170474FF0004242EA07
:101E50000123C1F3C752783A551112F01F0C434CBD
:101E6000CCF120067C44C1F3C752A2F178024FEABC
:101E7000621204EB820254F8254008BFD2E90156F1
:101E800012D0556804FA0CF425FA06F73C4397681B
:101E900005FA0CF527FA06F8D26807FA0CFCF240AE
:101EA00045EA08054CEA0206A4FB034CA5FB0352D5
:101EB000A6FB03631D449D4234BF0126002613196F
:101EC000334416B1934202D903E0934201D2012276
:101ED00000E00022624402F1200C9206DC0C42EA8F
:101EE000443200EE102A5B03DFED210AF8EEC01A3F
:101EF00000EE103A4FEA9C1C11F0004FB8EE400A79
:101F0000C0F800C020EE201A00EE105ADFED190ACA
:101F1000B8EE400A20EE200A71EE810A70EE800AC7
:101F200010EE902A02F500626FF30B0200EE902A89
:101F300070EEE11A31EEC11ADFED101A30EE411ADF
:101F40009FED0D0A20EE800A01EE210A9FED0C1A8A
:101F500000EE810A04BFBDE8F0017047CCF180516A
:101F60000160BDE8F001B1EE400A7047C80600000C
:101F7000000000360000802C22AAFD29DB0FC92FAB
:101F80000000C92F05489FED061A407800EE100AA0
:101F9000F8EE400A80EE810A704700000000002041
:101FA0000000C842002805D0072903D200EB8101B8
:101FB000CA608362704770B504460079A16888479B
:101FC000E1784A0706D022884FF6FF739A4201D281
:101FD000521C2280B0EBD11F0CD04FF0005202EB0C
:101FE000B1114FEAB161C1F3C202E170032A04D317
:101FF00060F3C71121F03800E070E078002500F0B0
:102000000701052976D2DFE801F0031E4186AA0008
:10201000C0F38011B1EBD01FA07820F0F0000FD1F9
:10202000A070E26812B12046A16A90472580A0788E
:1020300020F00F00401CA070E0788CE0E07070BDD4
:102040008030A07070BDC0F38011B1EBD01F0BD0F9
:10205000A07820F0F0001030A0702269002A6CD027
:102060002046A16A904768E02088C828EAD9A0786D
:1020700020F0F0005030A070226A12B12046A16A10
:102080009047E07820F00700001DD7E7C0F38011EB
:10209000B1EBD01F23D1A07820F0F000A070E2684F
:1020A00012B12046A16A9047A07800F00F010F29D5
:1020B00006D24FF0805101EB30104FEA3070A07023
:1020C00000F00F002030A070626912B12046A16AB2
:1020D00090472580E07820F00700C01CAEE72088FC
:1020E0003C28AFD9A07800F00F01012903D00229C4
:1020F00007D04CE04CE020F0F0003030A070A26936
:1021000004E020F0F0004030A070E269D2B3204635
:10211000A16A90473BE0C0F38011B1EBD01F12D011
:10212000A07820F0F0001030A070226912B1204693
:10213000A16A904720883C2829D22580E07820F0A9
:102140000700801C7AE721883C298FD92580A17857
:1021500021F00F01A17020F00700401C6EE7C0F3D2
:102160008011B1EBD01FA07820F0F0000BD16030CF
:10217000A070626A002A3FF465AF2046A16ABDE8FC
:102180007040104703E01030A0702269BEE7E0788D
:1021900020F0070052E72DE9F0411E4615460F4694
:1021A000040014D0002F12D03021FEF7D4F8A0780C
:1021B00020F0F0008030A070A760E0784DB120F0F2
:1021C000800065F38610267120F00700E070BDE8FE
:1021D000F08140F08000F4E718B1094B19680A4615
:1021E00008E06FF001007047814202D14FF0FF30EC
:1021F0007047C96A0029F7D1C26218600020704791
:1022000008000020054810B5006803E0C46AFFF725
:10221000D2FE20460028F9D110BD000008000020A1
:1022200010B5FFF743FC032812D10A480178491C76
:10223000C9B2017028290BD300210170FFF72AFCD5
:10224000401F00D50020BDE81040C0B2FFF752BCCF
:1022500010BD00000C00002010B5FFF727FC03287C
:102260000AD1FFF717FC401D642800DD6420BDE89B
:102270001040C0B2FFF73EBC10BD00009FED010A48
:10228000FFF7D0BBCDCCCCBD0B4810B54178491C75
:10229000C9B2417028290ED300214170FFF700FC1C
:1022A0004FF4FA710A38884200DA0846BDE8104057
:1022B00080B2FFF72DBC10BD0C00002010B5FFF759
:1022C000EFFB4FF4FA610A30884200DD0846BDE8B2
:1022D000104080B2FFF71CBC9FED010AFFF7A2BBC4
:1022E000CDCCCC3D10B5FFF7E1FB401C00F0030462
:1022F000FFF7D6FB01462046BDE81040FFF710BCB3
:1023000070B505462DED048BFFF73CFEDFED170A97
:1023100000249FED179A20EE208ADFED168AF6EE54
:10232000009A154E1CE000BF00EE104AB8EE400ABD
:1023300060EE090A00EE105AB8EE401A80EE810AEB
:10234000FFF79AFCF0EE680A48EE000A30EEA90AA0
:10235000BCEEC00A10EE100A26F81400641CA4B2E9
:10236000AC42E1D3BDEC048B70BD000000E0FF4443
:10237000DB0FC940000000452400002070B5044672
:102380002DED028B9FED1A8AFFF7FCFD20EE080A67
:10239000F6EE000A642138EE001A38EE400A31EEFB
:1023A000201A30EE200ABCEEC11ABCEEC00A11EEB3
:1023B000100A85B210EE100A83B20E48807860438E
:1023C000B0FBF1F081B200220B4803E020F812507C
:1023D000521C92B28A42F9D304E000BF20F81130B7
:1023E000491C89B2A142F9D3BDEC028B70BD00003B
:1023F00000F0FF44000000202400002010B5044637
:102400002DED028B9FED1D8ADFED1D8AFFF7BAFDD2
:102410000021B0EE002A2CE000EE901AF8EE601ACF
:1024200000EE904AF8EE600A81EEA01A11EE100A52
:10243000B0F17C5F02DA61EE021A05E0F0EE420ACA
:10244000F0EE601A41EE601AB0EE481AF0EE480A5B
:102450000C4A11EEA81A41EE000AB6EE001A70EE10
:10246000810AFCEEE00A10EE900A22F81100491CE5
:1024700089B2A142D0D3BDEC028B10BD00F0FF4465
:1024800000F07F4524000020FEF750FCFFF7DAF94A
:10249000FFF752F9FFF73AF9FFF71AF9FFF796F944
:1024A000FFF720FB4FF47A710020FFF739FBFFF7AD
:1024B000A9F8FEF72DFC074CC4F80000FEF728FC35
:1024C0002168401A0528F9D3FEF722FC2060FFF7A7
:1024D000FDF8F3E7100000200A4928B1012807D0D1
:1024E000022809D0002070470869C0F340207047D7
:1024F0000869C0F3C01070470348006800F001008D
:102500007047000000100240100402404FF040707D
:10251000E1EE100A704700061016000610160000C3
:102520000000000000000102030406070809000083
:10253000000000006E83F9A22915444ED15727FCF4
:10254000C0DD34F5999562DB4190433CAB6351FEAD
:10255000702500080000002024000000C4010008CD
:102560009425000824000020EC260000E00100086B
:1025700000643200E80300000000000000000000DA
:10258000000000000100000010000000000000003A
:042590000024F4002F
:040000050800018965
:00000001FF
