:020000040800F2
:100000003811002029020008791B00080D1700088C
:10001000751B0008950400081D1E00080000000064
:10002000000000000000000000000000BD1B0008F0
:100030006505000800000000A91B00085D1D000800
:10004000430200084302000843020008430200087C
:10005000430200084302000843020008430200086C
:10006000430200084302000843020008430200085C
:1000700043020008430200084302000899040008F4
:10008000430200084302000843020008430200083C
:10009000430200084302000843020008430200082C
:1000A000430200084302000843020008430200081C
:1000B000430200084302000843020008430200080C
:1000C00043020008430200084302000843020008FC
:1000D000AD1B000843020008430200084302000869
:1000E00043020008430200084302000843020008DC
:1000F00043020008430200084302000843020008CC
:1001000043020008430200084302000843020008BB
:1001100043020008430200084302000843020008AB
:10012000430200084302000843020008430200089B
:10013000430200084302000843020008430200088B
:10014000430200084302000843020008430200087B
:10015000430200084302000843020008430200086B
:10016000430200084302000843020008430200085B
:100170004302000843020008430200080000000098
:10018000430200084302000800F002F800F03CF8C7
:100190000AA090E8000C82448344AAF10107DA45E2
:1001A00001D100F031F8AFF2090EBAE80F0013F0F8
:1001B000010F18BFFB1A43F00103184784310000F8
:1001C000A4310000103A24BF78C878C1FAD8520789
:1001D00024BF30C830C144BF04680C6070470000C1
:1001E0000023002400250026103A28BF78C1FBD840
:1001F000520728BF30C148BF0B6070471FB502F0DF
:10020000F6FF1FBD10B510BD00F0E4F81146FFF772
:10021000F5FF01F03FFE00F002F903B4FFF7F2FF33
:1002200003BC00F005F90000094880470948004771
:10023000FEE7FEE7FEE7FEE7FEE7FEE7FEE7FEE796
:10024000FEE7FEE704480549054A064B70470000F3
:10025000091E000889010008380B00203811002011
:10026000380D0020380D002053EA020C00F06980A0
:100270002DE9F04B4FF00006002B1FBFB3FA83F5BA
:1002800003FA05F424FA05F65E4012BF1643B2FAEB
:1002900082F502FA05F4C5F120051EBF22FA05FC1D
:1002A00044EA0C04203556EA044C4FEA144418BFC3
:1002B000641C4FF000084FF00009904271EB030CF2
:1002C00039D3002919BFB1FA81F701FA07F6B0FA5C
:1002D00080F700FA07F6C7F120071EBF20FA07FCD7
:1002E00046EA0C062037B6FBF4FCA7EB0507103FE7
:1002F00007F01F0BCBF120062CFA06F60CFA0BFBCD
:1003000044BFB3460026202FA4BF5E464FF0000B2B
:100310005BEA060C08BF4FF0010B19EB0B0948EB29
:100320000608ABFB027C06FB02CC0BFB03CCC01B1C
:1003300071EB0C01C1E70B46024641464846BDE859
:10034000F08B13B5084318BF4FF0FF300146AFF3F1
:100350000080BDE81C4070474FF0000200B5134616
:1003600094469646203922BFA0E80C50A0E80C50D5
:10037000B1F12001BFF4F7AF090728BFA0E80C5086
:1003800048BF0CC05DF804EB890028BF40F8042B7F
:1003900008BF704748BF20F8022B11F0804F18BFEC
:1003A00000F8012B704770477047704710B500F098
:1003B00009F8006810BD10B5044600F003F80460A9
:1003C00010BD000000487047100000200048704732
:1003D000100000207546FFF7F9FFAE46050069469C
:1003E000534620F00700854618B020B5FFF72AFFD6
:1003F000BDE820404FF000064FF000074FF0000826
:100400004FF0000BAC46ACE8C009ACE8C009ACE862
:10041000C009ACE8C00921F007018D46704710B54E
:100420000446AFF300802046BDE81040FFF7F5BE5C
:1004300001491820ABBEFEE726000200704700000D
:1004400040F27801C2F2000108607047B0B540F296
:100450007805C2F200052A6852B140F23234C2F285
:1004600000042046002190472A6820460121904739
:1004700040F2DC0040F23231C2F20000C2F2000170
:100480004FF4806200F0CCFC002818BF00F06CF83C
:10049000B0BD0000FEE7000080B540F27C00C2F273
:1004A000000000F065F880BDD0F800C06FF00F02CA
:1004B0004AF6AB2352FA8CF2CAF6AA230146A2FBF3
:1004C0000330000905A31B5C40F2FF302CEA00005A
:1004D0005F2A88BF0430C1E9160370470006101672
:1004E000000610168269816AB2F5005F06D06AB90B
:1004F000022912D0012914D0D1B90EE0032917D84E
:10050000DFE801F0020B020F0120704703293CBF16
:10051000012070471CBF00207047C06AC0F3006014
:100520007047C06AA0F1C070B0FA80F0400970470F
:100530000020704780B5D0F800C0D0F808E0DCF8A3
:100540000000BEF1400F20F48020CCF800000846E7
:10055000CCF8043004BF10460A46CCF80800CCF8AA
:100560000C2080BD7047000072B600BFFEE700009F
:10057000F0B581B004460020009040F20000C2F2C5
:1005800000000268D4E9166048F2B5133768082104
:10059000C1F64E3381403942A2FB03250CD02268BC
:1005A00013685B0708D5136823F004031360B16078
:1005B000616D41F00101616501218140394208D03E
:1005C00022685269120604D5B160616D41F00201E2
:1005D000616504218140394208D02268126892077F
:1005E00004D5B160616D41F0040161651021814065
:1005F000394215D020680268120711D5B16002682F
:100600000168520306D4C90506D4016821F0080127
:10061000016001E0080342D4216C09B120468847FB
:10062000E16D202000FA01F23A4244D020680368CC
:10063000DB0640D5B26094F835300268052B1ED138
:1006400022F016020260426922F080024261226CAE
:100650000AB9A26C1AB1026822F0080202603F20B7
:100660008840B060012084F83500216D0020002909
:1006700084F8340040D02046884701B0F0BD0168BE
:10068000520310D4C90512D4016821F01001016091
:10069000012084F83500002084F8340007E0A16CC4
:1006A0000029BBD1BCE7080301D4616C00E0E16B19
:1006B00009B120468847606DF0B1606DC00717D062
:1006C000052084F835002068A90A026822F001029A
:1006D000026000BF009A01328A42009202D802688A
:1006E000D207F7D1012084F83500002084F83400C7
:1006F000E16C09B12046884701B0F0BD2DE9F04119
:10070000044600F069F9C4B10546022084F83500BA
:100710000020216884F83400086820F00100086097
:1007200026683068C0070BD000F056F9401B05283A
:10073000F6D903212022032042E00120BDE8F08108
:10074000306848F23F01CFF21001251D00EA010C8C
:100750002ECDD4E9050E41EA0C011143194329437A
:10076000D4E90778084340EA0E01606A3943042857
:1007700041EA080103D1D4E90B2311431943316045
:100780007169042821F0070141EA00050CD1D4E980
:100790000A1045EA010538B12046FFF7A3FE18B15B
:1007A0000121402201200BE020467561FFF77CFE0D
:1007B000E16D3F2202FA01F1816000220121002057
:1007C000626584F83510BDE8F0810000B0B50446DC
:1007D00090F83400012828D0012084F83400A56D59
:1007E00094F8350001281DD1022084F8350000203E
:1007F00060652046FFF79EFEE26D3F23206803FA06
:1008000002F2216CAA60026842F01602026019B17D
:10081000016841F008010160016841F001010160D7
:100820000020B0BD002084F834000220B0BD0000DC
:100830002DE9F04F83B000F13E4202F1FF724FEA22
:10084000B22241F600470192C4F2020708224FF09B
:10085000010E00254FF0000A4FF00008B84208BF13
:10086000072200920AE000BF08F101080AF1040A19
:10087000B8F1100F05F1020500F0A4800C680EFA23
:1008800008FB14EA0B09EFD04C6804F0030CACF140
:10089000010EBEF1010F11D80322876802FA05F696
:1008A000CA68B743AA403A4382604268C4F300175B
:1008B00022EA0B0207FA08F73A434260BCF1030F41
:1008C0001CD0C26803238E6803FA05F7BA4306FA00
:1008D00005F73A43BCF1020FC2600FD16FF003027B
:1008E00002EA580202440AF01C060F23176A03FAB0
:1008F00006F40B69A743B3403B431362026803232A
:100900004F68AB409A4307F00303AB401A4317F418
:10091000403F4FF0010E0260A6D0002243F6440390
:100920000292C4F202031A6843F6004442F4804281
:100930001A601A68C4F2010402F480420292029A18
:1009400028F003024FF6084B2244CFF6FF7B52F803
:100950000B300AF00C070F26BE4023EA060C019B61
:10096000009E072B38BF1E4606FA07F747EA0C031E
:1009700042F80B30A2684B6842EA090743F60C4C78
:10098000DE0258BF22EA0907A760C4F2010CDCF8B6
:1009900000209E0242EA090758BF22EA0907CCF864
:1009A000007062689E0342EA090758BF22EA0907FD
:1009B00067602268DB0342EA090358BF22EA0903A1
:1009C000236051E703B0BDE8F08F0000002A08BFA4
:1009D000090481617047000040F63430C2F2000023
:1009E00000687047F0B585B00446006843F20445DE
:1009F0008168C4F20005049144F2080105F57F778F
:100A0000C4F20001B84208BF291D096805F5406617
:100A100003914168B8423046029104BF43F204405A
:100A2000C4F2000000680190606840F40070B0F506
:100A3000007F2FD10498800744BF02985FEA0060CE
:100A400048D40398C00705D00198400602D5204637
:100A500000F07AFE0398400644BF01985FEA806088
:100A60003CD40498000744BF02985FEA80602FD509
:100A700020684168B84221F0A001416008BF2E46BD
:100A8000316821F0600131600021009180680090A0
:100A900000986AE00398800744BF01985FEA00600D
:100AA0003BD40498C00705D00298400602D52046E2
:100AB00000F02EFE0498400644BF02985FEA806072
:100AC0002FD40398000744BF01985FEA806040D4A8
:100AD00005B0F0BD204600F065FEB2E72068314663
:100AE000B84208BF29460A6822F060020A604168DD
:100AF00021F0A001416000210091C168009180684F
:100B000000900098012084F84100606C40F00200E1
:100B10006064204600F038F8A3E7204600F05EFE4F
:100B2000BFE720684168B84221F06001416030466B
:100B300008BF2846016821F0A0010160012084F867
:100B40004100606C40F002006064204600F01CF838
:100B5000B7E72068B84208BF2E46316821F0A001EF
:100B60003160416821F060014160012084F841005A
:100B7000606C40F004006064204600F005F805B0A9
:100B8000F0BD0000704700007047000080B5416B69
:100B9000884780BDF0B581B0002850D0044690F859
:100BA000410050B9002084F8400041F69500C0F69D
:100BB00000006063204600F09BF8022084F84100AA
:100BC00021686269CB6940F6BF75AB43CB610862AF
:100BD000022A4FF000012BD0D4E902022023002A80
:100BE00008BF102321284FF0010038BF012103FA6C
:100BF00001F500F02DFA2169B1F5007F04D1E1681B
:100C000000290CBFED00AD00B0FBF5F0616900EB11
:100C100080004000B0FBF1F04CF6CD410530CCF641
:100C2000CC41A0FB01014FF48072080902EA411196
:100C3000821EFE2A06D3606C40F010006064012022
:100C400001B0F0BD2269D4E9003708431043D4E96C
:100C500002561862D86940F6BF7E46EA050120EACE
:100C60000E00D4F818C041EA0702104340EA0C0015
:100C700040F40060D861206A012831D140F6E510C7
:100C800043F21C42C0F60000C4F20002606302F5A9
:100C9000797502F54060AB4204BF43F21C40C4F2D8
:100CA00000000668AB4226EA0E06066044F2200603
:100CB000C4F2000608BF161D02223260036841EA32
:100CC0000C0119434FF2FF7347F400721940B2F55B
:100CD000007F14BF4FF400624FF4106211430160B3
:100CE00000200121606484F8411001B0F0BD0000D3
:100CF0002DE9F0478AB00446006843F60006C4F2C6
:100D00000006B0424FF000000990CDE90700CDE9A0
:100D10000500CDE90300CDE9010002D00AB0BDE82D
:100D2000F08701200190322002904FF0020801A8C4
:100D3000CDF80C8000F0B8F9002818BFFFF714FCBC
:100D4000002743F630050097C4F2020528690DF12B
:100D5000140940F48040286128694FF0050A00F426
:100D600080400090009800972868494640F00400B1
:100D70002860286800F00400009000980097286818
:100D800040F002002860286800F0020000900098FF
:100D90000820CDE9050806F5E830CDE90777CDF85C
:100DA00024A0FFF745FD4FF4A050CDE9050806F556
:100DB000E6304946CDE90777CDF824A0FFF738FDA6
:100DC00005F5215040F27C05C2F200054FF4806227
:100DD000C5E9000705F1100040214FF400634FF40E
:100DE00000564FF4807C80E84C102846C5E9021775
:100DF000C5E90877FFF782FC002818BFFFF7B4FBAE
:100E0000242000210022A563AC6300F00DF924200A
:100E100000F006F90AB0BDE8F08700007047000056
:100E200010B5044600294FF0010018BF002A00D178
:100E300010BD94F84100012803D194F84000012826
:100E400001D1022010BD012084F84000032084F865
:100E5000410000206064D4F800C06162DCF81C002E
:100E600000F00700052803D0032808BF520000E067
:100E7000520022856285A06B41F6890241F661032A
:100E8000C0F60002C0F60003C0E90F3241F6390295
:100E9000C0F60002C264238D0CF10C02FFF796FC31
:100EA00050B1606C002140F008006064012084F8BB
:100EB000410084F8401010BD002084F840002068F4
:100EC0004168890703D4416841F002014160C1696A
:100ED000490544BF002010BDC16941F48061C16172
:100EE000002010BD80B5006843F60001C4F2000187
:100EF00088420DD140F27800C2F200000268002A58
:100F000008BF80BD40F23230C2F20000012190479C
:100F100080BD000080B5006843F60001C4F2000106
:100F200088420DD140F27800C2F200000268002A27
:100F300008BF80BD40F23230C2F20000002190476D
:100F400080BD000040F2040040F63431C2F20000DF
:100F5000C2F2000100780A6810440860704700007F
:100F600080B543F60040C4F20200016841F400710C
:100F70000160016841F480610160016841F48071A1
:100F80000160032000F060F80F2000F005F800F089
:100F90002BF8002080BD0000B0B540F20402C2F280
:100FA000000240F200011278C2F200014FF47A739D
:100FB0000968B3FBF2F20446B1FBF2F1084600F017
:100FC000A1FB0F2C4FF001050CD858B94FF0FF30A2
:100FD00021460022002500F027F840F20800C2F266
:100FE000000004602846B0BD82B0002043F64001F6
:100FF0000190C4F202014A6842F480424A604A68A1
:1010000002F480420192019A0090086840F08050FA
:101010000860086800F080500090009802B07047A7
:1010200080B500F0FDFE80BD70B514460D46064645
:1010300000F006FF2946224600F0A0FD014630469A
:1010400000F006FF70BD000080B500F013FF80BD0A
:1010500001281CBF0020704743F60400C4F20200C0
:101060004168090242BF48F20000C0F2BB0070476D
:1010700001680268490241F20021C0F27A0102F0DF
:101080003F025CBF42F20041C0F2F401D0F8803070
:10109000B1FBF2F1D0F88000C3F388125143C0F3E2
:1010A0000270B1FBF0F07047F0B581B004460078F3
:1010B00010F0050F2CD06827C4F2472743F67006BE
:1010C0000020C4F202063860FFF786FC054600BF28
:1010D00056F8700C000105D5FFF77EFC401B022876
:1010E000F6D93FE0D4E90110000740EA81107061B1
:1010F00001203860FFF770FC054600BF56F8700C01
:10110000000105D4FFF768FC401B0228F6D929E04E
:10111000207880074FF0000057D543F67006C4F2E0
:101120000206009056F8300C47F2000740F080505D
:1011300046F8300C56F8300CC4F2000700F080502E
:1011400000900098386840F480703860FFF744FCE5
:10115000054600BF3868C00507D4FFF73DFC401BBB
:101160000228F7D9032001B0F0BD306810F44070B8
:1011700013D0E16801F4407188420ED0306840F627
:101180004061C4F24721012220F440700A6000222D
:101190000A6030603068C00719D1E06856F8681CF2
:1011A0004FF6FF4300F4407221F4F811C0F6FF73CC
:1011B0000340B2F5407F08BF194346F8681C316808
:1011C0006FF31F3008433060002001B0F0BDFFF71F
:1011D00003FC054641F2883730688007DDD4FFF70D
:1011E000FBFB401BB8424FF00300F5D9EDE70000D0
:1011F0002DE9F041002800F08B8043F60808C4F286
:1012000002080446D8F8F8030D4600F007008842AB
:1012100007D288F8F853D8F8F80300F00700A8427E
:1012200076D12068810717D5410705D5D8F8001079
:1012300041F4E051C8F80010010705D5D8F80010B6
:1012400041F46041C8F80010D8F80010A26821F0FD
:10125000F0011143C8F80010C0073FD1D8F8F803D7
:1012600000F00700A84207D988F8F853D8F8F80327
:1012700000F00700A8424BD12068410707D5D8F8F5
:101280000010E26821F4E0511143C8F80010000793
:1012900008D5D8F80000216920F4604040EAC10078
:1012A000C8F8000000F054F8D8F8001043F23032CB
:1012B000C1F30311C0F60002515C40F2000220FAB3
:1012C00001F140F20800C2F200000068C2F2000220
:1012D0001160FFF761FE0020BDE8F0816068811EAB
:1012E000022907D258F8081C89015CBF0120BDE81B
:1012F000F08110E0012807D158F8081C89035CBF71
:101300000120BDE8F08106E058F8081C890702D4E6
:101310000120BDE8F081D8F8001021F00301084356
:10132000C8F80000FFF758FB064641F2883700BFB7
:10133000D8F80000616800F00C00B0EB810F8DD090
:10134000FFF74AFB801BB842F2D90320BDE8F081C9
:1013500010B543F60404C4F20204606800F00C0106
:1013600042F200400829C0F2F40007D0042918BF57
:1013700010BD41F20020C0F27A0010BD216801F0DA
:101380003F02216823684902C3F3881105D4A1FBF9
:1013900000010023FEF768FF06E041F20020C0F2E2
:1013A0007A004843B0FBF2F021680222C1F3014108
:1013B00002EB4101B0FBF1F010BD00002DE9F0415E
:1013C00082B0002800F0A2800446007843F60006B0
:1013D000C007C4F2020643D0B06800F00C00042835
:1013E00005D1306880033BD56068C8BB8EE0B0682B
:1013F00000F00C00082802D170684002F1D4656842
:10140000B5F5A02F0AD0B5F5803F0BD0306820F499
:1014100080303060306820F4802006E0306840F48E
:1014200080203060306840F480303060FFF7D4FABC
:10143000002D054611D000BF3068800310D4FFF79F
:10144000CBFA401B6428F7D922E100BFFFF7C4FAAA
:10145000401B64284FF0030055D830688003F5D452
:10146000207880071AD5B06810F00C0F09D0B0684A
:1014700000F00C00082840F08A807068400200F1FB
:1014800086803068800702D5E06801283ED1306848
:10149000216920F0F80040EAC100306020780007A0
:1014A00038D4207840074CD4A5695DB3B06800F00B
:1014B0000C00082840F09E80012D27D07068E1695B
:1014C00000F480028A4221D1216A00F03F028A4260
:1014D0001CD147F6C071626A0140B1EB821F15D181
:1014E000A26A0023CFF6FF7303EBC23200F440314F
:1014F0006FF30F02914209D1E16A00F07060B0EB26
:10150000016F03D1002002B0BDE8F081012002B0DC
:10151000BDE8F0816069002840F20000C4F2472075
:1015200057D00121C0F8801EFFF756FA054600BFCC
:10153000706F8007B5D4FFF74FFA401B0228F7D928
:10154000A6E0306C10F080580AD100200190306C79
:1015500040F080503064306C00F080500190019871
:1015600047F20007C4F200073868C00524D4386881
:1015700040F480703860FFF72FFA05463868C005E0
:101580001AD4FFF729FA401B0228F7D980E0E06857
:10159000002851D00020C4F2472001210160FFF74C
:1015A0001BFA0546306880073FF571AFFFF714FA64
:1015B000401B0228F6D96BE0A568052D50D0012DFF
:1015C00052D0306F20F001003067306F20F00400FF
:1015D0004DE00021C0F8801EFFF7FEF9054600BF70
:1015E000706F80077FF55DAFFFF7F6F9401B0228AB
:1015F000F6D94DE00027C4F2472700203866FFF7F0
:10160000EBF9022D05460BD13068800158D5FFF764
:10161000E3F9401B02284FF00300F5D973E700BF40
:10162000306880017FF56EAFFFF7D6F9401B0228C6
:101630004FF00300F4D966E70020C4F247200021F0
:101640000160FFF7C9F90546306880077FF526AFCE
:10165000FFF7C2F9401B02284FF00300F4D952E70C
:10166000306F40F004003067306F40F001003067A9
:10167000FFF7B2F9002D054641F2883714D000BFBC
:10168000306F800713D4FFF7A7F9401BB842F7D992
:10169000032002B0BDE8F081FFF79EF9401BB8427D
:1016A0004FF003003FF62FAF306F8007F4D4B8F14E
:1016B000000F7FF4F9AE306C20F080503064F3E618
:1016C00004F11C052FCD08430021CFF6FF7140EA3D
:1016D000821001EBC3316FF30F0140EA056008434C
:1016E000706001203866FFF777F9044630688001A2
:1016F0003FF508AFFFF770F9001B02284FF0030019
:10170000F4D900E780B500F011FB80BDFEE70000D2
:1017100080B50168C26ACB6822F8023BC262428E81
:10172000013A4286428E02B180BD4A6822F06002D0
:101730004A60418D002918BF80BD012180F8411009
:10174000FFF720FA80BD000080B543F20441C4F2E7
:101750000001D0F800C044F20C0301F57F7EC4F212
:101760000003C26AF44508BF01F108031B6822F8B0
:10177000023BC262428E013A4286428E02B180BD75
:10178000F44518BF01F540610A6822F060020A6062
:10179000418D002918BF80BD012180F84110FFF75D
:1017A000F1F980BD80B5426A016832F8023B4262BD
:1017B000CB60428D013A4285428D02B180BD4A68BC
:1017C00022F0A0024A60418E002918BF80BD01218D
:1017D00080F84110FFF7D6F980BD000080B5436A5C
:1017E00043F2044133F8022BC4F20001D0F800C0E8
:1017F000436244F20C0301F57F7EC4F20003F4451A
:1018000008BF01F108031A60428D013A4285428DFA
:1018100002B180BDF44518BF01F540610A6822F0AD
:10182000A0020A60418E002918BF80BD012180F806
:101830004110FFF7A7F980BD80B5806B01684A6849
:1018400022F003024A60002141854186012180F88F
:101850004110416C41F008014164FFF795F980BDEA
:1018600080B5C169806B11B1FFF73CFB80BD016899
:101870004A6822F002024A6000214185012180F875
:101880004110FFF72FFB80BD80B5806BFFF742FB57
:1018900080BD000010B584B00446006881680391E3
:1018A00094F84110042924D10399C90705D0406850
:1018B000400602D5204600F047F80398400618D5A8
:1018C00020684168890614D5416821F060014160B3
:1018D00000210291C1680291806802900298012063
:1018E00084F84100606C40F0020060642046FFF71D
:1018F0004BF994F84100032823D10398800706D5BB
:1019000020684068000602D5204600F035F80398AC
:10191000000716D520684168890612D5416821F074
:10192000A00141600021019180680190019801208F
:1019300084F84100606C40F0040060642046FFF7CA
:1019400023F904B010BD000080B50168C26ACB68FD
:1019500022F8023BC262428E013A4286428E002A3F
:1019600018BF80BD4A6822F060024A60012180F8F9
:101970004110FFF753FA80BD80B5426A016832F822
:10198000023BCB604262428D013A4285428D002A81
:1019900018BF80BD4A6822F0A0024A60012180F889
:1019A0004110FFF79FFA80BD2DE9F04F85B040F25E
:1019B00024109FED270BC2F200009FED271BA0F122
:1019C000020A51EC100BCDE9031051EC110B9FED05
:1019D000241B9FED1D0B55EC114B9FED231B4FF46A
:1019E000807B57EC116BCDE9011000BF58EC109BC8
:1019F000DDE903324846414601F090F902460B46C4
:101A000000F002FFDDE9013201F088F941EC100B32
:101A100000F06AFA51EC100B22462B4601F07EF9D9
:101A200001F0F4F82AF8020F4846414632463B4698
:101A300000F0EAFE41EC100BBBF1010BD6D105B072
:101A4000BDE8F08F00BF00BF0000000000000000F4
:101A5000000000000000703F182D4454FB21094095
:101A600000000000C0FFDF40000000000000F03F69
:101A700080B582B00020019043F63000C4F202002D
:101A80000168002241F4001101600068002100F4A7
:101A90000010019001980F20FFF7C6FA0F20FFF702
:101AA000BFFA02B080BD000070B586B0002543F6D5
:101AB00030000595CDE90355CDE901550095C4F2F7
:101AC00002000168002441F0040101600168C4F2D1
:101AD000020401F0040100910099009501680022C0
:101AE00041F0800101600168012601F08001009150
:101AF00000990095016841F001010160016801F061
:101B00000101009100990095016841F00201016016
:101B10000068012100F00200009000982046FEF7C6
:101B200055FF01A92046CDE90166CDE90355FEF731
:101B30007FFE06B070BD000080B540F2DC0043F6C9
:101B40000001C2F20000C4F2000100234BF6803C09
:101B50004FF4007280E80E00C0E90333C0E905C30A
:101B6000C0E90733FFF716F8002818BFFEF7FCFCA2
:101B700080BD0000FEE70000FEE7000000F0070067
:101B800080F00703042B28BF04234FF0FF3C0338E9
:101B90000CFA03F338BF0020994381400CFA00F09F
:101BA00022EA0000084370477047000080B540F209
:101BB000DC00C2F20000FEF7E9FF80BD70470000C4
:101BC00080B510EE100A01F0A1FA9FED0B0B53EC5B
:101BD000102B00F0C1FE9FED0A0B53EC102B01F00F
:101BE0009DF801F043F840F27401C2F20001086070
:101BF00080BD00BF00BF00BF000000000070E740D4
:101C0000000000000000F04170B54FF60062CFF612
:101C1000FF72B2EB412F21D04FF400734A0203EB65
:101C2000412E40F2740140F2700CC2F20001C2F287
:101C3000000C0968DCF8003040F22414C2F2000401
:101C40001D0E34F8155000EB420620F812500232F7
:101C500072450B447580F3D3CCF8003040F2243049
:101C600040F22831C2F20000C2F200010268097895
:101C700002F58072002918BF40F619618A4202609D
:101C800038BF70BD511A016040F2303140F22C3043
:101C9000C2F20001C2F200000978026800294FF088
:101CA000000318BF40F21E318A42B8BF531C00EE39
:101CB000103AB8EEC00AB2EE041A20EE010AB3EEF2
:101CC000041A30EE010A0360FFF77AFF70BD0000CE
:101CD00080B5FFF769FE40F22C30C2F2000000210F
:101CE000016040F23030C2F200000122027040F286
:101CF0002430C2F20000016040F22830C2F200003D
:101D0000027040F27000C2F20000B3EE040A0160FB
:101D1000FFF756FF80BD000080B541F60940C0F6D0
:101D20000000FEF78DFBFEF791FB80BDB0B50138DA
:101D30000024B4EB106F1CBF0120B0BD4EF21005A3
:101D4000CEF2000568604FF0FF300F2100F080F800
:101D50000720AC6028602046B0BD000080B5FFF7CA
:101D6000F1F880BD70B592B006AC20463021FEF788
:101D7000F3FA002543F640000595CDE90355CDE97A
:101D800001550095C4F202000168022641F080511D
:101D90000160006800F080500090009847F2000059
:101DA0000095C4F20000016841F4804101600068C0
:101DB000A82100F4804000900098012006904FF484
:101DC000803007904FF480000D9004200E90119009
:101DD00020460C96CDE90F16FFF7F0FA88B90F20D0
:101DE000CDE901064FF4A05004904FF480500590C7
:101DF00001A805210395FFF7FBF9002804BF12B0E5
:101E000070BDFEF7B1FB00004EF68850CEF2000028
:101E1000016841F47001016070470000FEE70000B6
:101E2000002848BF704700F01F01012202FA01F1AB
:101E30004EF200124009CEF2000242F82010704724
:101E40004EF60C50CEF200000068C0F3022070473E
:101E50004EF6145300F00F02CEF2000309011A44AB
:101E600000F16043B0F1FF3FC8BF03F56442117059
:101E7000704700004EF60C51CEF200010A684FF692
:101E8000FF031A4060F30A2242F0806040F0FD70C8
:101E900008607047FFF764F8FFF764FFFFF704FE80
:101EA000FFF7E6FDFFF748FEFFF712FFFFF734FFED
:101EB000FEE703B401984100009850EAC12018BF22
:101EC00004204A0D18BF40F0010040F2FF72B2EB4F
:101ED000515F08BF40F00200012808BF052002B092
:101EE000704700000000000010B52F499FED2C1B2B
:101EF0002DED020B84B0059820F000408842DCBF35
:101F000000209DED040B32DD2849884209D1049858
:101F100040B94FF00100FEF74EFA00F03DFC06B06C
:101F200010BD05DB9DED040B00F02AFC06B010BDD2
:101F300068469DED040B00F03BF810F0030011D053
:101F4000012818D09DED021B9DED000B02281AD030
:101F500000F04AFA51EC100B00F04AFC06B041ECDC
:101F6000100B10BD9DED021B9DED000B012000F03C
:101F70006FFB06B010BD9DED021B9DED000B00F048
:101F800033FA06B010BD012000F062FB51EC100BDB
:101F900000F02EFC06B041EC100B10BD000000005C
:101FA0000000000000000000FB21E93F0000F07F7E
:101FB0002DE9F14F04462DED020B2DED088B8AB073
:101FC0009FEDE70B80ED020B139EE74826F00045DE
:101FD00085420ADC9DED120B002084ED000B0AB057
:101FE000BDEC088B03B0BDE8F08FE0489FEDE0AB9F
:101FF0009FEDE1BBA84247DDE14F9FEDE39B9FEDE5
:10200000E48B9DED120B53EC1A2B51EC100B002EB0
:102010001CDD00F08DFF41EC100BBD4208D053ECED
:102020001B2B51EC100B00F083FFC4E900010BE007
:1020300053EC192B51EC100B00F07AFF53EC182BDA
:1020400000F076FFC4E900010120C8E700F0DCFBE6
:1020500041EC100BBD4208D053EC1B2B51EC100B84
:1020600000F0D2FBC4E900010BE053EC192B51EC5A
:10207000100B00F0C9FB53EC182B00F0C5FBC4E9B2
:1020800000014FF0FF30AAE7C348A84279DB9DED7D
:10209000120B51EC100B00F09FFB41EC180B9FED65
:1020A000C00B53EC102B00F039FE9FEDBF1B53EC1F
:1020B000112B00F0A9FB00F0A9FD074600F003FE7C
:1020C00041EC190B53EC1A2B00F028FE53EC182BA3
:1020D00000F022FF41EC180B53EC1B2B51EC190BB9
:1020E00000F01CFEDFF8C8A241EC100B4FEA1558B7
:1020F0000125FA4453EC102B51EC180B00F018FF9B
:10210000032DC4E900013DD0C1F30A5005EB451190
:10211000A8EB00001139814234DA0AEB051BB0EE5E
:1021200048AA9BED000BF0EE68AA53EC102B51EC83
:10213000190B00F0F3FD41EC1B0B51EC1A0B53ECA7
:102140001B2B00F0F5FE41EC180B51EC1A0B53EC75
:10215000182B00F0EDFE53EC1B2B00F0E9FE9BED7D
:10216000020B41EC1A0B53EC102B51EC190B00F045
:10217000D5FD53EC1A2B00F0DBFE41EC100B6D1C6F
:10218000B8E70EE0002EA8BF3846BFF628AF94EDA2
:10219000000B51EC100B00F02BFBC4E9000178425E
:1021A0001DE7C6F3130040F4801EC6F30A50A0F2E8
:1021B000F530471100F01F05C5F12000DDF848B0EB
:1021C00008900020069007900520EC467949002DE4
:1021D00007EB0002794408BF51F8221009D051F8EA
:1021E000223001EB8201AB404A68089922FA01F1E2
:1021F0001943A1FB0E26A1FB0B131A449A4234BFCC
:102200000123002303EB06080CEB8003D3E901A6AE
:102210000E448E4234BF0121002192448A4411B100
:10222000924502D903E0924501D2012100E000214C
:10223000C3E901A641444CF82010011EA0F10100A1
:10224000C4DC029800F10050850F0298DDE90367B5
:102250008000DDF8148000F036FD41EC1A0B3046AA
:1022600000F048FD9FED541B53EC112B00F056FD80
:1022700041EC1B0B384600F03DFD9FED511B53EC2C
:10228000112B00F04BFD41EC180B404600F032FDE5
:102290009FED4D1B53EC112B00F040FD41EC190B51
:1022A00051EC180B53EC192B00F0AEFA53EC1B2B2E
:1022B00000F0AAFA53EC1A2B00F0A6FACDE90801B7
:1022C000002008909DED080B53EC1A2B51EC100BDD
:1022D00000F02EFE53EC1B2B00F02AFE53EC182BC3
:1022E00000F026FE53EC192B00F016FE9FED381B74
:1022F00053EC112B00F012FD9FED370B41EC180B46
:1023000053EC102B9DED080B51EC100B00F006FD6B
:1023100053EC182B00F078FA9FED310B41EC180BC1
:1023200053EC102B9DED080B51EC100B00F0F6FC5C
:1023300053EC182B00F068FA41EC100B139810F0D6
:10234000004F06D06D4251EC100B00F051FA41ECF9
:10235000100B284684ED000B41E600000000000051
:102360000000000000000000FB21E93F7CD9024092
:1023700000004054FB21F93F3163621A61B4D03D43
:10238000FB21F93F000000000000601A61B4D03D5D
:102390007370032E8A19A33BFB2139410000000012
:1023A00083C8C96D305FE43F000000000000E03FDB
:1023B0004211000090100000000000000000103EDC
:1023C000000000000000103C000000000000103A77
:1023D000182D4454FB21F93D3326A611460B113C20
:1023E00000000054FB21F93D10B52DED040B2DED3F
:1023F000088B82B0B0EE419AF0EE619A0B9820F013
:1024000000449FED4BABB4F1795F11DA9DED0A0BFF
:1024100051EC100B00F0FAFB002801BFB0EE4A0AA5
:10242000F0EE6A0A02B0BDEC088B04BF04B010BD28
:102430009DED0A0B53EC102B51EC100B00F06EFCD1
:1024400041EC180B3C480621B0EE480AF0EE680A51
:10245000784400F081F853EC182B51EC100B00F08D
:102460005DFC9DED0A0B41EC1B0B53EC192B51EC61
:10247000100B00F053FC41EC190B53EC1B2B51ECEF
:10248000180B00F04BFC53EC192B00F051FD9FEDA5
:102490002C0B41EC190B53EC102B51EC180B00F0EA
:1024A0003DFC41EC100B2848844210DA53EC192B08
:1024B00051EC100B00F03CFD53EC1A2B00F02CFDFE
:1024C00041EC100B02B0BDEC088B04B010BD1F48EE
:1024D000A042BCBF9FED1E1B8DED001B06DBA4F5CB
:1024E00000100190002000909DED001B51EC100B9E
:1024F00053EC112B00F01CFD9DED000B41EC180B73
:1025000053EC102B51EC1A0B00F012FD41EC1A0B9E
:1025100053EC192B51EC180B00F00AFD53EC1A2B5D
:1025200000F0FAFC41EC100BCCE7000000000000CA
:10253000000000000000F03FB40D000000000000AB
:10254000000000000000E03F3333D33F0000E93FCC
:10255000000000000000D23F70B504462DED028B54
:102560004D1E00EBC500B0EE408AF0EE608A90EDA3
:10257000000B35F0060017D053EC182B51EC100B64
:1025800000F0CCFB41EC100B6D1E04EBC50090ED90
:10259000001B51EC100B53EC112B00F035F941EC02
:1025A000100B35F00600E7D1022D36D0042D1CD0DB
:1025B000062D1CBFBDEC028B70BD53EC182B51ECEB
:1025C000100B00F0ABFB94ED0A1B53EC112B00F049
:1025D0001BF953EC182B00F0A1FB94ED081B53ECF6
:1025E000112B00F011F941EC100B53EC182B51ECAE
:1025F000100B00F093FB94ED061B53EC112B00F035
:1026000003F953EC182B00F089FB94ED040B53EC09
:10261000102B00F0F9F841EC100B53EC182B51EC97
:10262000100B00F07BFB94ED021B53EC112B00F020
:10263000EBF853EC182B00F071FB94ED001B53ECFE
:10264000112B00F0E1F8BDEC028B41EC100B70BDDA
:1026500031B504462DED040B2DED0A8BB0EE41BAD9
:10266000F0EE61BA0B989DED0A0B20F00040B0F13E
:10267000795F0DDA51EC100BFFF71BFC042808BF43
:1026800000F09AF89DED0A0BBDEC0A8B05B030BD49
:1026900053EC102B51EC100B00F040FB41EC180BED
:1026A0009DED0A0B53EC182B51EC100B00F036FB90
:1026B00041EC190B2C48B0EE480AF0EE680A0521EF
:1026C0007844FFF749FF9FED2ACBB0EE40AAF0EE29
:1026D00060AA9CB353EC1C2B51EC190B00F01EFBB1
:1026E00041EC1C0B53EC1A2B51EC190B00F016FBB0
:1026F0009FED210B41EC190B53EC102B51EC1B0BF4
:1027000000F00CFB53EC192B00F012FC53EC182BCF
:1027100000F004FB53EC1B2B00F00AFC53EC1C2BC9
:1027200000F006FC9DED0A1B53EC112B00F0F4FBAE
:10273000BDEC0A8B05B041EC100B30BDFFE753EC4C
:102740001A2B51EC180B00F0E9FA53EC1C2B00F09B
:102750005BF853EC192B00F0E1FA9DED0A1B53ECEA
:10276000112B00F051F8E3E7440C000000000000DA
:10277000495555555555C5BF000000000000E03FC4
:1027800010B553EC102B51EC100B00F03DF841EC60
:10279000100B10BD000000009FED050B10B553ECB1
:1027A000102B51EC100B00F0D7F841EC100B10BDC2
:1027B00000000000000000009FED050B10B553EC79
:1027C000102B51EC100B00F0A9FA41EC100B10BDCE
:1027D000000000000000001082B0CDE9000121F0EF
:1027E000004001909DED000B02B051EC100B7047C2
:1027F00081F00041704780F00040704721F00041B7
:10280000704720F00040704710B591EA030F48BFB1
:1028100083F0004300F19483841A71EB030C05D21A
:10282000121943EB0C03001B61EB0C014FEA11542E
:10283000A4EB135CDFF81CE11EEA430F18BF9EEA0D
:10284000445F00F0748021EA045123EA0E0343F44C
:102850008013DCF1200E32D322FA0CFE10EB0E00B6
:1028600023FA0CFE41EB0E01CCF1200E03FA0EFE12
:1028700010EB0E00CCF1200E51F10001B1F5801FDC
:1028800032D201EB045112FA0EF2BDE8104058BFEB
:102890007047401C38BF5FEA420218BF70470028EB
:1028A00014BF20F0010041F100014FEA410313F58C
:1028B000001F38BF7047A1F1C04100F027BB012ABB
:1028C00043EB0302ACF1200CDCF11F0E32BF4FF0E2
:1028D000000E23FA0CF310EB030041EB0451B4EBB0
:1028E000115FD0D0A1EB045101F58011490801EB33
:1028F00004515FEA30000ED350F1000038BF12FAE5
:102900000EFE08D1BDE81040C9E7401C38BF5FEAA1
:102910004202CAD1C3E7BDE810404FEA410313F5B4
:10292000001F38BF7047A1F1C04100F0EFBA9EEA26
:10293000445F08D011EA5E0FBDE8104004BF01F00B
:10294000004100207047BDE8104070B500F090FADB
:1029500064FBBE3E0000E0FF2DE9C04130B4DFF86B
:10296000A4C23CEA111418BF3CEA131400F0ED8035
:102970001CEA111481EA030544EAD57418BF1CEA65
:10298000131500F0C880A4EB050404F17F7404F56E
:1029900000344FF0004545EAC12145EAC32341EA2E
:1029A000505143EA52534FEAC0204FEAC2229942A3
:1029B00008BF904200F09D804FEA13650FF2441665
:1029C000765D4FEA134506FB05F7C7F1807706FBF6
:1029D00007F74FEAD737A7FB03687642A7FB06CE77
:1029E000C8F5803838BFA8F1010807FB08E6A6FB48
:1029F000028C4FF0000EE6FB03CEDCF1000CCEF1B2
:102A0000004E38BFAEF1010EA6FB0C584FF0000788
:102A1000E6FB0E87A1FB08C6A0FB07CE16EB0E0651
:102A20004FF0000545F10005E1FB076515F1E04EAB
:102A30007EBFA4F580345FEA46066D4116F180073B
:102A400045F100054FEA172747EA05674FEA1525C4
:102A50004FEA0666A6F1DE46B6F1805F20D9384619
:102A600005EBC47124F0010C01EB0C11BCF1FE6FFD
:102A700002D8F0BCBDE8008124425CBF01F5801E95
:102A80009EEAC47F02D4F0BCBDE80081244200F17C
:102A90003980A1F1C041F0BCBDE8004100F036BA78
:102AA0004FEAD02040EA41504FEAD1214FEAD222EA
:102AB00042EA43524FEAD323A7FB028607FB036691
:102AC00005FB02661EEA0E0F58BFA6EB0056B6EBDA
:102AD00000564FEA520E4EEAC37E18EB0E0E56EB2E
:102AE000530EBCD518EB02085E417F1C55F1000562
:102AF000B5E74FF480154FF000074FF000064FF098
:102B00000008ACE701F1C04101F000414FF00000C6
:102B1000F0BCBDE800810CEA131511EA0C1F00D0CF
:102B20000CE013EA0C1F00F026804FF0000081EA51
:102B3000030101F00041F0BCBDE80081F0BCBDE83C
:102B4000004181EA030100F0E1B9F0BCBDE80041B9
:102B500070B500F08DF900BF097EFC3E00F007B8AB
:102B60004FF0000081EA030101F00041704781EA63
:102B7000030100F0CBB9F0BCBDE8004122494FF0A1
:102B800000007047FFFDFBF9F7F5F4F2F0EEEDEB16
:102B9000E9E8E6E4E3E1E0DEDDDBDAD8D7D5D4D35B
:102BA000D1D0CFCDCCCBCAC8C7C6C5C4C2C1C0BFA7
:102BB000BEBDBCBBBAB9B8B7B6B5B4B3B2B1B0AFAD
:102BC000AEADACABAAA9A8A8A7A6A5A4A3A3A2A191
:102BD000A09F9F9E9D9C9C9B9A999998979796954C
:102BE00095949393929191908F8F8E8E8D8C8C8BE8
:102BF0008B8A898988888787868585848483838270
:102C0000828181800000FF070000F87F4FEA4103C6
:102C10004FEA5353A3F58063D3F11E03C8BFD3F12A
:102C2000210C0CDD4FF0004242EAC12242EA505230
:102C300032FA03FC8CEAE17CACEBE1707047102BBC
:102C4000C4BF0020704703F5787CBCF1FF3F04D07F
:102C50006FF0004282EA2100704770B500F008F979
:102C60004992248000207047F2E700004FEA115398
:102C7000A3F58063D3F11E03A8BFD3F1200C08DBBA
:102C80004FF0004242EAC12252EA505232FA03F0B7
:102C9000704709420BD4102BC4BF0020704703F5C6
:102CA000787CBCF1FF3F05D04FF0FF3070474FF00C
:102CB0000000704770B500F0DBF800BF4992248037
:102CC00000207047F0E710F0004248BF4042B0FAE1
:102CD00080F310FA03F10AD0C3F11D0303F58063FA
:102CE00002EB03524FEA415002EBD12170474FF003
:102CF00000007047B0FA80F310FA03F10AD0C3F174
:102D00001D0303F580634FEA03524FEA415002EB83
:102D1000D12170474FF000007047000070B5DFF818
:102D200048C11CEA111E1EBF1CEA13159EEA0C0FB7
:102D300095EA0C0F00F06F8081EA03044EEAD47E1E
:102D4000AE4421EA4C1123EA4C1341F4801143F4C0
:102D50008013AEF17F7EA1FB024CA0FB0365361908
:102D600055EB0C05A1FB034C4CF10003A0FB021C2E
:102D700016EB0C06654153F10003094218BF46F0FB
:102D8000010613F4007F0BD14FEA03314FEA0530FF
:102D900041EA155140EA165034036FF003020AE08D
:102DA0004FEAC3214FEAC52041EA555140EA565047
:102DB000F4026FF0020202EB2E4201EB025585EAAB
:102DC000CE710AD05FEA440C18BF24F0004450F1E1
:102DD000000041F1000120EAD47040F2FE7C62451F
:102DE00000D270BDA84214BF4FF080444FF0404461
:102DF000002E08BF0024BEF1806FA8BFA1F1C04122
:102E0000BDE8704080F2828001F1C04101F00041D4
:102E10004FF0000070470CEA13159EEA0C0F18BF24
:102E200095EA0C0F06D081EA030E4FF000000EF079
:102E3000004170BD00F01CF88900013E00F007B8A9
:102E400000F009B84FEA430C5FEA5C5C08D081EA05
:102E5000030100F05BB84FEA410C5FEA5C5CF6D11D
:102E600002494FF0000070470000FF070000F87FA4
:102E70000EF1020E2EF0030E5EF8046B364205D4FE
:102E8000012A43EB030515F5001F12D8012841EB79
:102E9000010C1CF5001F0CD80ED14FEAD17C0CEBB5
:102EA0004C0C0CF1020C15F5001F08BF4CEBD37C49
:102EB00004E04FF0080C01E04FEAD37C0CEB4C052A
:102EC00026FA05F606F00706B6F1040C06D20EEB5C
:102ED000860CBDE870404CF0010C6047DFE80CF058
:102EE000090B02024FF00041A1F500214FF0000054
:102EF00070BD19461046012851EB010418BFD4F5E6
:102F0000001484BF002001F0004170BD0808A0F546
:102F100000114FEA3101704710B591EA030F81F0BB
:102F200000413FF579AC83F0004300F009B80000A0
:102F300010B591EA030F48BF83F000433FF56CAC36
:102F4000841A71EB030C07D28CF0004C121943EB7E
:102F50000C03001B61EB0C014FEA1154A4EB135C52
:102F6000DFF8A4E11EEA430F18BF9EEA445F00F0B9
:102F7000B48021EA045123EA6E035242C3EB6E038C
:102F800038BF5B1EDCF1200E25D322FA0CFE10EBBD
:102F90000E0043FA0CFE41EB0E01CCF1200E03FAB9
:102FA0000EFE10EB0E00CCF1200E51F1000129D4E1
:102FB00001EB045112FA0EF2BDE8104058BF704701
:102FC000401C1CBFB2F1004F704700280CBF491CC9
:102FD00020F00100704712EB020E43EB030218BF12
:102FE0004FF0010E4EEA4202ACF1200CDCF11E0E55
:102FF00056D943FA0CFE10EB0E00CCF11E0E51F127
:10300000FF31D5D50EF1010E12FA0EFE404141EB13
:10301000010101EB445C5FEA5C5C10D901EB0451F7
:1030200010EBDE7038BFBEF1004FBDE8104018BF96
:10303000704700280CBF491C20F00100704734D2B3
:103040004FEAD42C24F4006411F500111BD0B1FA1E
:1030500081F20B3AA41AA41ED2F12003914030FA57
:1030600003F31943904001EBCC7101EB0451002CA8
:10307000BDE81040A8BF704701F1C04101F0004118
:103080004FF000007047B0FA80F310FA03F102D15C
:10309000BDE810407047E41A173C4805C90AE2E74A
:1030A00001EB0451BDE81040704749104FEA300071
:1030B00001EB0451BDE8104002E04FF00001704701
:1030C0004A0008BF0042F8D0B2F5001F28BF704781
:1030D00001F000414FF0000070479EEA445F07D0C6
:1030E00011EA5E0FBDE8104004BF002100207047C8
:1030F000BDE8104070B5FFF7BBFE00BF40DFF63EF5
:10310000104683F0004170470000E0FF43004FEAA3
:10311000D30C4FEA3C0C43401FBF40070CF16051F9
:1031200013F0FE4F70471CF0006F03D10CF000410C
:10313000002070470CF0004343EA507040EACC0096
:1031400010B500F00EF800BF000000924FEA000139
:10315000FFF7DCBE4FF00041A1F500214FF0000069
:1031600070470EF1020E2EF0030E5EF8044B24425F
:1031700004D44FEA4102B2F17F4F11D84FEA400325
:10318000B3F17F4F0CD80ED14FEAD07C0CEB4C0C36
:103190000CF1020CB2F17F4F08BF4CEBD17C04E084
:1031A0004FF0080C01E04FEAD17C0CEB4C0324FA01
:1031B00003F404F00704B4F1040C06D20EEB840C03
:1031C000BDE810404CF0010C6047DFE80CF0070848
:1031D00002024FF00040A0F5800010BD08464200FA
:1031E00018BFD2F1807288BF00F0004010BDF1EE30
:1031F000100A4FF6FF71C0F2C03120EA010040F022
:103200004070E1EE100A70474C5555555555A53F95
:103210007751C1166CC156BF9015CB19A001FA3E6B
:10322000AD529C804F7E92BEC4B1B4BD9EEE213E95
:10323000D43888BEE9FAA8BD00004054FB21F93F0C
:103240003163621A61B4D03D0000601A61B4D03DB0
:103250007370032E8A19A33B0000002E8A19A33B2A
:10326000C14920259A837B3900000000000000003E
:103270006E83F9A22915444ED15727FCC0DD34F5E1
:10328000999562DB4190433CAB6351FE61C5BBDE67
:103290003A6E24B7E0D24D42EA2E49061C92D1097B
:1032A0001CEB1DFE3EA729B1F53582E88444BB2EF8
:1032B00026709CE9417E5FB439D69139F439538345
:1032C0008B5F849C3B28F9BDFF97F81F0F9805DEA4
:1032D0008B112FEF1F6D0A5ACF7E366DB709CB27A2
:1032E000663F464F2DEA5F9EC7BA27757BF1E5EB37
:1032F000F739073DEA92528AB15FFB6B085D8D1F7B
:103300004630035600000000A6F810111111813F4D
:10331000D561C119A0012ABF7DFEB157E31DC73E8B
:10332000EB9C2B8AE6E55ABE7CD5CF5A3AD9E53DCF
:103330000000000000000000010203040607080965
:10334000603300080000002010000000C4010008E5
:10335000703300081000002028110000E001000870
:103360000024F40001000000100000000000000034
:040000050800018965
:00000001FF
