:020000040800F2
:10000000E0110020D5020008C53D0008D1330008EA
:10001000C13D0008D9150008F143000800000000A8
:10002000000000000000000000000000393E000851
:100030002919000800000000F53D000821410008D2
:10004000EF020008EF020008EF020008EF020008CC
:10005000EF020008EF020008EF020008EF020008BC
:10006000EF020008EF020008EF020008EF020008AC
:10007000EF020008EF020008EF0200085D18000818
:10008000EF020008EF020008EF020008EF0200088C
:10009000EF020008EF020008EF020008EF0200087C
:1000A000EF020008EF020008EF020008EF0200086C
:1000B000EF020008EF020008EF020008EF0200085C
:1000C000EF020008EF020008EF020008EF0200084C
:1000D000293E0008EF020008EF020008EF020008C6
:1000E000EF020008EF020008EF020008EF0200082C
:1000F000EF020008EF020008EF020008EF0200081C
:10010000EF020008EF020008EF020008EF0200080B
:10011000EF020008EF020008EF020008EF020008FB
:10012000EF020008EF020008EF020008EF020008EB
:10013000EF020008EF020008EF020008EF020008DB
:10014000EF020008EF020008EF020008EF020008CB
:10015000EF020008EF020008EF020008EF020008BB
:10016000EF020008EF020008EF020008EF020008AB
:10017000EF020008EF020008EF0200080000000094
:10018000EF020008EF02000800F002F800F092F819
:100190000AA090E8000C82448344AAF10107DA45E2
:1001A00001D100F087F8AFF2090EBAE80F0013F0A2
:1001B000010F18BFFB1A43F0010318472461000028
:1001C00044610000103A24BF78C878C1FAD85207B9
:1001D00024BF30C830C144BF04680C6070470000C1
:1001E0000023002400250026103A28BF78C1FBD840
:1001F000520728BF30C148BF0B6070476E2900F01E
:10020000EF81702900F03983662905F00987652997
:1002100005F00687672905F00387612905F0028745
:1002200003681B0A28BF41F08001692900F09C8106
:10023000642900F09981752900F096816F2900F0FA
:10024000C782782900F00583E92900F06182E4295A
:1002500000F05E82F52900F05B82EF2900F0C48295
:10026000F82900F004830368DB0928BF41F080010E
:10027000632901F00980732901F00E80E32901F060
:100280001980F32901F01E80002070471FB505F08A
:10029000BAFE01F071F804000020002105F09EF97B
:1002A000401C60600020002105F082F9E0601FBD65
:1002B00010B510BD01F032F81146FFF7E7FF04F06A
:1002C000D3F801F00FF903B4FFF7F2FF03BC01F01C
:1002D00051F900000948804709480047FEE7FEE75A
:1002E000FEE7FEE7FEE7FEE7FEE7FEE7FEE7FEE7E6
:1002F00004480549054A064B70470000CD410008F7
:1003000089010008E00B0020E0110020E00D002032
:10031000E00D002053EA020C00F069802DE9F04B5B
:100320004FF00006002B1FBFB3FA83F503FA05F464
:1003300024FA05F65E4012BF1643B2FA82F502FABD
:1003400005F4C5F120051EBF22FA05FC44EA0C04A1
:10035000203556EA044C4FEA144418BF641C4FF091
:1003600000084FF00009904271EB030C39D30029CB
:1003700019BFB1FA81F701FA07F6B0FA80F700FA6F
:1003800007F6C7F120071EBF20FA07FC46EA0C0655
:100390002037B6FBF4FCA7EB0507103F07F01F0B57
:1003A000CBF120062CFA06F60CFA0BFB44BFB34641
:1003B0000026202FA4BF5E464FF0000B5BEA060C20
:1003C00008BF4FF0010B19EB0B0948EB0608ABFB1C
:1003D000027C06FB02CC0BFB03CCC01B71EB0C01B7
:1003E000C1E70B46024641464846BDE8F08B13B5CF
:1003F000084318BF4FF0FF300146AFF30080BDE85F
:100400001C4070477CB51D4616460C00009001D07C
:100410002044401E074B7B442A46694601903046E3
:1004200000F0F7F805461CB10020694600F004F919
:1004300028467CBD290200004FF0000200B513469B
:1004400094469646203922BFA0E80C50A0E80C50F4
:10045000B1F12001BFF4F7AF090728BFA0E80C50A5
:1004600048BF0CC05DF804EB890028BF40F8042B9E
:1004700008BF704748BF20F8022B11F0804F18BF0B
:1004800000F8012B704770477047704710B500F0B7
:10049000C3FA006810BD10B5044600F0BDFA046050
:1004A00010BD70B5044685690068C10601D53026C7
:1004B00000E02026C00707D070BDD4E901213046F6
:1004C0009047206A401C20626D1EF6D570BD70B545
:1004D000044685690078C00707D170BDD4E90121C1
:1004E00020209047206A401C20626D1EF6D570BD0A
:1004F00009684A0501D540B27047C905FCD500B26C
:10050000704709684A0501D5C0B27047C905FCD5D6
:1005100080B2704770B50C460546012A05D0287890
:10052000800600D5EA69002302E0012305E05B1C98
:10053000934202D2E05C0028F9D1A869E618C01AFB
:10054000A861286A184428622846FFF7AAFF04E039
:10055000D5E9012114F8010B9047B442F8D328469D
:10056000FFF7B5FF70BD00002DE9F04106460024FD
:1005700010687529314616A510D0FFF7B9FF00287D
:1005800002DA404213A507E031688A0701D512A5B7
:1005900002E0490704D511A5012401E0FFF7B1FFEE
:1005A00000210A2206F1240709E0B0FBF2FCB0FBAF
:1005B000F2F302FB1C00303078541846491C002826
:1005C000F3D123462A463046BDE8F04100F06DBA2B
:1005D000000000002D0000002B00000020000000A3
:1005E00011680268006A530501D508700AE0D30556
:1005F00001D5088006E0130603D5C217C1E9000241
:1006000000E008600120704701694A1C0261087817
:10061000704700B58FB0CDE9013100210591054942
:100620007944CDE903101146684600F031F90FB066
:1006300000BD0000E5FFFFFF0A6802F8010B0A6039
:100640007047D1E900239A4202D2531C0B6010700C
:10065000704700002DE9FF5F15468A460446DFF823
:10066000AC80F8440027D8E900103E46CDE90010E0
:1006700010E03AF816106A4602A800F027FE411C66
:1006800007D02178890603D5E269391891420DD83F
:100690000744761C2078800602D5E069B84205DD63
:1006A000AE42E6DB3AF816000028E2D1A069C01B92
:1006B000A0612046FFF7F5FED8E90010CDE9001053
:1006C000002017E03AF818106A4602A800F0FEFD74
:1006D000B0F1FF3F81460BD000250DF1080B05E07E
:1006E000D4E901211BF8050090476D1C4D45F7D357
:1006F00008F10100B0428046E4DB206A3844206201
:100700002046FFF7E4FEBDE8FF9F0000C25900004D
:100710002DE9F0418046D21D22F007020025D2E9E2
:100720000002F52915A614D0011E72F1000106DAA7
:100730000023D0EB030063EB020211A608E0D8F817
:1007400000108B0701D50FA602E0490701D50EA6C0
:1007500001251146002408F1240704E000F060F9A7
:1007600030323A55641C50EA0102F7D12B4632462A
:1007700021464046BDE8F04100F097B90000000076
:100780002D0000002B0000002000000030B40021EC
:1007900000F1240408E002F00705D208303542EAEF
:1007A0004372DB086554491C52EA0305F3D104681F
:1007B000002310A2250708D504F020040C4304D020
:1007C000C46901230CA2641EC46130BC00F06DB981
:1007D00010B5044621461068FFF793FE02462046F6
:1007E000BDE810400023D1E7D21D22F00701D1E976
:1007F0000023CBE70000000030000000F0B40D46FD
:100800000188090502D5214C7C4402E01F4C7C4440
:100810000E34002100F1240608E002F00F0712094F
:10082000E75D42EA03721B097754491C52EA030749
:10083000F3D102780023120704D5702D06D009B138
:10084000022311342246F0BC00F02FB901231034EA
:10085000F8E770B504460D4621461068FFF751FED3
:10086000024629462046BDE870400023C6E7D21D57
:1008700022F00703D3E90023C0E70368126843F0BE
:10088000200303600823C3610023B7E72458000056
:100890002DE9F05F894604464FF0000ADFF874B195
:1008A000FB44C0F820A02046E1688847002874D0A7
:1008B000252806D0D4E901219047206A401C2062F7
:1008C000F1E700265F462046E16888472028054674
:1008D00007DB312D05D2781910F8200C08B106433A
:1008E000F1E7B00701D526F00406C4F81CA00027E4
:1008F000C4F818A02A2D09D0284604F045FE38B3C4
:1009000004EB8708303DC8F8185019E059F8041B6B
:10091000204604EB87029161E1688847012F054674
:1009200018D1E069002820DA26F020061DE0D8F86A
:10093000180000EB800005EB40003038C8F81800C4
:100940002046E1688847054604F01EFE0028EED1E7
:10095000012F0AD02E2D08D12046E16888477F1C40
:100960000546022F46F02006C4DBA069002803DA02
:10097000404246F00106A061F00701D026F01006C3
:100980006C2D0BD0682D09D04C2D39D06A2D35D067
:10099000742D35D07A2D33D016E038E0E1682F463B
:1009A00020468847B842054609D16C2F26D04FF41F
:1009B0008060E168064320468847054604E06C2FC6
:1009C0001AD04FF4807006430DB3A5F141001928E9
:1009D00002D8203546F400664A462946204626605D
:1009E0004E46FFF70BFC80B101280BD0F61D26F018
:1009F000070000F1080956E74020E4E78020D8E727
:100A00000020D6E706F104094DE7284652E7206AA0
:100A1000BDE8F09FB4570000004870471000002068
:100A200030B5B0F10A0271F100034FEA900E4EEAC0
:100A3000817EB0EB0E0061EB91014FEA101E4EEA91
:100A4000017E10EB0E0041EB11114FEA102E4EEA21
:100A5000016E10EB0E0041EB11214FEA104E4EEAF1
:100A6000014E10EB0E0041EB1141401841F1000125
:100A70004FEAD00040EA41704FEAD1014FEA8104C9
:100A800044EA907410EB800544EB01046D1944EBCB
:100A90000404521BA3414FF0000348BF0A3200D5A3
:100AA00030BD401C41F1000130BD2DE9F0470D463D
:100AB00099469246044600F124080168880604D548
:100AC000E06921F01001216000E00120A84201DD71
:100AD000471B00E00027A1697A1902EB0900081AF8
:100AE000A0612078C00602D42046FFF7DAFC002679
:100AF00008E0D4E901211AF806009047206A401C5A
:100B0000761C20624E45F4DB2078C0060AD52046CC
:100B1000FFF7C7FC06E0D4E9012130209047206AA6
:100B2000401C2062381EA7F10107F4DC07E0D4E97D
:100B3000012118F805009047206A401C2062281EF9
:100B4000A5F10105F3DC2046FFF7C1FC2078000683
:100B500002D50220BDE8F0870120FBE72DE9FF4F19
:100B60000C461E464FF0FF378BB0D2E90001DDF88E
:100B700060800A908A46C1F30A5505B93D460021B6
:100B800008464FF00000BAF1000F00F4400005DA0B
:100B900000EB80004FF4400101EA50004FEA905909
:100BA000B9F1010F00DDB9460A9850EA4A000ED0AB
:100BB00044F61050A5F2FF3545432F14B8F1000F4D
:100BC0001ED07542291E1EDDC9F100021CE0B8F1DD
:100BD000010F4FF0000001D0302103E0F24305E0A7
:100BE0002154401CB042FBDB30460022002121543E
:100BF0000B99C1F80880C1E900200FB0BDE8F08F63
:100C0000BD1B6D1CDEE74A4600DA694206A800F00B
:100C1000F7FB06AB93E8070003AB83E807005046F9
:100C20000A9903F059FC8DE80700A0F500501F3821
:100C300000900398002D0ADD42F21F014A46084445
:100C4000002303A90390684603F0C2FE09E0A0F563
:100C500000504A461F38002303A90390684603F05A
:100C6000CCFE8DE807000004000C03D04FF0FF30ED
:100C7000410800E01046B8F1000F03D000220092B6
:100C800015461EE0751E05D4FFF7CAFE30326255C8
:100C90006D1EF9D5B3460122084302D000227F1C05
:100CA00004E02078302801D100227F1E002A099715
:100CB00084D01DE0112D07DAFFF7B2FE3032625505
:100CC0006D1C50EA0102F5D1084302D00098C8B16A
:100CD0000EE00021681E05E0235C625C6354225430
:100CE000401E491C8142F7DBAB46A81B401E099001
:100CF000002004F80B000B98099AC0F80880C0E99E
:100D0000002B7AE711264FF0000857E72DE9F04F46
:100D100088460446D21D22F0070191B0D1E90001B6
:100D2000CDE90A0103F0A0FF02460B98C00F01D0E5
:100D30002D2007E02068810701D52B2002E020212B
:100D400001EAC000032A099001D0072A05DB034607
:100D50004146204600F014FB0BE12078800601D5C7
:100D6000E06900E00620B8F1650F814606D0B8F1D1
:100D7000660F18D0B8F1670F70D131E00020B9F1DB
:100D8000110F009001DB112301E009F101030AAA10
:100D900001A90CA8FFF7E2FEDDE90C70002609F1BD
:100DA0000105834647E001204B4600904FF0004785
:100DB0000AAA01A90CA8FFF7D1FEDDE90DB00C9934
:100DC0005D46002610B909F101000D18B9EB0500C8
:100DD00003D4C0F1FF3609F10105A5EB09002BE0B2
:100DE000B9F1010F01DA4FF001090020B9F1110F3B
:100DF0000090484601DD112300E003460AAA01A93C
:100E00000CA8FFF7ABFEDDE90C704D4600268346CB
:100E1000207800070AD4AB4500DA5D4601A8012D11
:100E200004DD411911F8011C302907D04F4502DAC1
:100E300017F1040F04DA012082460FE06D1EEEE781
:100E4000002F02DCED1B3E4403E0781CA84200DDCD
:100E50007D1CB81B00F1010A4FF000472078000705
:100E600003D4AA4501DB4FF0FF3A0021B7F1004F50
:100E70000DF143088DF8431024D002202B23002FBE
:100E800001DA7F422D230A21021EA0F1010000DCBD
:100E90005FB197FBF1FC97FBF1F201FB1C7C17465D
:100EA0000CF1300C08F801CDEEE7A8F10100037059
:100EB0002188090501D5452100E06521A0F101083F
:100EC00000F8011C09980FA9A1EB0807FF1D00B14C
:100ED0000120411901EBEA70A1693844081A401E4B
:100EE000A0612078C00602D42046FFF7DAFA0998FC
:100EF00028B1D4E901219047206A401C2062207863
:100F0000C00622D52046FFF7CCFA1EE0002E04DBF7
:100F1000B34502DD01A8805D00E03020D4E9012165
:100F20009047206A401C2062761CAAF101005FEA0B
:100F3000000A0AD100F020FAC0680168405CD4E9D8
:100F400001219047206A401C2062281EA5F101055E
:100F5000DCDC07E0D4E9012118F8010B9047206A96
:100F6000401C2062381EA7F10107F3DC2046FFF782
:100F7000AEFA032011B041E62DE9F04F04460D46CC
:100F8000D21D22F0070089B0D0E9009748463946C3
:100F900003F06AFE0246F80F01D02D2307E0206817
:100FA000810701D52B2302E0202101EAC0038DF83F
:100FB00020300BB1012000E00020032A824601D03E
:100FC000072A04DB2946204600F0DAF93FE12078C1
:100FD000800601D40D2500E0E569C7F30A560D2D02
:100FE00049DA00214FEA175B08464FF00000002F56
:100FF00000F4400007DA00EB80004FF4400100EB02
:10100000D07001EA60008115012901DD4FF0FF3148
:1010100000224FEA850CBCF1180F06D31346ACF141
:1010200018004FF08052C24003E04FF4801323FABF
:101030000CF30CF10C0CBCF1200F04D3ACF1200C20
:1010400009FA0CF001E007FA0CF000294FF0004813
:1010500001DD18B90FE00ED140450CD319EB0209A0
:101060005F4121B9404502D19F4329EA0209BBEB08
:10107000175F00D0761C2088000502D57B48784495
:1010800002E07A487844193808AA302302F80A3076
:10109000037C0AF10101002E0AF1020A53546A4648
:1010A00002DC4FF0300101E04FF031014FF0010858
:1010B0008DF8001002D0A6F2FF3603E059EA47018E
:1010C00000D06B4E002D02DC2178090704D54FF0CB
:1010D00002082E218DF80110C44600210BE0C7F351
:1010E00003433F01C35C491C6D1E02F8083005290B
:1010F00008F1010801DA002DF1DC00210CE000EB21
:101100001973491C1B786D1E082902F808304FEA34
:10111000091908F1010801DA002DF0DC21688B06BD
:1011200002D516E0A8F10108E04505DD02EB080351
:1011300013F8013C302BF5D0B8F1000F09DD02EBBC
:10114000080313F8013C2E2B03D1090701D4A8F1A1
:101150000108002D05DD3E2102F808106D1E08F182
:101160000108407C002E02F8080008F1010804DAAA
:101170002D20764202F8080002E02B2002F8080039
:101180000A214FF47A70864208F101080BDB96FBC6
:10119000F0F3303302F8083096FBF0F308F1010861
:1011A00000FB136601E0642E0CDB642096FBF0F379
:1011B000303302F8083096FBF0F308F1010800FB29
:1011C000136601E00A2E06DB96FBF1F0303002F8E0
:1011D000080008F1010896FBF1F001FB10603030C7
:1011E00002F80800A16908F1010808EB050202EB0A
:1011F0000A00081AA0612078C00602D42046FFF732
:1012000050F9216A08AE01EB0A00206204E0D4E93B
:10121000012116F8010B9047BAF1010AF7D22078A4
:10122000C00602D52046FFF73CF96E4609E016F8E5
:10123000010B3E280FD0D4E901219047206A401CC1
:101240002062B8F10108F2D22046FFF740F909B058
:101250000320BDE8F08F206A2844206203E0D4E92F
:101260000121302090476D1EEBD3F8E72951000093
:1012700002FCFFFF10B5436913B1AFF3008001E03A
:10128000FFF748F9012010BD127800F124010A701F
:1012900000224A700122EDE711684FF0FF32E9E7C2
:1012A00010B5436913B1AFF3008001E0FFF7D2F945
:1012B000012010BD128800F1240182840022C28422
:1012C0000122EDE711684FF0FF32E9E72DE9F04127
:1012D00016460C46054600F047F8036893F80101EE
:1012E000012807D0FF2C12D8185D80B101202C7086
:1012F000BDE8F081D3F807013246214603F2071317
:10130000C7182846BC46BDE8F041002360474FF0AF
:10131000FF30EDE700487047100000207546FFF7EA
:10132000F9FFAE4605006946534620F007008546A2
:1013300018B020B5FEF7DCFFBDE820404FF00006F6
:101340004FF000074FF000084FF0000BAC46ACE840
:10135000C009ACE8C009ACE8C009ACE8C00921F09C
:1013600007018D467047000010B500F005F8001D1C
:1013700010BD00BF694200000048704730000020E7
:101380002DE9F0411F46044603260168072A01F4AF
:10139000006004DB08B116A505E016A503E008B15E
:1013A00015A500E015A521F010002060A069C01E61
:1013B000A0610FB1401EA0612046FFF772F84FB147
:1013C000D4E9012138469047206A401C2062C01CA5
:1013D000206206E0206AFAE7D4E9012115F8010B42
:1013E0009047761EF8D22046FFF771F8BDE8F081ED
:1013F0004E414E006E616E00494E4600696E6600B9
:101400002DE9F047814616468AB0354878440DC824
:101410008DE80D0032487844801C03AC0DC884E888
:101420000D0041F69B300844372190FBF1F290FB10
:10143000F1F5A5F1800501FB12041B3C02D56442C5
:10144000012000E00020DFF898A080460027FA4441
:10145000AAF1BE0A0EE0E0070AD03246684607EB62
:10146000470101230AEB810103F0C7FA8DE8070069
:1014700064107F1C002CEED1194F7F44AE3F19E061
:10148000E80715D007EB04100DF1180A90E80E00DC
:101490008AE80E00C068F04201D1981908903246DF
:1014A000012306A903A803F0A8FA03AB83E8070009
:1014B0006D10641C002DE3D14FF0010332466946E4
:1014C000B8F1000F03A802D003F082FA01E003F0A4
:1014D00094FAC9E90001C9F808200AB0BDE8F0870C
:1014E0002C4E000010B50446AFF300802046BDE846
:1014F0001040FEF7E8BE000030B44FF0013C50F859
:10150000042B51F8043BCCFA52F4D51A20D1FCB983
:1015100050F8042B51F8043BCCFA52F4D51A17D1E9
:10152000B4B950F8042B51F8043BCCFA52F4D51A54
:101530000ED16CB950F8042B51F8043BCCFA52F49C
:10154000D51A05D1002CDAD030BC4FF0000070471E
:1015500029BAB1FA81F111F01801D1F120008440CB
:10156000F2D1CA40CB4012F0FF0213F0FF0330BCAF
:10157000D01A704701491820ABBEFEE726000200D2
:101580007047000040F27801C2F200010860704725
:10159000B0B540F27805C2F200052A6852B140F2B7
:1015A000D634C2F200042046002190472A68204623
:1015B0000121904740F2381040F2D631C2F20000CB
:1015C000C2F200014FF4806201F09EF9002818BFBA
:1015D00000F0ACF9B0BD0000FEE70000B0B582B08D
:1015E00000240020C4F202048DF8070020460221E6
:1015F000002200F0E1FB012000F0FCFA204602216D
:10160000012200F0D9FB0A2000F0F4FA02F016FCE7
:1016100040F27C01C2F20001087040B10DF10701F7
:101620004FF4803001F0C6FF50B14DA003E046F208
:10163000AC20C0F6000002F0D3FD002002B0B0BD27
:101640009DF8071046F26C20C0F6000002F0C8FDBD
:101650005220C0F20200022102F01CF90624C0F25E
:1016600001042046022102F015F9082002F0C4FB13
:10167000022000F0BFFA2046002102F00BF9012001
:1016800000F0B8FA042000F0D3F8022000F0C0F80F
:101690001825C0F204052846042102F0FBF8681C56
:1016A0000A2102F0F7F84FF4A020002102F0F2F82E
:1016B0000125C0F205052846002102F0EBF805F1EE
:1016C0000900072102F0E6F805F10A000F2102F0F7
:1016D000E1F8E01D002102F0DDF8002000F0A0F8A4
:1016E000202000F0ADF80325C0F2090528460F219F
:1016F00002F0D0F8681C002102F0CCF8402002F083
:101700007BFB4FF40020102102F0C4F84FF430208E
:10171000002102F0BFF80A342046992102F0BAF8FD
:101720003225C0F208052846202102F0B3F8102027
:1017300002F062FB022000F05DFA2046002102F078
:10174000A9F82846002102F0A5F8002000F042F890
:1017500011A002F045FD9DF8070002B0B0BD00BF2A
:101760005B435334333133315D20E5AF84E5AD98CD
:10177000E599A8E8AFBBE58F96E8B685E697B62C65
:1017800020E8B7B3E8BF872044414320E5889DE5C2
:10179000A78BE58C960D0A005B435334333133310C
:1017A0005D20E5889DE5A78BE58C96E5AE8CE68807
:1017B00090202839366B487A2F31366269742F535E
:1017C0006C6176652FE5BFABE6BB9AE9998D290D73
:1017D0000A000000B0B582B0032504460020C0F224
:1017E00009058DF807000DF10701284601F0E2FE1A
:1017F0009DF80700002C20F0030018BF03308DF87F
:101800000700C1B2284602F045F802B0B0BD0000A2
:1018100080B501460C20C0F2010002F03BF880BD0B
:1018200080B501464FF4102002F034F880BD00006E
:1018300080B501460B20C0F2010002F02BF880BDFC
:10184000B0B501250446C0F209052846214602F03C
:1018500021F8681C214602F01DF8B0BD80B540F2A9
:101860008400C2F2000000F065F880BDD0F800C02E
:101870006FF00F024AF6AB2352FA8CF2CAF6AA2393
:101880000146A2FB0330000905A31B5C40F2FF30B8
:101890002CEA00005F2A88BF0430C1E916037047B4
:1018A00000061016000610168269816AB2F5005F04
:1018B00006D06AB9022912D0012914D0D1B90EE09C
:1018C000032917D8DFE801F0020B020F012070474F
:1018D00003293CBF012070471CBF00207047C06A2D
:1018E000C0F300607047C06AA0F1C070B0FA80F029
:1018F000400970470020704780B5D0F800C0D0F88C
:1019000008E0DCF80000BEF1400F20F48020CCF8A5
:1019100000000846CCF8043004BF10460A46CCF854
:101920000800CCF80C2080BD7047000072B600BFE4
:10193000FEE70000F0B581B004460020009040F2C0
:101940000000C2F200000268D4E9166048F2B51344
:1019500037680821C1F64E3381403942A2FB032586
:101960000CD0226813685B0708D5136823F00403C2
:101970001360B160616D41F0010161650121814039
:10198000394208D022685269120604D5B160616DEF
:1019900041F00201616504218140394208D022688A
:1019A0001268920704D5B160616D41F00401616570
:1019B00010218140394215D020680268120711D5E4
:1019C000B16002680168520306D4C90506D40168F3
:1019D00021F00801016001E0080342D4216C09B143
:1019E00020468847E16D202000FA01F23A4244D0B7
:1019F00020680368DB0640D5B26094F83530026891
:101A0000052B1ED122F016020260426922F08002EC
:101A10004261226C0AB9A26C1AB1026822F0080273
:101A200002603F208840B060012084F83500216DBD
:101A30000020002984F8340040D02046884701B0B7
:101A4000F0BD0168520310D4C90512D4016821F019
:101A500010010160012084F83500002084F8340072
:101A600007E0A16C0029BBD1BCE7080301D4616C7D
:101A700000E0E16B09B120468847606DF0B1606D10
:101A8000C00717D0052084F835002068A90A02682D
:101A900022F00102026000BF009A01328A420092E5
:101AA00002D80268D207F7D1012084F8350000205F
:101AB00084F83400E16C09B12046884701B0F0BDDC
:101AC0002DE9F041044600F07DF9C4B1054602203D
:101AD00084F835000020216884F83400086820F07C
:101AE0000100086026683068C0070BD000F06AF972
:101AF000401B0528F6D903212022032042E00120C3
:101B0000BDE8F081306848F23F01CFF21001251D99
:101B100000EA010C2ECDD4E9050E41EA0C01114377
:101B200019432943D4E90778084340EA0E01606A63
:101B30003943042841EA080103D1D4E90B231143B6
:101B4000194331607169042821F0070141EA000559
:101B50000CD1D4E90A1045EA010538B12046FFF757
:101B6000A3FE18B10121402201200BE0204675613F
:101B7000FFF77CFEE16D3F2202FA01F18160002255
:101B800001210020626584F83510BDE8F081000075
:101B9000B0B5044690F83400012828D0012084F81C
:101BA0003400A56D94F8350001281DD1022084F879
:101BB0003500002060652046FFF79EFEE26D3F2362
:101BC000206803FA02F2216CAA60026842F0160251
:101BD000026019B1016841F008010160016841F03B
:101BE000010101600020B0BD002084F83400022013
:101BF000B0BD0000B0B5044600F0E4F8054640F280
:101C00000400C2F200000078611C18BF044400BF49
:101C100000F0D8F8401BA042FAD3B0BD2DE9F04F38
:101C200083B000F13E4202F1FF724FEAB22241F668
:101C300000470192C4F2020708224FF0010E00256E
:101C40004FF0000A4FF00008B84208BF0722009288
:101C50000AE000BF08F101080AF1040AB8F1100F08
:101C600005F1020500F0A4800C680EFA08FB14EAE6
:101C70000B09EFD04C6804F0030CACF1010EBEF17F
:101C8000010F11D80322876802FA05F6CA68B74324
:101C9000AA403A4382604268C4F3001722EA0B026A
:101CA00007FA08F73A434260BCF1030F1CD0C26840
:101CB00003238E6803FA05F7BA4306FA05F73A4399
:101CC000BCF1020FC2600FD16FF0030202EA5802AA
:101CD00002440AF01C060F23176A03FA06F40B6984
:101CE000A743B3403B431362026803234F68AB40F2
:101CF0009A4307F00303AB401A4317F4403F4FF0F9
:101D0000010E0260A6D0002243F644030292C4F200
:101D100002031A6843F6004442F480421A601A68CB
:101D2000C4F2010402F480420292029A28F00302F3
:101D30004FF6084B2244CFF6FF7B52F80B300AF0E7
:101D40000C070F26BE4023EA060C019B009E072BC2
:101D500038BF1E4606FA07F747EA0C0342F80B3075
:101D6000A2684B6842EA090743F60C4CDE0258BFF2
:101D700022EA0907A760C4F2010CDCF800209E02E9
:101D800042EA090758BF22EA0907CCF800706268E6
:101D90009E0342EA090758BF22EA090767602268E2
:101DA000DB0342EA090358BF22EA0903236051E733
:101DB00003B0BDE8F08F0000002A08BF090481616C
:101DC0007047000040F6D830C2F20000006870474B
:101DD000F0B581B0B0B3044690F83D0028B90020BA
:101DE00084F83C00204600F037FB242084F83D00B6
:101DF0002068016821F001010160016841F400419F
:101E00000160016821F40041016001F01BF848F213
:101E10008041C0F21E0140F60012656888424FF012
:101E20000001C0F23D0248F2A16C4FF0000338BF40
:101E300001219042C0F2010C38BF0123654538BF33
:101E40000B4613B1012001B0F0BD4DF68361C4F221
:101E50001B31A0FB011221684FEA924E4B684FF4F0
:101E6000967623F03F0343EA92434B6044F6D35304
:101E70000F6A0EFB06F6C1F26203A6FB033627F0DB
:101E80003F03B709654538BF970C7A1C1A430A62AD
:101E9000CA6948F2A0674CF6FF73C0F20107BD4261
:101EA00022EA030C0AD801386A00B0FBF2F00130D4
:101EB0006FF31F30042898BF04202BE0A368A0F123
:101EC000010E9BB119206843BEFBF0F004220130E3
:101ED00062F31F30000512D09BB119206843BEFB8E
:101EE000F0F00422013062F31F3011E005EB4500F1
:101EF000BEFBF0F001306FF31F300005ECD1012084
:101F000008E005EB4500BEFBF0F001306FF31F3039
:101F100040F4004040EA0C00C8610868D4E9072397
:101F200020F0C000104318430860886848F2FF3270
:101F300004F10C0790438CCF18431043A6698860C6
:101F4000C86820F0FF0038433043C860086840F09C
:101F50000100086000202021206484F83D102063E7
:101F600084F83E0001B0F0BD2DE9F04F83B01E466D
:101F7000154689460446FFF725FF94F83D102029B1
:101F80000CD102210746C0F210012046012219237C
:101F9000009701F077FB30B1022500E002252846CA
:101FA00003B0BDE8F08F94F83C00012801D1022570
:101FB000F5E74FF0010A206884F83CA00168C907E2
:101FC00003D1016841F00101016001684FF0000B8D
:101FD00021F400610160242084F83D000020CFF648
:101FE000FF7009F0FE094FF0A008C4F840B0E062AD
:101FF000012D88BFAA4600BF206800220168334631
:1020000041F48071016020464FF00111009701F00A
:1020100039FB2168002854D1C1F81090FFF7D2FE97
:1020200021680A4652F8143F156894F83D70A02FB5
:10203000074620D003F0020005F48063C0181AD1CF
:10204000FFF7C0FE36B1C01BB04288BF84F83D80A8
:1020500002E000BF84F83D80216848694A6994F82D
:102060003D30A02B05D000F0020002F48062801801
:10207000E6D001F11402202084F83D0048690B6885
:10208000800743F400730B6023D46FF48060022157
:1020900010602046C0F2100101221923009701258B
:1020A00001F0F0FA00287FF47AAF0BF1010BD34571
:1020B000A2D1202084F83D000020012584F83C00B6
:1020C0006DE708680325C00544BF4FF40070206425
:1020D00065E70026029610680122029088690221B5
:1020E000029002982046C0F21001192300970125A2
:1020F00001F0C8FA00287FF452AF202084F83D0098
:1021000084F83C6000254AE72DE9F04383B01E4681
:1021100015460F460446FFF755FE94F83D1020295A
:102120000FD102218146C0F210012046012219235D
:10213000CDF8009001F0A6FA18B994F83C000128F7
:1021400003D1022003B0BDE8F0830121206884F8A8
:102150003C100168DDF82880C90703D1016841F00F
:10216000010101600168424621F400610160222002
:1021700084F83D00102084F83E0000202064656251
:102180006685608D394620850020CFF6FF70E062BD
:1021900020464B4601F036F918B1012003B0BDE8E6
:1021A000F083208D022806D001280DD0E8B9002048
:1021B000029020680FE02068016821F480610160CE
:1021C000016841F4006114E02068016821F4806135
:1021D0000160002102914169029181690291029995
:1021E000016841F4007101600BE02068016841F46E
:1021F0008061016000210291416902918069029031
:102200000298208D002800F080800427C0F201078A
:102210000DE009690170606A218D01306062481E1D
:102220002085608D01386085208D00286DD00328C1
:102230000FD8022849D001282BD1204641464A46D2
:1022400001F0B6FA0028A8D12068616A0069087018
:10225000E1E7204641464A4601F0AAFA00289CD10F
:102260002068616A00690870606A228D0130013A55
:10227000606222852168638D013B63854B695B0742
:10228000D2D592B2032AC4D10A6822F480620A60CD
:10229000BFE72046394600224346CDF8009001F0C2
:1022A000F1F900287FF479AF2068616A026822F4AE
:1022B0008062026000690870606A218D013060628E
:1022C000481E2085608D01386085204639460022F1
:1022D0004346CDF8009001F0D5F900287FF45DAFBA
:1022E0002068616A026842F4007202600069087046
:1022F000606A2268411C6162218D01392185618DEE
:10230000013961851169417085E7202084F83D001D
:10231000002084F83E0084F83C0003B0BDE8F08360
:102320002DE9F04782B01E46174689460446FFF75E
:1023300049FD94F83D1020290ED102210546C0F236
:102340001001204601221923009501F09BF918B9CC
:1023500094F83C00012803D1022002B0BDE8F087C8
:102360000121206884F83C100168DDF82880C90745
:1023700003D1016841F00101016001684FF0000ADA
:1023800021F400610160212084F83D00102084F8D0
:102390003E00C4F840A067626685608D494620858E
:1023A0000020CFF6FF70E062204642462B4601F047
:1023B000A9F818B1012002B0BDE8F087CDF804A05B
:1023C00020684169019180690190019806E000BF91
:1023D000204641462A4601F01FF920BB208D58B304
:1023E000204641462A4601F01FFAE0B9606A21689A
:1023F000024612F8013B0B616262628D013A62850E
:10240000228D571E27854B693F0418BF13F0040324
:10241000DED0437802300B616062608D01386085E8
:10242000901E2085D4E7206C0428C3D12068016861
:1024300041F400710160BDE72068016841F400715A
:102440000160202084F83D00002084F83E0084F8DC
:102450003C0002B0BDE8F087B0B586B045F200415F
:102460000068C4F20001002488420594CDE90344C9
:102470000294019401D006B0B0BD43F6300500943B
:10248000C4F20205286840F002002860286800F0C5
:10249000020000900098C0200190122002900120BC
:1024A0000390032004900420059001F5D83001A981
:1024B000FFF7B4FB0094286940F4001028612869F4
:1024C00000F400100090009806B0B0BDF0B585B0E3
:1024D0000446006843F204458168C4F20005049193
:1024E00044F2080105F57F77C4F20001B84208BF45
:1024F000291D096805F5406603914168B8423046D8
:10250000029104BF43F20440C4F20000006801904D
:10251000606840F40070B0F5007F2FD10498800708
:1025200044BF02985FEA006048D40398C00705D012
:102530000198400602D5204601F0ECF903984006C8
:1025400044BF01985FEA80603CD40498000744BF10
:1025500002985FEA80602FD520684168B84221F078
:10256000A001416008BF2E46316821F06001316052
:10257000002100918068009000986AE0039880072D
:1025800044BF01985FEA00603BD40498C00705D0BF
:102590000298400602D5204601F0A0F904984006B2
:1025A00044BF02985FEA80602FD40398000744BFBD
:1025B00001985FEA806040D405B0F0BD204601F08C
:1025C000D7F9B2E720683146B84208BF29460A6801
:1025D00022F060020A60416821F0A0014160002100
:1025E0000091C1680091806800900098012084F8F3
:1025F0004100606C40F002006064204600F038F852
:10260000A3E7204601F0D0F9BFE720684168B8424F
:1026100021F060014160304608BF2846016821F082
:10262000A0010160012084F84100606C40F00200CC
:102630006064204600F01CF8B7E72068B84208BF85
:102640002E46316821F0A0013160416821F060011F
:102650004160012084F84100606C40F00400606437
:10266000204600F005F805B0F0BD000070470000FE
:102670007047000080B5416B884780BDF0B581B0E0
:10268000002850D0044690F8410050B9002084F84A
:10269000400043F66120C0F600006063204600F071
:1026A0009BF8022084F8410021686269CB6940F6FA
:1026B000BF75AB43CB610862022A4FF000012BD0FB
:1026C000D4E902022023002A08BF102321284FF05A
:1026D000010038BF012103FA01F500F02DFA21694C
:1026E000B1F5007F04D1E16800290CBFED00AD0019
:1026F000B0FBF5F0616900EB80004000B0FBF1F049
:102700004CF6CD410530CCF6CC41A0FB01014FF495
:102710008072080902EA4111821EFE2A06D3606C0B
:1027200040F010006064012001B0F0BD2269D4E9DE
:10273000003708431043D4E902561862D86940F6BE
:10274000BF7E46EA050120EA0E00D4F818C041EA2F
:102750000702104340EA0C0040F40060D861206A90
:10276000012831D142F2CD4043F21C42C0F60000B4
:10277000C4F20002606302F5797502F54060AB4275
:1027800004BF43F21C40C4F200000668AB4226EAD4
:102790000E06066044F22006C4F2000608BF161DAD
:1027A00002223260036841EA0C0119434FF2FF73C1
:1027B00047F400721940B2F5007F14BF4FF4006275
:1027C0004FF410621143016000200121606484F81D
:1027D000411001B0F0BD00002DE9F0478AB0044679
:1027E000006843F60006C4F20006B0424FF0000055
:1027F0000990CDE90700CDE90500CDE90300CDE959
:10280000010002D00AB0BDE8F0870120019032201B
:1028100002904FF0020801A8CDF80C8000F0B8F942
:10282000002818BFFFF782F8002743F6300500970D
:10283000C4F2020528690DF1140940F480402861B2
:1028400028694FF0050A00F4804000900098009736
:102850002868494640F004002860286800F0040019
:10286000009000980097286840F0020028602868CF
:1028700000F00200009000980820CDE9050806F558
:10288000E830CDE90777CDF824A0FFF7C7F94FF47A
:10289000A050CDE9050806F5E6304946CDE90777B1
:1028A000CDF824A0FFF7BAF905F5215040F28405D0
:1028B000C2F200054FF48062C5E9000705F110007F
:1028C00040214FF400634FF400564FF4807C80E8C1
:1028D0004C102846C5E90217C5E90877FFF7F0F85C
:1028E000002818BFFFF722F8242000210022A5634A
:1028F000AC6300F00DF9242000F006F90AB0BDE841
:10290000F08700007047000010B5044600294FF022
:10291000010018BF002A00D110BD94F84100012821
:1029200003D194F84000012801D1022010BD0120FC
:1029300084F84000032084F8410000206064D4F84B
:1029400000C06162DCF81C0000F00700052803D01D
:10295000032808BF520000E0520022856285A06B68
:1029600043F6552243F62D23C0F60002C0F60003BD
:10297000C0E90F3243F60522C0F60002C264238D7F
:102980000CF10C02FFF704F950B1606C002140F02B
:1029900008006064012084F8410084F8401010BDF4
:1029A000002084F8400020684168890703D441680A
:1029B00041F002014160C169490544BF002010BDDA
:1029C000C16941F48061C161002010BD80B500681B
:1029D00043F60001C4F2000188420DD140F27800B4
:1029E000C2F200000268002A08BF80BD40F2D63063
:1029F000C2F200000121904780BD000080B5006850
:102A000043F60001C4F2000188420DD140F2780083
:102A1000C2F200000268002A08BF80BD40F2D63032
:102A2000C2F200000021904780BD000040F2040087
:102A300040F6D831C2F20000C2F2000100780A6804
:102A4000104408607047000080B543F60040C4F2AF
:102A50000200016841F400710160016841F4806185
:102A60000160016841F480710160032000F060F8AA
:102A70000F2000F005F800F02BF8002080BD0000CA
:102A8000B0B540F20402C2F2000240F20001127836
:102A9000C2F200014FF47A730968B3FBF2F2044604
:102AA000B1FBF2F1084600F0CBFB0F2C4FF0010513
:102AB0000CD858B94FF0FF3021460022002500F015
:102AC00027F840F20800C2F2000004602846B0BDBA
:102AD00082B0002043F640010190C4F202014A682E
:102AE00042F480424A604A6802F480420192019AAC
:102AF0000090086840F080500860086800F080503E
:102B00000090009802B0704780B501F073FC80BD62
:102B100070B514460D46064601F07CFC2946224657
:102B200001F052F90146304601F07CFC70BD000016
:102B300080B501F089FC80BD01281CBF00207047D2
:102B400043F60400C4F202004168090242BF48F2A1
:102B50000000C0F2BB00704701680268490241F200
:102B60000021C0F27A0102F03F025CBF42F2004154
:102B7000C0F2F401D0F88030B1FBF2F1D0F880005F
:102B8000C3F388125143C0F30270B1FBF0F07047F9
:102B9000F0B581B00446007810F0050F2CD06827FE
:102BA000C4F2472743F670060020C4F202063860DC
:102BB000FFF708F9054600BF56F8700C000105D56F
:102BC000FFF700F9401B0228F6D93FE0D4E90110D5
:102BD000000740EA8110706101203860FFF7F2F8C9
:102BE000054600BF56F8700C000105D4FFF7EAF85F
:102BF000401B0228F6D929E0207880074FF000001A
:102C000057D543F67006C4F20206009056F8300C11
:102C100047F2000740F0805046F8300C56F8300C70
:102C2000C4F2000700F0805000900098386840F42B
:102C300080703860FFF7C6F8054600BF3868C005E9
:102C400007D4FFF7BFF8401B0228F7D9032001B0D3
:102C5000F0BD306810F4407013D0E16801F44071A9
:102C600088420ED0306840F64061C4F2472101220C
:102C700020F440700A6000220A6030603068C007AB
:102C800019D1E06856F8681C4FF6FF4300F4407213
:102C900021F4F811C0F6FF730340B2F5407F08BF7E
:102CA000194346F8681C31686FF31F3008433060E1
:102CB000002001B0F0BDFFF785F8054641F28837E6
:102CC00030688007DDD4FFF77DF8401BB8424FF035
:102CD0000300F5D9EDE700002DE9F041002800F0F0
:102CE0008B8043F60808C4F202080446D8F8F803BB
:102CF0000D4600F00700884207D288F8F853D8F84C
:102D0000F80300F00700A84276D12068810717D5A4
:102D1000410705D5D8F8001041F4E051C8F800107B
:102D2000010705D5D8F8001041F46041C8F800103B
:102D3000D8F80010A26821F0F0011143C8F8001083
:102D4000C0073FD1D8F8F80300F00700A84207D920
:102D500088F8F853D8F8F80300F00700A8424BD1E0
:102D60002068410707D5D8F80010E26821F4E05147
:102D70001143C8F80010000708D5D8F800002169F1
:102D800020F4604040EAC100C8F8000000F07EF87E
:102D9000D8F8001046F25422C1F30311C0F6000225
:102DA000515C40F2000220FA01F140F20800C2F248
:102DB00000000068C2F200021160FFF761FE00200F
:102DC000BDE8F0816068811E022907D258F8081C0E
:102DD00089015CBF0120BDE8F08110E0012807D126
:102DE00058F8081C89035CBF0120BDE8F08106E0AB
:102DF00058F8081C890702D40120BDE8F081D8F8F2
:102E0000001021F003010843C8F80000FEF7DAFFC4
:102E1000064641F2883700BFD8F80000616800F02C
:102E20000C00B0EB810F8DD0FEF7CCFF801BB842B9
:102E3000F2D90320BDE8F08140F20000C2F20000A8
:102E40000068704780B5FFF7F7FF43F60801C4F24A
:102E50000201096846F26422C1F38221C0F6000231
:102E6000515CC84080BD000080B5FFF7E5FF43F628
:102E70000801C4F20201096846F26422C1F342313A
:102E8000C0F60002515CC84080BD000010B543F69A
:102E90000404C4F20204606800F00C0142F2004035
:102EA0000829C0F2F40007D0042918BF10BD41F270
:102EB0000020C0F27A0010BD216801F03F022168B5
:102EC00023684902C3F3881105D4A1FB0001002344
:102ED000FDF720FA06E041F20020C0F27A004843F4
:102EE000B0FBF2F021680222C1F3014102EB410183
:102EF000B0FBF1F010BD00002DE9F04182B00028D8
:102F000000F0A2800446007843F60006C007C4F231
:102F1000020643D0B06800F00C00042805D13068E8
:102F200080033BD56068C8BB8EE0B06800F00C0041
:102F3000082802D170684002F1D46568B5F5A02F69
:102F40000AD0B5F5803F0BD0306820F48030306077
:102F5000306820F4802006E0306840F48020306043
:102F6000306840F480303060FEF72CFF002D0546BD
:102F700011D000BF3068800310D4FEF723FF401B40
:102F80006428F7D922E100BFFEF71CFF401B64282C
:102F90004FF0030055D830688003F5D420788007BF
:102FA0001AD5B06810F00C0F09D0B06800F00C0012
:102FB000082840F08A807068400200F186803068FE
:102FC000800702D5E06801283ED13068216920F0F1
:102FD000F80040EAC10030602078000738D420783B
:102FE00040074CD4A5695DB3B06800F00C00082818
:102FF00040F09E80012D27D07068E16900F48002C6
:103000008A4221D1216A00F03F028A421CD147F650
:10301000C071626A0140B1EB821F15D1A26A002320
:10302000CFF6FF7303EBC23200F440316FF30F02AF
:10303000914209D1E16A00F07060B0EB016F03D1F9
:10304000002002B0BDE8F081012002B0BDE8F081AF
:103050006069002840F20000C4F2472057D00121E7
:10306000C0F8801EFEF7AEFE054600BF706F8007F9
:10307000B5D4FEF7A7FE401B0228F7D9A6E0306CB6
:1030800010F080580AD100200190306C40F0805040
:103090003064306C00F080500190019847F20007D6
:1030A000C4F200073868C00524D4386840F4807042
:1030B0003860FEF787FE05463868C0051AD4FEF76B
:1030C00081FE401B0228F7D980E0E068002851D03B
:1030D0000020C4F2472001210160FEF773FE05467F
:1030E000306880073FF571AFFEF76CFE401B022889
:1030F000F6D96BE0A568052D50D0012D52D0306F68
:1031000020F001003067306F20F004004DE0002116
:10311000C0F8801EFEF756FE054600BF706F8007A0
:103120007FF55DAFFEF74EFE401B0228F6D94DE05D
:103130000027C4F2472700203866FEF743FE022D21
:1031400005460BD13068800158D5FEF73BFE401B89
:1031500002284FF00300F5D973E700BF3068800103
:103160007FF56EAFFEF72EFE401B02284FF00300E6
:10317000F4D966E70020C4F2472000210160FEF781
:1031800021FE0546306880077FF526AFFEF71AFE60
:10319000401B02284FF00300F4D952E7306F40F093
:1031A00004003067306F40F001003067FEF70AFE20
:1031B000002D054641F2883714D000BF306F8007DC
:1031C00013D4FEF7FFFD401BB842F7D9032002B02D
:1031D000BDE8F081FEF7F6FD401BB8424FF003005A
:1031E0003FF62FAF306F8007F4D4B8F1000F7FF4B3
:1031F000F9AE306C20F080503064F3E604F11C0529
:103200002FCD08430021CFF6FF7140EA821001EB79
:10321000C3316FF30F0140EA05600843706001207D
:103220003866FEF7CFFD0446306880013FF508AFF1
:10323000FEF7C8FD001B02284FF00300F4D900E799
:1032400080B500F055FF80BD002804BF0120704705
:1032500010B5044690F8410028B9002084F84000D9
:10326000204600F021F8242084F841002068C1683D
:1032700021F40051C160204601F008F8206801697E
:1032800021F490410161416921F02A014161C16845
:1032900041F40051C16000202021606484F8411095
:1032A00084F84210606310BD80B586B044F20041DE
:1032B0000068C4F20001002288420592CDE9032291
:1032C0000292019201D006B080BD43F63000009218
:1032D000C4F20200036943F400330361036903F499
:1032E00000330093009B0092036843F001030360E6
:1032F000006800F00100009000980C20019002206E
:10330000CDE90202032004900720059001F5DE308C
:1033100001A9FEF783FC06B080BD00002DE9F04155
:10332000044690F8410020281CBF0220BDE8F0812F
:103330000E4600294FF0010042D01746002A08BF70
:10334000BDE8F0814FF0000821201D46C4F84480FC
:1033500084F84100FEF736FDA784E784A16807469C
:10336000B1F5805F0DD12069002814BF3046B0460A
:10337000064606E016F8010B21684860E08C01382B
:10338000E084E08C80B1204680213A462B4600F054
:10339000EBFFB8B9002EEDD138F8020B21686FF3BE
:1033A0005F2048600026E9E7204640213A462B4648
:1033B00000F0DAFF202184F84110002818BF032014
:1033C000BDE8F081202084F841000320BDE8F081B1
:1033D000FEE700000268516949054FF000010FD572
:1033E0006FF4806353612022016380F83D2080F8F0
:1033F0003E10026C42F00402026480F83C1001218D
:10340000084670472DE9F04383B0044600681D4626
:103410001646E26A03680F4643F4806112F5803F66
:10342000016018BF012A30D1016841F48071016048
:1034300020464FF0011100223346009500F022F99A
:1034400050B120680068C00544BF4FF4007020648C
:10345000032003B0BDE8F083206940F20208B0F514
:10346000804FC0F2010816D147F00100C0B22168B8
:1034700032460861204641462B4600F04DF90028AF
:1034800018BF012003B0BDE8F083082ACCD0216B1F
:103490001129C9D0CCE7062000EAD719206809F124
:1034A000F001016108F10601204632462B4600F08A
:1034B00033F948B92068F9B20161204641463246E5
:1034C0002B4600F029F918B1012003B0BDE8F083C4
:1034D00000200290206800224169334602918169F0
:1034E00002910299016841F48071016020464FF019
:1034F0000111009500F0C6F80028A2D149F0F100B2
:10350000B5E700002DE9F04182B00446C06A1D46CF
:10351000164610F5803F0F4618BF012823D12068BA
:10352000016841F48071016020464FF001110022D2
:103530003346009500F0A6F850B120680068C00539
:1035400044BF4FF400702064032002B0BDE8F08156
:10355000206940F20208B0F5804FC0F2010808D19E
:1035600007F0FE0018E00828D9D0206B1228D6D02A
:10357000DAE7062000EAD7102168F030086108F188
:103580000601204632462B4600F0C6F818B101204D
:1035900002B0BDE8F081F8B22168324608612046E9
:1035A00041462B4600F0B8F8002818BF012002B0B1
:1035B000BDE8F081F0B583B040F27C070C46010C09
:1035C000C2F200078DF80810010A8DF80A00387859
:1035D0008DF80910410040F2E40001256426C2F292
:1035E000000002AA04238DF80B500096FEF798FE07
:1035F00070B938782246410040F2E400C2F200007F
:1036000001230096FEF780FD0546002818BF01251E
:10361000284603B0F0BD0000F0B581B00446006854
:10362000406940071AD415460E464F1C08E000BFFB
:1036300020684069400714D52068406940070DD4D0
:103640002046FFF7C7FEC8B9002FF5D0FEF7BAFB3A
:10365000002EEDD0401BB042EED9E9E7002001B0CA
:10366000F0BD00202021206384F83D1084F83E0046
:10367000216C41F02001216484F83C00012001B05C
:10368000F0BD00002DE9F047DDF820809946164690
:10369000044601F47F078DB203F1010A0EE000BF7A
:1036A0002068B7F5803F14BF1830143000682840F8
:1036B000401BB0FA80F04009B0421DD02068B7F539
:1036C000803F14BF1830143000682840401BB0FA07
:1036D00080F04009B0420CD1BAF1000FEED0FEF7F5
:1036E00071FBB9F1000FDBD0A0EB08004845E5D92C
:1036F000D6E70020BDE8F08700202021206384F871
:103700003D1084F83E00216C41F02001216484F8D2
:103710003C000120BDE8F0872DE9F0410446006837
:10372000984643698FB203EA0701B94202D10020EB
:10373000BDE8F0814169490517D41646551C00BF04
:103740005DB1FEF73FFB1EB1A0EB0800B04204D90B
:10375000206840693840B8421ED12068416939402C
:10376000B942E4D041694905EAD5016841F40071E4
:1037700001606FF48061416100202021206384F8A2
:103780003D1084F83E00216C41F00401216484F86E
:103790003C000120BDE8F08100202021206384F856
:1037A0003D1084F83E00216C41F02001EEE700005E
:1037B00070B504460068154650F8143F5A0615D4F3
:1037C0000E4608E02068406940061DD5206850F884
:1037D000141F49060AD40168C90609D4FEF7F2FA93
:1037E000002EEFD0401BB042F0D9EBE7002070BDB7
:1037F0006FF01001016000202021206384F83D104B
:1038000084F83E00216C09E000202021206384F828
:103810003D1084F83E00216C41F02001216484F8C1
:103820003C00012070BD0000F0B581B00446006886
:10383000406900061AD415460E464F1C08E000BF2A
:1038400020684069000614D52068406900060DD440
:103850002046FFF7BFFDC8B9002FF5D0FEF7B2FA3A
:10386000002EEDD0401BB042EED9E9E7002001B0B8
:10387000F0BD00202021206384F83D1084F83E0034
:10388000216C41F02001216484F83C00012001B04A
:10389000F0BD000080B584B0020C8DF80B20020A48
:1038A0008DF80D0001208DF80E0040F27C00C2F270
:1038B000000000788DF80F10410040F2E4008DF810
:1038C0000C204FF0640CC2F200000DF10B02052336
:1038D000CDF800C0FEF724FD04B080BD80B50168BE
:1038E000C26ACB6822F8023BC262428E013A42862B
:1038F000428E02B180BD4A6822F060024A60418D6A
:10390000002918BF80BD012180F84110FEF7AEFEEE
:1039100080BD000080B543F20441C4F20001D0F83C
:1039200000C044F20C0301F57F7EC4F20003C26ABA
:10393000F44508BF01F108031B6822F8023BC2628C
:10394000428E013A4286428E02B180BDF44518BFD4
:1039500001F540610A6822F060020A60418D002989
:1039600018BF80BD012180F84110FEF77FFE80BDA9
:1039700080B5426A016832F8023B4262CB60428DF8
:10398000013A4285428D02B180BD4A6822F0A00210
:103990004A60418E002918BF80BD012180F8411086
:1039A000FEF764FE80BD000080B5436A43F2044127
:1039B00033F8022BC4F20001D0F800C0436244F295
:1039C0000C0301F57F7EC4F20003F44508BF01F14A
:1039D00008031A60428D013A4285428D02B180BDD2
:1039E000F44518BF01F540610A6822F0A0020A60A0
:1039F000418E002918BF80BD012180F84110FEF7DB
:103A000035FE80BD80B5806B01684A6822F00302F4
:103A10004A60002141854186012180F84110416CB6
:103A200041F008014164FEF723FE80BD80B5C16905
:103A3000806B11B1FEF7CAFF80BD01684A6822F0B1
:103A400002024A6000214185012180F84110FEF701
:103A5000BDFF80BD80B5806BFEF7D0FF80BD00004C
:103A600010B584B0044600688168039194F8411051
:103A7000042924D10399C90705D04068400602D51E
:103A8000204600F047F80398400618D520684168A2
:103A9000890614D5416821F060014160002102913E
:103AA000C1680291806802900298012084F8410068
:103AB000606C40F0020060642046FEF7D9FD94F887
:103AC0004100032823D10398800706D52068406869
:103AD000000602D5204600F035F80398000716D5F9
:103AE00020684168890612D5416821F0A001416033
:103AF00000210191806801900198012084F8410023
:103B0000606C40F0040060642046FEF7B1FD04B034
:103B100010BD000080B50168C26ACB6822F8023B84
:103B2000C262428E013A4286428E002A18BF80BD90
:103B30004A6822F060024A60012180F84110FEF7D5
:103B4000E1FE80BD80B5426A016832F8023BCB607D
:103B50004262428D013A4285428D002A18BF80BDE3
:103B60004A6822F0A0024A60012180F84110FEF765
:103B70002DFF80BD000000002DE9F04F85B040F220
:103B8000C8109FED270BC2F200009FED271BA0F18C
:103B9000020A51EC100BCDE9031051EC110B9FED13
:103BA000241B9FED1D0B55EC114B9FED231B4FF478
:103BB000807B57EC116BCDE9011000BF58EC109BD6
:103BC000DDE903324846414601F0B4FF02460B46A8
:103BD00001F026FDDDE9013201F0ACFF41EC100BF4
:103BE00001F05AF851EC100B22462B4601F0A2FFCF
:103BF00001F018FF2AF8020F4846414632463B467C
:103C000001F00EFD41EC100BBBF1010BD6D105B05C
:103C1000BDE8F08F00BF00BF000000000000000002
:103C2000000000000000703F182D4454FB210940A3
:103C300000000000C0FFDF40000000000000F03F77
:103C400080B582B00020019043F63000C4F202003B
:103C50000168002241F4001101600068002100F4B5
:103C60000010019001980F20FEF752FF0F20FEF781
:103C70004BFF02B080BD000070B586B0002543F652
:103C800030000595CDE90355CDE901550095C4F205
:103C900002000168002441F0040101600168C4F2DF
:103CA000020401F0040100910099009501680022CE
:103CB00041F0800101600168032601F0800100915C
:103CC00000990095016841F001010160016801F06F
:103CD0000101009100990095016841F00201016025
:103CE0000068032100F00200009000982046FEF7D3
:103CF00063F80120CDE9020501A92046019604954B
:103D0000FDF78CFF06B070BD80B540F2E40045F2CF
:103D10000041C2F20000C4F2000100234FF4804CC5
:103D20004FF47A7280E80E00C0E9033CC0E9053325
:103D3000C0E90733FEF74CF8002818BFFDF7F6FD81
:103D400080BD000080B540F2381043F6000147F214
:103D5000007CC2F20000C4F200010023C0F2010C9A
:103D60004FF0080E4FF4007280E80E00C0E90333F4
:103D7000C0E905CEC0E90733FEF780FC002818BF74
:103D8000FDF7D4FD80BD000080B540F2801044F204
:103D90000041C2F20000C4F2000100234FF00C0CFD
:103DA0004FF4E13280E80E00C0E90333C0E905C3F7
:103DB000C361FFF749FA002818BFFDF7B7FD80BDC2
:103DC000FEE70000FEE7000000F0070080F00703B8
:103DD000042B28BF04234FF0FF3C03380CFA03F3F5
:103DE00038BF0020994381400CFA00F022EA00001D
:103DF000084370477047000010B582B00446FF20AA
:103E00008DF807000DF107014FF40030FFF7D2FBEA
:103E10009DF80700A0438DF80700C1B24FF40030B1
:103E2000FFF738FD02B010BD80B540F23810C2F285
:103E30000000FEF71FFC80BD704700002DE9F04F29
:103E400081B024A000F0CCF940F2E4094FF0000B5F
:103E50000124C2F200090FF2A4084FF6FC7A0127F0
:103E60000025002605E000BF0134802C07F1010782
:103E700017D07800C1B2484602226423FEF774F8D6
:103E80000028F1D1404621460BF1010B00F0A8F9C2
:103E9000300604EA0A0008BF3E46602808BF3D46D7
:103EA000E2E75FEA0B600BD05FFA8BF11CA000F039
:103EB00097F9280618BF2E46F0B201B0BDE8F08F82
:103EC00046F28820C0F6000000F08AF9002001B018
:103ED000BDE8F08F5B435334333133315D20E5BCB3
:103EE00080E5A78BE689ABE68F8F2049324320E639
:103EF00080BBE7BABF2E2E2E0D0A00005B43533461
:103F0000333133315D202020E58F91E78EB0E8AE6C
:103F1000BEE5A4873A203078253032580D0A0000DB
:103F20005B435334333133315D202020E585B1E5E7
:103F30008F91E78EB020256420E4B8AAE8AEBEE5F4
:103F4000A4870D0A0000000080B510EE100A01F0F1
:103F5000E9FF9FED0B0B53EC102B01F009FC9FEDDB
:103F60000A0B53EC102B01F0E5FD01F08BFD40F244
:103F70007401C2F20001086080BD00BF00BF00BF35
:103F8000000000000070F740000000000000F04159
:103F900070B54FF60062CFF6FF72B2EB412F21D021
:103FA0004FF400734A0203EB412E40F2740140F2D9
:103FB000700CC2F20001C2F2000C0968DCF800309B
:103FC00040F2C814C2F200041D0E34F8155000EB84
:103FD000420620F81250023272450B447580F3D32A
:103FE000CCF8003040F2C83040F2CC31C2F20000D0
:103FF000C2F200010268097802F58072002918BF38
:1040000040F641318A42026038BF70BD511A0160EA
:1040100040F2D43140F2D030C2F20001C2F20000CE
:1040200009780268002918BF40F2CF718A4202F174
:10403000010101600CDB40F270020021C2F20002BB
:104040000160116040F28001C2F2000101220A7099
:1040500090ED000AB2EE041AB8EEC00A20EE010A92
:1040600030EE010ABDEEC01AB8EE410A11EE104A58
:10407000FFF76AFF40F27E00C2F20000048070BDCC
:1040800010B5FFF779FD40F2D030C2F200000024F5
:10409000046040F2D430C2F200000121017040F20D
:1040A000C830C2F20000046040F2CC30C2F200001E
:1040B000017040F27000C2F20000B2EE040A046027
:1040C000FFF742FF40F27E00C2F200000A210180A9
:1040D00040F28000C2F20000047010BD80B543F6CB
:1040E0009170C0F60000FDF74DFAFDF751FA80BD62
:1040F000B0B501380024B4EB106F1CBF0120B0BD77
:104100004EF21005CEF2000568604FF0FF300F212F
:1041100000F088F90720AC6028602046B0BD0000A0
:1041200080B5FEF783FC80BD70B592B006AC20462A
:104130003021FCF781F9002543F640000595CDE9D3
:104140000355CDE901550095C4F20200016802262D
:1041500041F080510160006800F0805000900098AC
:1041600047F200000095C4F20000016841F480416C
:1041700001600068A82100F48040009000980120B0
:1041800006904FF4803007904FF480000D9004208B
:104190000E90119020460C96CDE90F16FEF7ACFE5E
:1041A00088B90F20CDE901064FF4A05004904FF4D8
:1041B0008050059001A805210395FEF78DFD00288C
:1041C00004BF12B070BDFDF7B1FB00004EF6885081
:1041D000CEF20000016841F47001016070470000F8
:1041E00083B0B0B5A1B0044625A801AD0EC02846E5
:1041F0008021FCF721F925AB28467F212246009338
:104200007F24FCF7FFF8012812DB7F28B8BF0446A3
:10421000EFF31080002840F280104FF00103A2B2AB
:10422000C2F2000001A908BF4FF0FF33FFF776F894
:1042300021B0BDE8B04003B070470000016851E80C
:10424000031F026821F4907142E80313002BF5D19B
:10425000016851E8051F026821F0010142E80513D9
:10426000002BF5D1016B01290AD100BF016851E88B
:10427000031F026821F0100142E80313002BF5D15F
:10428000202180F8421000210163704710B50446D8
:104290000068D4E902C22369016921F44051114345
:1042A0000161626943EA0C01E3691143C268194381
:1042B00049F20C639A431143C1604169A26921F438
:1042C000407141F20043114340F48062C4F20103A3
:1042D0009A42416102D1FEF7C7FD01E0FEF7B2FD4F
:1042E000E16963681922B1F5004FA0FB02011CD1FE
:1042F0005A00DB0FFCF70EF848F21F51C5F2EB1124
:10430000A0FB01235A096FF0630302FB0300322371
:1043100003EBC000A0FB01014FF4F87000EA11109C
:1043200000EB0210C1F342111AE09A009B0FFBF759
:10433000F1FF48F21F51C5F2EB11A0FB01235A090E
:104340006FF0630302FB0300322303EB0010A0FBBA
:104350000101F02000EA511000EB0210C1F34311FB
:1043600022680843906010BD2DE9F04182B00446F8
:10437000006800680840884203D1002002B0BDE810
:10438000F0811D460E4690465F1C04E020680068E0
:104390003040B04228D0002FF8D0FDF713FD014681
:1043A0004FF003000DB3A1EB0801A9421DD820680E
:1043B000C1684907EAD5402EE8D0802EE6D00168D2
:1043C0000907E3D500250195016801914068019036
:1043D00001982046FFF732FF0820606484F84050BF
:1043E000012002B0BDE8F081002002B0BDE8F081FC
:1043F000FEE70000002848BF704700F01F010122BF
:1044000002FA01F14EF200124009CEF2000242F827
:10441000201070474EF60C50CEF200000068C0F33A
:10442000022070474EF6145300F00F02CEF2000344
:1044300009011A4400F16043B0F1FF3FC8BF03F522
:1044400064421170704700004EF60C51CEF200012C
:104450000A684FF6FF031A4060F30A2242F08060B8
:1044600040F0FD7008607047FEF7EEFAFFF75CFE63
:10447000FFF702FCFFF7E4FBFFF764FCFFF744FCE7
:10448000FFF782FC0DA0FFF7ABFEFDF7A7F810B910
:104490000CA0FFF7A5FEFFF7F3FDFFF71FFE40F2AC
:1044A0008005C2F20005002608A400BF2878002875
:1044B000FCD020462E70FFF793FEF7E7696E697413
:1044C0000D0A00006661696C0D0A00007265737464
:1044D0006172740D0A0000005FEA400C08BF91F0A1
:1044E000000F4FEA8C234FEAC12243EA51514FEAB1
:1044F0001C5018BF00F5F0404FEA300018BF41F0E3
:1045000000415FEA6C5C00F02980BCF1FF3F08BF0E
:1045100040F080407047130C06BF12044FF0100C9F
:104520004FF0000C130E04BF12020CF1080C130F15
:1045300004BF12010CF1040C930F04BF92000CF1A4
:10454000020CD30F04BF52000CF1010C11464FF0C6
:104550000002A0F11F00A0EB0C00704711F0004F0B
:1045600008BF704731F000413FF4D5AF0B0C06BFD8
:1045700009044FF0100C4FF0000C0B0E04BF0902A1
:104580000CF1080C0B0F04BF09010CF1040C8B0F8C
:1045900004BF89000CF1020CCB0F04BF49000CF1E1
:1045A000010CCCF1200322FA03F341EA030102FAE1
:1045B0000CF2A0EB0C0000F10100704723F07F47E4
:1045C00020F07F4C80EA030000F00040ACEB0703D2
:1045D00003F57C5303F1FF032DE9804909B44FEA49
:1045E000144324EA03484FEA154B25EA0B4E0FF219
:1045F000042606EB13273E7803FB0667C7F5000782
:1046000007FB06F64FEAD64606F102064FEA543794
:1046100007FB066CCCF1005C4FEA1C472CEA074C08
:104620000CFB06F507FB06F404EB15464FEA96165D
:1046300049085FEA320234BF00204FF000404FEAE1
:10464000D13706FB07FC4FEA1C4C0CFB0BF7D21BC7
:1046500003FB0CF761EB07010CFB0EF7B0EB074017
:1046600072EB17420CFB08F734BFA2EB0742B2EB28
:10467000074261EB17414FEA0C444FEA910706FBF2
:1046800007FC4FEA1C4C0CFB0BF7B0EBC74072EB7E
:10469000573203FB0CF734BFA2EBC742B2EBC74261
:1046A00061EB57310CFB0EF7B0EBC70072EB5772A2
:1046B0000CFB08F734BFA2EBC702B2EBC70261EBF9
:1046C00057714FEA816141EA92114FEA826242EAF0
:1046D00090124FEA806004EBCC04039F4FEAD1377D
:1046E00006FB07FC4FEA1C4C0CFB0BF7D21B03FB31
:1046F0000CF761EB07010CFB0EF7B0EB074072EB18
:1047000017420CFB08F734BFA2EB0742B2EB07429B
:1047100061EB17414FEA8C5504EB9C244FEA91075B
:1047200006FB07FC4FEA1C4C0CFB0BF7B0EBC74039
:1047300072EB573203FB0CF734BFA2EBC742B2EB6C
:10474000C74261EB57310CFB0EF7B0EBC70072EBC1
:1047500057720CFB08F734BFA2EBC702B2EBC702DB
:1047600061EB57714FEA816141EA92114FEA82622F
:1047700042EA90124FEA806015EB4C2544F10004A8
:104780004FEAD13706FB07FC4FEA1C4C0CFB0BF73A
:10479000D21B03FB0CF761EB07010CFB0EF7B0EB30
:1047A000074072EB17420CFB08F734BFA2EB07423D
:1047B000B2EB074261EB17414FEA813141EA924186
:1047C0004FEA823242EA90424FEA80304FEA0C765A
:1047D00015EB1C1544F1000448EA03434EEA0B486C
:1047E0004FF0000EB2EB080C71EB030724BF6246DA
:1047F00039464EEB0E0E4FF0000B00185241494166
:104800004BEB0B0BB2EB080C71EB03077BF1000BCE
:1048100024BF624639464EEB0E0E4FF0000B0018D7
:10482000524149414BEB0B0BB2EB080C71EB030708
:104830007BF1000B24BF624639464EEB0E0E51EA67
:10484000020718BF46F0010616EB0E7655F100027E
:1048500054F1000103D5BDE88901BDE80088BDE839
:104860008901BDE80048B619524141EB0101A3F1AD
:104870000103704780807F7E7D7C7B7A79787776B4
:1048800076757473727171706F6E6E6D6C6C6B6A2D
:104890006A696868676666656464636362616160CB
:1048A000605F5F5E5E5D5D5C5C5B5B5A5A59595848
:1048B00058575756565555555454535352525251B2
:1048C000515050504F4F4F4E4E4D4D4D4C4C4C4B08
:1048D0004B4B4A4A4A49494948484847474747464F
:1048E000464645454544444444434343434242428B
:1048F000424141419C46002B30D477002BD04FEAF7
:1049000037071CB503B44FF010004FF01001BAF197
:10491000000F06D0BCF1000FDCBF40F0080040F0F3
:1049200008014FF000000FBCBDE810400BF1010B77
:10493000BBF1010F08BF5FEA170722BF12F10102A6
:1049400011F101014FF0004143F1000300F000407C
:1049500043EA00007047F9D35708D0E746EA064615
:104960004FEA164613F1400F1FDD13F1200FDFBF92
:1049700016430A46002120335B42BED0C3F1200714
:1049800046EA06464FEA164602FA07F746EA0706DF
:1049900022FA03F2C3F1200701FA07F742EA0702FD
:1049A00021FA03F14FF00003A7E746EA020646EAC0
:1049B00006464FEA164646EA0106BCBF46EA0646E8
:1049C000360C4FF000034FF000024FF0000194E767
:1049D0002DE9804C70B49A46934691E8380007C898
:1049E00031EA400C48BF34EA430C03D5FFF7E6FD3B
:1049F000FFF780FFF0BCBDE8008C2DE9804C70B45F
:104A00009A46934691E8380007C810F0804F08BFD7
:104A100013F0804F03D100F005F8FFF76BFFF0BCF7
:104A2000BDE8008C20F07F4723F07F4C80EA030034
:104A300000F0004007EB0C03A3F57C53A3F1FE0349
:104A400092F0000F00F0B38095F0000F00F0778037
:104A50002DE901494FEA114021EA00484FEA144686
:104A600024EA064700FB06FC08FB06F607FB08F8ED
:104A700018EB06484CEB164C00FB07F718EB074801
:104A80004CEB17404FEA124B22EA0B4E4FEA154609
:104A900025EA06470BFB06FC0EFB06F607FB0EFE9F
:104AA0001EEB064E4CEB164C0BFB07F71EEB074EAE
:104AB0004CEB174B18EB0B0840F1000018EB0E0BFA
:104AC00058EB000840F100008F1A4FF000014FF042
:104AD00000063CBFC943661B14BFB5EB040C0021A4
:104AE0003CBFC943F61B4FEA174427EA04454FEA87
:104AF0001C472CEA074C04FB076205FB07F70CFB7D
:104B000005F616EB074642EB174204FB0CFC16EBCE
:104B10000C4642EB1C421BEB060658EB02024141DD
:104B20004EEA8E0E46EA9E0601D5BDE80189B61909
:104B3000524141EB0101A3F10103BDE801894FEAB4
:104B4000144524EA05464FEA114721EA074C05FBC4
:104B500007F406FB07F70CFB06F111EB074144EBEA
:104B6000174405FB0CFC11EB0C4144EB1C444FEAD1
:104B7000124722EA074C05FB07F206FB07F70CFB7E
:104B800006F616EB074642EB174205FB0CFC16EB4C
:104B90000C4642EB1C456A1854F1000148BF7047AF
:104BA000B619524141EB0101A3F10103704795F0A1
:104BB000000F37D04FEA114221EA02464FEA14476C
:104BC00024EA074C02FB07F106FB07F70CFB06F48F
:104BD00014EB074441EB174102FB0CFC14EB0C44B3
:104BE00041EB1C414FEA154725EA074C02FB07F54C
:104BF00006FB07F70CFB06F616EB074645EB1745D9
:104C000002FB0CFC16EB0C4645EB1C42121951F151
:104C1000000148BF7047B619524141EB0101A3F1B1
:104C2000010370474FEA144524EA05464FEA11474D
:104C300021EA074C05FB07F106FB07F70CFB06F220
:104C400012EB074241EB174105FB0CFC12EB0C4247
:104C500051EB1C414FF0000648BF7047921841EBE2
:104C60000101A3F10103704703B4019841000098CA
:104C700050EAC12018BF04204A0D18BF40F00100BF
:104C800040F2FF72B2EB515F08BF40F00200012812
:104C900008BF052002B0704710B52F499FED2C1BAF
:104CA0002DED020B84B0059820F000408842DCBF57
:104CB00000209DED040B32DD2849884209D104987B
:104CC00040B94FF00100FBF7E6FB00F03DFC06B0F9
:104CD00010BD05DB9DED040B00F02AFC06B010BDF5
:104CE00068469DED040B00F03BF810F0030011D076
:104CF000012818D09DED021B9DED000B02281AD053
:104D000000F04AFA51EC100B00F07EFC06B041ECCA
:104D1000100B10BD9DED021B9DED000B012000F05E
:104D20006FFB06B010BD9DED021B9DED000B00F06A
:104D300033FA06B010BD012000F062FB51EC100BFD
:104D400000F062FC06B041EC100B10BD000000004A
:104D50000000000000000000FB21E93F0000F07FA0
:104D60002DE9F14F04462DED020B2DED088B8AB095
:104D70009FEDE70B80ED020B139EE74826F0004500
:104D800085420ADC9DED120B002084ED000B0AB079
:104D9000BDEC088B03B0BDE8F08FE0489FEDE0ABC1
:104DA0009FEDE1BBA84247DDE14F9FEDE39B9FED07
:104DB000E48B9DED120B53EC1A2B51EC100B002ED3
:104DC0001CDD00F0C1FF41EC100BBD4208D053ECDC
:104DD0001B2B51EC100B00F0B7FFC4E900010BE0F6
:104DE00053EC192B51EC100B00F0AEFF53EC182BC9
:104DF00000F0AAFFC4E900010120C8E700F010FCA0
:104E000041EC100BBD4208D053EC1B2B51EC100BA6
:104E100000F006FCC4E900010BE053EC192B51EC47
:104E2000100B00F0FDFB53EC182B00F0F9FBC4E96C
:104E300000014FF0FF30AAE7C348A84279DB9DED9F
:104E4000120B51EC100B00F0A6FB41EC180B9FED80
:104E5000C00B53EC102B00F06DFE9FEDBF1B53EC0D
:104E6000112B00F0DDFB00F0DDFD074600F037FE02
:104E700041EC190B53EC1A2B00F05CFE53EC182B91
:104E800000F056FF41EC180B53EC1B2B51EC190BA7
:104E900000F050FEDFF8C8A241EC100B4FEA1558A5
:104EA0000125FA4453EC102B51EC180B00F04CFF89
:104EB000032DC4E900013DD0C1F30A5005EB4511B3
:104EC000A8EB00001139814234DA0AEB051BB0EE81
:104ED00048AA9BED000BF0EE68AA53EC102B51ECA6
:104EE000190B00F027FE41EC1B0B51EC1A0B53EC95
:104EF0001B2B00F029FF41EC180B51EC1A0B53EC63
:104F0000182B00F021FF53EC1B2B00F01DFF9BED35
:104F1000020B41EC1A0B53EC102B51EC190B00F067
:104F200009FE53EC1A2B00F00FFF41EC100B6D1C27
:104F3000B8E70EE0002EA8BF3846BFF628AF94EDC4
:104F4000000B51EC100B00F05FFBC4E9000178424C
:104F50001DE7C6F3130040F4801EC6F30A50A0F20A
:104F6000F530471100F01F05C5F12000DDF848B00D
:104F700008900020069007900520EC467949002D06
:104F800007EB0002794408BF51F8221009D051F80C
:104F9000223001EB8201AB404A68089922FA01F104
:104FA0001943A1FB0E26A1FB0B131A449A4234BFEE
:104FB0000123002303EB06080CEB8003D3E901A6D1
:104FC0000E448E4234BF0121002192448A4411B123
:104FD000924502D903E0924501D2012100E000216F
:104FE000C3E901A641444CF82010011EA0F10100C4
:104FF000C4DC029800F10050850F0298DDE90367D8
:105000008000DDF8148000F06AFD41EC1A0B304698
:1050100000F07CFD9FED541B53EC112B00F08AFD3A
:1050200041EC1B0B384600F071FD9FED511B53EC1A
:10503000112B00F07FFD41EC180B404600F066FD9F
:105040009FED4D1B53EC112B00F074FD41EC190B3F
:1050500051EC180B53EC192B00F0E2FA53EC1B2B1C
:1050600000F0DEFA53EC1A2B00F0DAFACDE9080171
:10507000002008909DED080B53EC1A2B51EC100BFF
:1050800000F062FE53EC1B2B00F05EFE53EC182B7D
:1050900000F05AFE53EC192B00F04AFE9FED381B2E
:1050A00053EC112B00F046FD9FED370B41EC180B34
:1050B00053EC102B9DED080B51EC100B00F03AFD5A
:1050C00053EC182B00F0ACFA9FED310B41EC180BB0
:1050D00053EC102B9DED080B51EC100B00F02AFD4A
:1050E00053EC182B00F09CFA41EC100B139810F0C5
:1050F000004F06D06D4251EC100B00F085FA41ECE8
:10510000100B284684ED000B41E600000000000073
:105110000000000000000000FB21E93F7CD90240B4
:1051200000004054FB21F93F3163621A61B4D03D65
:10513000FB21F93F000000000000601A61B4D03D7F
:105140007370032E8A19A33BFB2139410000000034
:1051500083C8C96D305FE43F000000000000E03FFD
:10516000FA11000048110000000000000000103E8D
:10517000000000000000103C000000000000103A99
:10518000182D4454FB21F93D3326A611460B113C42
:1051900000000054FB21F93D10B52DED040B2DED61
:1051A000088B82B0B0EE419AF0EE619A0B9820F035
:1051B00000449FED4BABB4F1795F11DA9DED0A0B22
:1051C00051EC100B00F02EFC002801BFB0EE4A0A93
:1051D000F0EE6A0A02B0BDEC088B04BF04B010BD4B
:1051E0009DED0A0B53EC102B51EC100B00F0A2FCC0
:1051F00041EC180B3C480621B0EE480AF0EE680A74
:10520000784400F081F853EC182B51EC100B00F0AF
:1052100091FC9DED0A0B41EC1B0B53EC192B51EC4F
:10522000100B00F087FC41EC190B53EC1B2B51ECDD
:10523000180B00F07FFC53EC192B00F085FD9FED5F
:105240002C0B41EC190B53EC102B51EC180B00F00C
:1052500071FC41EC100B2848844210DA53EC192BF6
:1052600051EC100B00F070FD53EC1A2B00F060FDB8
:1052700041EC100B02B0BDEC088B04B010BD1F4810
:10528000A042BCBF9FED1E1B8DED001B06DBA4F5ED
:1052900000100190002000909DED001B51EC100BC0
:1052A00053EC112B00F050FD9DED000B41EC180B61
:1052B00053EC102B51EC1A0B00F046FD41EC1A0B8D
:1052C00053EC192B51EC180B00F03EFD53EC1A2B4C
:1052D00000F02EFD41EC100BCCE7000000000000B8
:1052E000000000000000F03F6C0E00000000000015
:1052F000000000000000E03F3333D33F0000E93FEF
:10530000000000000000D23F70B504462DED028B76
:105310004D1E00EBC500B0EE408AF0EE608A90EDC5
:10532000000B35F0060017D053EC182B51EC100B86
:1053300000F000FC41EC100B6D1E04EBC50090ED7D
:10534000001B51EC100B53EC112B00F069F941ECF0
:10535000100B35F00600E7D1022D36D0042D1CD0FD
:10536000062D1CBFBDEC028B70BD53EC182B51EC0D
:10537000100B00F0DFFB94ED0A1B53EC112B00F037
:105380004FF953EC182B00F0D5FB94ED081B53ECB0
:10539000112B00F045F941EC100B53EC182B51EC9C
:1053A000100B00F0C7FB94ED061B53EC112B00F023
:1053B00037F953EC182B00F0BDFB94ED040B53ECC4
:1053C000102B00F02DF941EC100B53EC182B51EC85
:1053D000100B00F0AFFB94ED021B53EC112B00F00F
:1053E0001FF953EC182B00F0A5FB94ED001B53ECB8
:1053F000112B00F015F9BDEC028B41EC100B70BDC8
:1054000031B504462DED040B2DED0A8BB0EE41BAFB
:10541000F0EE61BA0B989DED0A0B20F00040B0F160
:10542000795F0DDA51EC100BFFF71EFC042808BF62
:1054300000F09AF89DED0A0BBDEC0A8B05B030BD6B
:1054400053EC102B51EC100B00F074FB41EC180BDB
:105450009DED0A0B53EC182B51EC100B00F06AFB7E
:1054600041EC190B2C48B0EE480AF0EE680A052111
:105470007844FFF749FF9FED2ACBB0EE40AAF0EE4B
:1054800060AA9CB353EC1C2B51EC190B00F052FB9F
:1054900041EC1C0B53EC1A2B51EC190B00F04AFB9E
:1054A0009FED210B41EC190B53EC102B51EC1B0B16
:1054B00000F040FB53EC192B00F046FC53EC182B8A
:1054C00000F038FB53EC1B2B00F03EFC53EC1C2B84
:1054D00000F03AFC9DED0A1B53EC112B00F028FC68
:1054E000BDEC0A8B05B041EC100B30BDFFE753EC6F
:1054F0001A2B51EC180B00F01DFB53EC1C2B00F089
:105500008FF853EC192B00F015FB9DED0A1B53ECA3
:10551000112B00F085F8E3E7FC0C00000000000010
:10552000495555555555C5BF000000000000E03FE6
:1055300010B553EC102B51EC100B00F071F841EC4E
:10554000100B10BD000000009FED050B10B553ECD3
:10555000102B51EC100B00F00BF941EC100B10BDAF
:1055600000000000000000009FED050B10B553EC9B
:10557000102B51EC100B00F0DDFA41EC100B10BDBC
:10558000000000000000001030380A2801D201207D
:1055900070470020704782B0CDE9000121F0004043
:1055A00001909DED000B02B051EC100B7047000014
:1055B00010B500290AD00878002807D0054878449B
:1055C000FBF79AFF002801D0002010BD0248784464
:1055D00010BD0000420D00003A0D000010B500297A
:1055E0000AD00878002807D005487844FBF784FFE4
:1055F000002801D0002010BD0248784410BD0000F2
:10560000320D00002A0D000081F00041704780F04B
:105610000040704721F00041704720F00040704783
:1056200010B591EA030F48BF83F0004300F1948363
:10563000841A71EB030C05D2121943EB0C03001B07
:1056400061EB0C014FEA1154A4EB135CDFF81CE191
:105650001EEA430F18BF9EEA445F00F0748021EAFF
:10566000045123EA0E0343F48013DCF1200E32D3FD
:1056700022FA0CFE10EB0E0023FA0CFE41EB0E0199
:10568000CCF1200E03FA0EFE10EB0E00CCF1200E32
:1056900051F10001B1F5801F32D201EB045112FA31
:1056A0000EF2BDE8104058BF7047401C38BF5FEA9B
:1056B000420218BF7047002814BF20F0010041F1DA
:1056C00000014FEA410313F5001F38BF7047A1F1F5
:1056D000C04100F027BB012A43EB0302ACF1200CD0
:1056E000DCF11F0E32BF4FF0000E23FA0CF310EB6B
:1056F000030041EB0451B4EB115FD0D0A1EB045196
:1057000001F58011490801EB04515FEA30000ED326
:1057100050F1000038BF12FA0EFE08D1BDE810406B
:10572000C9E7401C38BF5FEA4202CAD1C3E7BDE8FF
:1057300010404FEA410313F5001F38BF7047A1F135
:10574000C04100F0EFBA9EEA445F08D011EA5E0F54
:10575000BDE8104004BF01F0004100207047BDE8E3
:10576000104070B500F090FA64FBBE3E0000E0FF10
:105770002DE9C04130B4DFF8A4C23CEA111418BFCF
:105780003CEA131400F0ED801CEA111481EA0305D1
:1057900044EAD57418BF1CEA131500F0C880A4EBC6
:1057A000050404F17F7404F500344FF0004545EA28
:1057B000C12145EAC32341EA505143EA52534FEA1B
:1057C000C0204FEAC222994208BF904200F09D805B
:1057D0004FEA13650FF24416765D4FEA134506FB58
:1057E00005F7C7F1807706FB07F74FEAD737A7FB26
:1057F00003687642A7FB06CEC8F5803838BFA8F10B
:10580000010807FB08E6A6FB028C4FF0000EE6FB42
:1058100003CEDCF1000CCEF1004E38BFAEF1010E2C
:10582000A6FB0C584FF00007E6FB0E87A1FB08C64D
:10583000A0FB07CE16EB0E064FF0000545F1000564
:10584000E1FB076515F1E04E7EBFA4F580345FEA09
:1058500046066D4116F1800745F100054FEA17270E
:1058600047EA05674FEA15254FEA0666A6F1DE46C8
:10587000B6F1805F20D9384605EBC47124F0010CE5
:1058800001EB0C11BCF1FE6F02D8F0BCBDE8008149
:1058900024425CBF01F5801E9EEAC47F02D4F0BCA6
:1058A000BDE80081244200F13980A1F1C041F0BC83
:1058B000BDE8004100F036BA4FEAD02040EA41503E
:1058C0004FEAD1214FEAD22242EA43524FEAD32390
:1058D000A7FB028607FB036605FB02661EEA0E0FA6
:1058E00058BFA6EB0056B6EB00564FEA520E4EEAF2
:1058F000C37E18EB0E0E56EB530EBCD518EB020808
:105900005E417F1C55F10005B5E74FF480154FF05F
:1059100000074FF000064FF00008ACE701F1C0416E
:1059200001F000414FF00000F0BCBDE800810CEA3E
:10593000131511EA0C1F00D00CE013EA0C1F00F045
:1059400026804FF0000081EA030101F00041F0BC25
:10595000BDE80081F0BCBDE8004181EA030100F030
:10596000E1B9F0BCBDE8004170B500F08DF900BFB1
:10597000097EFC3E00F007B84FF0000081EA030109
:1059800001F00041704781EA030100F0CBB9F0BC9F
:10599000BDE8004122494FF000007047FFFDFBF9D0
:1059A000F7F5F4F2F0EEEDEBE9E8E6E4E3E1E0DE52
:1059B000DDDBDAD8D7D5D4D3D1D0CFCDCCCBCAC8C4
:1059C000C7C6C5C4C2C1C0BFBEBDBCBBBAB9B8B7EB
:1059D000B6B5B4B3B2B1B0AFAEADACABAAA9A8A8DE
:1059E000A7A6A5A4A3A3A2A1A09F9F9E9D9C9C9BAC
:1059F0009A99999897979695959493939291919057
:105A00008F8F8E8E8D8C8C8B8B8A898988888787E7
:105A10008685858484838382828181800000FF075C
:105A20000000F87F4FEA41034FEA5353A3F5806328
:105A3000D3F11E03C8BFD3F1210C0CDD4FF000429F
:105A400042EAC12242EA505232FA03FC8CEAE17C7B
:105A5000ACEBE1707047102BC4BF0020704703F51A
:105A6000787CBCF1FF3F04D06FF0004282EA210055
:105A7000704770B500F008F9499224800020704703
:105A8000F2E700004FEA1153A3F58063D3F11E0340
:105A9000A8BFD3F1200C08DB4FF0004242EAC1223C
:105AA00052EA505232FA03F0704709420BD4102BDD
:105AB000C4BF0020704703F5787CBCF1FF3F05D0E0
:105AC0004FF0FF3070474FF00000704770B500F0A6
:105AD000DBF800BF4992248000207047F0E710F007
