:020000040800F2
:10000000A00600203903000899150008B91400085B
:100010009115000849040008C917000800000000F5
:10002000000000000000000000000000D9150008DA
:100030005104000800000000D11500081116000846
:100040005703000857030008570300085703000828
:100050005703000857030008570300085703000818
:100060005703000857030008570300085703000808
:1000700057030008570300085703000857030008F8
:1000800057030008570300085703000857030008E8
:1000900057030008570300085703000857030008D8
:1000A00057030008570300085703000857030008C8
:1000B00057030008570300085703000857030008B8
:1000C00057030008570300085703000857030008A8
:1000D0005703000857030008570300085703000898
:1000E00057030008570300080000000057030008EA
:1000F0005703000857030008570300085703000878
:100100005703000857030008570300085703000867
:100110005703000857030008570300085703000857
:100120005703000857030008570300085703000847
:100130005703000857030008570300085703000837
:1001400000000000000000000000000000000000AF
:100150005703000857030008570300085703000817
:100160005703000857030008570300085703000807
:100170005703000857030008570300080000000059
:1001800057030008570300085703000857030008E7
:1001900057030008570300085703000857030008D7
:1001A00057030008570300085703000857030008C7
:1001B00057030008570300085703000857030008B7
:1001C00057030008570300085703000857030008A7
:1001D0005703000857030008570300085703000897
:1001E0005703000857030008570300085703000887
:1001F0005703000857030008570300085703000877
:100200005703000857030008570300085703000866
:100210005703000857030008570300085703000856
:1002200057030008570300085703000800000000A8
:100230005703000857030008000000005703000898
:100240005703000857030008570300085703000826
:100250005703000857030008570300085703000816
:100260005703000857030008570300085703000806
:100270005703000857030008570300080000000058
:100280005703000857030008570300080000000048
:10029000000000005703000800F002F800F03CF8EE
:1002A0000AA090E8000C82448344AAF10107DA45D1
:1002B00001D100F031F8AFF2090EBAE80F0013F0E7
:1002C000010F18BFFB1A43F0010318474016000046
:1002D00060160000103A24BF78C878C1FAD85207D7
:1002E00024BF30C830C144BF04680C6070470000B0
:1002F0000023002400250026103A28BF78C1FBD82F
:10030000520728BF30C148BF0B6070471FB501F0CE
:10031000E7FA1FBD10B510BD00F05CF81146FFF7FD
:10032000F5FF01F081FA00F07AF803B4FFF7F2FF6D
:1003300003BC00F081F800000A4880470A48804763
:100340000A480047FEE7FEE7FEE7FEE7FEE7FEE7B6
:10035000FEE7FEE7FEE7FEE705480649064A074BCB
:100360007047000061040008D916000899020008CF
:10037000A0000020A0060020A0020020A002002073
:100380004FF0000200B5134694469646203922BF2E
:10039000A0E80C50A0E80C50B1F12001BFF4F7AF79
:1003A000090728BFA0E80C5048BF0CC05DF804EB5B
:1003B000890028BF40F8042B08BF704748BF20F8C9
:1003C000022B11F0804F18BF00F8012B70477047C7
:1003D00070477047754600F02BF8AE460500694639
:1003E000534620F00700854618B020B5FFF7B4FF4C
:1003F000BDE820404FF000064FF000074FF0000826
:100400004FF0000BAC46ACE8C009ACE8C009ACE862
:10041000C009ACE8C00921F007018D46704710B54E
:100420000446AFF300802046BDE81040FFF77DBFD3
:10043000004870471000002001491820ABBEFEE7BD
:100440002600020070470000FEE7000000000000E8
:10045000704700000000000072B600BFFEE7000019
:1004600044F60C00C5F60200016841F0020101608B
:1004700050F8081C8904FBD57047000000000000FC
:1004800043F600010068C5F6000101F10C02801A74
:1004900018BF0120096821FA00F000F00100704740
:1004A000B0B582B0044600284FF00000019049D05A
:1004B00020680068002845D494F8250030B9002051
:1004C00084F82400A062204600F08EF8D4E90331BD
:1004D000E269194394E8015063691143A269194321
:1004E0004CF6E145036811430268CFF2E80541EAA2
:1004F0000E012A40BCF1100F41EA020101600168BF
:1005000021F0100108BF103101600168194049074E
:100510001BD540F2000142F66352C2F20001C0F264
:100520003E5209688909A1FB02129109142201EBCC
:10053000810102EB810100BF0191019929B101996B
:100540000139F9E7012002B0B0BD43F60C024FF4C7
:100550000011C5F600029042226A40F2840008BFF2
:100560004FF480115FEA827CC5F6000006D0D30606
:1005700008D44FF0B0431B688B4307E002688A43FE
:1005800002601EE04FF0B0431B680B434FF0B04ECB
:100590009506CEF8003003D450F8803C8B4302E03F
:1005A00050F8803C0B43BCF1000F40F8803C4160A8
:1005B00002D403688B4301E003680B43D207036056
:1005C00004D150F8042C22EA010102E050F8042C76
:1005D000114340F8041C94F8250010B9012084F858
:1005E0002500002002B0B0BD70B586B043F60C0106
:1005F0000068C5F60001002688420596CDE903662D
:100600000296019601D006B070BD44F2E04040F27F
:100610000044C5F60200C5F6020401AD416941F48B
:1006200080414161416901F4804100910099016874
:1006300041F004010160016801F00401009100999A
:10064000016841F0020101600068294600F00200E3
:1006500000900098202001900220CDE902060D2094
:10066000059004F58060049600F042F801200190A6
:1006700003202946CDE90206204600F039F806B0ED
:1006800070BD00000000000081B04FF0000100913B
:1006900058B301680A68002A27D490F82520012A57
:1006A00023D10A6842F001020A60022180F8251075
:1006B00040F2000042F66351C2F20000C0F23E5127
:1006C00000688009A0FB01016FF0070000EAD1007B
:1006D00008300090009828B10098013800900098E8
:1006E0000028F9D1002001B07047012001B0704707
:1006F0002DE9F04F83B00C68002C00F0C78000F1AA
:10070000264242F2004702F1FF72C5F602074FEAA5
:10071000B22201920A22B84208BF0922002500270E
:100720004FF00108009209E00C68043734FA08F22F
:1007300008F1010805F1020500F0A880A8F1010AFE
:10074000012202FA0AFE14EA0E09EDD0D1F804B033
:100750000BF00304A4F1010CBCF1010F11D803222A
:100760008668AA40CB6826EA0202AB401A43826040
:10077000CBF30013426822EA0E0203FA0AF31A438B
:100780004260032C02D18A68012A08D00323C26880
:10079000AB408E689A4306FA05F31A43C260022CF6
:1007A00011D16FF0030207F01C0602EA5A020F2370
:1007B000024403FA06F4D2F820C00B692CEA0404C0
:1007C000B3402343136203230268AB404E689A434D
:1007D00006F00303AB4016F4403F42EA0302026016
:1007E000A2D044F2F44340F2084EC5F60203C5F627
:1007F000000E1A6842F002021A601A6807F00C0331
:1008000002F002020292029A2AF00302019C009E68
:10081000092C38BF26460F2452F80EC09C402CEA03
:10082000040406FA03F34FF0B04C234342F80E30B1
:10083000DCF800204B6842EA0906DC0258BF22EAD5
:1008400009069C02CCF8006040F2040CC5F6000CCE
:10085000DCF8002042EA090658BF22EA09069C0398
:10086000CCF80060DCF8802042EA090658BF22EA92
:100870000906DB03CCF88060DCF87C2042EA09063C
:1008800058BF22EA0906CCF87C604DE703B0BDE80A
:10089000F08F00000000000041F20000C5F60040AB
:1008A0000068000C7047000040F29C00C2F200009B
:1008B000006870470000000040F2080040F29C0110
:1008C000C2F20000C2F2000100780A681044086019
:1008D000704700000000000080B5032000F0CCF855
:1008E00000F01EFA44F2184141F6FA03C5F602017F
:1008F000C0F600030A68096801F00F01C2F3032281
:10090000595C9A5C01F01F0102F01F02D04040F2D6
:100910000402C2F2000220FA01F1116040F200016B
:10092000C2F2000108600F2000F00AF800281CBF86
:10093000012080BD00F080F8002080BD0000000094
:10094000B0B540F20801C2F20001097801B30446D3
:1009500040F20000C2F200004FF47A72B2FBF1F1F3
:100960000068B0FBF1F000F0A3FD0F2C4FF0010583
:100970000CD858B94FF0FF3000222146002500F076
:100980006BF840F20C00C2F2000004602846B0BDD3
:100990000120B0BD0000000010B54EF6A05E417809
:1009A000CEF2000E90F800C04EF8081CDEF80010E1
:1009B00021F00101CEF8001041684EF8041C017BC3
:1009C000C37A827A447B1B0643EA0171837B41EA46
:1009D000C241C27B41EA8441447A41EA4341007A00
:1009E00041EA024141EA042141EA400040EA0C00A8
:1009F000CEF8000010BD00004EF62450CEF20000EC
:100A0000BFF35F8F016821F480310160002101672D
:100A100070470000000000004EF6245140F0010035
:100A2000CEF200010867086840F480300860BFF328
:100A30004F8FBFF36F8F704781B044F2F440C5F61B
:100A40000200016841F002010160006800F002004C
:100A50000090009801B0704770B514460D460646E8
:100A600000F0B6FE2946224600F09AFD01463046C7
:100A700000F0B6FE70BD000080B500F0C5FE80BD80
:100A8000B0B544F60C05C5F6020529684907296882
:100A900005D401F00701081A18BF0120B0BD21F0EC
:100AA000070108432860FFF7FFFE044655F8080CCD
:100AB000800407D4FFF7F8FE001BB0F57A7FF5D964
:100AC0000120B0BD0020B0BD2DE9F04381B0002869
:100AD00000F0F48042F200080446C5F2002889467E
:100AE000D8F8000000F00F0088420ED2D8F80000BD
:100AF00020F00F0040EA0900C8F80000D8F8000014
:100B000000F00F00484540F0D980206844F21847B3
:100B10004107C5F602070AD521693A6802F070025A
:100B2000914204D93A6822F07002114339600107FA
:100B30000AD561697A6802F07002914204D97A6834
:100B400022F0700211437960C1060AD5A1697A6862
:100B500002F4E062914204D97A6822F4E06211431F
:100B6000796081060AD5E169BA6802F070029142A3
:100B700004D9BA6822F070021143B96081070AD51E
:100B8000E1683A6802F00F02914204D93A6822F013
:100B90000F0211433960C0077ED1206881070AD552
:100BA000E1683A6802F00F02914204D23A6822F0FA
:100BB0000F0211433960D8F8001001F00F014945C8
:100BC0000DD9D8F8001021F00F0141EA0901C8F849
:100BD0000010D8F8001001F00F0149456ED141070F
:100BE0000AD521693A6802F07002914204D23A684B
:100BF00022F070021143396001070AD561697A68F1
:100C000002F07002914204D27A6822F0700211431D
:100C10007960C1060AD5A1697A6802F4E06291425E
:100C200004D27A6822F4E0621143796080060AD522
:100C3000E069B96801F07001884204D2B96821F016
:100C400070010843B86000F06BF8396841F6FA02A9
:100C5000C0F600023B68C1F3032103F00F03515CAF
:100C6000D25C01F01F01C84002F01F0140F20402F3
:100C700020FA01F1C2F20002116040F2000140F2DC
:100C80000C02C2F20001C2F2000208601068FFF715
:100C900057FE01B0BDE8F083386820F47061D4E9F4
:100CA0000102012841EA020139600BD003282BD050
:100CB00002282ED157F8181C890307D4012001B04F
:100CC000BDE8F08357F8181CC905F7D557F8081C7C
:100CD00021F00701084347F8080CFFF7E5FD064639
:100CE00041F2883557F8080C616800F03800B0EB25
:100CF000C10F3FF452AFFFF7D7FD801BA842F1D9D7
:100D0000032001B0BDE8F08357F8181C8901D5D540
:100D1000DCE757F8181C4907D0D5D7E700000000DA
:100D200044F20041C5F602010869C0F3C20003287D
:100D30000FD002282AD070BB0868800649F2000054
:100D4000C0F2D03058BF70470968C1F3C101C84034
:100D500070478A6A886AC0F3051CC86ABCF1000F34
:100D60004B6B1DD0C3F3CC0300F00100584302F0DD
:100D70000302022A00EE100AB8EE400A12D0A2B90D
:100D80000868800614D49FED261A1EE047F640003E
:100D9000C0F27D10704740F60010C0F23D00704771
:100DA000002070479FED1D1A0FE09FED1B1A0CE00D
:100DB000086849F20002C0F2D032C0F3C10022FA42
:100DC00000F001EE100AB8EE411A086B9FED153ADB
:100DD0006FF35F2002EE100A086BC0F34620B8EEF6
:100DE000422A013000EE032A00EE10CAB7EE003AA4
:100DF000B8EE400A81EE000A32EE031A20EE010A34
:100E000001EE100AB8EE411A80EE010ABCEEC00AEB
:100E100010EE100A704700BF0024744A20BCBE4B7D
:100E20000024744C000000392DE9F04381B0F8B182
:100E30008046007844F20049C007C5F602095AD03E
:100E4000D9F8100000F03801D9F82800102905D091
:100E500018290FD100F0030002280BD1D9F80000A7
:100E6000800344D5D8F80400002840D101272FE0A2
:100E7000012718E3D8F804402CB1B4F5A02F0DD009
:100E8000B4F5803F10D0D9F8000020F48030C9F8C4
:100E90000000D9F8000020F4802009E0D9F8000013
:100EA00040F48020C9F80000D9F8000040F48030F8
:100EB000C9F80000FFF7F8FC0546A4B1D9F8000016
:100EC000800314D4FFF7F0FC401B6428F6D90327F5
:100ED0000020002800F0E7820DE000BFFFF7E4FCEF
:100EE000401B6428F3D8D9F800008003F6D4012011
:100EF000002800F0D88298F80000800740F1848034
:100F0000D9F8100010F03801D9F828001CD01829A1
:100F100008BF5FEA807017D0D8F80C00D9F800102D
:100F2000002847D021F019010843C9F80000FFF755
:100F3000BBFC0546D9F8000040072AD4FFF7B4FCF3
:100F4000401B0228F6D91EE0D9F80000400704D55E
:100F5000D8F80C00002800F09681D9F80000D8F8E5
:100F60000C1020F019000843C9F80000FFF79CFCA2
:100F7000054600BFD9F8000040070AD4FFF794FCEB
:100F8000401B0228F6D903270024002C00F08B8296
:100F90003AE0FFF781FC41F20301884223D8D8F8F8
:100FA0001000D9F80410402821F47C3124D141F4F8
:100FB000003023E021F00100C9F80000FFF774FCC5
:100FC00005460126D9F8000010F0040086EA9004D6
:100FD00017D0FFF769FC401B0328F3D30327002C2D
:100FE00000F0618210E0D9F80400D8F8101020F069
:100FF000FE4040EA016001E041EA0030C9F8040027
:101000000124002C00F04F8298F80000C00674D52F
:10101000D9F8100000F03801D9F82800082905D0C7
:1010200018291CD100F00300012818D1D9F80000BC
:10103000C00503D5D8F81C00802859D1FFF72CFC37
:1010400041F20301884222D8D8F82000D9F80410D0
:10105000202821F0F84142D141F0804041E0D8F809
:101060001C000028D9F8000020D040F08000C9F80A
:101070000000FFF719FC0546D9F80000C005DDD4D3
:10108000FFF712FC401B0228F6D9032731E0D9F8FC
:101090000C00D8F8201020F07C50012440EA0160B8
:1010A000C9F80C00002C00F0FE8126E020F0800042
:1010B000C9F80000FFF7F8FB05460126D9F8000043
:1010C00010F4807086EA10240ED0FFF7EDFB401B71
:1010D0000328F3D30327002C00F0E5810DE041EA5B
:1010E0008060C9F804000124002C00F0DC8104E0D9
:1010F00001270024002C00F0D68198F8000000079A
:101100001CD498F80000800631D498F800004007FD
:1011100045D4D8F82440002C00F09180D9F8100074
:1011200000F03800182840F08C80012CD9F82810E5
:10113000D9F8300040F0A9800127B4E1D8F81400B4
:101140000028D9F874003ED040F00100C9F87400BE
:10115000FFF7AAFB054600BFD9F874008007D0D47A
:10116000FFF7A2FB401B0228F6D903279BE1D8F822
:1011700018000028D9F800004DD040F48050C9F87C
:101180000000FFF791FB0546D9F800008004BCD4AD
:10119000FFF78AFB401B0228F6D9032783E1D9F821
:1011A000000440F48070C9F80004FFF77DFB054699
:1011B000D9F80004C0051AD4FFF776FB401B642859
:1011C000F6D903276FE120F00100C9F87400FFF79A
:1011D0006BFB0546032700BFD9F8740080077FF535
:1011E00090AFFFF761FB401B0228F5D95BE1D8F80F
:1011F00008402CB1052C00F08280012C00F0858085
:10120000D9F8700020F00100C9F87000D9F870001A
:1012100020F004007DE020F48050C9F80000FFF7C2
:1012200043FB0546032700BFD9F8000080047FF583
:101230006CAFFFF739FB401B0228F5D933E10027DB
:1012400031E1D9F8000020F08070C9F80000FFF704
:101250002BFB022C05464FF0030709D1D9F80000FB
:10126000800178D5FFF720FB401B0228F6D91AE150
:10127000D9F80000800140F1E780FFF715FB401B23
:101280000228F5D90FE101277EE601F00302D8F824
:1012900028309A4240F0DA80C1F30511D8F82C20AA
:1012A000914240F0D7800146D8F830206FF35F219B
:1012B000013A914240F0D080C0F34622D8F8341071
:1012C00001398A4240F0CA80C0F30642D8F838108B
:1012D00001398A4240F0C480C0F30660D8F83C105F
:1012E0000139884240F0BE80D9F83400D8F848105F
:1012F000C0F3CC00814240F0B7800027D3E0D9F89A
:10130000700040F00400C9F87000D9F8700040F097
:101310000100C9F87000FFF7C7FA002C054641F23A
:1013200088344FF0030711D0D9F8700080073FF5DB
:10133000F0AEFFF7B9FA401BA042F5D9B3E000BF09
:10134000FFF7B2FA401BA04200F2AD80D9F870005E
:101350008007F5D4DDE608F12807D9F8280040F227
:10136000F33188438ECF0843591E40EA02104FF4F0
:101370007E426FF35F21C9F8280002EB47204FF44B
:10138000FE0280B2D8F83C300844D8F8381002EB9E
:1013900001414FF0FE4201F4FE0102EB03620844FA
:1013A00002F0FE410844C9F83000D9F82C004FF68D
:1013B000F87120F00100C9F82C00D9F83400D8F8F1
:1013C0004820884340EAC200C9F83400D9F82C000C
:1013D000D8F8401020F00C000843C9F82C00D9F8C8
:1013E0002C00D8F8441020F002000843C9F82C0063
:1013F000D9F82C0040F48030C9F82C00D9F82C0022
:1014000040F40030C9F82C00D9F82C0040F48020BA
:10141000C9F82C00D9F82C0040F00100C9F82C00C4
:10142000D9F8000040F08070C9F80000FFF73CFADE
:1014300004460327D9F80000800109D4FFF734FAE5
:10144000001B0228F6D92EE000272CE001272AE015
:10145000002728E0012726E0012724E0012722E0D9
:10146000012720E001271EE0D9F82C0020F0010020
:10147000C9F82C00FFF718FA0546FFF715FAA8423D
:10148000FBD0D9F834004FF6F871D8F848208843DB
:10149000002740EAC200C9F83400D9F82C0040F017
:1014A0000100C9F82C00F8B201B0BDE8F0830000DB
:1014B00080B500F095F880BDFEE700000000000058
:1014C00010B584B00024CDE90244CDE90044FFF713
:1014D00093FA0120ADF800008DF80A0068464FF03D
:1014E000105101910821ADF80810CDF80B408DF88E
:1014F0000F40FFF751FA0620FFF78EFA04B010BD37
:1015000080B540F2700043F60C01C2F20000C5F64F
:101510000001062201600021C0E90111C160C0E99B
:101520000421C0E906110162FEF7BAFF002808BFD6
:1015300080BDFEF791FF80BD81B044F2E040C5F66A
:101540000200016841F004010160016801F004013A
:1015500000910099016841F080010160016801F08B
:10156000800100910099016841F002010160016869
:1015700001F0020100910099016841F00101016050
:10158000006800F001000090009801B07047000072
:10159000FEE7000000000000FEE700000000000081
:1015A00000F007004FF0FF3C80F00703042B28BF3A
:1015B0000423033838BF00200CFA03F399430CFAD4
:1015C00000F301FA00F022EA03010843704700002B
:1015D000704700000000000070470000000000009D
:1015E000B0B501380024B4EB106F01D00120B0BDBC
:1015F0004EF210050F21CEF2000568604FF0FF306B
:1016000000F0EEF8AC60072028602046B0BD000076
:1016100080B5FFF751F980BDB0B59CB044F6180411
:1016200009A84C21C5F60204FEF7AAFE02200025F7
:10163000CDE90755CDE90555CDE90355CDE901556E
:10164000FFF71EFA0095206840F4404020602068B3
:1016500000F44040009040F22C40C5F600000168C4
:1016600041F001010160006800F001000090009865
:1016700020688004FCD50220099001210C91129071
:101680000025042114913C214024CDE91510CDE919
:1016900017000C200D94CDE9190509A813951B9589
:1016A000FFF7C2FBA0B93F20019003200421CDE940
:1016B000020508200694CDE904044FF48060CDE9CA
:1016C000070401A8FFF700FA002804BF1CB0B0BD52
:1016D000FEF7C2FE000000004EF6885042F2000CF9
:1016E000CEF20000C5F2002C016841F470010160E7
:1016F000DCF8000000F00F00062806D8DCF8000037
:10170000072161F30300CCF8000044F200404EF6DC
:101710007F52C5F60200CEF6F622016841F00101C3
:1017200001600021016103681A400260DCF80020BA
:10173000120706D5DCF80020072363F30302CCF878
:10174000002040F200228161C161C0F202220162E8
:1017500082620022C0F2FF12C26240F28022C0F216
:101760000112026341638263C163026441640268DF
:1017700022F48022026041F200020166C5F60042B6
:101780001268B1EB527F05D148F208110122C5F26F
:1017900000110A60D0F8D410C90448BF7047D0F8CF
:1017A000D41043F2D20241F48051C0F8D41044F274
:1017B0000001C5F200210A60D0F8D41021F4805154
:1017C000C0F8D41070470000FEE7000000000000E1
:1017D0004EF60C50CEF200000068C0F302207047B5
:1017E0004EF6145300F00F02CEF20003B0F1FF3FAB
:1017F0001A4400F16043C8BF03F564420801107049
:1018000070470000000000004EF60C514FF6FF0339
:10181000CEF200010A681A4060F30A2242F08060AA
:1018200040F0FD70086070474EF61454CEF200048C
:10183000FFF746FE2068800312D4BFF34F8FBFF33B
:101840006F8F0020C4F83C02BFF34F8FBFF36F8F40
:10185000206840F400302060BFF34F8FBFF36F8FDC
:101860002068C00328D400202067BFF34F8FE06EAC
:1018700043F6E07CC0F3C902C0F34E3102F1010E21
:10188000900700BF0CEA41130246754642EA030680
:10189000013D02F14042C4F84C62F7D10029A1F1A8
:1018A0000101EFD1BFF34F8F206840F480302060FA
:1018B000BFF34F8FBFF36F8FFFF70EF8FFF7ACFE4C
:1018C000FFF73AFEFFF71CFE40F27004C2F200047C
:1018D0002046FEF7D9FE00BF2046FEF7D1FDFBE70C
:1018E000F1EE100A4FF6FF71C0F2C03120EA01009C
:1018F00040F04070E1EE100A704700000000010265
:101900000304010203040607080900003019000857
:101910000000002010000000D40200084019000858
:101920001000002090060000F002000800000000F7
:101930000090D0030090D0030100000010000000D0
:040000050800029954
:00000001FF
